{
  "address": "0xffa7CA1AEEEbBc30C874d32C7e22F052BbEa0429",
  "abi": [
    {
      "inputs": [],
      "stateMutability": "nonpayable",
      "type": "constructor"
    },
    {
      "anonymous": false,
      "inputs": [
        {
          "indexed": true,
          "internalType": "address",
          "name": "owner",
          "type": "address"
        },
        {
          "indexed": true,
          "internalType": "address",
          "name": "approved",
          "type": "address"
        },
        {
          "indexed": true,
          "internalType": "uint256",
          "name": "tokenId",
          "type": "uint256"
        }
      ],
      "name": "Approval",
      "type": "event"
    },
    {
      "anonymous": false,
      "inputs": [
        {
          "indexed": true,
          "internalType": "address",
          "name": "owner",
          "type": "address"
        },
        {
          "indexed": true,
          "internalType": "address",
          "name": "operator",
          "type": "address"
        },
        {
          "indexed": false,
          "internalType": "bool",
          "name": "approved",
          "type": "bool"
        }
      ],
      "name": "ApprovalForAll",
      "type": "event"
    },
    {
      "anonymous": false,
      "inputs": [
        {
          "indexed": true,
          "internalType": "address",
          "name": "previousOwner",
          "type": "address"
        },
        {
          "indexed": true,
          "internalType": "address",
          "name": "newOwner",
          "type": "address"
        }
      ],
      "name": "OwnershipTransferred",
      "type": "event"
    },
    {
      "anonymous": false,
      "inputs": [
        {
          "indexed": true,
          "internalType": "address",
          "name": "from",
          "type": "address"
        },
        {
          "indexed": true,
          "internalType": "address",
          "name": "to",
          "type": "address"
        },
        {
          "indexed": true,
          "internalType": "uint256",
          "name": "tokenId",
          "type": "uint256"
        }
      ],
      "name": "Transfer",
      "type": "event"
    },
    {
      "inputs": [
        {
          "internalType": "address",
          "name": "to",
          "type": "address"
        },
        {
          "internalType": "uint256",
          "name": "tokenId",
          "type": "uint256"
        }
      ],
      "name": "approve",
      "outputs": [],
      "stateMutability": "nonpayable",
      "type": "function"
    },
    {
      "inputs": [
        {
          "internalType": "address",
          "name": "owner",
          "type": "address"
        }
      ],
      "name": "balanceOf",
      "outputs": [
        {
          "internalType": "uint256",
          "name": "",
          "type": "uint256"
        }
      ],
      "stateMutability": "view",
      "type": "function"
    },
    {
      "inputs": [
        {
          "internalType": "uint256",
          "name": "",
          "type": "uint256"
        },
        {
          "internalType": "uint256",
          "name": "",
          "type": "uint256"
        }
      ],
      "name": "componentByTankId",
      "outputs": [
        {
          "internalType": "uint256",
          "name": "blockAdded",
          "type": "uint256"
        },
        {
          "internalType": "uint256",
          "name": "id",
          "type": "uint256"
        },
        {
          "internalType": "address",
          "name": "addr",
          "type": "address"
        },
        {
          "internalType": "uint8",
          "name": "x",
          "type": "uint8"
        },
        {
          "internalType": "uint8",
          "name": "y",
          "type": "uint8"
        },
        {
          "internalType": "uint8",
          "name": "scale",
          "type": "uint8"
        },
        {
          "internalType": "int8",
          "name": "dx",
          "type": "int8"
        },
        {
          "internalType": "int8",
          "name": "dy",
          "type": "int8"
        }
      ],
      "stateMutability": "view",
      "type": "function"
    },
    {
      "inputs": [
        {
          "internalType": "uint256",
          "name": "tokenId",
          "type": "uint256"
        }
      ],
      "name": "getApproved",
      "outputs": [
        {
          "internalType": "address",
          "name": "",
          "type": "address"
        }
      ],
      "stateMutability": "view",
      "type": "function"
    },
    {
      "inputs": [
        {
          "internalType": "address",
          "name": "owner",
          "type": "address"
        },
        {
          "internalType": "address",
          "name": "operator",
          "type": "address"
        }
      ],
      "name": "isApprovedForAll",
      "outputs": [
        {
          "internalType": "bool",
          "name": "",
          "type": "bool"
        }
      ],
      "stateMutability": "view",
      "type": "function"
    },
    {
      "inputs": [],
      "name": "mintItem",
      "outputs": [
        {
          "internalType": "uint256",
          "name": "",
          "type": "uint256"
        }
      ],
      "stateMutability": "payable",
      "type": "function"
    },
    {
      "inputs": [],
      "name": "name",
      "outputs": [
        {
          "internalType": "string",
          "name": "",
          "type": "string"
        }
      ],
      "stateMutability": "view",
      "type": "function"
    },
    {
      "inputs": [],
      "name": "owner",
      "outputs": [
        {
          "internalType": "address",
          "name": "",
          "type": "address"
        }
      ],
      "stateMutability": "view",
      "type": "function"
    },
    {
      "inputs": [
        {
          "internalType": "uint256",
          "name": "tokenId",
          "type": "uint256"
        }
      ],
      "name": "ownerOf",
      "outputs": [
        {
          "internalType": "address",
          "name": "",
          "type": "address"
        }
      ],
      "stateMutability": "view",
      "type": "function"
    },
    {
      "inputs": [],
      "name": "price",
      "outputs": [
        {
          "internalType": "uint256",
          "name": "",
          "type": "uint256"
        }
      ],
      "stateMutability": "view",
      "type": "function"
    },
    {
      "inputs": [
        {
          "internalType": "uint256",
          "name": "id",
          "type": "uint256"
        }
      ],
      "name": "renderTokenById",
      "outputs": [
        {
          "internalType": "string",
          "name": "",
          "type": "string"
        }
      ],
      "stateMutability": "view",
      "type": "function"
    },
    {
      "inputs": [],
      "name": "renounceOwnership",
      "outputs": [],
      "stateMutability": "nonpayable",
      "type": "function"
    },
    {
      "inputs": [
        {
          "internalType": "uint256",
          "name": "_id",
          "type": "uint256"
        }
      ],
      "name": "returnAll",
      "outputs": [],
      "stateMutability": "nonpayable",
      "type": "function"
    },
    {
      "inputs": [
        {
          "internalType": "address",
          "name": "from",
          "type": "address"
        },
        {
          "internalType": "address",
          "name": "to",
          "type": "address"
        },
        {
          "internalType": "uint256",
          "name": "tokenId",
          "type": "uint256"
        }
      ],
      "name": "safeTransferFrom",
      "outputs": [],
      "stateMutability": "nonpayable",
      "type": "function"
    },
    {
      "inputs": [
        {
          "internalType": "address",
          "name": "from",
          "type": "address"
        },
        {
          "internalType": "address",
          "name": "to",
          "type": "address"
        },
        {
          "internalType": "uint256",
          "name": "tokenId",
          "type": "uint256"
        },
        {
          "internalType": "bytes",
          "name": "_data",
          "type": "bytes"
        }
      ],
      "name": "safeTransferFrom",
      "outputs": [],
      "stateMutability": "nonpayable",
      "type": "function"
    },
    {
      "inputs": [],
      "name": "senEthToOwner",
      "outputs": [],
      "stateMutability": "nonpayable",
      "type": "function"
    },
    {
      "inputs": [
        {
          "internalType": "address",
          "name": "operator",
          "type": "address"
        },
        {
          "internalType": "bool",
          "name": "approved",
          "type": "bool"
        }
      ],
      "name": "setApprovalForAll",
      "outputs": [],
      "stateMutability": "nonpayable",
      "type": "function"
    },
    {
      "inputs": [
        {
          "internalType": "bytes4",
          "name": "interfaceId",
          "type": "bytes4"
        }
      ],
      "name": "supportsInterface",
      "outputs": [
        {
          "internalType": "bool",
          "name": "",
          "type": "bool"
        }
      ],
      "stateMutability": "view",
      "type": "function"
    },
    {
      "inputs": [],
      "name": "symbol",
      "outputs": [
        {
          "internalType": "string",
          "name": "",
          "type": "string"
        }
      ],
      "stateMutability": "view",
      "type": "function"
    },
    {
      "inputs": [
        {
          "internalType": "uint256",
          "name": "index",
          "type": "uint256"
        }
      ],
      "name": "tokenByIndex",
      "outputs": [
        {
          "internalType": "uint256",
          "name": "",
          "type": "uint256"
        }
      ],
      "stateMutability": "view",
      "type": "function"
    },
    {
      "inputs": [
        {
          "internalType": "address",
          "name": "owner",
          "type": "address"
        },
        {
          "internalType": "uint256",
          "name": "index",
          "type": "uint256"
        }
      ],
      "name": "tokenOfOwnerByIndex",
      "outputs": [
        {
          "internalType": "uint256",
          "name": "",
          "type": "uint256"
        }
      ],
      "stateMutability": "view",
      "type": "function"
    },
    {
      "inputs": [
        {
          "internalType": "uint256",
          "name": "id",
          "type": "uint256"
        }
      ],
      "name": "tokenURI",
      "outputs": [
        {
          "internalType": "string",
          "name": "",
          "type": "string"
        }
      ],
      "stateMutability": "view",
      "type": "function"
    },
    {
      "inputs": [],
      "name": "totalSupply",
      "outputs": [
        {
          "internalType": "uint256",
          "name": "",
          "type": "uint256"
        }
      ],
      "stateMutability": "view",
      "type": "function"
    },
    {
      "inputs": [
        {
          "internalType": "address",
          "name": "from",
          "type": "address"
        },
        {
          "internalType": "address",
          "name": "to",
          "type": "address"
        },
        {
          "internalType": "uint256",
          "name": "tokenId",
          "type": "uint256"
        }
      ],
      "name": "transferFrom",
      "outputs": [],
      "stateMutability": "nonpayable",
      "type": "function"
    },
    {
      "inputs": [
        {
          "internalType": "address",
          "name": "nftAddr",
          "type": "address"
        },
        {
          "internalType": "uint256",
          "name": "tokenId",
          "type": "uint256"
        },
        {
          "internalType": "uint256",
          "name": "tankId",
          "type": "uint256"
        },
        {
          "internalType": "uint8",
          "name": "scale",
          "type": "uint8"
        }
      ],
      "name": "transferNFT",
      "outputs": [],
      "stateMutability": "nonpayable",
      "type": "function"
    },
    {
      "inputs": [
        {
          "internalType": "address",
          "name": "newOwner",
          "type": "address"
        }
      ],
      "name": "transferOwnership",
      "outputs": [],
      "stateMutability": "nonpayable",
      "type": "function"
    }
  ],
  "transactionHash": "0xdf3bf8b18d4c3057fef7e0e1be5d60f07190870e6798f48226929825eecc9962",
  "args": [],
  "solcInputHash": "e169c7cd9db85a339f646d1884dbb893",
  "bytecode": "0x60806040523480156200001157600080fd5b506040518060400160405280600481526020017f54616e6b000000000000000000000000000000000000000000000000000000008152506040518060400160405280600481526020017f54414e4b00000000000000000000000000000000000000000000000000000000815250816000908051906020019062000096929190620001a6565b508060019080519060200190620000af929190620001a6565b505050620000d2620000c6620000d860201b60201c565b620000e060201b60201c565b620002bb565b600033905090565b6000600a60009054906101000a900473ffffffffffffffffffffffffffffffffffffffff16905081600a60006101000a81548173ffffffffffffffffffffffffffffffffffffffff021916908373ffffffffffffffffffffffffffffffffffffffff1602179055508173ffffffffffffffffffffffffffffffffffffffff168173ffffffffffffffffffffffffffffffffffffffff167f8be0079c531659141344cd1fd0a4f28419497f9722a3daafe3b4186f6b6457e060405160405180910390a35050565b828054620001b49062000256565b90600052602060002090601f016020900481019282620001d8576000855562000224565b82601f10620001f357805160ff191683800117855562000224565b8280016001018555821562000224579182015b828111156200022357825182559160200191906001019062000206565b5b50905062000233919062000237565b5090565b5b808211156200025257600081600090555060010162000238565b5090565b600060028204905060018216806200026f57607f821691505b602082108114156200028657620002856200028c565b5b50919050565b7f4e487b7100000000000000000000000000000000000000000000000000000000600052602260045260246000fd5b615d8f80620002cb6000396000f3fe6080604052600436106101815760003560e01c80638da5cb5b116100d1578063c87b56dd1161008a578063eb93406b11610064578063eb93406b146105b8578063f2fde38b146105d6578063fd1913fc146105ff578063fe1855e51461061657610181565b8063c87b56dd14610515578063e985e9c514610552578063eb784c6b1461058f57610181565b80638da5cb5b1461040557806395d89b4114610430578063a035b1fe1461045b578063a22cb46514610486578063a2d6c6da146104af578063b88d4fde146104ec57610181565b806323b872dd1161013e5780634f6ccce7116101185780634f6ccce7146103375780636352211e1461037457806370a08231146103b1578063715018a6146103ee57610181565b806323b872dd146102a85780632f745c59146102d157806342842e0e1461030e57610181565b806301ffc9a71461018657806306fdde03146101c3578063081812fc146101ee578063095ea7b31461022b578063115bdd801461025457806318160ddd1461027d575b600080fd5b34801561019257600080fd5b506101ad60048036038101906101a89190613aee565b61065a565b6040516101ba91906147cb565b60405180910390f35b3480156101cf57600080fd5b506101d86106d4565b6040516101e591906147e6565b60405180910390f35b3480156101fa57600080fd5b5061021560048036038101906102109190613b81565b610766565b604051610222919061472d565b60405180910390f35b34801561023757600080fd5b50610252600480360381019061024d9190613a4f565b6107eb565b005b34801561026057600080fd5b5061027b60048036038101906102769190613b81565b610903565b005b34801561028957600080fd5b50610292610b22565b60405161029f9190614b48565b60405180910390f35b3480156102b457600080fd5b506102cf60048036038101906102ca9190613949565b610b2f565b005b3480156102dd57600080fd5b506102f860048036038101906102f39190613a4f565b610b8f565b6040516103059190614b48565b60405180910390f35b34801561031a57600080fd5b5061033560048036038101906103309190613949565b610c34565b005b34801561034357600080fd5b5061035e60048036038101906103599190613b81565b610c54565b60405161036b9190614b48565b60405180910390f35b34801561038057600080fd5b5061039b60048036038101906103969190613b81565b610ceb565b6040516103a8919061472d565b60405180910390f35b3480156103bd57600080fd5b506103d860048036038101906103d391906138bb565b610d9d565b6040516103e59190614b48565b60405180910390f35b3480156103fa57600080fd5b50610403610e55565b005b34801561041157600080fd5b5061041a610edd565b604051610427919061472d565b60405180910390f35b34801561043c57600080fd5b50610445610f07565b60405161045291906147e6565b60405180910390f35b34801561046757600080fd5b50610470610f99565b60405161047d9190614b48565b60405180910390f35b34801561049257600080fd5b506104ad60048036038101906104a89190613a13565b610f9e565b005b3480156104bb57600080fd5b506104d660048036038101906104d19190613b81565b61111f565b6040516104e391906147e6565b60405180910390f35b3480156104f857600080fd5b50610513600480360381019061050e9190613998565b611156565b005b34801561052157600080fd5b5061053c60048036038101906105379190613b81565b6111b8565b60405161054991906147e6565b60405180910390f35b34801561055e57600080fd5b506105796004803603810190610574919061390d565b6112ed565b60405161058691906147cb565b60405180910390f35b34801561059b57600080fd5b506105b660048036038101906105b19190613a8b565b611381565b005b6105c0611a05565b6040516105cd9190614b48565b60405180910390f35b3480156105e257600080fd5b506105fd60048036038101906105f891906138bb565b611a74565b005b34801561060b57600080fd5b50610614611b6c565b005b34801561062257600080fd5b5061063d60048036038101906106389190613baa565b611c22565b604051610651989796959493929190614b63565b60405180910390f35b60007f780e9d63000000000000000000000000000000000000000000000000000000007bffffffffffffffffffffffffffffffffffffffffffffffffffffffff1916827bffffffffffffffffffffffffffffffffffffffffffffffffffffffff191614806106cd57506106cc82611ce8565b5b9050919050565b6060600080546106e390614ecf565b80601f016020809104026020016040519081016040528092919081815260200182805461070f90614ecf565b801561075c5780601f106107315761010080835404028352916020019161075c565b820191906000526020600020905b81548152906001019060200180831161073f57829003601f168201915b5050505050905090565b600061077182611dca565b6107b0576040517f08c379a00000000000000000000000000000000000000000000000000000000081526004016107a7906149c8565b60405180910390fd5b6004600083815260200190815260200160002060009054906101000a900473ffffffffffffffffffffffffffffffffffffffff169050919050565b60006107f682610ceb565b90508073ffffffffffffffffffffffffffffffffffffffff168373ffffffffffffffffffffffffffffffffffffffff161415610867576040517f08c379a000000000000000000000000000000000000000000000000000000000815260040161085e90614a68565b60405180910390fd5b8073ffffffffffffffffffffffffffffffffffffffff16610886611e36565b73ffffffffffffffffffffffffffffffffffffffff1614806108b557506108b4816108af611e36565b6112ed565b5b6108f4576040517f08c379a00000000000000000000000000000000000000000000000000000000081526004016108eb90614948565b60405180910390fd5b6108fe8383611e3e565b505050565b61090c81610ceb565b73ffffffffffffffffffffffffffffffffffffffff163373ffffffffffffffffffffffffffffffffffffffff1614610979576040517f08c379a000000000000000000000000000000000000000000000000000000000815260040161097090614aa8565b60405180910390fd5b60005b600c600083815260200190815260200160002080549050811015610aff57600c600083815260200190815260200160002081815481106109e5577f4e487b7100000000000000000000000000000000000000000000000000000000600052603260045260246000fd5b906000526020600020906003020160020160009054906101000a900473ffffffffffffffffffffffffffffffffffffffff1673ffffffffffffffffffffffffffffffffffffffff166323b872dd30610a3c85610ceb565b600c60008781526020019081526020016000208581548110610a87577f4e487b7100000000000000000000000000000000000000000000000000000000600052603260045260246000fd5b9060005260206000209060030201600101546040518463ffffffff1660e01b8152600401610ab793929190614748565b600060405180830381600087803b158015610ad157600080fd5b505af1925050508015610ae2575060015b610aeb57610aec565b5b8080610af790614f32565b91505061097c565b50600c60008281526020019081526020016000206000610b1f9190613682565b50565b6000600880549050905090565b610b40610b3a611e36565b82611ef7565b610b7f576040517f08c379a0000000000000000000000000000000000000000000000000000000008152600401610b7690614a88565b60405180910390fd5b610b8a838383611fd5565b505050565b6000610b9a83610d9d565b8210610bdb576040517f08c379a0000000000000000000000000000000000000000000000000000000008152600401610bd290614828565b60405180910390fd5b600660008473ffffffffffffffffffffffffffffffffffffffff1673ffffffffffffffffffffffffffffffffffffffff168152602001908152602001600020600083815260200190815260200160002054905092915050565b610c4f83838360405180602001604052806000815250611156565b505050565b6000610c5e610b22565b8210610c9f576040517f08c379a0000000000000000000000000000000000000000000000000000000008152600401610c9690614ac8565b60405180910390fd5b60088281548110610cd9577f4e487b7100000000000000000000000000000000000000000000000000000000600052603260045260246000fd5b90600052602060002001549050919050565b6000806002600084815260200190815260200160002060009054906101000a900473ffffffffffffffffffffffffffffffffffffffff169050600073ffffffffffffffffffffffffffffffffffffffff168173ffffffffffffffffffffffffffffffffffffffff161415610d94576040517f08c379a0000000000000000000000000000000000000000000000000000000008152600401610d8b90614988565b60405180910390fd5b80915050919050565b60008073ffffffffffffffffffffffffffffffffffffffff168273ffffffffffffffffffffffffffffffffffffffff161415610e0e576040517f08c379a0000000000000000000000000000000000000000000000000000000008152600401610e0590614968565b60405180910390fd5b600360008373ffffffffffffffffffffffffffffffffffffffff1673ffffffffffffffffffffffffffffffffffffffff168152602001908152602001600020549050919050565b610e5d611e36565b73ffffffffffffffffffffffffffffffffffffffff16610e7b610edd565b73ffffffffffffffffffffffffffffffffffffffff1614610ed1576040517f08c379a0000000000000000000000000000000000000000000000000000000008152600401610ec8906149e8565b60405180910390fd5b610edb6000612231565b565b6000600a60009054906101000a900473ffffffffffffffffffffffffffffffffffffffff16905090565b606060018054610f1690614ecf565b80601f0160208091040260200160405190810160405280929190818152602001828054610f4290614ecf565b8015610f8f5780601f10610f6457610100808354040283529160200191610f8f565b820191906000526020600020905b815481529060010190602001808311610f7257829003601f168201915b5050505050905090565b600181565b610fa6611e36565b73ffffffffffffffffffffffffffffffffffffffff168273ffffffffffffffffffffffffffffffffffffffff161415611014576040517f08c379a000000000000000000000000000000000000000000000000000000000815260040161100b906148e8565b60405180910390fd5b8060056000611021611e36565b73ffffffffffffffffffffffffffffffffffffffff1673ffffffffffffffffffffffffffffffffffffffff16815260200190815260200160002060008473ffffffffffffffffffffffffffffffffffffffff1673ffffffffffffffffffffffffffffffffffffffff16815260200190815260200160002060006101000a81548160ff0219169083151502179055508173ffffffffffffffffffffffffffffffffffffffff166110ce611e36565b73ffffffffffffffffffffffffffffffffffffffff167f17307eab39ab6107e8899845ad3d59bd9653f200f220920489ca2b5937696c318360405161111391906147cb565b60405180910390a35050565b6060600061112c836122f7565b60405160200161113c91906146d4565b604051602081830303815290604052905080915050919050565b611167611161611e36565b83611ef7565b6111a6576040517f08c379a000000000000000000000000000000000000000000000000000000000815260040161119d90614a88565b60405180910390fd5b6111b28484848461270c565b50505050565b60606111c382611dca565b611202576040517f08c379a00000000000000000000000000000000000000000000000000000000081526004016111f990614a48565b60405180910390fd5b600061120d83612768565b60405160200161121d91906146b2565b6040516020818303038152906040529050600060405160200161123f9061469d565b6040516020818303038152906040529050600061126361125e86612915565b61294c565b90506112c4838361129c60146112788a610ceb565b73ffffffffffffffffffffffffffffffffffffffff16612af790919063ffffffff16565b846040516020016112b09493929190614612565b60405160208183030381529060405261294c565b6040516020016112d491906146f6565b6040516020818303038152906040529350505050919050565b6000600560008473ffffffffffffffffffffffffffffffffffffffff1673ffffffffffffffffffffffffffffffffffffffff16815260200190815260200160002060008373ffffffffffffffffffffffffffffffffffffffff1673ffffffffffffffffffffffffffffffffffffffff16815260200190815260200160002060009054906101000a900460ff16905092915050565b3373ffffffffffffffffffffffffffffffffffffffff168473ffffffffffffffffffffffffffffffffffffffff16636352211e856040518263ffffffff1660e01b81526004016113d19190614b48565b60206040518083038186803b1580156113e957600080fd5b505afa1580156113fd573d6000803e3d6000fd5b505050506040513d601f19601f8201168201806040525081019061142191906138e4565b73ffffffffffffffffffffffffffffffffffffffff1614611477576040517f08c379a000000000000000000000000000000000000000000000000000000000815260040161146e90614b28565b60405180910390fd5b3373ffffffffffffffffffffffffffffffffffffffff1661149783610ceb565b73ffffffffffffffffffffffffffffffffffffffff16146114ed576040517f08c379a00000000000000000000000000000000000000000000000000000000081526004016114e490614a28565b60405180910390fd5b3073ffffffffffffffffffffffffffffffffffffffff168473ffffffffffffffffffffffffffffffffffffffff16141561155c576040517f08c379a000000000000000000000000000000000000000000000000000000000815260040161155390614808565b60405180910390fd5b610100600c600084815260200190815260200160002080549050106115b6576040517f08c379a00000000000000000000000000000000000000000000000000000000081526004016115ad90614928565b60405180910390fd5b8373ffffffffffffffffffffffffffffffffffffffff166323b872dd3330866040518463ffffffff1660e01b81526004016115f393929190614748565b600060405180830381600087803b15801561160d57600080fd5b505af1158015611621573d6000803e3d6000fd5b505050503073ffffffffffffffffffffffffffffffffffffffff163373ffffffffffffffffffffffffffffffffffffffff16636352211e856040518263ffffffff1660e01b81526004016116759190614b48565b60206040518083038186803b15801561168d57600080fd5b505afa1580156116a1573d6000803e3d6000fd5b505050506040513d601f19601f820116820180604052508101906116c591906138e4565b73ffffffffffffffffffffffffffffffffffffffff161461171b576040517f08c379a0000000000000000000000000000000000000000000000000000000008152600401611712906148a8565b60405180910390fd5b600060014361172a9190614d97565b4033308686604051602001611743959493929190614435565b604051602081830303815290604052805190602001209050600c60008481526020019081526020016000206040518061010001604052804381526020018681526020013373ffffffffffffffffffffffffffffffffffffffff168152602001836000602081106117dc577f4e487b7100000000000000000000000000000000000000000000000000000000600052603260045260246000fd5b1a60f81b60f81c60ff16815260200183600160208110611825577f4e487b7100000000000000000000000000000000000000000000000000000000600052603260045260246000fd5b1a60f81b60f81c60ff1681526020018460ff16815260200183600260208110611877577f4e487b7100000000000000000000000000000000000000000000000000000000600052603260045260246000fd5b1a60f81b60f81c60000b8152602001836003602081106118c0577f4e487b7100000000000000000000000000000000000000000000000000000000600052603260045260246000fd5b1a60f81b60f81c60000b8152509080600181540180825580915050600190039060005260206000209060030201600090919091909150600082015181600001556020820151816001015560408201518160020160006101000a81548173ffffffffffffffffffffffffffffffffffffffff021916908373ffffffffffffffffffffffffffffffffffffffff16021790555060608201518160020160146101000a81548160ff021916908360ff16021790555060808201518160020160156101000a81548160ff021916908360ff16021790555060a08201518160020160166101000a81548160ff021916908360ff16021790555060c08201518160020160176101000a81548160ff021916908360000b60ff16021790555060e08201518160020160186101000a81548160ff021916908360000b60ff16021790555050505050505050565b60006001341015611a4b576040517f08c379a0000000000000000000000000000000000000000000000000000000008152600401611a4290614b08565b60405180910390fd5b611a55600b612dae565b6000611a61600b612dc4565b9050611a6d3382612dd2565b8091505090565b611a7c611e36565b73ffffffffffffffffffffffffffffffffffffffff16611a9a610edd565b73ffffffffffffffffffffffffffffffffffffffff1614611af0576040517f08c379a0000000000000000000000000000000000000000000000000000000008152600401611ae7906149e8565b60405180910390fd5b600073ffffffffffffffffffffffffffffffffffffffff168173ffffffffffffffffffffffffffffffffffffffff161415611b60576040517f08c379a0000000000000000000000000000000000000000000000000000000008152600401611b5790614868565b60405180910390fd5b611b6981612231565b50565b6000611b76610edd565b73ffffffffffffffffffffffffffffffffffffffff1647604051611b9990614718565b60006040518083038185875af1925050503d8060008114611bd6576040519150601f19603f3d011682016040523d82523d6000602084013e611bdb565b606091505b5050905080611c1f576040517f08c379a0000000000000000000000000000000000000000000000000000000008152600401611c1690614ae8565b60405180910390fd5b50565b600c6020528160005260406000208181548110611c3e57600080fd5b9060005260206000209060030201600091509150508060000154908060010154908060020160009054906101000a900473ffffffffffffffffffffffffffffffffffffffff16908060020160149054906101000a900460ff16908060020160159054906101000a900460ff16908060020160169054906101000a900460ff16908060020160179054906101000a900460000b908060020160189054906101000a900460000b905088565b60007f80ac58cd000000000000000000000000000000000000000000000000000000007bffffffffffffffffffffffffffffffffffffffffffffffffffffffff1916827bffffffffffffffffffffffffffffffffffffffffffffffffffffffff19161480611db357507f5b5e139f000000000000000000000000000000000000000000000000000000007bffffffffffffffffffffffffffffffffffffffffffffffffffffffff1916827bffffffffffffffffffffffffffffffffffffffffffffffffffffffff1916145b80611dc35750611dc282612fa0565b5b9050919050565b60008073ffffffffffffffffffffffffffffffffffffffff166002600084815260200190815260200160002060009054906101000a900473ffffffffffffffffffffffffffffffffffffffff1673ffffffffffffffffffffffffffffffffffffffff1614159050919050565b600033905090565b816004600083815260200190815260200160002060006101000a81548173ffffffffffffffffffffffffffffffffffffffff021916908373ffffffffffffffffffffffffffffffffffffffff160217905550808273ffffffffffffffffffffffffffffffffffffffff16611eb183610ceb565b73ffffffffffffffffffffffffffffffffffffffff167f8c5be1e5ebec7d5bd14f71427d1e84f3dd0314c0f7b2291e5b200ac8c7c3b92560405160405180910390a45050565b6000611f0282611dca565b611f41576040517f08c379a0000000000000000000000000000000000000000000000000000000008152600401611f3890614908565b60405180910390fd5b6000611f4c83610ceb565b90508073ffffffffffffffffffffffffffffffffffffffff168473ffffffffffffffffffffffffffffffffffffffff161480611fbb57508373ffffffffffffffffffffffffffffffffffffffff16611fa384610766565b73ffffffffffffffffffffffffffffffffffffffff16145b80611fcc5750611fcb81856112ed565b5b91505092915050565b8273ffffffffffffffffffffffffffffffffffffffff16611ff582610ceb565b73ffffffffffffffffffffffffffffffffffffffff161461204b576040517f08c379a000000000000000000000000000000000000000000000000000000000815260040161204290614a08565b60405180910390fd5b600073ffffffffffffffffffffffffffffffffffffffff168273ffffffffffffffffffffffffffffffffffffffff1614156120bb576040517f08c379a00000000000000000000000000000000000000000000000000000000081526004016120b2906148c8565b60405180910390fd5b6120c683838361300a565b6120d1600082611e3e565b6001600360008573ffffffffffffffffffffffffffffffffffffffff1673ffffffffffffffffffffffffffffffffffffffff16815260200190815260200160002060008282546121219190614d97565b925050819055506001600360008473ffffffffffffffffffffffffffffffffffffffff1673ffffffffffffffffffffffffffffffffffffffff16815260200190815260200160002060008282546121789190614cb6565b92505081905550816002600083815260200190815260200160002060006101000a81548173ffffffffffffffffffffffffffffffffffffffff021916908373ffffffffffffffffffffffffffffffffffffffff160217905550808273ffffffffffffffffffffffffffffffffffffffff168473ffffffffffffffffffffffffffffffffffffffff167fddf252ad1be2c89b69c2b068fc378daa952ba7f163c4a11628f55a4df523b3ef60405160405180910390a4505050565b6000600a60009054906101000a900473ffffffffffffffffffffffffffffffffffffffff16905081600a60006101000a81548173ffffffffffffffffffffffffffffffffffffffff021916908373ffffffffffffffffffffffffffffffffffffffff1602179055508173ffffffffffffffffffffffffffffffffffffffff168173ffffffffffffffffffffffffffffffffffffffff167f8be0079c531659141344cd1fd0a4f28419497f9722a3daafe3b4186f6b6457e060405160405180910390a35050565b6060600060405180602001604052806000815250905060005b600c6000858152602001908152602001600020805490508160ff161015612701576000600c60008681526020019081526020016000208260ff1681548110612381577f4e487b7100000000000000000000000000000000000000000000000000000000600052603260045260246000fd5b90600052602060002090600302016040518061010001604052908160008201548152602001600182015481526020016002820160009054906101000a900473ffffffffffffffffffffffffffffffffffffffff1673ffffffffffffffffffffffffffffffffffffffff1673ffffffffffffffffffffffffffffffffffffffff1681526020016002820160149054906101000a900460ff1660ff1660ff1681526020016002820160159054906101000a900460ff1660ff1660ff1681526020016002820160169054906101000a900460ff1660ff1660ff1681526020016002820160179054906101000a900460000b60000b60000b81526020016002820160189054906101000a900460000b60000b60000b81525050905060006101008260000151436124ad9190614d97565b6124b79190614fdd565b90506000806124cf8460c0015184866060015161311e565b91506124e48460e0015184866080015161311e565b9050856124f38360ff16612768565b6124ff8360ff16612768565b604051602001612511939291906144db565b604051602081830303815290604052955060005b60648160ff1610156125a4576125418560c0015160018561311e565b92506125538560e0015160018461311e565b9150866125628460ff16612768565b61256e8460ff16612768565b60405160200161258093929190614494565b6040516020818303038152906040529650808061259c90614f7b565b915050612525565b5060008460a001519050600060405180602001604052806000815250905060008260ff1614612608576125d98260ff16612768565b6125e58360ff16612768565b6040516020016125f69291906145cd565b60405160208183030381529060405290505b6060866040015173ffffffffffffffffffffffffffffffffffffffff1663a2d6c6da88602001516040518263ffffffff1660e01b815260040161264b9190614b48565b60006040518083038186803b15801561266357600080fd5b505afa92505050801561269957506040513d6000823e3d601f19601f820116820180604052508101906126969190613b40565b60015b6126bd57604051806020016040528060008152509950505050505050505050612707565b809150508882826040516020016126d693929190614543565b60405160208183030381529060405298505050505050505080806126f990614f7b565b915050612310565b50809150505b919050565b612717848484611fd5565b6127238484848461315b565b612762576040517f08c379a000000000000000000000000000000000000000000000000000000000815260040161275990614848565b60405180910390fd5b50505050565b606060008214156127b0576040518060400160405280600181526020017f30000000000000000000000000000000000000000000000000000000000000008152509050612910565b600082905060005b600082146127e25780806127cb90614f32565b915050600a826127db9190614d0c565b91506127b8565b60008167ffffffffffffffff811115612824577f4e487b7100000000000000000000000000000000000000000000000000000000600052604160045260246000fd5b6040519080825280601f01601f1916602001820160405280156128565781602001600182028036833780820191505090505b5090505b600085146129095760018261286f9190614d97565b9150600a8561287e9190614fdd565b603061288a9190614cb6565b60f81b8183815181106128c6577f4e487b7100000000000000000000000000000000000000000000000000000000600052603260045260246000fd5b60200101907effffffffffffffffffffffffffffffffffffffffffffffffffffffffffffff1916908160001a905350600a856129029190614d0c565b945061285a565b8093505050505b919050565b606060006129228361111f565b60405160200161293291906145a0565b604051602081830303815290604052905080915050919050565b606060008251141561296f57604051806020016040528060008152509050612af2565b6000604051806060016040528060408152602001615d1a604091399050600060036002855161299e9190614cb6565b6129a89190614d0c565b60046129b49190614d3d565b905060006020826129c59190614cb6565b67ffffffffffffffff811115612a04577f4e487b7100000000000000000000000000000000000000000000000000000000600052604160045260246000fd5b6040519080825280601f01601f191660200182016040528015612a365781602001600182028036833780820191505090505b509050818152600183018586518101602084015b81831015612ab1576003830192508251603f8160121c1685015160f81b8252600182019150603f81600c1c1685015160f81b8252600182019150603f8160061c1685015160f81b8252600182019150603f811685015160f81b825260018201915050612a4a565b600389510660018114612acb5760028114612adb57612ae6565b613d3d60f01b6002830352612ae6565b603d60f81b60018303525b50505050508093505050505b919050565b606060006002836002612b0a9190614d3d565b612b149190614cb6565b67ffffffffffffffff811115612b53577f4e487b7100000000000000000000000000000000000000000000000000000000600052604160045260246000fd5b6040519080825280601f01601f191660200182016040528015612b855781602001600182028036833780820191505090505b5090507f300000000000000000000000000000000000000000000000000000000000000081600081518110612be3577f4e487b7100000000000000000000000000000000000000000000000000000000600052603260045260246000fd5b60200101907effffffffffffffffffffffffffffffffffffffffffffffffffffffffffffff1916908160001a9053507f780000000000000000000000000000000000000000000000000000000000000081600181518110612c6d577f4e487b7100000000000000000000000000000000000000000000000000000000600052603260045260246000fd5b60200101907effffffffffffffffffffffffffffffffffffffffffffffffffffffffffffff1916908160001a90535060006001846002612cad9190614d3d565b612cb79190614cb6565b90505b6001811115612da3577f3031323334353637383961626364656600000000000000000000000000000000600f861660108110612d1f577f4e487b7100000000000000000000000000000000000000000000000000000000600052603260045260246000fd5b1a60f81b828281518110612d5c577f4e487b7100000000000000000000000000000000000000000000000000000000600052603260045260246000fd5b60200101907effffffffffffffffffffffffffffffffffffffffffffffffffffffffffffff1916908160001a905350600485901c945080612d9c90614ea5565b9050612cba565b508091505092915050565b6001816000016000828254019250508190555050565b600081600001549050919050565b600073ffffffffffffffffffffffffffffffffffffffff168273ffffffffffffffffffffffffffffffffffffffff161415612e42576040517f08c379a0000000000000000000000000000000000000000000000000000000008152600401612e39906149a8565b60405180910390fd5b612e4b81611dca565b15612e8b576040517f08c379a0000000000000000000000000000000000000000000000000000000008152600401612e8290614888565b60405180910390fd5b612e976000838361300a565b6001600360008473ffffffffffffffffffffffffffffffffffffffff1673ffffffffffffffffffffffffffffffffffffffff1681526020019081526020016000206000828254612ee79190614cb6565b92505081905550816002600083815260200190815260200160002060006101000a81548173ffffffffffffffffffffffffffffffffffffffff021916908373ffffffffffffffffffffffffffffffffffffffff160217905550808273ffffffffffffffffffffffffffffffffffffffff16600073ffffffffffffffffffffffffffffffffffffffff167fddf252ad1be2c89b69c2b068fc378daa952ba7f163c4a11628f55a4df523b3ef60405160405180910390a45050565b60007f01ffc9a7000000000000000000000000000000000000000000000000000000007bffffffffffffffffffffffffffffffffffffffffffffffffffffffff1916827bffffffffffffffffffffffffffffffffffffffffffffffffffffffff1916149050919050565b6130158383836132f2565b600073ffffffffffffffffffffffffffffffffffffffff168373ffffffffffffffffffffffffffffffffffffffff16141561305857613053816132f7565b613097565b8173ffffffffffffffffffffffffffffffffffffffff168373ffffffffffffffffffffffffffffffffffffffff1614613096576130958382613340565b5b5b600073ffffffffffffffffffffffffffffffffffffffff168273ffffffffffffffffffffffffffffffffffffffff1614156130da576130d5816134ad565b613119565b8273ffffffffffffffffffffffffffffffffffffffff168273ffffffffffffffffffffffffffffffffffffffff16146131185761311782826135f0565b5b5b505050565b6000806000808660000b1261314157858502915081840190508092505050613154565b8560000385029150818403905080925050505b9392505050565b600061317c8473ffffffffffffffffffffffffffffffffffffffff1661366f565b156132e5578373ffffffffffffffffffffffffffffffffffffffff1663150b7a026131a5611e36565b8786866040518563ffffffff1660e01b81526004016131c7949392919061477f565b602060405180830381600087803b1580156131e157600080fd5b505af192505050801561321257506040513d601f19601f8201168201806040525081019061320f9190613b17565b60015b613295573d8060008114613242576040519150601f19603f3d011682016040523d82523d6000602084013e613247565b606091505b5060008151141561328d576040517f08c379a000000000000000000000000000000000000000000000000000000000815260040161328490614848565b60405180910390fd5b805181602001fd5b63150b7a0260e01b7bffffffffffffffffffffffffffffffffffffffffffffffffffffffff1916817bffffffffffffffffffffffffffffffffffffffffffffffffffffffff1916149150506132ea565b600190505b949350505050565b505050565b6008805490506009600083815260200190815260200160002081905550600881908060018154018082558091505060019003906000526020600020016000909190919091505550565b6000600161334d84610d9d565b6133579190614d97565b905060006007600084815260200190815260200160002054905081811461343c576000600660008673ffffffffffffffffffffffffffffffffffffffff1673ffffffffffffffffffffffffffffffffffffffff168152602001908152602001600020600084815260200190815260200160002054905080600660008773ffffffffffffffffffffffffffffffffffffffff1673ffffffffffffffffffffffffffffffffffffffff168152602001908152602001600020600084815260200190815260200160002081905550816007600083815260200190815260200160002081905550505b6007600084815260200190815260200160002060009055600660008573ffffffffffffffffffffffffffffffffffffffff1673ffffffffffffffffffffffffffffffffffffffff16815260200190815260200160002060008381526020019081526020016000206000905550505050565b600060016008805490506134c19190614d97565b9050600060096000848152602001908152602001600020549050600060088381548110613517577f4e487b7100000000000000000000000000000000000000000000000000000000600052603260045260246000fd5b90600052602060002001549050806008838154811061355f577f4e487b7100000000000000000000000000000000000000000000000000000000600052603260045260246000fd5b9060005260206000200181905550816009600083815260200190815260200160002081905550600960008581526020019081526020016000206000905560088054806135d4577f4e487b7100000000000000000000000000000000000000000000000000000000600052603160045260246000fd5b6001900381819060005260206000200160009055905550505050565b60006135fb83610d9d565b905081600660008573ffffffffffffffffffffffffffffffffffffffff1673ffffffffffffffffffffffffffffffffffffffff168152602001908152602001600020600083815260200190815260200160002081905550806007600084815260200190815260200160002081905550505050565b600080823b905060008111915050919050565b50805460008255600302906000526020600020908101906136a391906136a6565b50565b5b808211156137545760008082016000905560018201600090556002820160006101000a81549073ffffffffffffffffffffffffffffffffffffffff02191690556002820160146101000a81549060ff02191690556002820160156101000a81549060ff02191690556002820160166101000a81549060ff02191690556002820160176101000a81549060ff02191690556002820160186101000a81549060ff0219169055506003016136a7565b5090565b600061376b61376684614c06565b614be1565b90508281526020810184848401111561378357600080fd5b61378e848285614e63565b509392505050565b60006137a96137a484614c37565b614be1565b9050828152602081018484840111156137c157600080fd5b6137cc848285614e72565b509392505050565b6000813590506137e381615ca6565b92915050565b6000815190506137f881615ca6565b92915050565b60008135905061380d81615cbd565b92915050565b60008135905061382281615cd4565b92915050565b60008151905061383781615cd4565b92915050565b600082601f83011261384e57600080fd5b813561385e848260208601613758565b91505092915050565b600082601f83011261387857600080fd5b8151613888848260208601613796565b91505092915050565b6000813590506138a081615ceb565b92915050565b6000813590506138b581615d02565b92915050565b6000602082840312156138cd57600080fd5b60006138db848285016137d4565b91505092915050565b6000602082840312156138f657600080fd5b6000613904848285016137e9565b91505092915050565b6000806040838503121561392057600080fd5b600061392e858286016137d4565b925050602061393f858286016137d4565b9150509250929050565b60008060006060848603121561395e57600080fd5b600061396c868287016137d4565b935050602061397d868287016137d4565b925050604061398e86828701613891565b9150509250925092565b600080600080608085870312156139ae57600080fd5b60006139bc878288016137d4565b94505060206139cd878288016137d4565b93505060406139de87828801613891565b925050606085013567ffffffffffffffff8111156139fb57600080fd5b613a078782880161383d565b91505092959194509250565b60008060408385031215613a2657600080fd5b6000613a34858286016137d4565b9250506020613a45858286016137fe565b9150509250929050565b60008060408385031215613a6257600080fd5b6000613a70858286016137d4565b9250506020613a8185828601613891565b9150509250929050565b60008060008060808587031215613aa157600080fd5b6000613aaf878288016137d4565b9450506020613ac087828801613891565b9350506040613ad187828801613891565b9250506060613ae2878288016138a6565b91505092959194509250565b600060208284031215613b0057600080fd5b6000613b0e84828501613813565b91505092915050565b600060208284031215613b2957600080fd5b6000613b3784828501613828565b91505092915050565b600060208284031215613b5257600080fd5b600082015167ffffffffffffffff811115613b6c57600080fd5b613b7884828501613867565b91505092915050565b600060208284031215613b9357600080fd5b6000613ba184828501613891565b91505092915050565b60008060408385031215613bbd57600080fd5b6000613bcb85828601613891565b9250506020613bdc85828601613891565b9150509250929050565b613bef81614dcb565b82525050565b613c06613c0182614dcb565b614fa5565b82525050565b613c1581614ddd565b82525050565b613c2c613c2782614de9565b614fb7565b82525050565b6000613c3d82614c68565b613c478185614c7e565b9350613c57818560208601614e72565b613c60816150ca565b840191505092915050565b613c7481614e1f565b82525050565b6000613c8582614c73565b613c8f8185614c9a565b9350613c9f818560208601614e72565b613ca8816150ca565b840191505092915050565b6000613cbe82614c73565b613cc88185614cab565b9350613cd8818560208601614e72565b80840191505092915050565b6000613cf1600983614c9a565b9150613cfc826150e8565b602082019050919050565b6000613d14604183614cab565b9150613d1f82615111565b604182019050919050565b6000613d37600a83614cab565b9150613d4282615186565b600a82019050919050565b6000613d5a600983614cab565b9150613d65826151af565b600982019050919050565b6000613d7d600383614cab565b9150613d88826151d8565b600382019050919050565b6000613da0602b83614c9a565b9150613dab82615201565b604082019050919050565b6000613dc3603283614c9a565b9150613dce82615250565b604082019050919050565b6000613de6602683614c9a565b9150613df18261529f565b604082019050919050565b6000613e09600283614cab565b9150613e14826152ee565b600282019050919050565b6000613e2c601c83614c9a565b9150613e3782615317565b602082019050919050565b6000613e4f600b83614cab565b9150613e5a82615340565b600b82019050919050565b6000613e72606683614cab565b9150613e7d82615369565b606682019050919050565b6000613e95601383614c9a565b9150613ea082615404565b602082019050919050565b6000613eb8602483614c9a565b9150613ec38261542d565b604082019050919050565b6000613edb601983614c9a565b9150613ee68261547c565b602082019050919050565b6000613efe602c83614c9a565b9150613f09826154a5565b604082019050919050565b6000613f21600383614cab565b9150613f2c826154f4565b600382019050919050565b6000613f44603083614c9a565b9150613f4f8261551d565b604082019050919050565b6000613f67600183614cab565b9150613f728261556c565b600182019050919050565b6000613f8a600183614cab565b9150613f9582615595565b600182019050919050565b6000613fad603883614c9a565b9150613fb8826155be565b604082019050919050565b6000613fd0600183614cab565b9150613fdb8261560d565b600182019050919050565b6000613ff3602a83614c9a565b9150613ffe82615636565b604082019050919050565b6000614016602983614c9a565b915061402182615685565b604082019050919050565b6000614039600283614cab565b9150614044826156d4565b600282019050919050565b600061405c602083614c9a565b9150614067826156fd565b602082019050919050565b600061407f600d83614cab565b915061408a82615726565b600d82019050919050565b60006140a2602c83614c9a565b91506140ad8261574f565b604082019050919050565b60006140c5601283614cab565b91506140d08261579e565b601282019050919050565b60006140e8602083614c9a565b91506140f3826157c7565b602082019050919050565b600061410b600d83614cab565b9150614116826157f0565b600d82019050919050565b600061412e602983614c9a565b915061413982615819565b604082019050919050565b6000614151601883614c9a565b915061415c82615868565b602082019050919050565b6000614174600483614cab565b915061417f82615891565b600482019050919050565b6000614197600983614cab565b91506141a2826158ba565b600982019050919050565b60006141ba601583614c9a565b91506141c5826158e3565b602082019050919050565b60006141dd605b83614cab565b91506141e88261590c565b605b82019050919050565b6000614200600383614cab565b915061420b82615981565b600382019050919050565b6000614223602183614c9a565b915061422e826159aa565b604082019050919050565b6000614246601d83614cab565b9150614251826159f9565b601d82019050919050565b6000614269600083614c8f565b915061427482615a22565b600082019050919050565b600061428c603183614c9a565b915061429782615a25565b604082019050919050565b60006142af604883614cab565b91506142ba82615a74565b604882019050919050565b60006142d2600283614cab565b91506142dd82615ae9565b600282019050919050565b60006142f5602383614c9a565b915061430082615b12565b604082019050919050565b6000614318602c83614c9a565b915061432382615b61565b604082019050919050565b600061433b601483614c9a565b915061434682615bb0565b602082019050919050565b600061435e601383614c9a565b915061436982615bd9565b602082019050919050565b6000614381600683614cab565b915061438c82615c02565b600682019050919050565b60006143a4600883614cab565b91506143af82615c2b565b600882019050919050565b60006143c7601783614c9a565b91506143d282615c54565b602082019050919050565b60006143ea601a83614cab565b91506143f582615c7d565b601a82019050919050565b61440981614e4c565b82525050565b61442061441b82614e4c565b614fd3565b82525050565b61442f81614e56565b82525050565b60006144418288613c1b565b6020820191506144518287613bf5565b6014820191506144618286613bf5565b601482019150614471828561440f565b602082019150614481828461440f565b6020820191508190509695505050505050565b60006144a08286613cb3565b91506144ac8285613cb3565b91506144b782613f5a565b91506144c38284613cb3565b91506144ce82613f7d565b9150819050949350505050565b60006144e78286613cb3565b91506144f282613d70565b91506144fd82613e65565b915061450882614397565b91506145148285613cb3565b915061451f82613f5a565b915061452b8284613cb3565b915061453682613f7d565b9150819050949350505050565b600061454f8286613cb3565b915061455a826141f3565b9150614565826142a2565b91506145718285613cb3565b915061457c826142c5565b91506145888284613cb3565b915061459382614167565b9150819050949350505050565b60006145ab82613d07565b91506145b78284613cb3565b91506145c282614374565b915081905092915050565b60006145d882613d2a565b91506145e48285613cb3565b91506145ef82613f14565b91506145fb8284613cb3565b915061460682613fc3565b91508190509392505050565b600061461d82613d4d565b91506146298287613cb3565b9150614634826140b8565b91506146408286613cb3565b915061464b82613dfc565b91506146568261418a565b91506146628285613cb3565b915061466d82614072565b9150614678826143dd565b91506146848284613cb3565b915061468f8261402c565b915081905095945050505050565b60006146a882613e42565b9150819050919050565b60006146bd826140fe565b91506146c98284613cb3565b915081905092915050565b60006146df826141d0565b91506146eb8284613cb3565b915081905092915050565b600061470182614239565b915061470d8284613cb3565b915081905092915050565b60006147238261425c565b9150819050919050565b60006020820190506147426000830184613be6565b92915050565b600060608201905061475d6000830186613be6565b61476a6020830185613be6565b6147776040830184614400565b949350505050565b60006080820190506147946000830187613be6565b6147a16020830186613be6565b6147ae6040830185614400565b81810360608301526147c08184613c32565b905095945050505050565b60006020820190506147e06000830184613c0c565b92915050565b600060208201905081810360008301526148008184613c7a565b905092915050565b6000602082019050818103600083015261482181613ce4565b9050919050565b6000602082019050818103600083015261484181613d93565b9050919050565b6000602082019050818103600083015261486181613db6565b9050919050565b6000602082019050818103600083015261488181613dd9565b9050919050565b600060208201905081810360008301526148a181613e1f565b9050919050565b600060208201905081810360008301526148c181613e88565b9050919050565b600060208201905081810360008301526148e181613eab565b9050919050565b6000602082019050818103600083015261490181613ece565b9050919050565b6000602082019050818103600083015261492181613ef1565b9050919050565b6000602082019050818103600083015261494181613f37565b9050919050565b6000602082019050818103600083015261496181613fa0565b9050919050565b6000602082019050818103600083015261498181613fe6565b9050919050565b600060208201905081810360008301526149a181614009565b9050919050565b600060208201905081810360008301526149c18161404f565b9050919050565b600060208201905081810360008301526149e181614095565b9050919050565b60006020820190508181036000830152614a01816140db565b9050919050565b60006020820190508181036000830152614a2181614121565b9050919050565b60006020820190508181036000830152614a4181614144565b9050919050565b60006020820190508181036000830152614a61816141ad565b9050919050565b60006020820190508181036000830152614a8181614216565b9050919050565b60006020820190508181036000830152614aa18161427f565b9050919050565b60006020820190508181036000830152614ac1816142e8565b9050919050565b60006020820190508181036000830152614ae18161430b565b9050919050565b60006020820190508181036000830152614b018161432e565b9050919050565b60006020820190508181036000830152614b2181614351565b9050919050565b60006020820190508181036000830152614b41816143ba565b9050919050565b6000602082019050614b5d6000830184614400565b92915050565b600061010082019050614b79600083018b614400565b614b86602083018a614400565b614b936040830189613be6565b614ba06060830188614426565b614bad6080830187614426565b614bba60a0830186614426565b614bc760c0830185613c6b565b614bd460e0830184613c6b565b9998505050505050505050565b6000614beb614bfc565b9050614bf78282614f01565b919050565b6000604051905090565b600067ffffffffffffffff821115614c2157614c2061509b565b5b614c2a826150ca565b9050602081019050919050565b600067ffffffffffffffff821115614c5257614c5161509b565b5b614c5b826150ca565b9050602081019050919050565b600081519050919050565b600081519050919050565b600082825260208201905092915050565b600081905092915050565b600082825260208201905092915050565b600081905092915050565b6000614cc182614e4c565b9150614ccc83614e4c565b9250827fffffffffffffffffffffffffffffffffffffffffffffffffffffffffffffffff03821115614d0157614d0061500e565b5b828201905092915050565b6000614d1782614e4c565b9150614d2283614e4c565b925082614d3257614d3161503d565b5b828204905092915050565b6000614d4882614e4c565b9150614d5383614e4c565b9250817fffffffffffffffffffffffffffffffffffffffffffffffffffffffffffffffff0483118215151615614d8c57614d8b61500e565b5b828202905092915050565b6000614da282614e4c565b9150614dad83614e4c565b925082821015614dc057614dbf61500e565b5b828203905092915050565b6000614dd682614e2c565b9050919050565b60008115159050919050565b6000819050919050565b60007fffffffff0000000000000000000000000000000000000000000000000000000082169050919050565b60008160000b9050919050565b600073ffffffffffffffffffffffffffffffffffffffff82169050919050565b6000819050919050565b600060ff82169050919050565b82818337600083830152505050565b60005b83811015614e90578082015181840152602081019050614e75565b83811115614e9f576000848401525b50505050565b6000614eb082614e4c565b91506000821415614ec457614ec361500e565b5b600182039050919050565b60006002820490506001821680614ee757607f821691505b60208210811415614efb57614efa61506c565b5b50919050565b614f0a826150ca565b810181811067ffffffffffffffff82111715614f2957614f2861509b565b5b80604052505050565b6000614f3d82614e4c565b91507fffffffffffffffffffffffffffffffffffffffffffffffffffffffffffffffff821415614f7057614f6f61500e565b5b600182019050919050565b6000614f8682614e56565b915060ff821415614f9a57614f9961500e565b5b600182019050919050565b6000614fb082614fc1565b9050919050565b6000819050919050565b6000614fcc826150db565b9050919050565b6000819050919050565b6000614fe882614e4c565b9150614ff383614e4c565b9250826150035761500261503d565b5b828206905092915050565b7f4e487b7100000000000000000000000000000000000000000000000000000000600052601160045260246000fd5b7f4e487b7100000000000000000000000000000000000000000000000000000000600052601260045260246000fd5b7f4e487b7100000000000000000000000000000000000000000000000000000000600052602260045260246000fd5b7f4e487b7100000000000000000000000000000000000000000000000000000000600052604160045260246000fd5b6000601f19601f8301169050919050565b60008160601b9050919050565b7f6e69636520747279210000000000000000000000000000000000000000000000600082015250565b7f3c7376672077696474683d2233313022206865696768743d223331302220786d60008201527f6c6e733d22687474703a2f2f7777772e77332e6f72672f323030302f7376672260208201527f3e00000000000000000000000000000000000000000000000000000000000000604082015250565b7f76616c7565733d22302e00000000000000000000000000000000000000000000600082015250565b7f7b226e616d65223a220000000000000000000000000000000000000000000000600082015250565b7f3c673e0000000000000000000000000000000000000000000000000000000000600082015250565b7f455243373231456e756d657261626c653a206f776e657220696e646578206f7560008201527f74206f6620626f756e6473000000000000000000000000000000000000000000602082015250565b7f4552433732313a207472616e7366657220746f206e6f6e20455243373231526560008201527f63656976657220696d706c656d656e7465720000000000000000000000000000602082015250565b7f4f776e61626c653a206e6577206f776e657220697320746865207a65726f206160008201527f6464726573730000000000000000000000000000000000000000000000000000602082015250565b7f222c000000000000000000000000000000000000000000000000000000000000600082015250565b7f4552433732313a20746f6b656e20616c7265616479206d696e74656400000000600082015250565b7f4c6f6f6769652054616e6b000000000000000000000000000000000000000000600082015250565b7f3c616e696d6174655472616e73666f726d206174747269627574654e616d653d60008201527f227472616e73666f726d22206475723d223135303073222066696c6c3d22667260208201527f65657a652220747970653d227472616e736c617465222061646469746976653d60408201527f2273756d22200000000000000000000000000000000000000000000000000000606082015250565b7f4e4654206e6f74207472616e7366657272656400000000000000000000000000600082015250565b7f4552433732313a207472616e7366657220746f20746865207a65726f2061646460008201527f7265737300000000000000000000000000000000000000000000000000000000602082015250565b7f4552433732313a20617070726f766520746f2063616c6c657200000000000000600082015250565b7f4552433732313a206f70657261746f7220717565727920666f72206e6f6e657860008201527f697374656e7420746f6b656e0000000000000000000000000000000000000000602082015250565b7f20302e0000000000000000000000000000000000000000000000000000000000600082015250565b7f74616e6b20686173207265616368656420746865206d6178206c696d6974206f60008201527f662032353520636f6d706f6e656e747300000000000000000000000000000000602082015250565b7f2000000000000000000000000000000000000000000000000000000000000000600082015250565b7f3b00000000000000000000000000000000000000000000000000000000000000600082015250565b7f4552433732313a20617070726f76652063616c6c6572206973206e6f74206f7760008201527f6e6572206e6f7220617070726f76656420666f7220616c6c0000000000000000602082015250565b7f2200000000000000000000000000000000000000000000000000000000000000600082015250565b7f4552433732313a2062616c616e636520717565727920666f7220746865207a6560008201527f726f206164647265737300000000000000000000000000000000000000000000602082015250565b7f4552433732313a206f776e657220717565727920666f72206e6f6e657869737460008201527f656e7420746f6b656e0000000000000000000000000000000000000000000000602082015250565b7f227d000000000000000000000000000000000000000000000000000000000000600082015250565b7f4552433732313a206d696e7420746f20746865207a65726f2061646472657373600082015250565b7f222c2022696d616765223a202200000000000000000000000000000000000000600082015250565b7f4552433732313a20617070726f76656420717565727920666f72206e6f6e657860008201527f697374656e7420746f6b656e0000000000000000000000000000000000000000602082015250565b7f222c20226465736372697074696f6e223a220000000000000000000000000000600082015250565b7f4f776e61626c653a2063616c6c6572206973206e6f7420746865206f776e6572600082015250565b7f4c6f6f6769652054616e6b202300000000000000000000000000000000000000600082015250565b7f4552433732313a207472616e73666572206f6620746f6b656e2074686174206960008201527f73206e6f74206f776e0000000000000000000000000000000000000000000000602082015250565b7f796f75206e65656420746f206f776e207468652074616e6b0000000000000000600082015250565b7f3c2f673e00000000000000000000000000000000000000000000000000000000600082015250565b7f226f776e6572223a220000000000000000000000000000000000000000000000600082015250565b7f746f6b656e20646f65736e206e6f742065786973740000000000000000000000600082015250565b7f3c7265637420783d22302220793d2230222077696474683d223331302220686560008201527f696768743d2233313022207374726f6b653d22626c61636b222066696c6c3d2260208201527f2338464239454222207374726f6b652d77696474683d2235222f3e0000000000604082015250565b7f222f3e0000000000000000000000000000000000000000000000000000000000600082015250565b7f4552433732313a20617070726f76616c20746f2063757272656e74206f776e6560008201527f7200000000000000000000000000000000000000000000000000000000000000602082015250565b7f646174613a6170706c69636174696f6e2f6a736f6e3b6261736536342c000000600082015250565b50565b7f4552433732313a207472616e736665722063616c6c6572206973206e6f74206f60008201527f776e6572206e6f7220617070726f766564000000000000000000000000000000602082015250565b7f3c616e696d6174655472616e73666f726d206174747269627574654e616d653d60008201527f227472616e73666f726d2220747970653d227363616c6522206164646974697660208201527f653d2273756d2220000000000000000000000000000000000000000000000000604082015250565b7f2f3e000000000000000000000000000000000000000000000000000000000000600082015250565b7f6f6e6c792074616e6b206f776e65722063616e2072657475726e20746865204e60008201527f4654730000000000000000000000000000000000000000000000000000000000602082015250565b7f455243373231456e756d657261626c653a20676c6f62616c20696e646578206f60008201527f7574206f6620626f756e64730000000000000000000000000000000000000000602082015250565b7f636f756c64206e6f742073656e64206574686572000000000000000000000000600082015250565b7f53656e7420657468206e6f7420656e6f75676800000000000000000000000000600082015250565b7f3c2f7376673e0000000000000000000000000000000000000000000000000000600082015250565b7f76616c7565733d22000000000000000000000000000000000000000000000000600082015250565b7f796f75206e65656420746f206f776e20746865204e4654000000000000000000600082015250565b7f646174613a696d6167652f7376672b786d6c3b6261736536342c000000000000600082015250565b615caf81614dcb565b8114615cba57600080fd5b50565b615cc681614ddd565b8114615cd157600080fd5b50565b615cdd81614df3565b8114615ce857600080fd5b50565b615cf481614e4c565b8114615cff57600080fd5b50565b615d0b81614e56565b8114615d1657600080fd5b5056fe4142434445464748494a4b4c4d4e4f505152535455565758595a6162636465666768696a6b6c6d6e6f707172737475767778797a303132333435363738392b2fa2646970667358221220c302fa7cb1ae17f45fafab5587611ab3ed8d6ac25d3d6293248f84fc044977b064736f6c63430008040033",
  "devdoc": {
    "kind": "dev",
    "methods": {
      "approve(address,uint256)": {
        "details": "See {IERC721-approve}."
      },
      "balanceOf(address)": {
        "details": "See {IERC721-balanceOf}."
      },
      "getApproved(uint256)": {
        "details": "See {IERC721-getApproved}."
      },
      "isApprovedForAll(address,address)": {
        "details": "See {IERC721-isApprovedForAll}."
      },
      "name()": {
        "details": "See {IERC721Metadata-name}."
      },
      "owner()": {
        "details": "Returns the address of the current owner."
      },
      "ownerOf(uint256)": {
        "details": "See {IERC721-ownerOf}."
      },
      "renounceOwnership()": {
        "details": "Leaves the contract without owner. It will not be possible to call `onlyOwner` functions anymore. Can only be called by the current owner. NOTE: Renouncing ownership will leave the contract without an owner, thereby removing any functionality that is only available to the owner."
      },
      "safeTransferFrom(address,address,uint256)": {
        "details": "See {IERC721-safeTransferFrom}."
      },
      "safeTransferFrom(address,address,uint256,bytes)": {
        "details": "See {IERC721-safeTransferFrom}."
      },
      "setApprovalForAll(address,bool)": {
        "details": "See {IERC721-setApprovalForAll}."
      },
      "supportsInterface(bytes4)": {
        "details": "See {IERC165-supportsInterface}."
      },
      "symbol()": {
        "details": "See {IERC721Metadata-symbol}."
      },
      "tokenByIndex(uint256)": {
        "details": "See {IERC721Enumerable-tokenByIndex}."
      },
      "tokenOfOwnerByIndex(address,uint256)": {
        "details": "See {IERC721Enumerable-tokenOfOwnerByIndex}."
      },
      "totalSupply()": {
        "details": "See {IERC721Enumerable-totalSupply}."
      },
      "transferFrom(address,address,uint256)": {
        "details": "See {IERC721-transferFrom}."
      },
      "transferOwnership(address)": {
        "details": "Transfers ownership of the contract to a new account (`newOwner`). Can only be called by the current owner."
      }
    },
    "version": 1
  },
  "userdoc": {
    "kind": "user",
    "methods": {},
    "version": 1
  },
  "storageLayout": {
    "storage": [
      {
        "astId": 151,
        "contract": "contracts/LoogieTank.sol:LoogieTank",
        "label": "_name",
        "offset": 0,
        "slot": "0",
        "type": "t_string_storage"
      },
      {
        "astId": 153,
        "contract": "contracts/LoogieTank.sol:LoogieTank",
        "label": "_symbol",
        "offset": 0,
        "slot": "1",
        "type": "t_string_storage"
      },
      {
        "astId": 157,
        "contract": "contracts/LoogieTank.sol:LoogieTank",
        "label": "_owners",
        "offset": 0,
        "slot": "2",
        "type": "t_mapping(t_uint256,t_address)"
      },
      {
        "astId": 161,
        "contract": "contracts/LoogieTank.sol:LoogieTank",
        "label": "_balances",
        "offset": 0,
        "slot": "3",
        "type": "t_mapping(t_address,t_uint256)"
      },
      {
        "astId": 165,
        "contract": "contracts/LoogieTank.sol:LoogieTank",
        "label": "_tokenApprovals",
        "offset": 0,
        "slot": "4",
        "type": "t_mapping(t_uint256,t_address)"
      },
      {
        "astId": 171,
        "contract": "contracts/LoogieTank.sol:LoogieTank",
        "label": "_operatorApprovals",
        "offset": 0,
        "slot": "5",
        "type": "t_mapping(t_address,t_mapping(t_address,t_bool))"
      },
      {
        "astId": 1090,
        "contract": "contracts/LoogieTank.sol:LoogieTank",
        "label": "_ownedTokens",
        "offset": 0,
        "slot": "6",
        "type": "t_mapping(t_address,t_mapping(t_uint256,t_uint256))"
      },
      {
        "astId": 1094,
        "contract": "contracts/LoogieTank.sol:LoogieTank",
        "label": "_ownedTokensIndex",
        "offset": 0,
        "slot": "7",
        "type": "t_mapping(t_uint256,t_uint256)"
      },
      {
        "astId": 1097,
        "contract": "contracts/LoogieTank.sol:LoogieTank",
        "label": "_allTokens",
        "offset": 0,
        "slot": "8",
        "type": "t_array(t_uint256)dyn_storage"
      },
      {
        "astId": 1101,
        "contract": "contracts/LoogieTank.sol:LoogieTank",
        "label": "_allTokensIndex",
        "offset": 0,
        "slot": "9",
        "type": "t_mapping(t_uint256,t_uint256)"
      },
      {
        "astId": 7,
        "contract": "contracts/LoogieTank.sol:LoogieTank",
        "label": "_owner",
        "offset": 0,
        "slot": "10",
        "type": "t_address"
      },
      {
        "astId": 2272,
        "contract": "contracts/LoogieTank.sol:LoogieTank",
        "label": "_tokenIds",
        "offset": 0,
        "slot": "11",
        "type": "t_struct(Counter)1796_storage"
      },
      {
        "astId": 2301,
        "contract": "contracts/LoogieTank.sol:LoogieTank",
        "label": "componentByTankId",
        "offset": 0,
        "slot": "12",
        "type": "t_mapping(t_uint256,t_array(t_struct(Component)2295_storage)dyn_storage)"
      }
    ],
    "types": {
      "t_address": {
        "encoding": "inplace",
        "label": "address",
        "numberOfBytes": "20"
      },
      "t_array(t_struct(Component)2295_storage)dyn_storage": {
        "base": "t_struct(Component)2295_storage",
        "encoding": "dynamic_array",
        "label": "struct LoogieTank.Component[]",
        "numberOfBytes": "32"
      },
      "t_array(t_uint256)dyn_storage": {
        "base": "t_uint256",
        "encoding": "dynamic_array",
        "label": "uint256[]",
        "numberOfBytes": "32"
      },
      "t_bool": {
        "encoding": "inplace",
        "label": "bool",
        "numberOfBytes": "1"
      },
      "t_int8": {
        "encoding": "inplace",
        "label": "int8",
        "numberOfBytes": "1"
      },
      "t_mapping(t_address,t_bool)": {
        "encoding": "mapping",
        "key": "t_address",
        "label": "mapping(address => bool)",
        "numberOfBytes": "32",
        "value": "t_bool"
      },
      "t_mapping(t_address,t_mapping(t_address,t_bool))": {
        "encoding": "mapping",
        "key": "t_address",
        "label": "mapping(address => mapping(address => bool))",
        "numberOfBytes": "32",
        "value": "t_mapping(t_address,t_bool)"
      },
      "t_mapping(t_address,t_mapping(t_uint256,t_uint256))": {
        "encoding": "mapping",
        "key": "t_address",
        "label": "mapping(address => mapping(uint256 => uint256))",
        "numberOfBytes": "32",
        "value": "t_mapping(t_uint256,t_uint256)"
      },
      "t_mapping(t_address,t_uint256)": {
        "encoding": "mapping",
        "key": "t_address",
        "label": "mapping(address => uint256)",
        "numberOfBytes": "32",
        "value": "t_uint256"
      },
      "t_mapping(t_uint256,t_address)": {
        "encoding": "mapping",
        "key": "t_uint256",
        "label": "mapping(uint256 => address)",
        "numberOfBytes": "32",
        "value": "t_address"
      },
      "t_mapping(t_uint256,t_array(t_struct(Component)2295_storage)dyn_storage)": {
        "encoding": "mapping",
        "key": "t_uint256",
        "label": "mapping(uint256 => struct LoogieTank.Component[])",
        "numberOfBytes": "32",
        "value": "t_array(t_struct(Component)2295_storage)dyn_storage"
      },
      "t_mapping(t_uint256,t_uint256)": {
        "encoding": "mapping",
        "key": "t_uint256",
        "label": "mapping(uint256 => uint256)",
        "numberOfBytes": "32",
        "value": "t_uint256"
      },
      "t_string_storage": {
        "encoding": "bytes",
        "label": "string",
        "numberOfBytes": "32"
      },
      "t_struct(Component)2295_storage": {
        "encoding": "inplace",
        "label": "struct LoogieTank.Component",
        "members": [
          {
            "astId": 2280,
            "contract": "contracts/LoogieTank.sol:LoogieTank",
            "label": "blockAdded",
            "offset": 0,
            "slot": "0",
            "type": "t_uint256"
          },
          {
            "astId": 2282,
            "contract": "contracts/LoogieTank.sol:LoogieTank",
            "label": "id",
            "offset": 0,
            "slot": "1",
            "type": "t_uint256"
          },
          {
            "astId": 2284,
            "contract": "contracts/LoogieTank.sol:LoogieTank",
            "label": "addr",
            "offset": 0,
            "slot": "2",
            "type": "t_address"
          },
          {
            "astId": 2286,
            "contract": "contracts/LoogieTank.sol:LoogieTank",
            "label": "x",
            "offset": 20,
            "slot": "2",
            "type": "t_uint8"
          },
          {
            "astId": 2288,
            "contract": "contracts/LoogieTank.sol:LoogieTank",
            "label": "y",
            "offset": 21,
            "slot": "2",
            "type": "t_uint8"
          },
          {
            "astId": 2290,
            "contract": "contracts/LoogieTank.sol:LoogieTank",
            "label": "scale",
            "offset": 22,
            "slot": "2",
            "type": "t_uint8"
          },
          {
            "astId": 2292,
            "contract": "contracts/LoogieTank.sol:LoogieTank",
            "label": "dx",
            "offset": 23,
            "slot": "2",
            "type": "t_int8"
          },
          {
            "astId": 2294,
            "contract": "contracts/LoogieTank.sol:LoogieTank",
            "label": "dy",
            "offset": 24,
            "slot": "2",
            "type": "t_int8"
          }
        ],
        "numberOfBytes": "96"
      },
      "t_struct(Counter)1796_storage": {
        "encoding": "inplace",
        "label": "struct Counters.Counter",
        "members": [
          {
            "astId": 1795,
            "contract": "contracts/LoogieTank.sol:LoogieTank",
            "label": "_value",
            "offset": 0,
            "slot": "0",
            "type": "t_uint256"
          }
        ],
        "numberOfBytes": "32"
      },
      "t_uint256": {
        "encoding": "inplace",
        "label": "uint256",
        "numberOfBytes": "32"
      },
      "t_uint8": {
        "encoding": "inplace",
        "label": "uint8",
        "numberOfBytes": "1"
      }
    }
  }
}