{
  "_format": "hh-sol-artifact-1",
  "contractName": "YourContract",
  "sourceName": "contracts/YourContract.sol",
  "abi": [
    {
      "inputs": [
        {
          "internalType": "string",
          "name": "_greeting",
          "type": "string"
        }
      ],
      "stateMutability": "nonpayable",
      "type": "constructor"
    },
    {
      "inputs": [],
      "name": "greeting",
      "outputs": [
        {
          "internalType": "string",
          "name": "",
          "type": "string"
        }
      ],
      "stateMutability": "view",
      "type": "function"
    },
    {
      "inputs": [
        {
          "internalType": "string",
          "name": "_greeting",
          "type": "string"
        }
      ],
      "name": "setGreeting",
      "outputs": [],
      "stateMutability": "nonpayable",
      "type": "function"
    }
  ],
  "bytecode": "0x60806040523480156200001157600080fd5b5060405162000c3138038062000c31833981810160405281019062000037919062000278565b6200006760405180606001604052806025815260200162000c0c60259139826200008760201b620001ca1760201c565b80600090805190602001906200007f92919062000156565b5050620004c5565b620001298282604051602401620000a0929190620002fe565b6040516020818303038152906040527f4b5c4277000000000000000000000000000000000000000000000000000000007bffffffffffffffffffffffffffffffffffffffffffffffffffffffff19166020820180517bffffffffffffffffffffffffffffffffffffffffffffffffffffffff83818316178352505050506200012d60201b60201c565b5050565b60008151905060006a636f6e736f6c652e6c6f679050602083016000808483855afa5050505050565b8280546200016490620003ea565b90600052602060002090601f016020900481019282620001885760008555620001d4565b82601f10620001a357805160ff1916838001178555620001d4565b82800160010185558215620001d4579182015b82811115620001d3578251825591602001919060010190620001b6565b5b509050620001e39190620001e7565b5090565b5b8082111562000202576000816000905550600101620001e8565b5090565b60006200021d620002178462000362565b62000339565b9050828152602081018484840111156200023657600080fd5b62000243848285620003b4565b509392505050565b600082601f8301126200025d57600080fd5b81516200026f84826020860162000206565b91505092915050565b6000602082840312156200028b57600080fd5b600082015167ffffffffffffffff811115620002a657600080fd5b620002b4848285016200024b565b91505092915050565b6000620002ca8262000398565b620002d68185620003a3565b9350620002e8818560208601620003b4565b620002f381620004b4565b840191505092915050565b600060408201905081810360008301526200031a8185620002bd565b90508181036020830152620003308184620002bd565b90509392505050565b60006200034562000358565b905062000353828262000420565b919050565b6000604051905090565b600067ffffffffffffffff82111562000380576200037f62000485565b5b6200038b82620004b4565b9050602081019050919050565b600081519050919050565b600082825260208201905092915050565b60005b83811015620003d4578082015181840152602081019050620003b7565b83811115620003e4576000848401525b50505050565b600060028204905060018216806200040357607f821691505b602082108114156200041a576200041962000456565b5b50919050565b6200042b82620004b4565b810181811067ffffffffffffffff821117156200044d576200044c62000485565b5b80604052505050565b7f4e487b7100000000000000000000000000000000000000000000000000000000600052602260045260246000fd5b7f4e487b7100000000000000000000000000000000000000000000000000000000600052604160045260246000fd5b6000601f19601f8301169050919050565b61073780620004d56000396000f3fe608060405234801561001057600080fd5b50600436106100365760003560e01c8063a41368621461003b578063ef690cc014610057575b600080fd5b61005560048036038101906100509190610439565b610075565b005b61005f61013c565b60405161006c91906104b3565b60405180910390f35b6101226040518060600160405280602381526020016106df602391396000805461009e9061060c565b80601f01602080910402602001604051908101604052809291908181526020018280546100ca9061060c565b80156101175780601f106100ec57610100808354040283529160200191610117565b820191906000526020600020905b8154815290600101906020018083116100fa57829003601f168201915b505050505083610266565b806000908051906020019061013892919061032e565b5050565b600080546101499061060c565b80601f01602080910402602001604051908101604052809291908181526020018280546101759061060c565b80156101c25780601f10610197576101008083540402835291602001916101c2565b820191906000526020600020905b8154815290600101906020018083116101a557829003601f168201915b505050505081565b61026282826040516024016101e09291906104d5565b6040516020818303038152906040527f4b5c4277000000000000000000000000000000000000000000000000000000007bffffffffffffffffffffffffffffffffffffffffffffffffffffffff19166020820180517bffffffffffffffffffffffffffffffffffffffffffffffffffffffff8381831617835250505050610305565b5050565b61030083838360405160240161027e9392919061050c565b6040516020818303038152906040527f2ced7cef000000000000000000000000000000000000000000000000000000007bffffffffffffffffffffffffffffffffffffffffffffffffffffffff19166020820180517bffffffffffffffffffffffffffffffffffffffffffffffffffffffff8381831617835250505050610305565b505050565b60008151905060006a636f6e736f6c652e6c6f679050602083016000808483855afa5050505050565b82805461033a9061060c565b90600052602060002090601f01602090048101928261035c57600085556103a3565b82601f1061037557805160ff19168380011785556103a3565b828001600101855582156103a3579182015b828111156103a2578251825591602001919060010190610387565b5b5090506103b091906103b4565b5090565b5b808211156103cd5760008160009055506001016103b5565b5090565b60006103e46103df8461057d565b610558565b9050828152602081018484840111156103fc57600080fd5b6104078482856105ca565b509392505050565b600082601f83011261042057600080fd5b81356104308482602086016103d1565b91505092915050565b60006020828403121561044b57600080fd5b600082013567ffffffffffffffff81111561046557600080fd5b6104718482850161040f565b91505092915050565b6000610485826105ae565b61048f81856105b9565b935061049f8185602086016105d9565b6104a8816106cd565b840191505092915050565b600060208201905081810360008301526104cd818461047a565b905092915050565b600060408201905081810360008301526104ef818561047a565b90508181036020830152610503818461047a565b90509392505050565b60006060820190508181036000830152610526818661047a565b9050818103602083015261053a818561047a565b9050818103604083015261054e818461047a565b9050949350505050565b6000610562610573565b905061056e828261063e565b919050565b6000604051905090565b600067ffffffffffffffff8211156105985761059761069e565b5b6105a1826106cd565b9050602081019050919050565b600081519050919050565b600082825260208201905092915050565b82818337600083830152505050565b60005b838110156105f75780820151818401526020810190506105dc565b83811115610606576000848401525b50505050565b6000600282049050600182168061062457607f821691505b602082108114156106385761063761066f565b5b50919050565b610647826106cd565b810181811067ffffffffffffffff821117156106665761066561069e565b5b80604052505050565b7f4e487b7100000000000000000000000000000000000000000000000000000000600052602260045260246000fd5b7f4e487b7100000000000000000000000000000000000000000000000000000000600052604160045260246000fd5b6000601f19601f830116905091905056fe4368616e67696e67206772656574696e672066726f6d202725732720746f2027257327a26469706673582212208595cf5ba7cefad48c7895af47ede1a085cf83d19c7fc19faef7e4e3ef21086564736f6c634300080300334465706c6f79696e6720596f7572436f6e74726163742077697468206772656574696e673a",
  "linkReferences": {},
  "deployedLinkReferences": {}
}