{
  "_format": "hh-sol-artifact-1",
  "contractName": "MoonshotBot",
  "sourceName": "contracts/MoonshotBot.sol",
  "abi": [
    {
      "inputs": [],
      "stateMutability": "nonpayable",
      "type": "constructor"
    },
    {
      "anonymous": false,
      "inputs": [
        {
          "indexed": true,
          "internalType": "address",
          "name": "owner",
          "type": "address"
        },
        {
          "indexed": true,
          "internalType": "address",
          "name": "approved",
          "type": "address"
        },
        {
          "indexed": true,
          "internalType": "uint256",
          "name": "tokenId",
          "type": "uint256"
        }
      ],
      "name": "Approval",
      "type": "event"
    },
    {
      "anonymous": false,
      "inputs": [
        {
          "indexed": true,
          "internalType": "address",
          "name": "owner",
          "type": "address"
        },
        {
          "indexed": true,
          "internalType": "address",
          "name": "operator",
          "type": "address"
        },
        {
          "indexed": false,
          "internalType": "bool",
          "name": "approved",
          "type": "bool"
        }
      ],
      "name": "ApprovalForAll",
      "type": "event"
    },
    {
      "anonymous": false,
      "inputs": [
        {
          "indexed": true,
          "internalType": "address",
          "name": "previousOwner",
          "type": "address"
        },
        {
          "indexed": true,
          "internalType": "address",
          "name": "newOwner",
          "type": "address"
        }
      ],
      "name": "OwnershipTransferred",
      "type": "event"
    },
    {
      "anonymous": false,
      "inputs": [
        {
          "indexed": false,
          "internalType": "address",
          "name": "to",
          "type": "address"
        },
        {
          "indexed": false,
          "internalType": "uint256",
          "name": "value",
          "type": "uint256"
        }
      ],
      "name": "Request",
      "type": "event"
    },
    {
      "anonymous": false,
      "inputs": [
        {
          "indexed": true,
          "internalType": "address",
          "name": "from",
          "type": "address"
        },
        {
          "indexed": true,
          "internalType": "address",
          "name": "to",
          "type": "address"
        },
        {
          "indexed": true,
          "internalType": "uint256",
          "name": "tokenId",
          "type": "uint256"
        }
      ],
      "name": "Transfer",
      "type": "event"
    },
    {
      "inputs": [
        {
          "internalType": "address",
          "name": "to",
          "type": "address"
        },
        {
          "internalType": "uint256",
          "name": "tokenId",
          "type": "uint256"
        }
      ],
      "name": "approve",
      "outputs": [],
      "stateMutability": "nonpayable",
      "type": "function"
    },
    {
      "inputs": [
        {
          "internalType": "address",
          "name": "owner",
          "type": "address"
        }
      ],
      "name": "balanceOf",
      "outputs": [
        {
          "internalType": "uint256",
          "name": "",
          "type": "uint256"
        }
      ],
      "stateMutability": "view",
      "type": "function"
    },
    {
      "inputs": [],
      "name": "baseURI",
      "outputs": [
        {
          "internalType": "string",
          "name": "",
          "type": "string"
        }
      ],
      "stateMutability": "view",
      "type": "function"
    },
    {
      "inputs": [
        {
          "internalType": "uint256",
          "name": "tokenId",
          "type": "uint256"
        }
      ],
      "name": "getApproved",
      "outputs": [
        {
          "internalType": "address",
          "name": "",
          "type": "address"
        }
      ],
      "stateMutability": "view",
      "type": "function"
    },
    {
      "inputs": [],
      "name": "gitcoin",
      "outputs": [
        {
          "internalType": "address payable",
          "name": "",
          "type": "address"
        }
      ],
      "stateMutability": "view",
      "type": "function"
    },
    {
      "inputs": [
        {
          "internalType": "address",
          "name": "owner",
          "type": "address"
        },
        {
          "internalType": "address",
          "name": "operator",
          "type": "address"
        }
      ],
      "name": "isApprovedForAll",
      "outputs": [
        {
          "internalType": "bool",
          "name": "",
          "type": "bool"
        }
      ],
      "stateMutability": "view",
      "type": "function"
    },
    {
      "inputs": [],
      "name": "limit",
      "outputs": [
        {
          "internalType": "uint256",
          "name": "",
          "type": "uint256"
        }
      ],
      "stateMutability": "view",
      "type": "function"
    },
    {
      "inputs": [],
      "name": "name",
      "outputs": [
        {
          "internalType": "string",
          "name": "",
          "type": "string"
        }
      ],
      "stateMutability": "view",
      "type": "function"
    },
    {
      "inputs": [],
      "name": "owner",
      "outputs": [
        {
          "internalType": "address",
          "name": "",
          "type": "address"
        }
      ],
      "stateMutability": "view",
      "type": "function"
    },
    {
      "inputs": [
        {
          "internalType": "uint256",
          "name": "tokenId",
          "type": "uint256"
        }
      ],
      "name": "ownerOf",
      "outputs": [
        {
          "internalType": "address",
          "name": "",
          "type": "address"
        }
      ],
      "stateMutability": "view",
      "type": "function"
    },
    {
      "inputs": [],
      "name": "renounceOwnership",
      "outputs": [],
      "stateMutability": "nonpayable",
      "type": "function"
    },
    {
      "inputs": [],
      "name": "requestMint",
      "outputs": [],
      "stateMutability": "payable",
      "type": "function"
    },
    {
      "inputs": [],
      "name": "requested",
      "outputs": [
        {
          "internalType": "uint256",
          "name": "",
          "type": "uint256"
        }
      ],
      "stateMutability": "view",
      "type": "function"
    },
    {
      "inputs": [
        {
          "internalType": "address",
          "name": "from",
          "type": "address"
        },
        {
          "internalType": "address",
          "name": "to",
          "type": "address"
        },
        {
          "internalType": "uint256",
          "name": "tokenId",
          "type": "uint256"
        }
      ],
      "name": "safeTransferFrom",
      "outputs": [],
      "stateMutability": "nonpayable",
      "type": "function"
    },
    {
      "inputs": [
        {
          "internalType": "address",
          "name": "from",
          "type": "address"
        },
        {
          "internalType": "address",
          "name": "to",
          "type": "address"
        },
        {
          "internalType": "uint256",
          "name": "tokenId",
          "type": "uint256"
        },
        {
          "internalType": "bytes",
          "name": "_data",
          "type": "bytes"
        }
      ],
      "name": "safeTransferFrom",
      "outputs": [],
      "stateMutability": "nonpayable",
      "type": "function"
    },
    {
      "inputs": [
        {
          "internalType": "address",
          "name": "operator",
          "type": "address"
        },
        {
          "internalType": "bool",
          "name": "approved",
          "type": "bool"
        }
      ],
      "name": "setApprovalForAll",
      "outputs": [],
      "stateMutability": "nonpayable",
      "type": "function"
    },
    {
      "inputs": [
        {
          "internalType": "bytes4",
          "name": "interfaceId",
          "type": "bytes4"
        }
      ],
      "name": "supportsInterface",
      "outputs": [
        {
          "internalType": "bool",
          "name": "",
          "type": "bool"
        }
      ],
      "stateMutability": "view",
      "type": "function"
    },
    {
      "inputs": [],
      "name": "symbol",
      "outputs": [
        {
          "internalType": "string",
          "name": "",
          "type": "string"
        }
      ],
      "stateMutability": "view",
      "type": "function"
    },
    {
      "inputs": [
        {
          "internalType": "uint256",
          "name": "index",
          "type": "uint256"
        }
      ],
      "name": "tokenByIndex",
      "outputs": [
        {
          "internalType": "uint256",
          "name": "",
          "type": "uint256"
        }
      ],
      "stateMutability": "view",
      "type": "function"
    },
    {
      "inputs": [
        {
          "internalType": "address",
          "name": "owner",
          "type": "address"
        },
        {
          "internalType": "uint256",
          "name": "index",
          "type": "uint256"
        }
      ],
      "name": "tokenOfOwnerByIndex",
      "outputs": [
        {
          "internalType": "uint256",
          "name": "",
          "type": "uint256"
        }
      ],
      "stateMutability": "view",
      "type": "function"
    },
    {
      "inputs": [
        {
          "internalType": "uint256",
          "name": "tokenId",
          "type": "uint256"
        }
      ],
      "name": "tokenURI",
      "outputs": [
        {
          "internalType": "string",
          "name": "",
          "type": "string"
        }
      ],
      "stateMutability": "view",
      "type": "function"
    },
    {
      "inputs": [],
      "name": "totalSupply",
      "outputs": [
        {
          "internalType": "uint256",
          "name": "",
          "type": "uint256"
        }
      ],
      "stateMutability": "view",
      "type": "function"
    },
    {
      "inputs": [
        {
          "internalType": "address",
          "name": "from",
          "type": "address"
        },
        {
          "internalType": "address",
          "name": "to",
          "type": "address"
        },
        {
          "internalType": "uint256",
          "name": "tokenId",
          "type": "uint256"
        }
      ],
      "name": "transferFrom",
      "outputs": [],
      "stateMutability": "nonpayable",
      "type": "function"
    },
    {
      "inputs": [
        {
          "internalType": "address",
          "name": "newOwner",
          "type": "address"
        }
      ],
      "name": "transferOwnership",
      "outputs": [],
      "stateMutability": "nonpayable",
      "type": "function"
    }
  ],
  "bytecode": "0x60806040523480156200001157600080fd5b50604080518082018252600c81526b4d6f6f6e53686f74426f747360a01b6020808301919091528251808401909352600383526226a9a160e91b90830152906200006b6301ffc9a760e01b6001600160e01b0362001a9d16565b81516200008090600690602085019062001b40565b5080516200009690600790602084019062001b40565b50620000b26380ac58cd60e01b6001600160e01b0362001a9d16565b620000cd635b5e139f60e01b6001600160e01b0362001a9d16565b620000e863780e9d6360e01b6001600160e01b0362001a9d16565b5060009050620001006001600160e01b0362001b2216565b600a80546001600160a01b0319166001600160a01b038316908117909155604051919250906000907f8be0079c531659141344cd1fd0a4f28419497f9722a3daafe3b4186f6b6457e0908290a3506200017b60405180608001604052806051815260200162003fcf605191396001600160e01b0362001b2716565b6040805161178081018252600b61174082018181526a20b232b63cb7173539b7b760a91b611760840152825282518084018452600a8082526921b0b4b937973539b7b760b11b6020838101919091528085019290925284518086018652600c8082526b2237b6b4b734b1973539b7b760a11b8285015285870191909152855180870187528481526a2430b93637bb973539b7b760a91b81850152606086015285518087018752600d8082526c25b430b632b2b9b4973539b7b760991b828601526080870191909152865180880188528181526c26b2b932b234ba34173539b7b760991b8186015260a087015286518088018852600980825268293cb0b7173539b7b760b91b8287015260c0880191909152875180890189528481526920b23632b9173539b7b760b11b8187015260e08801528751808901895260088082526721b0b6173539b7b760c11b8288015261010089019190915288518087018a5260008082526101208a01919091528951808b018b528881526a2237b730b632173539b7b760a91b818901526101408a01528951808b018b528581526b2430b936b7b73c973539b7b760a11b818901526101608a01528951808b018b528581526b25b4b63634b0b7173539b7b760a11b818901526101808a01528951808b018b528581526b26b4b1b430b2b6173539b7b760a11b818901526101a08a01528951808b018b5286815269293cb0b737173539b7b760b11b818901526101c08a01528951808b018b528681526920b436b4b9173539b7b760b11b818901526101e08a01528951808b018b528881526a21b0b63630b7173539b7b760a91b818901526102008a01528951808b018b528881526a2237b934b0b7173539b7b760a91b818901526102208a01528951808b018b52838152682437b832973539b7b760b91b818901526102408a01528951808b018b528881526a25b7b63a37b7173539b7b760a91b818901526102608a01528951808b018b528881526a26b4b630b730973539b7b760a91b818901526102808a01528951808b018b528581526b29b0b7b4b939b2973539b7b760a11b818901526102a08a01528951808b018b528681526920b630bcb0973539b7b760b11b818901526102c08a01528951808b018b528581526b21b0b6b2b937b7173539b7b760a11b818901526102e08a01528951808b018b5286815269223932b0b6973539b7b760b11b818901526103008a01528951808b018b528281526724b0b7173539b7b760c11b818901526103208a015289518088018b528181526103408a01528951808b018b528381526825b7b930973539b7b760b91b818901526103608a01528951808b018b528481526c26b7b430b6b6b0b2173539b7b760991b818901526103808a01528951808b018b528581526b29b4b731b2b932973539b7b760a11b818901526103a08a01528951808b018b528881526a20b63132b93a173539b7b760a91b818901526103c08a01528951808b018b528881526a21b0b73737b7173539b7b760a91b818901526103e08a01528951808b018b528681526922b23bb4b7173539b7b760b11b818901526104008a01528951808b018b528581526b24b13930b434b6973539b7b760a11b818901526104208a01528951808b018b528881526a2630b4b732bc973539b7b760a91b818901526104408a01528951808b018b528681526926b7b6363c973539b7b760b11b818901526104608a01528951808b018b528381526829b5bcb2973539b7b760b91b818901526104808a01528951808b018b528681526920b63232b7173539b7b760b11b818901526104a08a01528951808b018b528881526a21b0b93637b9973539b7b760a91b818901526104c08a01528951808b018b528881526a22b630b4b732973539b7b760a91b818901526104e08a01528951808b018b528681526924b73234b2973539b7b760b11b818901526105008a01528951808b018b528881526a2630bab932b6173539b7b760a91b818901526105208a01528951808b018b528681526926bcb632b9973539b7b760b11b818901526105408a01528951808b018b528581526b29b7b637b6b7b7173539b7b760a11b818901526105608a01528951808b018b52600f8082526e20b632b9b9b0b7323937973539b7b760891b828a01526105808b01919091528a51808c018c528781526921b0b9363c973539b7b760b11b818a01526105a08b01528a51808c018c528981526a22b634b0b730973539b7b760a91b818a01526105c08b01528a51808c018c528981526a24b9b930b2b6173539b7b760a91b818a01526105e08b01528a51808c018c528981526a2630bcba37b7173539b7b760a91b818a01526106008b01528a51808c018c52600e8082526d2730ba3430b730b2b6173539b7b760911b828b01526106208c01919091528b51808d018d528a81526a29ba32bb32b7173539b7b760a91b818b01526106408c01528b51808d018d528581526820b632bc173539b7b760b91b818b01526106608c01528b51808d018d528581526821b0b9b2973539b7b760b91b818b01526106808c01528b51808d018d528781526b22b634b0b73730973539b7b760a11b818b01526106a08c01528b51808d018d528a81526a24bd30b4b0b4173539b7b760a91b818b01526106c08c01528b51808d018d528781526b2632b0b7323937973539b7b760a11b818b01526106e08c01528b51808d018d528a81526a2732b63634b2973539b7b760a91b818b01526107008c01528b51808d018d52888152692a30b637b7173539b7b760b11b818b01526107208c01528b51808d018d528a81526a20b632bc34b9973539b7b760a91b818b01526107408c01528b51808d018d528881526921b0b9b2b7173539b7b760b11b818b01526107608c01528b51808d018d528181526d22b634bd30b132ba34173539b7b760911b818b01526107808c01528b51808d018d52858152682530b5b2973539b7b760b91b818b01526107a08c01528b51808d018d528781526b2632b7b730b932173539b7b760a11b818b01526107c08c01528b51808d018d528681526c2734b1b437b630b9973539b7b760991b818b01526107e08c01528b51808d018d528a81526a2a30bcb637b9173539b7b760a91b818b01526108008c01528b51808d018d528581526820b634b0973539b7b760b91b818b01526108208c01528b51808d018d528a81526a21b0bcb9b7b7173539b7b760a91b818b01526108408c01528b51808d018d528781526b22b63634b0b730973539b7b760a11b818b01526108608c01528b51808d018d52888152692530b632b7173539b7b760b11b818b01526108808c01528b51808d018d52888152692632bc34b2973539b7b760b11b818b01526108a08c01528b51808d018d52858152682734b5b7973539b7b760b91b818b01526108c08c01528b51808d018d52888152692a32b9b9b0973539b7b760b11b818b01526108e08c01528b51808d018d528a81526a20b63cb9b9b0973539b7b760a91b818b01526109008c01528b51808d018d528881526921b2b9b0b9173539b7b760b11b818b01526109208c01528b51808d018d528681526c22b63634b0b73730973539b7b760991b818b01526109408c01528b51808d018d52858152682530b9b2973539b7b760b91b818b01526109608c01528b51808d018d52888152692634b0b730973539b7b760b11b818b01526109808c01528b51808d018d528a81526a27b0b5b63cb7173539b7b760a91b818b01526109a08c01528b51808d018d52858152682a3432b7973539b7b760b91b818b01526109c08c01528b51808d018d528881526920b6b7b930973539b7b760b11b818b01526109e08c01528b51808d018d528781526b21b430b93634b2973539b7b760a11b818b0152610a008c01528b51808d018d528881526922b63cb9b2973539b7b760b11b818b0152610a208c01528b51808d018d528a81526a2530bc3a3cb7173539b7b760a91b818b0152610a408c01528b51808d018d528781526b2634b634b0b730973539b7b760a11b818b0152610a608c01528b51808d018d528781526b27b0b5b63cb737173539b7b760a11b818b0152610a808c01528b51808d018d52888152692a37b6b0b9973539b7b760b11b818b0152610aa08c01528b51808d018d528a81526a20b730b5b4b7173539b7b760a91b818b0152610ac08c01528b51808d018d528a81526a21b630b4b932973539b7b760a91b818b0152610ae08c01528b51808d018d528581526822bb30b7173539b7b760b91b818b0152610b008c01528b51808d018d52848152672530bc973539b7b760c11b818b0152610b208c01528b51808a018d52838152610b408c01528b51808d018d52888152692634b73230973539b7b760b11b818b0152610b608c01528b51808d018d528781526b2830b4b9b632bc973539b7b760a11b818b0152610b808c01528b51808d018d5260078152662a3c973539b7b760c91b818b0152610ba08c01528b51808d018d528681526c20b733b2b634b730973539b7b760991b818b0152610bc08c01528b51808d018d528881526921b630b935973539b7b760b11b818b0152610be08c01528b51808d018d528281526e22bb30b733b2b634b732973539b7b760891b818b0152610c008c01528b51808d018d528781526b2532b3333932bc973539b7b760a11b818b0152610c208c01528b51808d018d52848152672634bb173539b7b760c11b818b0152610c408c01528b51808a018d52838152610c608c01528b51808d018d528a81526a2830b935b2b9173539b7b760a91b818b0152610c808c01528b51808d018d52888152692a3cb632b9173539b7b760b11b818b0152610ca08c01528b51808d018d529081526d20b73730b132b63630973539b7b760911b818a0152610cc08b01528a51808c018c529081526e21b632b6b2b73a34b732973539b7b760891b81890152610ce08a01528951808b018b528281526722bb32973539b7b760c11b81890152610d008a015289518088018b52818152610d208a01528951808b018b528881526a2534b0b73730973539b7b760a91b81890152610d408a01528951808b018b5286815269263ab1b1b0973539b7b760b11b81890152610d608a01528951808b018b52838152682830bab6173539b7b760b91b81890152610d808a01528951808b018b52828152672b30b7173539b7b760c11b81890152610da08a01528951808b018b528681526920b934b2b6173539b7b760b11b81890152610dc08a01528951808b018b528381526821b7b2b7173539b7b760b91b81890152610de08a01528951808b018b528581526b22bb32b932ba3a173539b7b760a11b81890152610e008a01528951808b018b5283815268253ab232973539b7b760b91b81890152610e208a01528951808b018b528581526b263ab1b4b0b730973539b7b760a11b81890152610e408a01528951808b018b528481526c2832b732b637b832973539b7b760991b81890152610e608a01528951808b018b528881526a2bb0b63a32b9173539b7b760a91b81890152610e808a01528951808b018b528881526a20b934bcb0b4173539b7b760a91b81890152610ea08a01528951808b018b528681526921b7b932bc973539b7b760b11b81890152610ec08a01528951808b018b528381526822bb34b2973539b7b760b91b81890152610ee08a01528951808b018b528881526a253ab234ba34173539b7b760a91b81890152610f008a01528951808b018b528581526b26b0b234b9bcb7173539b7b760a11b81890152610f208a01528951808b018b52868152692832ba32b9173539b7b760b11b81890152610f408a01528951808b018b528881526a2bb0ba39b7b7173539b7b760a91b81890152610f608a01528951808b018b528881526a20b93a343ab9173539b7b760a91b81890152610f808a01528951808b018b528881526a2230b5b0b934973539b7b760a91b81890152610fa08a01528951808b018b528881526a2330b63637b7173539b7b760a91b81890152610fc08a01528951808b018b528881526a253ab634b0b7173539b7b760a91b81890152610fe08a01528951808b018b528581526b26b0b5b2b73730973539b7b760a11b818901526110008a01528951808b018b528581526b283932b9b632bc973539b7b760a11b818901526110208a01528951808b018b528881526a2bb2b9ba34b7173539b7b760a91b818901526110408a01528951808b018b529182526720bc36173539b7b760c11b8288015261106089019190915288518087018a52908152611080880152875180890189528681526a2230b63630b9973539b7b760a91b818701526110a0880152875180890189528681526a2334b73632bc973539b7b760a91b818701526110c08801528751808901895284815269253ab634b7973539b7b760b11b818701526110e0880152875180890189528681526a26b0b630bcb0973539b7b760a91b81870152611100880152875180890189528481526928bab4b737173539b7b760b11b81870152611120880152875180890189528681526a2c34b6b2b730973539b7b760a91b81870152611140880152875180890189528481526920bc3a37b7173539b7b760b11b81870152611160880152875180890189528681526a2230b734b2b6173539b7b760a91b81870152611180880152875180890189528181526823b0b93c973539b7b760b91b818701526111a0880152875180890189528181526825b0b232973539b7b760b91b818701526111c0880152875180890189528681526a26b0b931b7b9973539b7b760a91b818701526111e0880152875180890189528381526b28bab4b73a37b7173539b7b760a11b81870152611200880152875180890189528681526a2cb7bab9b2b3173539b7b760a91b8187015261122088015287518089018952848152692132b632b7173539b7b760b11b81870152611240880152875180890189528281526c2230b734b2b63632973539b7b760991b81870152611260880152875180890189528381526b23b2b7b933b4b0973539b7b760a11b81870152611280880152875180890189528481526925b0b4b934973539b7b760b11b818701526112a0880152875180890189528281526c26b0b934b0b73730973539b7b760991b818701526112c088015287518089018952848152692930bb32b7173539b7b760b11b818701526112e0880152875180890189528681526a2d30b4b730b1173539b7b760a91b81870152611300880152875180890189528681526a213930b232b7173539b7b760a91b8187015261132088015287518089018952848152692230b7373c973539b7b760b11b81870152611340880152875180890189528481526923b930b1b2973539b7b760b11b81870152611360880152875180890189528681526a25b0b6b0b934973539b7b760a91b81870152611380880152875180890189528281526c26b0b93632b4b3b4173539b7b760991b818701526113a08801528751808901895281815268293432b0973539b7b760b91b818701526113c088015287518089018952848152692d32b63230973539b7b760b11b818701526113e0880152875180890189528381526b213930b23632bc973539b7b760a11b81870152611400880152875180890189528681526a2230b93bb4b7173539b7b760a91b8187015261142088015287518089018952818152682430b637973539b7b760b91b81870152611440880152875180890189528681526a25b0b932b2b6973539b7b760a91b81870152611460880152875180890189528481526926b0ba32b7973539b7b760b11b818701526114808801528751808901895284815269293432ba3a173539b7b760b11b818701526114a088015287518089018952818152682d37b630973539b7b760b91b818701526114c0880152875180890189528381526b213932b1b5b2b7173539b7b760a11b818701526114e088015287518089018952848152692230bb34b9973539b7b760b11b8187015261150088015287518089018952818152682430b730973539b7b760b91b81870152611520880152875180890189528181526825b0b9b4173539b7b760b91b81870152611540880152875180890189528381526b26b0bc3bb2b636173539b7b760a11b81870152611560880152875180890189529081526829343cb9973539b7b760b91b81860152611580870152865180880188528181526c726561645f66696c65732e707960981b818601526115a0870152865180880188528281526b213934b73632bc973539b7b760a11b818601526115c0870152865180880188528581526a2230bc3a37b7173539b7b760a91b818601526115e087015286518088018852838152692430b73730973539b7b760b11b81860152611600870152865180880188528281526b25b0b9b43a37b7173539b7b760a11b81860152611620870152865180880188528181526c26b1b5b4b73632bc973539b7b760991b81860152611640870152865180880188529081526c2937b9b2b6b0b93c973539b7b760991b81850152611660860152855180870187528181526b21393cb73632b2973539b7b760a11b8185015261168086015285518087018752828152692232b63630973539b7b760b11b818501526116a0860152855180870187528481526a2430b73730b4173539b7b760a91b818501526116c0860152855180870187529384526a25b0bcb9b7b7173539b7b760a91b848401526116e0850193909352845180860186528381526b26b2b634b9b9b0973539b7b760a11b8184015261170085015284518086019095528452692937bcb0b6173539b7b760b11b9084015261172082019290925262001a96919060ba62001bc5565b5062001cb5565b6001600160e01b0319808216141562001afd576040805162461bcd60e51b815260206004820152601c60248201527f4552433136353a20696e76616c696420696e7465726661636520696400000000604482015290519081900360640190fd5b6001600160e01b0319166000908152602081905260409020805460ff19166001179055565b335b90565b805162001b3c90600990602084019062001b40565b5050565b828054600181600116156101000203166002900490600052602060002090601f016020900481019282601f1062001b8357805160ff191683800117855562001bb3565b8280016001018555821562001bb3579182015b8281111562001bb357825182559160200191906001019062001b96565b5062001bc192915062001c25565b5090565b82805482825590600052602060002090810192821562001c17579160200282015b8281111562001c17578251805162001c0691849160209091019062001b40565b509160200191906001019062001be6565b5062001bc192915062001c42565b62001b2491905b8082111562001bc1576000815560010162001c2c565b62001b2491905b8082111562001bc157600062001c60828262001c6a565b5060010162001c49565b50805460018160011615610100020316600290046000825580601f1062001c92575062001cb2565b601f01602090049060005260206000209081019062001cb2919062001c25565b50565b61230a8062001cc56000396000f3fe60806040526004361061014b5760003560e01c80636c0360eb116100b6578063a4d66daf1161006f578063a4d66daf146104c9578063afb7bed9146104de578063b88d4fde146104e6578063c87b56dd146105b9578063e985e9c5146105e3578063f2fde38b1461061e5761014b565b80636c0360eb1461040757806370a082311461041c578063715018a61461044f5780638da5cb5b1461046457806395d89b4114610479578063a22cb4651461048e5761014b565b806323b872dd1161010857806323b872dd146102df5780632f745c59146103225780633fae96511461035b57806342842e0e146103705780634f6ccce7146103b35780636352211e146103dd5761014b565b806301ffc9a71461015057806305f02ff21461019857806306fdde03146101c9578063081812fc14610253578063095ea7b31461027d57806318160ddd146102b8575b600080fd5b34801561015c57600080fd5b506101846004803603602081101561017357600080fd5b50356001600160e01b031916610651565b604080519115158252519081900360200190f35b3480156101a457600080fd5b506101ad610674565b604080516001600160a01b039092168252519081900360200190f35b3480156101d557600080fd5b506101de61068c565b6040805160208082528351818301528351919283929083019185019080838360005b83811015610218578181015183820152602001610200565b50505050905090810190601f1680156102455780820380516001836020036101000a031916815260200191505b509250505060405180910390f35b34801561025f57600080fd5b506101ad6004803603602081101561027657600080fd5b5035610723565b34801561028957600080fd5b506102b6600480360360408110156102a057600080fd5b506001600160a01b038135169060200135610785565b005b3480156102c457600080fd5b506102cd610860565b60408051918252519081900360200190f35b3480156102eb57600080fd5b506102b66004803603606081101561030257600080fd5b506001600160a01b03813581169160208101359091169060400135610871565b34801561032e57600080fd5b506102cd6004803603604081101561034557600080fd5b506001600160a01b0381351690602001356108c8565b34801561036757600080fd5b506102cd6108f9565b34801561037c57600080fd5b506102b66004803603606081101561039357600080fd5b506001600160a01b038135811691602081013590911690604001356108ff565b3480156103bf57600080fd5b506102cd600480360360208110156103d657600080fd5b503561091a565b3480156103e957600080fd5b506101ad6004803603602081101561040057600080fd5b5035610936565b34801561041357600080fd5b506101de610964565b34801561042857600080fd5b506102cd6004803603602081101561043f57600080fd5b50356001600160a01b03166109c5565b34801561045b57600080fd5b506102b6610a2d565b34801561047057600080fd5b506101ad610ae1565b34801561048557600080fd5b506101de610af0565b34801561049a57600080fd5b506102b6600480360360408110156104b157600080fd5b506001600160a01b0381351690602001351515610b51565b3480156104d557600080fd5b506102cd610c56565b6102b6610c5b565b3480156104f257600080fd5b506102b66004803603608081101561050957600080fd5b6001600160a01b0382358116926020810135909116916040820135919081019060808101606082013564010000000081111561054457600080fd5b82018360208201111561055657600080fd5b8035906020019184600183028401116401000000008311171561057857600080fd5b91908080601f016020809104026020016040519081016040528093929190818152602001838380828437600092019190915250929550610e7d945050505050565b3480156105c557600080fd5b506101de600480360360208110156105dc57600080fd5b5035610edb565b3480156105ef57600080fd5b506101846004803603604081101561060657600080fd5b506001600160a01b0381358116916020013516611182565b34801561062a57600080fd5b506102b66004803603602081101561064157600080fd5b50356001600160a01b03166111b0565b6001600160e01b0319811660009081526020819052604090205460ff165b919050565b73de21f729137c5af1b01d73af1dc21effa2b8a0d681565b60068054604080516020601f60026000196101006001881615020190951694909404938401819004810282018101909252828152606093909290918301828280156107185780601f106106ed57610100808354040283529160200191610718565b820191906000526020600020905b8154815290600101906020018083116106fb57829003601f168201915b505050505090505b90565b600061072e826112bb565b6107695760405162461bcd60e51b815260040180806020018281038252602c8152602001806121d3602c913960400191505060405180910390fd5b506000908152600460205260409020546001600160a01b031690565b600061079082610936565b9050806001600160a01b0316836001600160a01b031614156107e35760405162461bcd60e51b81526004018080602001828103825260218152602001806122836021913960400191505060405180910390fd5b806001600160a01b03166107f56112ce565b6001600160a01b031614806108165750610816816108116112ce565b611182565b6108515760405162461bcd60e51b81526004018080602001828103825260388152602001806121266038913960400191505060405180910390fd5b61085b83836112d2565b505050565b600061086c6002611340565b905090565b61088261087c6112ce565b8261134b565b6108bd5760405162461bcd60e51b81526004018080602001828103825260318152602001806122a46031913960400191505060405180910390fd5b61085b8383836113ef565b6001600160a01b03821660009081526001602052604081206108f0908363ffffffff61154d16565b90505b92915050565b600d5481565b61085b83838360405180602001604052806000815250610e7d565b60008061092e60028463ffffffff61155916565b509392505050565b60006108f382604051806060016040528060298152602001612188602991396002919063ffffffff61157516565b60098054604080516020601f60026000196101006001881615020190951694909404938401819004810282018101909252828152606093909290918301828280156107185780601f106106ed57610100808354040283529160200191610718565b60006001600160a01b038216610a0c5760405162461bcd60e51b815260040180806020018281038252602a81526020018061215e602a913960400191505060405180910390fd5b6001600160a01b03821660009081526001602052604090206108f390611340565b610a356112ce565b600a546001600160a01b03908116911614610a97576040805162461bcd60e51b815260206004820181905260248201527f4f776e61626c653a2063616c6c6572206973206e6f7420746865206f776e6572604482015290519081900360640190fd5b600a546040516000916001600160a01b0316907f8be0079c531659141344cd1fd0a4f28419497f9722a3daafe3b4186f6b6457e0908390a3600a80546001600160a01b0319169055565b600a546001600160a01b031690565b60078054604080516020601f60026000196101006001881615020190951694909404938401819004810282018101909252828152606093909290918301828280156107185780601f106106ed57610100808354040283529160200191610718565b610b596112ce565b6001600160a01b0316826001600160a01b03161415610bbf576040805162461bcd60e51b815260206004820152601960248201527f4552433732313a20617070726f766520746f2063616c6c657200000000000000604482015290519081900360640190fd5b8060056000610bcc6112ce565b6001600160a01b03908116825260208083019390935260409182016000908120918716808252919093529120805460ff191692151592909217909155610c106112ce565b60408051841515815290516001600160a01b0392909216917f17307eab39ab6107e8899845ad3d59bd9653f200f220920489ca2b5937696c319181900360200190a35050565b606481565b600d805460018101909155606411610ca9576040805162461bcd60e51b815260206004820152600c60248201526b444f4e45204d494e54494e4760a01b604482015290519081900360640190fd5b66038d7ea4c68000341015610cf2576040805162461bcd60e51b815260206004820152600a60248201526909c9ea8408a9c9eaa8e960b31b604482015290519081900360640190fd5b60405160009073de21f729137c5af1b01d73af1dc21effa2b8a0d69034908381818185875af1925050503d8060008114610d48576040519150601f19603f3d011682016040523d82523d6000602084013e610d4d565b606091505b5050905080610d94576040805162461bcd60e51b815260206004820152600e60248201526d18dbdd5b19081b9bdd081cd95b9960921b604482015290519081900360640190fd5b6040805133815234602082015281517fe31c60e37ab1301f69f01b436a1d13486e6c16cc22c888a08c0e64a39230b6ac929181900390910190a1610e7933600c600d5481548110610de157fe5b600091825260209182902001805460408051601f6002600019610100600187161502019094169390930492830185900485028101850190915281815292830182828015610e6f5780601f10610e4457610100808354040283529160200191610e6f565b820191906000526020600020905b815481529060010190602001808311610e5257829003601f168201915b505050505061158c565b5050565b610e8e610e886112ce565b8361134b565b610ec95760405162461bcd60e51b81526004018080602001828103825260318152602001806122a46031913960400191505060405180910390fd5b610ed58484848461164d565b50505050565b6060610ee6826112bb565b610f215760405162461bcd60e51b815260040180806020018281038252602f815260200180612254602f913960400191505060405180910390fd5b60008281526008602090815260409182902080548351601f6002600019610100600186161502019093169290920491820184900484028101840190945280845260609392830182828015610fb65780601f10610f8b57610100808354040283529160200191610fb6565b820191906000526020600020905b815481529060010190602001808311610f9957829003601f168201915b505060095493945050505060026000196101006001841615020190911604610fdf57905061066f565b8051156110b05760098160405160200180838054600181600116156101000203166002900480156110475780601f10611025576101008083540402835291820191611047565b820191906000526020600020905b815481529060010190602001808311611033575b5050825160208401908083835b602083106110735780518252601f199092019160209182019101611054565b6001836020036101000a0380198251168184511680821785525050505050509050019250505060405160208183030381529060405291505061066f565b60096110bb8461169f565b60405160200180838054600181600116156101000203166002900480156111195780601f106110f7576101008083540402835291820191611119565b820191906000526020600020905b815481529060010190602001808311611105575b5050825160208401908083835b602083106111455780518252601f199092019160209182019101611126565b6001836020036101000a03801982511681845116808217855250505050505090500192505050604051602081830303815290604052915050919050565b6001600160a01b03918216600090815260056020908152604080832093909416825291909152205460ff1690565b6111b86112ce565b600a546001600160a01b0390811691161461121a576040805162461bcd60e51b815260206004820181905260248201527f4f776e61626c653a2063616c6c6572206973206e6f7420746865206f776e6572604482015290519081900360640190fd5b6001600160a01b03811661125f5760405162461bcd60e51b81526004018080602001828103825260268152602001806120b06026913960400191505060405180910390fd5b600a546040516001600160a01b038084169216907f8be0079c531659141344cd1fd0a4f28419497f9722a3daafe3b4186f6b6457e090600090a3600a80546001600160a01b0319166001600160a01b0392909216919091179055565b60006108f360028363ffffffff61177a16565b3390565b600081815260046020526040902080546001600160a01b0319166001600160a01b038416908117909155819061130782610936565b6001600160a01b03167f8c5be1e5ebec7d5bd14f71427d1e84f3dd0314c0f7b2291e5b200ac8c7c3b92560405160405180910390a45050565b60006108f382611786565b6000611356826112bb565b6113915760405162461bcd60e51b815260040180806020018281038252602c8152602001806120fa602c913960400191505060405180910390fd5b600061139c83610936565b9050806001600160a01b0316846001600160a01b031614806113d75750836001600160a01b03166113cc84610723565b6001600160a01b0316145b806113e757506113e78185611182565b949350505050565b826001600160a01b031661140282610936565b6001600160a01b0316146114475760405162461bcd60e51b815260040180806020018281038252602981526020018061222b6029913960400191505060405180910390fd5b6001600160a01b03821661148c5760405162461bcd60e51b81526004018080602001828103825260248152602001806120d66024913960400191505060405180910390fd5b61149783838361085b565b6114a26000826112d2565b6001600160a01b03831660009081526001602052604090206114ca908263ffffffff61178a16565b506001600160a01b03821660009081526001602052604090206114f3908263ffffffff61179616565b506115066002828463ffffffff6117a216565b5080826001600160a01b0316846001600160a01b03167fddf252ad1be2c89b69c2b068fc378daa952ba7f163c4a11628f55a4df523b3ef60405160405180910390a4505050565b60006108f083836117b8565b6000808080611568868661181c565b9097909650945050505050565b6000611582848484611897565b90505b9392505050565b60006064600d54106115d4576040805162461bcd60e51b815260206004820152600c60248201526b444f4e45204d494e54494e4760a01b604482015290519081900360640190fd5b60646115e0600b611786565b10611621576040805162461bcd60e51b815260206004820152600c60248201526b444f4e45204d494e54494e4760a01b604482015290519081900360640190fd5b61162b600b611961565b6000611637600b611786565b9050611643848261196a565b6108f08184611aa4565b6116588484846113ef565b61166484848484611b07565b610ed55760405162461bcd60e51b815260040180806020018281038252603281526020018061207e6032913960400191505060405180910390fd5b6060816116c457506040805180820190915260018152600360fc1b602082015261066f565b8160005b81156116dc57600101600a820491506116c8565b60608167ffffffffffffffff811180156116f557600080fd5b506040519080825280601f01601f191660200182016040528015611720576020820181803683370190505b50859350905060001982015b831561177157600a840660300160f81b8282806001900393508151811061174f57fe5b60200101906001600160f81b031916908160001a905350600a8404935061172c565b50949350505050565b60006108f08383611c87565b5490565b60006108f08383611c9f565b60006108f08383611d65565b600061158284846001600160a01b038516611daf565b815460009082106117fa5760405162461bcd60e51b815260040180806020018281038252602281526020018061205c6022913960400191505060405180910390fd5b82600001828154811061180957fe5b9060005260206000200154905092915050565b8154600090819083106118605760405162461bcd60e51b81526004018080602001828103825260228152602001806121b16022913960400191505060405180910390fd5b600084600001848154811061187157fe5b906000526020600020906002020190508060000154816001015492509250509250929050565b600082815260018401602052604081205482816119325760405162461bcd60e51b81526004018080602001828103825283818151815260200191508051906020019080838360005b838110156118f75781810151838201526020016118df565b50505050905090810190601f1680156119245780820380516001836020036101000a031916815260200191505b509250505060405180910390fd5b5084600001600182038154811061194557fe5b9060005260206000209060020201600101549150509392505050565b80546001019055565b6001600160a01b0382166119c5576040805162461bcd60e51b815260206004820181905260248201527f4552433732313a206d696e7420746f20746865207a65726f2061646472657373604482015290519081900360640190fd5b6119ce816112bb565b15611a20576040805162461bcd60e51b815260206004820152601c60248201527f4552433732313a20746f6b656e20616c7265616479206d696e74656400000000604482015290519081900360640190fd5b611a2c6000838361085b565b6001600160a01b0382166000908152600160205260409020611a54908263ffffffff61179616565b50611a676002828463ffffffff6117a216565b5060405181906001600160a01b038416906000907fddf252ad1be2c89b69c2b068fc378daa952ba7f163c4a11628f55a4df523b3ef908290a45050565b611aad826112bb565b611ae85760405162461bcd60e51b815260040180806020018281038252602c8152602001806121ff602c913960400191505060405180910390fd5b6000828152600860209081526040909120825161085b92840190611fc3565b6000611b1b846001600160a01b0316611e46565b611b27575060016113e7565b6060611c4d630a85bd0160e11b611b3c6112ce565b88878760405160240180856001600160a01b03166001600160a01b03168152602001846001600160a01b03166001600160a01b0316815260200183815260200180602001828103825283818151815260200191508051906020019080838360005b83811015611bb5578181015183820152602001611b9d565b50505050905090810190601f168015611be25780820380516001836020036101000a031916815260200191505b5095505050505050604051602081830303815290604052906001600160e01b0319166020820180516001600160e01b03838183161783525050505060405180606001604052806032815260200161207e603291396001600160a01b038816919063ffffffff611e4c16565b90506000818060200190516020811015611c6657600080fd5b50516001600160e01b031916630a85bd0160e11b1492505050949350505050565b60009081526001919091016020526040902054151590565b60008181526001830160205260408120548015611d5b5783546000198083019190810190600090879083908110611cd257fe5b9060005260206000200154905080876000018481548110611cef57fe5b600091825260208083209091019290925582815260018981019092526040902090840190558654879080611d1f57fe5b600190038181906000526020600020016000905590558660010160008781526020019081526020016000206000905560019450505050506108f3565b60009150506108f3565b6000611d718383611c87565b611da7575081546001818101845560008481526020808220909301849055845484825282860190935260409020919091556108f3565b5060006108f3565b600082815260018401602052604081205480611e14575050604080518082018252838152602080820184815286546001818101895560008981528481209551600290930290950191825591519082015586548684528188019092529290912055611585565b82856000016001830381548110611e2757fe5b9060005260206000209060020201600101819055506000915050611585565b3b151590565b606061158284846000856060611e6185611e46565b611eb2576040805162461bcd60e51b815260206004820152601d60248201527f416464726573733a2063616c6c20746f206e6f6e2d636f6e7472616374000000604482015290519081900360640190fd5b60006060866001600160a01b031685876040518082805190602001908083835b60208310611ef15780518252601f199092019160209182019101611ed2565b6001836020036101000a03801982511681845116808217855250505050505090500191505060006040518083038185875af1925050503d8060008114611f53576040519150601f19603f3d011682016040523d82523d6000602084013e611f58565b606091505b50915091508115611f6c5791506113e79050565b805115611f7c5780518082602001fd5b60405162461bcd60e51b81526020600482018181528651602484015286518793919283926044019190850190808383600083156118f75781810151838201526020016118df565b828054600181600116156101000203166002900490600052602060002090601f016020900481019282601f1061200457805160ff1916838001178555612031565b82800160010185558215612031579182015b82811115612031578251825591602001919060010190612016565b5061203d929150612041565b5090565b61072091905b8082111561203d576000815560010161204756fe456e756d657261626c655365743a20696e646578206f7574206f6620626f756e64734552433732313a207472616e7366657220746f206e6f6e20455243373231526563656976657220696d706c656d656e7465724f776e61626c653a206e6577206f776e657220697320746865207a65726f20616464726573734552433732313a207472616e7366657220746f20746865207a65726f20616464726573734552433732313a206f70657261746f7220717565727920666f72206e6f6e6578697374656e7420746f6b656e4552433732313a20617070726f76652063616c6c6572206973206e6f74206f776e6572206e6f7220617070726f76656420666f7220616c6c4552433732313a2062616c616e636520717565727920666f7220746865207a65726f20616464726573734552433732313a206f776e657220717565727920666f72206e6f6e6578697374656e7420746f6b656e456e756d657261626c654d61703a20696e646578206f7574206f6620626f756e64734552433732313a20617070726f76656420717565727920666f72206e6f6e6578697374656e7420746f6b656e4552433732314d657461646174613a2055524920736574206f66206e6f6e6578697374656e7420746f6b656e4552433732313a207472616e73666572206f6620746f6b656e2074686174206973206e6f74206f776e4552433732314d657461646174613a2055524920717565727920666f72206e6f6e6578697374656e7420746f6b656e4552433732313a20617070726f76616c20746f2063757272656e74206f776e65724552433732313a207472616e736665722063616c6c6572206973206e6f74206f776e6572206e6f7220617070726f766564a2646970667358221220e12530f21fff475fde1e94a5c14d4b882470ff5c368740f4b73c3b19dedd507364736f6c6343000607003368747470733a2f2f676174657761792e70696e6174612e636c6f75642f697066732f516d646b5a5738684d625353426a72466f763773476f656f7876594a6e56703867783770674279434e6f4d366b6f2f",
  "linkReferences": {},
  "deployedLinkReferences": {}
}