{
  "_format": "hh-sol-artifact-1",
  "contractName": "YourContract",
  "sourceName": "contracts/YourContract.sol",
  "abi": [
    {
      "inputs": [],
      "stateMutability": "nonpayable",
      "type": "constructor"
    },
    {
      "anonymous": false,
      "inputs": [
        {
          "indexed": false,
          "internalType": "address",
          "name": "sender",
          "type": "address"
        },
        {
          "indexed": false,
          "internalType": "string",
          "name": "purpose",
          "type": "string"
        }
      ],
      "name": "SetPurpose",
      "type": "event"
    },
    {
      "inputs": [],
      "name": "purpose",
      "outputs": [
        {
          "internalType": "string",
          "name": "",
          "type": "string"
        }
      ],
      "stateMutability": "view",
      "type": "function"
    },
    {
      "inputs": [
        {
          "internalType": "string",
          "name": "newPurpose",
          "type": "string"
        }
      ],
      "name": "setPurpose",
      "outputs": [],
      "stateMutability": "nonpayable",
      "type": "function"
    }
  ],
  "bytecode": "0x60e0604052602260808181529061067a60a039805161002691600091602090910190610039565b5034801561003357600080fd5b506100d4565b828054600181600116156101000203166002900490600052602060002090601f016020900481019282601f1061007a57805160ff19168380011785556100a7565b828001600101855582156100a7579182015b828111156100a757825182559160200191906001019061008c565b506100b39291506100b7565b5090565b6100d191905b808211156100b357600081556001016100bd565b90565b610597806100e36000396000f3fe608060405234801561001057600080fd5b50600436106100365760003560e01c806370740aab1461003b578063eb68757f146100b8575b600080fd5b610043610160565b6040805160208082528351818301528351919283929083019185019080838360005b8381101561007d578181015183820152602001610065565b50505050905090810190601f1680156100aa5780820380516001836020036101000a031916815260200191505b509250505060405180910390f35b61015e600480360360208110156100ce57600080fd5b8101906020810181356401000000008111156100e957600080fd5b8201836020820111156100fb57600080fd5b8035906020019184600183028401116401000000008311171561011d57600080fd5b91908080601f0160208091040260200160405190810160405280939291908181526020018383808284376000920191909152509295506101ee945050505050565b005b6000805460408051602060026001851615610100026000190190941693909304601f810184900484028201840190925281815292918301828280156101e65780601f106101bb576101008083540402835291602001916101e6565b820191906000526020600020905b8154815290600101906020018083116101c957829003601f168201915b505050505081565b80516102019060009060208401906104c6565b50604080518082018252600e81526d73657420707572706f736520746f60901b60208083019190915260008054845160026001831615610100026000190190921691909104601f81018490048402820184019095528481526102be943394939192918301828280156102b45780601f10610289576101008083540402835291602001916102b4565b820191906000526020600020905b81548152906001019060200180831161029757829003601f168201915b5050505050610379565b60408051338082526020820183815260008054600260001961010060018416150201909116049484018590527f6ea5d6383a120235c7728a9a6751672a8ac068e4ed34dcca2ee444182c1812de94929390929091906060830190849080156103675780601f1061033c57610100808354040283529160200191610367565b820191906000526020600020905b81548152906001019060200180831161034a57829003601f168201915b5050935050505060405180910390a150565b6104a083838360405160240180846001600160a01b03166001600160a01b031681526020018060200180602001838103835285818151815260200191508051906020019080838360005b838110156103db5781810151838201526020016103c3565b50505050905090810190601f1680156104085780820380516001836020036101000a031916815260200191505b50838103825284518152845160209182019186019080838360005b8381101561043b578181015183820152602001610423565b50505050905090810190601f1680156104685780820380516001836020036101000a031916815260200191505b5060408051601f198184030181529190526020810180516001600160e01b031663fb77226560e01b17905295506104a5945050505050565b505050565b80516a636f6e736f6c652e6c6f67602083016000808483855afa5050505050565b828054600181600116156101000203166002900490600052602060002090601f016020900481019282601f1061050757805160ff1916838001178555610534565b82800160010185558215610534579182015b82811115610534578251825591602001919060010190610519565b50610540929150610544565b5090565b61055e91905b80821115610540576000815560010161054a565b9056fea2646970667358221220559fd778f2369779821a51b1dd0208b54d47de2c31964dbd1adce6862e88c9ab64736f6c63430006070033f09f9ba02050726f6772616d6d696e6720556e73746f707061626c65204d6f6e6579",
  "linkReferences": {},
  "deployedLinkReferences": {}
}