{"address":"0x5FbDB2315678afecb367f032d93F642f64180aa3","bytecode":"0x60c0604052601d60808190527f50726f6772616d6d696e6720556e73746f707061626c65204d6f6e657900000060a090815261003e9160009190610051565b5034801561004b57600080fd5b506100f2565b828054600181600116156101000203166002900490600052602060002090601f01602090048101928261008757600085556100cd565b82601f106100a057805160ff19168380011785556100cd565b828001600101855582156100cd579182015b828111156100cd5782518255916020019190600101906100b2565b506100d99291506100dd565b5090565b5b808211156100d957600081556001016100de565b610594806101016000396000f3fe608060405234801561001057600080fd5b50600436106100365760003560e01c806370740aab1461003b578063eb68757f146100b8575b600080fd5b610043610160565b6040805160208082528351818301528351919283929083019185019080838360005b8381101561007d578181015183820152602001610065565b50505050905090810190601f1680156100aa5780820380516001836020036101000a031916815260200191505b509250505060405180910390f35b61015e600480360360208110156100ce57600080fd5b8101906020810181356401000000008111156100e957600080fd5b8201836020820111156100fb57600080fd5b8035906020019184600183028401116401000000008311171561011d57600080fd5b91908080601f0160208091040260200160405190810160405280939291908181526020018383808284376000920191909152509295506101ee945050505050565b005b6000805460408051602060026001851615610100026000190190941693909304601f810184900484028201840190925281815292918301828280156101e65780601f106101bb576101008083540402835291602001916101e6565b820191906000526020600020905b8154815290600101906020018083116101c957829003601f168201915b505050505081565b80516102019060009060208401906104bd565b50604080518082018252600e81526d73657420707572706f736520746f60901b60208083019190915260008054845160026001831615610100026000190190921691909104601f81018490048402820184019095528481526102be943394939192918301828280156102b45780601f10610289576101008083540402835291602001916102b4565b820191906000526020600020905b81548152906001019060200180831161029757829003601f168201915b5050505050610379565b60408051338082526020820183815260008054600260001961010060018416150201909116049484018590527f6ea5d6383a120235c7728a9a6751672a8ac068e4ed34dcca2ee444182c1812de94929390929091906060830190849080156103675780601f1061033c57610100808354040283529160200191610367565b820191906000526020600020905b81548152906001019060200180831161034a57829003601f168201915b5050935050505060405180910390a150565b61049783838360405160240180846001600160a01b031681526020018060200180602001838103835285818151815260200191508051906020019080838360005b838110156103d25781810151838201526020016103ba565b50505050905090810190601f1680156103ff5780820380516001836020036101000a031916815260200191505b50838103825284518152845160209182019186019080838360005b8381101561043257818101518382015260200161041a565b50505050905090810190601f16801561045f5780820380516001836020036101000a031916815260200191505b5060408051601f198184030181529190526020810180516001600160e01b031663fb77226560e01b179052955061049c945050505050565b505050565b80516a636f6e736f6c652e6c6f67602083016000808483855afa5050505050565b828054600181600116156101000203166002900490600052602060002090601f0160209004810192826104f35760008555610539565b82601f1061050c57805160ff1916838001178555610539565b82800160010185558215610539579182015b8281111561053957825182559160200191906001019061051e565b50610545929150610549565b5090565b5b80821115610545576000815560010161054a56fea2646970667358221220dcf986f95fca8366962aec07eb70ceef1d32e6e669b69496e818bacf9bb45ffe64736f6c63430007060033","abi":[{"inputs":[],"stateMutability":"nonpayable","type":"constructor"},{"anonymous":false,"inputs":[{"indexed":false,"internalType":"address","name":"sender","type":"address"},{"indexed":false,"internalType":"string","name":"purpose","type":"string"}],"name":"SetPurpose","type":"event"},{"inputs":[],"name":"purpose","outputs":[{"internalType":"string","name":"","type":"string"}],"stateMutability":"view","type":"function"},{"inputs":[{"internalType":"string","name":"newPurpose","type":"string"}],"name":"setPurpose","outputs":[],"stateMutability":"nonpayable","type":"function"}]}