{
    "contractName": "DEX",
    "abi": [
        {
            "inputs": [
                {
                    "internalType": "address",
                    "name": "token_addr",
                    "type": "address"
                }
            ],
            "stateMutability": "nonpayable",
            "type": "constructor"
        },
        {
            "anonymous": false,
            "inputs": [],
            "name": "EthToTokenSwap",
            "type": "event"
        },
        {
            "anonymous": false,
            "inputs": [],
            "name": "LiquidityProvided",
            "type": "event"
        },
        {
            "anonymous": false,
            "inputs": [],
            "name": "LiquidityRemoved",
            "type": "event"
        },
        {
            "anonymous": false,
            "inputs": [],
            "name": "TokenToEthSwap",
            "type": "event"
        },
        {
            "inputs": [],
            "name": "deposit",
            "outputs": [
                {
                    "internalType": "uint256",
                    "name": "tokensDeposited",
                    "type": "uint256"
                }
            ],
            "stateMutability": "payable",
            "type": "function"
        },
        {
            "inputs": [],
            "name": "ethToToken",
            "outputs": [
                {
                    "internalType": "uint256",
                    "name": "tokenOutput",
                    "type": "uint256"
                }
            ],
            "stateMutability": "payable",
            "type": "function"
        },
        {
            "inputs": [
                {
                    "internalType": "uint256",
                    "name": "tokens",
                    "type": "uint256"
                }
            ],
            "name": "init",
            "outputs": [
                {
                    "internalType": "uint256",
                    "name": "",
                    "type": "uint256"
                }
            ],
            "stateMutability": "payable",
            "type": "function"
        },
        {
            "inputs": [
                {
                    "internalType": "address",
                    "name": "",
                    "type": "address"
                }
            ],
            "name": "liquidity",
            "outputs": [
                {
                    "internalType": "uint256",
                    "name": "",
                    "type": "uint256"
                }
            ],
            "stateMutability": "view",
            "type": "function"
        },
        {
            "inputs": [
                {
                    "internalType": "uint256",
                    "name": "xInput",
                    "type": "uint256"
                },
                {
                    "internalType": "uint256",
                    "name": "xReserves",
                    "type": "uint256"
                },
                {
                    "internalType": "uint256",
                    "name": "yReserves",
                    "type": "uint256"
                }
            ],
            "name": "price",
            "outputs": [
                {
                    "internalType": "uint256",
                    "name": "yOutput",
                    "type": "uint256"
                }
            ],
            "stateMutability": "view",
            "type": "function"
        },
        {
            "inputs": [
                {
                    "internalType": "uint256",
                    "name": "tokenInput",
                    "type": "uint256"
                }
            ],
            "name": "tokenToEth",
            "outputs": [
                {
                    "internalType": "uint256",
                    "name": "ethOutput",
                    "type": "uint256"
                }
            ],
            "stateMutability": "nonpayable",
            "type": "function"
        },
        {
            "inputs": [],
            "name": "totalLiquidity",
            "outputs": [
                {
                    "internalType": "uint256",
                    "name": "",
                    "type": "uint256"
                }
            ],
            "stateMutability": "view",
            "type": "function"
        },
        {
            "inputs": [
                {
                    "internalType": "uint256",
                    "name": "amount",
                    "type": "uint256"
                }
            ],
            "name": "withdraw",
            "outputs": [
                {
                    "internalType": "uint256",
                    "name": "eth_amount",
                    "type": "uint256"
                },
                {
                    "internalType": "uint256",
                    "name": "token_amount",
                    "type": "uint256"
                }
            ],
            "stateMutability": "nonpayable",
            "type": "function"
        }
    ],
    "bytecode": "608060405234801561001057600080fd5b506040516103ca3803806103ca83398101604081905261002f91610054565b600080546001600160a01b0319166001600160a01b0392909216919091179055610084565b60006020828403121561006657600080fd5b81516001600160a01b038116811461007d57600080fd5b9392505050565b610337806100936000396000f3fe60806040526004361061007b5760003560e01c8063789770f41161004e578063789770f414610126578063b7b0422d1461012d578063b8c876b114610140578063d0e30db01461012657600080fd5b806315770f92146100805780632071a9f4146100a95780632e1a7d4d146100cd57806370b2a30f14610105575b600080fd5b34801561008c57600080fd5b5061009660015481565b6040519081526020015b60405180910390f35b3480156100b557600080fd5b506100966100c436600461026a565b60009392505050565b3480156100d957600080fd5b506100f06100e8366004610296565b600080915091565b604080519283526020830191909152016100a0565b34801561011157600080fd5b50610096610120366004610296565b50600090565b6000610096565b61009661013b366004610296565b61016d565b34801561014c57600080fd5b5061009661015b3660046102af565b60026020526000908152604090205481565b60006001546000146101c55760405162461bcd60e51b815260206004820181905260248201527f4445583a696e6974202d20616c726561647920686173206c6971756964697479604482015260640160405180910390fd5b47600181905533600081815260026020526040808220939093555491516323b872dd60e01b81526004810191909152306024820152604481018490526001600160a01b03909116906323b872dd906064016020604051808303816000875af1158015610235573d6000803e3d6000fd5b505050506040513d601f19601f8201168201806040525081019061025991906102df565b61026257600080fd5b505060015490565b60008060006060848603121561027f57600080fd5b505081359360208301359350604090920135919050565b6000602082840312156102a857600080fd5b5035919050565b6000602082840312156102c157600080fd5b81356001600160a01b03811681146102d857600080fd5b9392505050565b6000602082840312156102f157600080fd5b815180151581146102d857600080fdfea2646970667358221220aac81ba6acec05f795d29012b974f1fab157cdc262aaa54daf168ebb33ddc25c64736f6c634300080b0033",
    "sourcePath": "/home/petra/dex/scaffold-eth/packages/hardhat/contracts/DEXTemplate.sol",
    "compiler": {
        "name": "solc",
        "version": "0.8.11+commit.d7f03943"
    },
    "functionHashes": {
        "deposit()": "d0e30db0",
        "ethToToken()": "789770f4",
        "init(uint256)": "b7b0422d",
        "liquidity(address)": "b8c876b1",
        "price(uint256,uint256,uint256)": "2071a9f4",
        "tokenToEth(uint256)": "70b2a30f",
        "totalLiquidity()": "15770f92",
        "withdraw(uint256)": "2e1a7d4d"
    },
    "gasEstimates": {
        "creation": {
            "codeDepositCost": "164600",
            "executionCost": "infinite",
            "totalCost": "infinite"
        },
        "external": {
            "deposit()": "223",
            "ethToToken()": "157",
            "init(uint256)": "infinite",
            "liquidity(address)": "2517",
            "price(uint256,uint256,uint256)": "339",
            "tokenToEth(uint256)": "330",
            "totalLiquidity()": "2285",
            "withdraw(uint256)": "349"
        }
    }
}