{
  "contracts/MoonshotBot.sol": {
    "MoonshotBot": {
      "abi": [
        {
          "inputs": [],
          "stateMutability": "nonpayable",
          "type": "constructor"
        },
        {
          "anonymous": false,
          "inputs": [
            {
              "indexed": true,
              "internalType": "address",
              "name": "owner",
              "type": "address"
            },
            {
              "indexed": true,
              "internalType": "address",
              "name": "approved",
              "type": "address"
            },
            {
              "indexed": true,
              "internalType": "uint256",
              "name": "tokenId",
              "type": "uint256"
            }
          ],
          "name": "Approval",
          "type": "event"
        },
        {
          "anonymous": false,
          "inputs": [
            {
              "indexed": true,
              "internalType": "address",
              "name": "owner",
              "type": "address"
            },
            {
              "indexed": true,
              "internalType": "address",
              "name": "operator",
              "type": "address"
            },
            {
              "indexed": false,
              "internalType": "bool",
              "name": "approved",
              "type": "bool"
            }
          ],
          "name": "ApprovalForAll",
          "type": "event"
        },
        {
          "anonymous": false,
          "inputs": [
            {
              "indexed": true,
              "internalType": "address",
              "name": "previousOwner",
              "type": "address"
            },
            {
              "indexed": true,
              "internalType": "address",
              "name": "newOwner",
              "type": "address"
            }
          ],
          "name": "OwnershipTransferred",
          "type": "event"
        },
        {
          "anonymous": false,
          "inputs": [
            {
              "indexed": false,
              "internalType": "address",
              "name": "to",
              "type": "address"
            },
            {
              "indexed": false,
              "internalType": "uint256",
              "name": "value",
              "type": "uint256"
            }
          ],
          "name": "Request",
          "type": "event"
        },
        {
          "anonymous": false,
          "inputs": [
            {
              "indexed": true,
              "internalType": "address",
              "name": "from",
              "type": "address"
            },
            {
              "indexed": true,
              "internalType": "address",
              "name": "to",
              "type": "address"
            },
            {
              "indexed": true,
              "internalType": "uint256",
              "name": "tokenId",
              "type": "uint256"
            }
          ],
          "name": "Transfer",
          "type": "event"
        },
        {
          "inputs": [
            {
              "internalType": "address",
              "name": "to",
              "type": "address"
            },
            {
              "internalType": "uint256",
              "name": "tokenId",
              "type": "uint256"
            }
          ],
          "name": "approve",
          "outputs": [],
          "stateMutability": "nonpayable",
          "type": "function"
        },
        {
          "inputs": [
            {
              "internalType": "address",
              "name": "owner",
              "type": "address"
            }
          ],
          "name": "balanceOf",
          "outputs": [
            {
              "internalType": "uint256",
              "name": "",
              "type": "uint256"
            }
          ],
          "stateMutability": "view",
          "type": "function"
        },
        {
          "inputs": [],
          "name": "baseURI",
          "outputs": [
            {
              "internalType": "string",
              "name": "",
              "type": "string"
            }
          ],
          "stateMutability": "view",
          "type": "function"
        },
        {
          "inputs": [
            {
              "internalType": "uint256",
              "name": "tokenId",
              "type": "uint256"
            }
          ],
          "name": "getApproved",
          "outputs": [
            {
              "internalType": "address",
              "name": "",
              "type": "address"
            }
          ],
          "stateMutability": "view",
          "type": "function"
        },
        {
          "inputs": [],
          "name": "gitcoin",
          "outputs": [
            {
              "internalType": "address payable",
              "name": "",
              "type": "address"
            }
          ],
          "stateMutability": "view",
          "type": "function"
        },
        {
          "inputs": [
            {
              "internalType": "address",
              "name": "owner",
              "type": "address"
            },
            {
              "internalType": "address",
              "name": "operator",
              "type": "address"
            }
          ],
          "name": "isApprovedForAll",
          "outputs": [
            {
              "internalType": "bool",
              "name": "",
              "type": "bool"
            }
          ],
          "stateMutability": "view",
          "type": "function"
        },
        {
          "inputs": [],
          "name": "limit",
          "outputs": [
            {
              "internalType": "uint256",
              "name": "",
              "type": "uint256"
            }
          ],
          "stateMutability": "view",
          "type": "function"
        },
        {
          "inputs": [],
          "name": "name",
          "outputs": [
            {
              "internalType": "string",
              "name": "",
              "type": "string"
            }
          ],
          "stateMutability": "view",
          "type": "function"
        },
        {
          "inputs": [],
          "name": "owner",
          "outputs": [
            {
              "internalType": "address",
              "name": "",
              "type": "address"
            }
          ],
          "stateMutability": "view",
          "type": "function"
        },
        {
          "inputs": [
            {
              "internalType": "uint256",
              "name": "tokenId",
              "type": "uint256"
            }
          ],
          "name": "ownerOf",
          "outputs": [
            {
              "internalType": "address",
              "name": "",
              "type": "address"
            }
          ],
          "stateMutability": "view",
          "type": "function"
        },
        {
          "inputs": [],
          "name": "renounceOwnership",
          "outputs": [],
          "stateMutability": "nonpayable",
          "type": "function"
        },
        {
          "inputs": [],
          "name": "requestMint",
          "outputs": [],
          "stateMutability": "payable",
          "type": "function"
        },
        {
          "inputs": [],
          "name": "requested",
          "outputs": [
            {
              "internalType": "uint256",
              "name": "",
              "type": "uint256"
            }
          ],
          "stateMutability": "view",
          "type": "function"
        },
        {
          "inputs": [
            {
              "internalType": "address",
              "name": "from",
              "type": "address"
            },
            {
              "internalType": "address",
              "name": "to",
              "type": "address"
            },
            {
              "internalType": "uint256",
              "name": "tokenId",
              "type": "uint256"
            }
          ],
          "name": "safeTransferFrom",
          "outputs": [],
          "stateMutability": "nonpayable",
          "type": "function"
        },
        {
          "inputs": [
            {
              "internalType": "address",
              "name": "from",
              "type": "address"
            },
            {
              "internalType": "address",
              "name": "to",
              "type": "address"
            },
            {
              "internalType": "uint256",
              "name": "tokenId",
              "type": "uint256"
            },
            {
              "internalType": "bytes",
              "name": "_data",
              "type": "bytes"
            }
          ],
          "name": "safeTransferFrom",
          "outputs": [],
          "stateMutability": "nonpayable",
          "type": "function"
        },
        {
          "inputs": [
            {
              "internalType": "address",
              "name": "operator",
              "type": "address"
            },
            {
              "internalType": "bool",
              "name": "approved",
              "type": "bool"
            }
          ],
          "name": "setApprovalForAll",
          "outputs": [],
          "stateMutability": "nonpayable",
          "type": "function"
        },
        {
          "inputs": [
            {
              "internalType": "bytes4",
              "name": "interfaceId",
              "type": "bytes4"
            }
          ],
          "name": "supportsInterface",
          "outputs": [
            {
              "internalType": "bool",
              "name": "",
              "type": "bool"
            }
          ],
          "stateMutability": "view",
          "type": "function"
        },
        {
          "inputs": [],
          "name": "symbol",
          "outputs": [
            {
              "internalType": "string",
              "name": "",
              "type": "string"
            }
          ],
          "stateMutability": "view",
          "type": "function"
        },
        {
          "inputs": [
            {
              "internalType": "uint256",
              "name": "index",
              "type": "uint256"
            }
          ],
          "name": "tokenByIndex",
          "outputs": [
            {
              "internalType": "uint256",
              "name": "",
              "type": "uint256"
            }
          ],
          "stateMutability": "view",
          "type": "function"
        },
        {
          "inputs": [
            {
              "internalType": "address",
              "name": "owner",
              "type": "address"
            },
            {
              "internalType": "uint256",
              "name": "index",
              "type": "uint256"
            }
          ],
          "name": "tokenOfOwnerByIndex",
          "outputs": [
            {
              "internalType": "uint256",
              "name": "",
              "type": "uint256"
            }
          ],
          "stateMutability": "view",
          "type": "function"
        },
        {
          "inputs": [
            {
              "internalType": "uint256",
              "name": "tokenId",
              "type": "uint256"
            }
          ],
          "name": "tokenURI",
          "outputs": [
            {
              "internalType": "string",
              "name": "",
              "type": "string"
            }
          ],
          "stateMutability": "view",
          "type": "function"
        },
        {
          "inputs": [],
          "name": "totalSupply",
          "outputs": [
            {
              "internalType": "uint256",
              "name": "",
              "type": "uint256"
            }
          ],
          "stateMutability": "view",
          "type": "function"
        },
        {
          "inputs": [
            {
              "internalType": "address",
              "name": "from",
              "type": "address"
            },
            {
              "internalType": "address",
              "name": "to",
              "type": "address"
            },
            {
              "internalType": "uint256",
              "name": "tokenId",
              "type": "uint256"
            }
          ],
          "name": "transferFrom",
          "outputs": [],
          "stateMutability": "nonpayable",
          "type": "function"
        },
        {
          "inputs": [
            {
              "internalType": "address",
              "name": "newOwner",
              "type": "address"
            }
          ],
          "name": "transferOwnership",
          "outputs": [],
          "stateMutability": "nonpayable",
          "type": "function"
        }
      ],
      "devdoc": {
        "methods": {
          "approve(address,uint256)": {
            "details": "See {IERC721-approve}."
          },
          "balanceOf(address)": {
            "details": "See {IERC721-balanceOf}."
          },
          "baseURI()": {
            "details": "Returns the base URI set via {_setBaseURI}. This will be automatically added as a prefix in {tokenURI} to each token's URI, or to the token ID if no specific URI is set for that token ID."
          },
          "getApproved(uint256)": {
            "details": "See {IERC721-getApproved}."
          },
          "isApprovedForAll(address,address)": {
            "details": "See {IERC721-isApprovedForAll}."
          },
          "name()": {
            "details": "See {IERC721Metadata-name}."
          },
          "owner()": {
            "details": "Returns the address of the current owner."
          },
          "ownerOf(uint256)": {
            "details": "See {IERC721-ownerOf}."
          },
          "renounceOwnership()": {
            "details": "Leaves the contract without owner. It will not be possible to call `onlyOwner` functions anymore. Can only be called by the current owner.     * NOTE: Renouncing ownership will leave the contract without an owner, thereby removing any functionality that is only available to the owner."
          },
          "safeTransferFrom(address,address,uint256)": {
            "details": "See {IERC721-safeTransferFrom}."
          },
          "safeTransferFrom(address,address,uint256,bytes)": {
            "details": "See {IERC721-safeTransferFrom}."
          },
          "setApprovalForAll(address,bool)": {
            "details": "See {IERC721-setApprovalForAll}."
          },
          "supportsInterface(bytes4)": {
            "details": "See {IERC165-supportsInterface}.     * Time complexity O(1), guaranteed to always use less than 30 000 gas."
          },
          "symbol()": {
            "details": "See {IERC721Metadata-symbol}."
          },
          "tokenByIndex(uint256)": {
            "details": "See {IERC721Enumerable-tokenByIndex}."
          },
          "tokenOfOwnerByIndex(address,uint256)": {
            "details": "See {IERC721Enumerable-tokenOfOwnerByIndex}."
          },
          "tokenURI(uint256)": {
            "details": "See {IERC721Metadata-tokenURI}."
          },
          "totalSupply()": {
            "details": "See {IERC721Enumerable-totalSupply}."
          },
          "transferFrom(address,address,uint256)": {
            "details": "See {IERC721-transferFrom}."
          },
          "transferOwnership(address)": {
            "details": "Transfers ownership of the contract to a new account (`newOwner`). Can only be called by the current owner."
          }
        }
      },
      "evm": {
        "bytecode": {
          "linkReferences": {},
          "object": "60806040523480156200001157600080fd5b50604080518082018252600c81526b4d6f6f6e53686f74426f747360a01b6020808301919091528251808401909352600383526226a9a160e91b90830152906200006b6301ffc9a760e01b6001600160e01b0362001a9d16565b81516200008090600690602085019062001b40565b5080516200009690600790602084019062001b40565b50620000b26380ac58cd60e01b6001600160e01b0362001a9d16565b620000cd635b5e139f60e01b6001600160e01b0362001a9d16565b620000e863780e9d6360e01b6001600160e01b0362001a9d16565b5060009050620001006001600160e01b0362001b2216565b600a80546001600160a01b0319166001600160a01b038316908117909155604051919250906000907f8be0079c531659141344cd1fd0a4f28419497f9722a3daafe3b4186f6b6457e0908290a3506200017b60405180608001604052806051815260200162003fcf605191396001600160e01b0362001b2716565b6040805161178081018252600b61174082018181526a20b232b63cb7173539b7b760a91b611760840152825282518084018452600a8082526921b0b4b937973539b7b760b11b6020838101919091528085019290925284518086018652600c8082526b2237b6b4b734b1973539b7b760a11b8285015285870191909152855180870187528481526a2430b93637bb973539b7b760a91b81850152606086015285518087018752600d8082526c25b430b632b2b9b4973539b7b760991b828601526080870191909152865180880188528181526c26b2b932b234ba34173539b7b760991b8186015260a087015286518088018852600980825268293cb0b7173539b7b760b91b8287015260c0880191909152875180890189528481526920b23632b9173539b7b760b11b8187015260e08801528751808901895260088082526721b0b6173539b7b760c11b8288015261010089019190915288518087018a5260008082526101208a01919091528951808b018b528881526a2237b730b632173539b7b760a91b818901526101408a01528951808b018b528581526b2430b936b7b73c973539b7b760a11b818901526101608a01528951808b018b528581526b25b4b63634b0b7173539b7b760a11b818901526101808a01528951808b018b528581526b26b4b1b430b2b6173539b7b760a11b818901526101a08a01528951808b018b5286815269293cb0b737173539b7b760b11b818901526101c08a01528951808b018b528681526920b436b4b9173539b7b760b11b818901526101e08a01528951808b018b528881526a21b0b63630b7173539b7b760a91b818901526102008a01528951808b018b528881526a2237b934b0b7173539b7b760a91b818901526102208a01528951808b018b52838152682437b832973539b7b760b91b818901526102408a01528951808b018b528881526a25b7b63a37b7173539b7b760a91b818901526102608a01528951808b018b528881526a26b4b630b730973539b7b760a91b818901526102808a01528951808b018b528581526b29b0b7b4b939b2973539b7b760a11b818901526102a08a01528951808b018b528681526920b630bcb0973539b7b760b11b818901526102c08a01528951808b018b528581526b21b0b6b2b937b7173539b7b760a11b818901526102e08a01528951808b018b5286815269223932b0b6973539b7b760b11b818901526103008a01528951808b018b528281526724b0b7173539b7b760c11b818901526103208a015289518088018b528181526103408a01528951808b018b528381526825b7b930973539b7b760b91b818901526103608a01528951808b018b528481526c26b7b430b6b6b0b2173539b7b760991b818901526103808a01528951808b018b528581526b29b4b731b2b932973539b7b760a11b818901526103a08a01528951808b018b528881526a20b63132b93a173539b7b760a91b818901526103c08a01528951808b018b528881526a21b0b73737b7173539b7b760a91b818901526103e08a01528951808b018b528681526922b23bb4b7173539b7b760b11b818901526104008a01528951808b018b528581526b24b13930b434b6973539b7b760a11b818901526104208a01528951808b018b528881526a2630b4b732bc973539b7b760a91b818901526104408a01528951808b018b528681526926b7b6363c973539b7b760b11b818901526104608a01528951808b018b528381526829b5bcb2973539b7b760b91b818901526104808a01528951808b018b528681526920b63232b7173539b7b760b11b818901526104a08a01528951808b018b528881526a21b0b93637b9973539b7b760a91b818901526104c08a01528951808b018b528881526a22b630b4b732973539b7b760a91b818901526104e08a01528951808b018b528681526924b73234b2973539b7b760b11b818901526105008a01528951808b018b528881526a2630bab932b6173539b7b760a91b818901526105208a01528951808b018b528681526926bcb632b9973539b7b760b11b818901526105408a01528951808b018b528581526b29b7b637b6b7b7173539b7b760a11b818901526105608a01528951808b018b52600f8082526e20b632b9b9b0b7323937973539b7b760891b828a01526105808b01919091528a51808c018c528781526921b0b9363c973539b7b760b11b818a01526105a08b01528a51808c018c528981526a22b634b0b730973539b7b760a91b818a01526105c08b01528a51808c018c528981526a24b9b930b2b6173539b7b760a91b818a01526105e08b01528a51808c018c528981526a2630bcba37b7173539b7b760a91b818a01526106008b01528a51808c018c52600e8082526d2730ba3430b730b2b6173539b7b760911b828b01526106208c01919091528b51808d018d528a81526a29ba32bb32b7173539b7b760a91b818b01526106408c01528b51808d018d528581526820b632bc173539b7b760b91b818b01526106608c01528b51808d018d528581526821b0b9b2973539b7b760b91b818b01526106808c01528b51808d018d528781526b22b634b0b73730973539b7b760a11b818b01526106a08c01528b51808d018d528a81526a24bd30b4b0b4173539b7b760a91b818b01526106c08c01528b51808d018d528781526b2632b0b7323937973539b7b760a11b818b01526106e08c01528b51808d018d528a81526a2732b63634b2973539b7b760a91b818b01526107008c01528b51808d018d52888152692a30b637b7173539b7b760b11b818b01526107208c01528b51808d018d528a81526a20b632bc34b9973539b7b760a91b818b01526107408c01528b51808d018d528881526921b0b9b2b7173539b7b760b11b818b01526107608c01528b51808d018d528181526d22b634bd30b132ba34173539b7b760911b818b01526107808c01528b51808d018d52858152682530b5b2973539b7b760b91b818b01526107a08c01528b51808d018d528781526b2632b7b730b932173539b7b760a11b818b01526107c08c01528b51808d018d528681526c2734b1b437b630b9973539b7b760991b818b01526107e08c01528b51808d018d528a81526a2a30bcb637b9173539b7b760a91b818b01526108008c01528b51808d018d528581526820b634b0973539b7b760b91b818b01526108208c01528b51808d018d528a81526a21b0bcb9b7b7173539b7b760a91b818b01526108408c01528b51808d018d528781526b22b63634b0b730973539b7b760a11b818b01526108608c01528b51808d018d52888152692530b632b7173539b7b760b11b818b01526108808c01528b51808d018d52888152692632bc34b2973539b7b760b11b818b01526108a08c01528b51808d018d52858152682734b5b7973539b7b760b91b818b01526108c08c01528b51808d018d52888152692a32b9b9b0973539b7b760b11b818b01526108e08c01528b51808d018d528a81526a20b63cb9b9b0973539b7b760a91b818b01526109008c01528b51808d018d528881526921b2b9b0b9173539b7b760b11b818b01526109208c01528b51808d018d528681526c22b63634b0b73730973539b7b760991b818b01526109408c01528b51808d018d52858152682530b9b2973539b7b760b91b818b01526109608c01528b51808d018d52888152692634b0b730973539b7b760b11b818b01526109808c01528b51808d018d528a81526a27b0b5b63cb7173539b7b760a91b818b01526109a08c01528b51808d018d52858152682a3432b7973539b7b760b91b818b01526109c08c01528b51808d018d528881526920b6b7b930973539b7b760b11b818b01526109e08c01528b51808d018d528781526b21b430b93634b2973539b7b760a11b818b0152610a008c01528b51808d018d528881526922b63cb9b2973539b7b760b11b818b0152610a208c01528b51808d018d528a81526a2530bc3a3cb7173539b7b760a91b818b0152610a408c01528b51808d018d528781526b2634b634b0b730973539b7b760a11b818b0152610a608c01528b51808d018d528781526b27b0b5b63cb737173539b7b760a11b818b0152610a808c01528b51808d018d52888152692a37b6b0b9973539b7b760b11b818b0152610aa08c01528b51808d018d528a81526a20b730b5b4b7173539b7b760a91b818b0152610ac08c01528b51808d018d528a81526a21b630b4b932973539b7b760a91b818b0152610ae08c01528b51808d018d528581526822bb30b7173539b7b760b91b818b0152610b008c01528b51808d018d52848152672530bc973539b7b760c11b818b0152610b208c01528b51808a018d52838152610b408c01528b51808d018d52888152692634b73230973539b7b760b11b818b0152610b608c01528b51808d018d528781526b2830b4b9b632bc973539b7b760a11b818b0152610b808c01528b51808d018d5260078152662a3c973539b7b760c91b818b0152610ba08c01528b51808d018d528681526c20b733b2b634b730973539b7b760991b818b0152610bc08c01528b51808d018d528881526921b630b935973539b7b760b11b818b0152610be08c01528b51808d018d528281526e22bb30b733b2b634b732973539b7b760891b818b0152610c008c01528b51808d018d528781526b2532b3333932bc973539b7b760a11b818b0152610c208c01528b51808d018d52848152672634bb173539b7b760c11b818b0152610c408c01528b51808a018d52838152610c608c01528b51808d018d528a81526a2830b935b2b9173539b7b760a91b818b0152610c808c01528b51808d018d52888152692a3cb632b9173539b7b760b11b818b0152610ca08c01528b51808d018d529081526d20b73730b132b63630973539b7b760911b818a0152610cc08b01528a51808c018c529081526e21b632b6b2b73a34b732973539b7b760891b81890152610ce08a01528951808b018b528281526722bb32973539b7b760c11b81890152610d008a015289518088018b52818152610d208a01528951808b018b528881526a2534b0b73730973539b7b760a91b81890152610d408a01528951808b018b5286815269263ab1b1b0973539b7b760b11b81890152610d608a01528951808b018b52838152682830bab6173539b7b760b91b81890152610d808a01528951808b018b52828152672b30b7173539b7b760c11b81890152610da08a01528951808b018b528681526920b934b2b6173539b7b760b11b81890152610dc08a01528951808b018b528381526821b7b2b7173539b7b760b91b81890152610de08a01528951808b018b528581526b22bb32b932ba3a173539b7b760a11b81890152610e008a01528951808b018b5283815268253ab232973539b7b760b91b81890152610e208a01528951808b018b528581526b263ab1b4b0b730973539b7b760a11b81890152610e408a01528951808b018b528481526c2832b732b637b832973539b7b760991b81890152610e608a01528951808b018b528881526a2bb0b63a32b9173539b7b760a91b81890152610e808a01528951808b018b528881526a20b934bcb0b4173539b7b760a91b81890152610ea08a01528951808b018b528681526921b7b932bc973539b7b760b11b81890152610ec08a01528951808b018b528381526822bb34b2973539b7b760b91b81890152610ee08a01528951808b018b528881526a253ab234ba34173539b7b760a91b81890152610f008a01528951808b018b528581526b26b0b234b9bcb7173539b7b760a11b81890152610f208a01528951808b018b52868152692832ba32b9173539b7b760b11b81890152610f408a01528951808b018b528881526a2bb0ba39b7b7173539b7b760a91b81890152610f608a01528951808b018b528881526a20b93a343ab9173539b7b760a91b81890152610f808a01528951808b018b528881526a2230b5b0b934973539b7b760a91b81890152610fa08a01528951808b018b528881526a2330b63637b7173539b7b760a91b81890152610fc08a01528951808b018b528881526a253ab634b0b7173539b7b760a91b81890152610fe08a01528951808b018b528581526b26b0b5b2b73730973539b7b760a11b818901526110008a01528951808b018b528581526b283932b9b632bc973539b7b760a11b818901526110208a01528951808b018b528881526a2bb2b9ba34b7173539b7b760a91b818901526110408a01528951808b018b529182526720bc36173539b7b760c11b8288015261106089019190915288518087018a52908152611080880152875180890189528681526a2230b63630b9973539b7b760a91b818701526110a0880152875180890189528681526a2334b73632bc973539b7b760a91b818701526110c08801528751808901895284815269253ab634b7973539b7b760b11b818701526110e0880152875180890189528681526a26b0b630bcb0973539b7b760a91b81870152611100880152875180890189528481526928bab4b737173539b7b760b11b81870152611120880152875180890189528681526a2c34b6b2b730973539b7b760a91b81870152611140880152875180890189528481526920bc3a37b7173539b7b760b11b81870152611160880152875180890189528681526a2230b734b2b6173539b7b760a91b81870152611180880152875180890189528181526823b0b93c973539b7b760b91b818701526111a0880152875180890189528181526825b0b232973539b7b760b91b818701526111c0880152875180890189528681526a26b0b931b7b9973539b7b760a91b818701526111e0880152875180890189528381526b28bab4b73a37b7173539b7b760a11b81870152611200880152875180890189528681526a2cb7bab9b2b3173539b7b760a91b8187015261122088015287518089018952848152692132b632b7173539b7b760b11b81870152611240880152875180890189528281526c2230b734b2b63632973539b7b760991b81870152611260880152875180890189528381526b23b2b7b933b4b0973539b7b760a11b81870152611280880152875180890189528481526925b0b4b934973539b7b760b11b818701526112a0880152875180890189528281526c26b0b934b0b73730973539b7b760991b818701526112c088015287518089018952848152692930bb32b7173539b7b760b11b818701526112e0880152875180890189528681526a2d30b4b730b1173539b7b760a91b81870152611300880152875180890189528681526a213930b232b7173539b7b760a91b8187015261132088015287518089018952848152692230b7373c973539b7b760b11b81870152611340880152875180890189528481526923b930b1b2973539b7b760b11b81870152611360880152875180890189528681526a25b0b6b0b934973539b7b760a91b81870152611380880152875180890189528281526c26b0b93632b4b3b4173539b7b760991b818701526113a08801528751808901895281815268293432b0973539b7b760b91b818701526113c088015287518089018952848152692d32b63230973539b7b760b11b818701526113e0880152875180890189528381526b213930b23632bc973539b7b760a11b81870152611400880152875180890189528681526a2230b93bb4b7173539b7b760a91b8187015261142088015287518089018952818152682430b637973539b7b760b91b81870152611440880152875180890189528681526a25b0b932b2b6973539b7b760a91b81870152611460880152875180890189528481526926b0ba32b7973539b7b760b11b818701526114808801528751808901895284815269293432ba3a173539b7b760b11b818701526114a088015287518089018952818152682d37b630973539b7b760b91b818701526114c0880152875180890189528381526b213932b1b5b2b7173539b7b760a11b818701526114e088015287518089018952848152692230bb34b9973539b7b760b11b8187015261150088015287518089018952818152682430b730973539b7b760b91b81870152611520880152875180890189528181526825b0b9b4173539b7b760b91b81870152611540880152875180890189528381526b26b0bc3bb2b636173539b7b760a11b81870152611560880152875180890189529081526829343cb9973539b7b760b91b81860152611580870152865180880188528181526c726561645f66696c65732e707960981b818601526115a0870152865180880188528281526b213934b73632bc973539b7b760a11b818601526115c0870152865180880188528581526a2230bc3a37b7173539b7b760a91b818601526115e087015286518088018852838152692430b73730973539b7b760b11b81860152611600870152865180880188528281526b25b0b9b43a37b7173539b7b760a11b81860152611620870152865180880188528181526c26b1b5b4b73632bc973539b7b760991b81860152611640870152865180880188529081526c2937b9b2b6b0b93c973539b7b760991b81850152611660860152855180870187528181526b21393cb73632b2973539b7b760a11b8185015261168086015285518087018752828152692232b63630973539b7b760b11b818501526116a0860152855180870187528481526a2430b73730b4173539b7b760a91b818501526116c0860152855180870187529384526a25b0bcb9b7b7173539b7b760a91b848401526116e0850193909352845180860186528381526b26b2b634b9b9b0973539b7b760a11b8184015261170085015284518086019095528452692937bcb0b6173539b7b760b11b9084015261172082019290925262001a96919060ba62001bc5565b5062001cb5565b6001600160e01b0319808216141562001afd576040805162461bcd60e51b815260206004820152601c60248201527f4552433136353a20696e76616c696420696e7465726661636520696400000000604482015290519081900360640190fd5b6001600160e01b0319166000908152602081905260409020805460ff19166001179055565b335b90565b805162001b3c90600990602084019062001b40565b5050565b828054600181600116156101000203166002900490600052602060002090601f016020900481019282601f1062001b8357805160ff191683800117855562001bb3565b8280016001018555821562001bb3579182015b8281111562001bb357825182559160200191906001019062001b96565b5062001bc192915062001c25565b5090565b82805482825590600052602060002090810192821562001c17579160200282015b8281111562001c17578251805162001c0691849160209091019062001b40565b509160200191906001019062001be6565b5062001bc192915062001c42565b62001b2491905b8082111562001bc1576000815560010162001c2c565b62001b2491905b8082111562001bc157600062001c60828262001c6a565b5060010162001c49565b50805460018160011615610100020316600290046000825580601f1062001c92575062001cb2565b601f01602090049060005260206000209081019062001cb2919062001c25565b50565b61230a8062001cc56000396000f3fe60806040526004361061014b5760003560e01c80636c0360eb116100b6578063a4d66daf1161006f578063a4d66daf146104c9578063afb7bed9146104de578063b88d4fde146104e6578063c87b56dd146105b9578063e985e9c5146105e3578063f2fde38b1461061e5761014b565b80636c0360eb1461040757806370a082311461041c578063715018a61461044f5780638da5cb5b1461046457806395d89b4114610479578063a22cb4651461048e5761014b565b806323b872dd1161010857806323b872dd146102df5780632f745c59146103225780633fae96511461035b57806342842e0e146103705780634f6ccce7146103b35780636352211e146103dd5761014b565b806301ffc9a71461015057806305f02ff21461019857806306fdde03146101c9578063081812fc14610253578063095ea7b31461027d57806318160ddd146102b8575b600080fd5b34801561015c57600080fd5b506101846004803603602081101561017357600080fd5b50356001600160e01b031916610651565b604080519115158252519081900360200190f35b3480156101a457600080fd5b506101ad610674565b604080516001600160a01b039092168252519081900360200190f35b3480156101d557600080fd5b506101de61068c565b6040805160208082528351818301528351919283929083019185019080838360005b83811015610218578181015183820152602001610200565b50505050905090810190601f1680156102455780820380516001836020036101000a031916815260200191505b509250505060405180910390f35b34801561025f57600080fd5b506101ad6004803603602081101561027657600080fd5b5035610723565b34801561028957600080fd5b506102b6600480360360408110156102a057600080fd5b506001600160a01b038135169060200135610785565b005b3480156102c457600080fd5b506102cd610860565b60408051918252519081900360200190f35b3480156102eb57600080fd5b506102b66004803603606081101561030257600080fd5b506001600160a01b03813581169160208101359091169060400135610871565b34801561032e57600080fd5b506102cd6004803603604081101561034557600080fd5b506001600160a01b0381351690602001356108c8565b34801561036757600080fd5b506102cd6108f9565b34801561037c57600080fd5b506102b66004803603606081101561039357600080fd5b506001600160a01b038135811691602081013590911690604001356108ff565b3480156103bf57600080fd5b506102cd600480360360208110156103d657600080fd5b503561091a565b3480156103e957600080fd5b506101ad6004803603602081101561040057600080fd5b5035610936565b34801561041357600080fd5b506101de610964565b34801561042857600080fd5b506102cd6004803603602081101561043f57600080fd5b50356001600160a01b03166109c5565b34801561045b57600080fd5b506102b6610a2d565b34801561047057600080fd5b506101ad610ae1565b34801561048557600080fd5b506101de610af0565b34801561049a57600080fd5b506102b6600480360360408110156104b157600080fd5b506001600160a01b0381351690602001351515610b51565b3480156104d557600080fd5b506102cd610c56565b6102b6610c5b565b3480156104f257600080fd5b506102b66004803603608081101561050957600080fd5b6001600160a01b0382358116926020810135909116916040820135919081019060808101606082013564010000000081111561054457600080fd5b82018360208201111561055657600080fd5b8035906020019184600183028401116401000000008311171561057857600080fd5b91908080601f016020809104026020016040519081016040528093929190818152602001838380828437600092019190915250929550610e7d945050505050565b3480156105c557600080fd5b506101de600480360360208110156105dc57600080fd5b5035610edb565b3480156105ef57600080fd5b506101846004803603604081101561060657600080fd5b506001600160a01b0381358116916020013516611182565b34801561062a57600080fd5b506102b66004803603602081101561064157600080fd5b50356001600160a01b03166111b0565b6001600160e01b0319811660009081526020819052604090205460ff165b919050565b73de21f729137c5af1b01d73af1dc21effa2b8a0d681565b60068054604080516020601f60026000196101006001881615020190951694909404938401819004810282018101909252828152606093909290918301828280156107185780601f106106ed57610100808354040283529160200191610718565b820191906000526020600020905b8154815290600101906020018083116106fb57829003601f168201915b505050505090505b90565b600061072e826112bb565b6107695760405162461bcd60e51b815260040180806020018281038252602c8152602001806121d3602c913960400191505060405180910390fd5b506000908152600460205260409020546001600160a01b031690565b600061079082610936565b9050806001600160a01b0316836001600160a01b031614156107e35760405162461bcd60e51b81526004018080602001828103825260218152602001806122836021913960400191505060405180910390fd5b806001600160a01b03166107f56112ce565b6001600160a01b031614806108165750610816816108116112ce565b611182565b6108515760405162461bcd60e51b81526004018080602001828103825260388152602001806121266038913960400191505060405180910390fd5b61085b83836112d2565b505050565b600061086c6002611340565b905090565b61088261087c6112ce565b8261134b565b6108bd5760405162461bcd60e51b81526004018080602001828103825260318152602001806122a46031913960400191505060405180910390fd5b61085b8383836113ef565b6001600160a01b03821660009081526001602052604081206108f0908363ffffffff61154d16565b90505b92915050565b600d5481565b61085b83838360405180602001604052806000815250610e7d565b60008061092e60028463ffffffff61155916565b509392505050565b60006108f382604051806060016040528060298152602001612188602991396002919063ffffffff61157516565b60098054604080516020601f60026000196101006001881615020190951694909404938401819004810282018101909252828152606093909290918301828280156107185780601f106106ed57610100808354040283529160200191610718565b60006001600160a01b038216610a0c5760405162461bcd60e51b815260040180806020018281038252602a81526020018061215e602a913960400191505060405180910390fd5b6001600160a01b03821660009081526001602052604090206108f390611340565b610a356112ce565b600a546001600160a01b03908116911614610a97576040805162461bcd60e51b815260206004820181905260248201527f4f776e61626c653a2063616c6c6572206973206e6f7420746865206f776e6572604482015290519081900360640190fd5b600a546040516000916001600160a01b0316907f8be0079c531659141344cd1fd0a4f28419497f9722a3daafe3b4186f6b6457e0908390a3600a80546001600160a01b0319169055565b600a546001600160a01b031690565b60078054604080516020601f60026000196101006001881615020190951694909404938401819004810282018101909252828152606093909290918301828280156107185780601f106106ed57610100808354040283529160200191610718565b610b596112ce565b6001600160a01b0316826001600160a01b03161415610bbf576040805162461bcd60e51b815260206004820152601960248201527f4552433732313a20617070726f766520746f2063616c6c657200000000000000604482015290519081900360640190fd5b8060056000610bcc6112ce565b6001600160a01b03908116825260208083019390935260409182016000908120918716808252919093529120805460ff191692151592909217909155610c106112ce565b60408051841515815290516001600160a01b0392909216917f17307eab39ab6107e8899845ad3d59bd9653f200f220920489ca2b5937696c319181900360200190a35050565b606481565b600d805460018101909155606411610ca9576040805162461bcd60e51b815260206004820152600c60248201526b444f4e45204d494e54494e4760a01b604482015290519081900360640190fd5b66038d7ea4c68000341015610cf2576040805162461bcd60e51b815260206004820152600a60248201526909c9ea8408a9c9eaa8e960b31b604482015290519081900360640190fd5b60405160009073de21f729137c5af1b01d73af1dc21effa2b8a0d69034908381818185875af1925050503d8060008114610d48576040519150601f19603f3d011682016040523d82523d6000602084013e610d4d565b606091505b5050905080610d94576040805162461bcd60e51b815260206004820152600e60248201526d18dbdd5b19081b9bdd081cd95b9960921b604482015290519081900360640190fd5b6040805133815234602082015281517fe31c60e37ab1301f69f01b436a1d13486e6c16cc22c888a08c0e64a39230b6ac929181900390910190a1610e7933600c600d5481548110610de157fe5b600091825260209182902001805460408051601f6002600019610100600187161502019094169390930492830185900485028101850190915281815292830182828015610e6f5780601f10610e4457610100808354040283529160200191610e6f565b820191906000526020600020905b815481529060010190602001808311610e5257829003601f168201915b505050505061158c565b5050565b610e8e610e886112ce565b8361134b565b610ec95760405162461bcd60e51b81526004018080602001828103825260318152602001806122a46031913960400191505060405180910390fd5b610ed58484848461164d565b50505050565b6060610ee6826112bb565b610f215760405162461bcd60e51b815260040180806020018281038252602f815260200180612254602f913960400191505060405180910390fd5b60008281526008602090815260409182902080548351601f6002600019610100600186161502019093169290920491820184900484028101840190945280845260609392830182828015610fb65780601f10610f8b57610100808354040283529160200191610fb6565b820191906000526020600020905b815481529060010190602001808311610f9957829003601f168201915b505060095493945050505060026000196101006001841615020190911604610fdf57905061066f565b8051156110b05760098160405160200180838054600181600116156101000203166002900480156110475780601f10611025576101008083540402835291820191611047565b820191906000526020600020905b815481529060010190602001808311611033575b5050825160208401908083835b602083106110735780518252601f199092019160209182019101611054565b6001836020036101000a0380198251168184511680821785525050505050509050019250505060405160208183030381529060405291505061066f565b60096110bb8461169f565b60405160200180838054600181600116156101000203166002900480156111195780601f106110f7576101008083540402835291820191611119565b820191906000526020600020905b815481529060010190602001808311611105575b5050825160208401908083835b602083106111455780518252601f199092019160209182019101611126565b6001836020036101000a03801982511681845116808217855250505050505090500192505050604051602081830303815290604052915050919050565b6001600160a01b03918216600090815260056020908152604080832093909416825291909152205460ff1690565b6111b86112ce565b600a546001600160a01b0390811691161461121a576040805162461bcd60e51b815260206004820181905260248201527f4f776e61626c653a2063616c6c6572206973206e6f7420746865206f776e6572604482015290519081900360640190fd5b6001600160a01b03811661125f5760405162461bcd60e51b81526004018080602001828103825260268152602001806120b06026913960400191505060405180910390fd5b600a546040516001600160a01b038084169216907f8be0079c531659141344cd1fd0a4f28419497f9722a3daafe3b4186f6b6457e090600090a3600a80546001600160a01b0319166001600160a01b0392909216919091179055565b60006108f360028363ffffffff61177a16565b3390565b600081815260046020526040902080546001600160a01b0319166001600160a01b038416908117909155819061130782610936565b6001600160a01b03167f8c5be1e5ebec7d5bd14f71427d1e84f3dd0314c0f7b2291e5b200ac8c7c3b92560405160405180910390a45050565b60006108f382611786565b6000611356826112bb565b6113915760405162461bcd60e51b815260040180806020018281038252602c8152602001806120fa602c913960400191505060405180910390fd5b600061139c83610936565b9050806001600160a01b0316846001600160a01b031614806113d75750836001600160a01b03166113cc84610723565b6001600160a01b0316145b806113e757506113e78185611182565b949350505050565b826001600160a01b031661140282610936565b6001600160a01b0316146114475760405162461bcd60e51b815260040180806020018281038252602981526020018061222b6029913960400191505060405180910390fd5b6001600160a01b03821661148c5760405162461bcd60e51b81526004018080602001828103825260248152602001806120d66024913960400191505060405180910390fd5b61149783838361085b565b6114a26000826112d2565b6001600160a01b03831660009081526001602052604090206114ca908263ffffffff61178a16565b506001600160a01b03821660009081526001602052604090206114f3908263ffffffff61179616565b506115066002828463ffffffff6117a216565b5080826001600160a01b0316846001600160a01b03167fddf252ad1be2c89b69c2b068fc378daa952ba7f163c4a11628f55a4df523b3ef60405160405180910390a4505050565b60006108f083836117b8565b6000808080611568868661181c565b9097909650945050505050565b6000611582848484611897565b90505b9392505050565b60006064600d54106115d4576040805162461bcd60e51b815260206004820152600c60248201526b444f4e45204d494e54494e4760a01b604482015290519081900360640190fd5b60646115e0600b611786565b10611621576040805162461bcd60e51b815260206004820152600c60248201526b444f4e45204d494e54494e4760a01b604482015290519081900360640190fd5b61162b600b611961565b6000611637600b611786565b9050611643848261196a565b6108f08184611aa4565b6116588484846113ef565b61166484848484611b07565b610ed55760405162461bcd60e51b815260040180806020018281038252603281526020018061207e6032913960400191505060405180910390fd5b6060816116c457506040805180820190915260018152600360fc1b602082015261066f565b8160005b81156116dc57600101600a820491506116c8565b60608167ffffffffffffffff811180156116f557600080fd5b506040519080825280601f01601f191660200182016040528015611720576020820181803683370190505b50859350905060001982015b831561177157600a840660300160f81b8282806001900393508151811061174f57fe5b60200101906001600160f81b031916908160001a905350600a8404935061172c565b50949350505050565b60006108f08383611c87565b5490565b60006108f08383611c9f565b60006108f08383611d65565b600061158284846001600160a01b038516611daf565b815460009082106117fa5760405162461bcd60e51b815260040180806020018281038252602281526020018061205c6022913960400191505060405180910390fd5b82600001828154811061180957fe5b9060005260206000200154905092915050565b8154600090819083106118605760405162461bcd60e51b81526004018080602001828103825260228152602001806121b16022913960400191505060405180910390fd5b600084600001848154811061187157fe5b906000526020600020906002020190508060000154816001015492509250509250929050565b600082815260018401602052604081205482816119325760405162461bcd60e51b81526004018080602001828103825283818151815260200191508051906020019080838360005b838110156118f75781810151838201526020016118df565b50505050905090810190601f1680156119245780820380516001836020036101000a031916815260200191505b509250505060405180910390fd5b5084600001600182038154811061194557fe5b9060005260206000209060020201600101549150509392505050565b80546001019055565b6001600160a01b0382166119c5576040805162461bcd60e51b815260206004820181905260248201527f4552433732313a206d696e7420746f20746865207a65726f2061646472657373604482015290519081900360640190fd5b6119ce816112bb565b15611a20576040805162461bcd60e51b815260206004820152601c60248201527f4552433732313a20746f6b656e20616c7265616479206d696e74656400000000604482015290519081900360640190fd5b611a2c6000838361085b565b6001600160a01b0382166000908152600160205260409020611a54908263ffffffff61179616565b50611a676002828463ffffffff6117a216565b5060405181906001600160a01b038416906000907fddf252ad1be2c89b69c2b068fc378daa952ba7f163c4a11628f55a4df523b3ef908290a45050565b611aad826112bb565b611ae85760405162461bcd60e51b815260040180806020018281038252602c8152602001806121ff602c913960400191505060405180910390fd5b6000828152600860209081526040909120825161085b92840190611fc3565b6000611b1b846001600160a01b0316611e46565b611b27575060016113e7565b6060611c4d630a85bd0160e11b611b3c6112ce565b88878760405160240180856001600160a01b03166001600160a01b03168152602001846001600160a01b03166001600160a01b0316815260200183815260200180602001828103825283818151815260200191508051906020019080838360005b83811015611bb5578181015183820152602001611b9d565b50505050905090810190601f168015611be25780820380516001836020036101000a031916815260200191505b5095505050505050604051602081830303815290604052906001600160e01b0319166020820180516001600160e01b03838183161783525050505060405180606001604052806032815260200161207e603291396001600160a01b038816919063ffffffff611e4c16565b90506000818060200190516020811015611c6657600080fd5b50516001600160e01b031916630a85bd0160e11b1492505050949350505050565b60009081526001919091016020526040902054151590565b60008181526001830160205260408120548015611d5b5783546000198083019190810190600090879083908110611cd257fe5b9060005260206000200154905080876000018481548110611cef57fe5b600091825260208083209091019290925582815260018981019092526040902090840190558654879080611d1f57fe5b600190038181906000526020600020016000905590558660010160008781526020019081526020016000206000905560019450505050506108f3565b60009150506108f3565b6000611d718383611c87565b611da7575081546001818101845560008481526020808220909301849055845484825282860190935260409020919091556108f3565b5060006108f3565b600082815260018401602052604081205480611e14575050604080518082018252838152602080820184815286546001818101895560008981528481209551600290930290950191825591519082015586548684528188019092529290912055611585565b82856000016001830381548110611e2757fe5b9060005260206000209060020201600101819055506000915050611585565b3b151590565b606061158284846000856060611e6185611e46565b611eb2576040805162461bcd60e51b815260206004820152601d60248201527f416464726573733a2063616c6c20746f206e6f6e2d636f6e7472616374000000604482015290519081900360640190fd5b60006060866001600160a01b031685876040518082805190602001908083835b60208310611ef15780518252601f199092019160209182019101611ed2565b6001836020036101000a03801982511681845116808217855250505050505090500191505060006040518083038185875af1925050503d8060008114611f53576040519150601f19603f3d011682016040523d82523d6000602084013e611f58565b606091505b50915091508115611f6c5791506113e79050565b805115611f7c5780518082602001fd5b60405162461bcd60e51b81526020600482018181528651602484015286518793919283926044019190850190808383600083156118f75781810151838201526020016118df565b828054600181600116156101000203166002900490600052602060002090601f016020900481019282601f1061200457805160ff1916838001178555612031565b82800160010185558215612031579182015b82811115612031578251825591602001919060010190612016565b5061203d929150612041565b5090565b61072091905b8082111561203d576000815560010161204756fe456e756d657261626c655365743a20696e646578206f7574206f6620626f756e64734552433732313a207472616e7366657220746f206e6f6e20455243373231526563656976657220696d706c656d656e7465724f776e61626c653a206e6577206f776e657220697320746865207a65726f20616464726573734552433732313a207472616e7366657220746f20746865207a65726f20616464726573734552433732313a206f70657261746f7220717565727920666f72206e6f6e6578697374656e7420746f6b656e4552433732313a20617070726f76652063616c6c6572206973206e6f74206f776e6572206e6f7220617070726f76656420666f7220616c6c4552433732313a2062616c616e636520717565727920666f7220746865207a65726f20616464726573734552433732313a206f776e657220717565727920666f72206e6f6e6578697374656e7420746f6b656e456e756d657261626c654d61703a20696e646578206f7574206f6620626f756e64734552433732313a20617070726f76656420717565727920666f72206e6f6e6578697374656e7420746f6b656e4552433732314d657461646174613a2055524920736574206f66206e6f6e6578697374656e7420746f6b656e4552433732313a207472616e73666572206f6620746f6b656e2074686174206973206e6f74206f776e4552433732314d657461646174613a2055524920717565727920666f72206e6f6e6578697374656e7420746f6b656e4552433732313a20617070726f76616c20746f2063757272656e74206f776e65724552433732313a207472616e736665722063616c6c6572206973206e6f74206f776e6572206e6f7220617070726f766564a2646970667358221220e12530f21fff475fde1e94a5c14d4b882470ff5c368740f4b73c3b19dedd507364736f6c6343000607003368747470733a2f2f676174657761792e70696e6174612e636c6f75642f697066732f516d646b5a5738684d625353426a72466f763773476f656f7876594a6e56703867783770674279434e6f4d366b6f2f",
          "opcodes": "PUSH1 0x80 PUSH1 0x40 MSTORE CALLVALUE DUP1 ISZERO PUSH3 0x11 JUMPI PUSH1 0x0 DUP1 REVERT JUMPDEST POP PUSH1 0x40 DUP1 MLOAD DUP1 DUP3 ADD DUP3 MSTORE PUSH1 0xC DUP2 MSTORE PUSH12 0x4D6F6F6E53686F74426F7473 PUSH1 0xA0 SHL PUSH1 0x20 DUP1 DUP4 ADD SWAP2 SWAP1 SWAP2 MSTORE DUP3 MLOAD DUP1 DUP5 ADD SWAP1 SWAP4 MSTORE PUSH1 0x3 DUP4 MSTORE PUSH3 0x26A9A1 PUSH1 0xE9 SHL SWAP1 DUP4 ADD MSTORE SWAP1 PUSH3 0x6B PUSH4 0x1FFC9A7 PUSH1 0xE0 SHL PUSH1 0x1 PUSH1 0x1 PUSH1 0xE0 SHL SUB PUSH3 0x1A9D AND JUMP JUMPDEST DUP2 MLOAD PUSH3 0x80 SWAP1 PUSH1 0x6 SWAP1 PUSH1 0x20 DUP6 ADD SWAP1 PUSH3 0x1B40 JUMP JUMPDEST POP DUP1 MLOAD PUSH3 0x96 SWAP1 PUSH1 0x7 SWAP1 PUSH1 0x20 DUP5 ADD SWAP1 PUSH3 0x1B40 JUMP JUMPDEST POP PUSH3 0xB2 PUSH4 0x80AC58CD PUSH1 0xE0 SHL PUSH1 0x1 PUSH1 0x1 PUSH1 0xE0 SHL SUB PUSH3 0x1A9D AND JUMP JUMPDEST PUSH3 0xCD PUSH4 0x5B5E139F PUSH1 0xE0 SHL PUSH1 0x1 PUSH1 0x1 PUSH1 0xE0 SHL SUB PUSH3 0x1A9D AND JUMP JUMPDEST PUSH3 0xE8 PUSH4 0x780E9D63 PUSH1 0xE0 SHL PUSH1 0x1 PUSH1 0x1 PUSH1 0xE0 SHL SUB PUSH3 0x1A9D AND JUMP JUMPDEST POP PUSH1 0x0 SWAP1 POP PUSH3 0x100 PUSH1 0x1 PUSH1 0x1 PUSH1 0xE0 SHL SUB PUSH3 0x1B22 AND JUMP JUMPDEST PUSH1 0xA DUP1 SLOAD PUSH1 0x1 PUSH1 0x1 PUSH1 0xA0 SHL SUB NOT AND PUSH1 0x1 PUSH1 0x1 PUSH1 0xA0 SHL SUB DUP4 AND SWAP1 DUP2 OR SWAP1 SWAP2 SSTORE PUSH1 0x40 MLOAD SWAP2 SWAP3 POP SWAP1 PUSH1 0x0 SWAP1 PUSH32 0x8BE0079C531659141344CD1FD0A4F28419497F9722A3DAAFE3B4186F6B6457E0 SWAP1 DUP3 SWAP1 LOG3 POP PUSH3 0x17B PUSH1 0x40 MLOAD DUP1 PUSH1 0x80 ADD PUSH1 0x40 MSTORE DUP1 PUSH1 0x51 DUP2 MSTORE PUSH1 0x20 ADD PUSH3 0x3FCF PUSH1 0x51 SWAP2 CODECOPY PUSH1 0x1 PUSH1 0x1 PUSH1 0xE0 SHL SUB PUSH3 0x1B27 AND JUMP JUMPDEST PUSH1 0x40 DUP1 MLOAD PUSH2 0x1780 DUP2 ADD DUP3 MSTORE PUSH1 0xB PUSH2 0x1740 DUP3 ADD DUP2 DUP2 MSTORE PUSH11 0x20B232B63CB7173539B7B7 PUSH1 0xA9 SHL PUSH2 0x1760 DUP5 ADD MSTORE DUP3 MSTORE DUP3 MLOAD DUP1 DUP5 ADD DUP5 MSTORE PUSH1 0xA DUP1 DUP3 MSTORE PUSH10 0x21B0B4B937973539B7B7 PUSH1 0xB1 SHL PUSH1 0x20 DUP4 DUP2 ADD SWAP2 SWAP1 SWAP2 MSTORE DUP1 DUP6 ADD SWAP3 SWAP1 SWAP3 MSTORE DUP5 MLOAD DUP1 DUP7 ADD DUP7 MSTORE PUSH1 0xC DUP1 DUP3 MSTORE PUSH12 0x2237B6B4B734B1973539B7B7 PUSH1 0xA1 SHL DUP3 DUP6 ADD MSTORE DUP6 DUP8 ADD SWAP2 SWAP1 SWAP2 MSTORE DUP6 MLOAD DUP1 DUP8 ADD DUP8 MSTORE DUP5 DUP2 MSTORE PUSH11 0x2430B93637BB973539B7B7 PUSH1 0xA9 SHL DUP2 DUP6 ADD MSTORE PUSH1 0x60 DUP7 ADD MSTORE DUP6 MLOAD DUP1 DUP8 ADD DUP8 MSTORE PUSH1 0xD DUP1 DUP3 MSTORE PUSH13 0x25B430B632B2B9B4973539B7B7 PUSH1 0x99 SHL DUP3 DUP7 ADD MSTORE PUSH1 0x80 DUP8 ADD SWAP2 SWAP1 SWAP2 MSTORE DUP7 MLOAD DUP1 DUP9 ADD DUP9 MSTORE DUP2 DUP2 MSTORE PUSH13 0x26B2B932B234BA34173539B7B7 PUSH1 0x99 SHL DUP2 DUP7 ADD MSTORE PUSH1 0xA0 DUP8 ADD MSTORE DUP7 MLOAD DUP1 DUP9 ADD DUP9 MSTORE PUSH1 0x9 DUP1 DUP3 MSTORE PUSH9 0x293CB0B7173539B7B7 PUSH1 0xB9 SHL DUP3 DUP8 ADD MSTORE PUSH1 0xC0 DUP9 ADD SWAP2 SWAP1 SWAP2 MSTORE DUP8 MLOAD DUP1 DUP10 ADD DUP10 MSTORE DUP5 DUP2 MSTORE PUSH10 0x20B23632B9173539B7B7 PUSH1 0xB1 SHL DUP2 DUP8 ADD MSTORE PUSH1 0xE0 DUP9 ADD MSTORE DUP8 MLOAD DUP1 DUP10 ADD DUP10 MSTORE PUSH1 0x8 DUP1 DUP3 MSTORE PUSH8 0x21B0B6173539B7B7 PUSH1 0xC1 SHL DUP3 DUP9 ADD MSTORE PUSH2 0x100 DUP10 ADD SWAP2 SWAP1 SWAP2 MSTORE DUP9 MLOAD DUP1 DUP8 ADD DUP11 MSTORE PUSH1 0x0 DUP1 DUP3 MSTORE PUSH2 0x120 DUP11 ADD SWAP2 SWAP1 SWAP2 MSTORE DUP10 MLOAD DUP1 DUP12 ADD DUP12 MSTORE DUP9 DUP2 MSTORE PUSH11 0x2237B730B632173539B7B7 PUSH1 0xA9 SHL DUP2 DUP10 ADD MSTORE PUSH2 0x140 DUP11 ADD MSTORE DUP10 MLOAD DUP1 DUP12 ADD DUP12 MSTORE DUP6 DUP2 MSTORE PUSH12 0x2430B936B7B73C973539B7B7 PUSH1 0xA1 SHL DUP2 DUP10 ADD MSTORE PUSH2 0x160 DUP11 ADD MSTORE DUP10 MLOAD DUP1 DUP12 ADD DUP12 MSTORE DUP6 DUP2 MSTORE PUSH12 0x25B4B63634B0B7173539B7B7 PUSH1 0xA1 SHL DUP2 DUP10 ADD MSTORE PUSH2 0x180 DUP11 ADD MSTORE DUP10 MLOAD DUP1 DUP12 ADD DUP12 MSTORE DUP6 DUP2 MSTORE PUSH12 0x26B4B1B430B2B6173539B7B7 PUSH1 0xA1 SHL DUP2 DUP10 ADD MSTORE PUSH2 0x1A0 DUP11 ADD MSTORE DUP10 MLOAD DUP1 DUP12 ADD DUP12 MSTORE DUP7 DUP2 MSTORE PUSH10 0x293CB0B737173539B7B7 PUSH1 0xB1 SHL DUP2 DUP10 ADD MSTORE PUSH2 0x1C0 DUP11 ADD MSTORE DUP10 MLOAD DUP1 DUP12 ADD DUP12 MSTORE DUP7 DUP2 MSTORE PUSH10 0x20B436B4B9173539B7B7 PUSH1 0xB1 SHL DUP2 DUP10 ADD MSTORE PUSH2 0x1E0 DUP11 ADD MSTORE DUP10 MLOAD DUP1 DUP12 ADD DUP12 MSTORE DUP9 DUP2 MSTORE PUSH11 0x21B0B63630B7173539B7B7 PUSH1 0xA9 SHL DUP2 DUP10 ADD MSTORE PUSH2 0x200 DUP11 ADD MSTORE DUP10 MLOAD DUP1 DUP12 ADD DUP12 MSTORE DUP9 DUP2 MSTORE PUSH11 0x2237B934B0B7173539B7B7 PUSH1 0xA9 SHL DUP2 DUP10 ADD MSTORE PUSH2 0x220 DUP11 ADD MSTORE DUP10 MLOAD DUP1 DUP12 ADD DUP12 MSTORE DUP4 DUP2 MSTORE PUSH9 0x2437B832973539B7B7 PUSH1 0xB9 SHL DUP2 DUP10 ADD MSTORE PUSH2 0x240 DUP11 ADD MSTORE DUP10 MLOAD DUP1 DUP12 ADD DUP12 MSTORE DUP9 DUP2 MSTORE PUSH11 0x25B7B63A37B7173539B7B7 PUSH1 0xA9 SHL DUP2 DUP10 ADD MSTORE PUSH2 0x260 DUP11 ADD MSTORE DUP10 MLOAD DUP1 DUP12 ADD DUP12 MSTORE DUP9 DUP2 MSTORE PUSH11 0x26B4B630B730973539B7B7 PUSH1 0xA9 SHL DUP2 DUP10 ADD MSTORE PUSH2 0x280 DUP11 ADD MSTORE DUP10 MLOAD DUP1 DUP12 ADD DUP12 MSTORE DUP6 DUP2 MSTORE PUSH12 0x29B0B7B4B939B2973539B7B7 PUSH1 0xA1 SHL DUP2 DUP10 ADD MSTORE PUSH2 0x2A0 DUP11 ADD MSTORE DUP10 MLOAD DUP1 DUP12 ADD DUP12 MSTORE DUP7 DUP2 MSTORE PUSH10 0x20B630BCB0973539B7B7 PUSH1 0xB1 SHL DUP2 DUP10 ADD MSTORE PUSH2 0x2C0 DUP11 ADD MSTORE DUP10 MLOAD DUP1 DUP12 ADD DUP12 MSTORE DUP6 DUP2 MSTORE PUSH12 0x21B0B6B2B937B7173539B7B7 PUSH1 0xA1 SHL DUP2 DUP10 ADD MSTORE PUSH2 0x2E0 DUP11 ADD MSTORE DUP10 MLOAD DUP1 DUP12 ADD DUP12 MSTORE DUP7 DUP2 MSTORE PUSH10 0x223932B0B6973539B7B7 PUSH1 0xB1 SHL DUP2 DUP10 ADD MSTORE PUSH2 0x300 DUP11 ADD MSTORE DUP10 MLOAD DUP1 DUP12 ADD DUP12 MSTORE DUP3 DUP2 MSTORE PUSH8 0x24B0B7173539B7B7 PUSH1 0xC1 SHL DUP2 DUP10 ADD MSTORE PUSH2 0x320 DUP11 ADD MSTORE DUP10 MLOAD DUP1 DUP9 ADD DUP12 MSTORE DUP2 DUP2 MSTORE PUSH2 0x340 DUP11 ADD MSTORE DUP10 MLOAD DUP1 DUP12 ADD DUP12 MSTORE DUP4 DUP2 MSTORE PUSH9 0x25B7B930973539B7B7 PUSH1 0xB9 SHL DUP2 DUP10 ADD MSTORE PUSH2 0x360 DUP11 ADD MSTORE DUP10 MLOAD DUP1 DUP12 ADD DUP12 MSTORE DUP5 DUP2 MSTORE PUSH13 0x26B7B430B6B6B0B2173539B7B7 PUSH1 0x99 SHL DUP2 DUP10 ADD MSTORE PUSH2 0x380 DUP11 ADD MSTORE DUP10 MLOAD DUP1 DUP12 ADD DUP12 MSTORE DUP6 DUP2 MSTORE PUSH12 0x29B4B731B2B932973539B7B7 PUSH1 0xA1 SHL DUP2 DUP10 ADD MSTORE PUSH2 0x3A0 DUP11 ADD MSTORE DUP10 MLOAD DUP1 DUP12 ADD DUP12 MSTORE DUP9 DUP2 MSTORE PUSH11 0x20B63132B93A173539B7B7 PUSH1 0xA9 SHL DUP2 DUP10 ADD MSTORE PUSH2 0x3C0 DUP11 ADD MSTORE DUP10 MLOAD DUP1 DUP12 ADD DUP12 MSTORE DUP9 DUP2 MSTORE PUSH11 0x21B0B73737B7173539B7B7 PUSH1 0xA9 SHL DUP2 DUP10 ADD MSTORE PUSH2 0x3E0 DUP11 ADD MSTORE DUP10 MLOAD DUP1 DUP12 ADD DUP12 MSTORE DUP7 DUP2 MSTORE PUSH10 0x22B23BB4B7173539B7B7 PUSH1 0xB1 SHL DUP2 DUP10 ADD MSTORE PUSH2 0x400 DUP11 ADD MSTORE DUP10 MLOAD DUP1 DUP12 ADD DUP12 MSTORE DUP6 DUP2 MSTORE PUSH12 0x24B13930B434B6973539B7B7 PUSH1 0xA1 SHL DUP2 DUP10 ADD MSTORE PUSH2 0x420 DUP11 ADD MSTORE DUP10 MLOAD DUP1 DUP12 ADD DUP12 MSTORE DUP9 DUP2 MSTORE PUSH11 0x2630B4B732BC973539B7B7 PUSH1 0xA9 SHL DUP2 DUP10 ADD MSTORE PUSH2 0x440 DUP11 ADD MSTORE DUP10 MLOAD DUP1 DUP12 ADD DUP12 MSTORE DUP7 DUP2 MSTORE PUSH10 0x26B7B6363C973539B7B7 PUSH1 0xB1 SHL DUP2 DUP10 ADD MSTORE PUSH2 0x460 DUP11 ADD MSTORE DUP10 MLOAD DUP1 DUP12 ADD DUP12 MSTORE DUP4 DUP2 MSTORE PUSH9 0x29B5BCB2973539B7B7 PUSH1 0xB9 SHL DUP2 DUP10 ADD MSTORE PUSH2 0x480 DUP11 ADD MSTORE DUP10 MLOAD DUP1 DUP12 ADD DUP12 MSTORE DUP7 DUP2 MSTORE PUSH10 0x20B63232B7173539B7B7 PUSH1 0xB1 SHL DUP2 DUP10 ADD MSTORE PUSH2 0x4A0 DUP11 ADD MSTORE DUP10 MLOAD DUP1 DUP12 ADD DUP12 MSTORE DUP9 DUP2 MSTORE PUSH11 0x21B0B93637B9973539B7B7 PUSH1 0xA9 SHL DUP2 DUP10 ADD MSTORE PUSH2 0x4C0 DUP11 ADD MSTORE DUP10 MLOAD DUP1 DUP12 ADD DUP12 MSTORE DUP9 DUP2 MSTORE PUSH11 0x22B630B4B732973539B7B7 PUSH1 0xA9 SHL DUP2 DUP10 ADD MSTORE PUSH2 0x4E0 DUP11 ADD MSTORE DUP10 MLOAD DUP1 DUP12 ADD DUP12 MSTORE DUP7 DUP2 MSTORE PUSH10 0x24B73234B2973539B7B7 PUSH1 0xB1 SHL DUP2 DUP10 ADD MSTORE PUSH2 0x500 DUP11 ADD MSTORE DUP10 MLOAD DUP1 DUP12 ADD DUP12 MSTORE DUP9 DUP2 MSTORE PUSH11 0x2630BAB932B6173539B7B7 PUSH1 0xA9 SHL DUP2 DUP10 ADD MSTORE PUSH2 0x520 DUP11 ADD MSTORE DUP10 MLOAD DUP1 DUP12 ADD DUP12 MSTORE DUP7 DUP2 MSTORE PUSH10 0x26BCB632B9973539B7B7 PUSH1 0xB1 SHL DUP2 DUP10 ADD MSTORE PUSH2 0x540 DUP11 ADD MSTORE DUP10 MLOAD DUP1 DUP12 ADD DUP12 MSTORE DUP6 DUP2 MSTORE PUSH12 0x29B7B637B6B7B7173539B7B7 PUSH1 0xA1 SHL DUP2 DUP10 ADD MSTORE PUSH2 0x560 DUP11 ADD MSTORE DUP10 MLOAD DUP1 DUP12 ADD DUP12 MSTORE PUSH1 0xF DUP1 DUP3 MSTORE PUSH15 0x20B632B9B9B0B7323937973539B7B7 PUSH1 0x89 SHL DUP3 DUP11 ADD MSTORE PUSH2 0x580 DUP12 ADD SWAP2 SWAP1 SWAP2 MSTORE DUP11 MLOAD DUP1 DUP13 ADD DUP13 MSTORE DUP8 DUP2 MSTORE PUSH10 0x21B0B9363C973539B7B7 PUSH1 0xB1 SHL DUP2 DUP11 ADD MSTORE PUSH2 0x5A0 DUP12 ADD MSTORE DUP11 MLOAD DUP1 DUP13 ADD DUP13 MSTORE DUP10 DUP2 MSTORE PUSH11 0x22B634B0B730973539B7B7 PUSH1 0xA9 SHL DUP2 DUP11 ADD MSTORE PUSH2 0x5C0 DUP12 ADD MSTORE DUP11 MLOAD DUP1 DUP13 ADD DUP13 MSTORE DUP10 DUP2 MSTORE PUSH11 0x24B9B930B2B6173539B7B7 PUSH1 0xA9 SHL DUP2 DUP11 ADD MSTORE PUSH2 0x5E0 DUP12 ADD MSTORE DUP11 MLOAD DUP1 DUP13 ADD DUP13 MSTORE DUP10 DUP2 MSTORE PUSH11 0x2630BCBA37B7173539B7B7 PUSH1 0xA9 SHL DUP2 DUP11 ADD MSTORE PUSH2 0x600 DUP12 ADD MSTORE DUP11 MLOAD DUP1 DUP13 ADD DUP13 MSTORE PUSH1 0xE DUP1 DUP3 MSTORE PUSH14 0x2730BA3430B730B2B6173539B7B7 PUSH1 0x91 SHL DUP3 DUP12 ADD MSTORE PUSH2 0x620 DUP13 ADD SWAP2 SWAP1 SWAP2 MSTORE DUP12 MLOAD DUP1 DUP14 ADD DUP14 MSTORE DUP11 DUP2 MSTORE PUSH11 0x29BA32BB32B7173539B7B7 PUSH1 0xA9 SHL DUP2 DUP12 ADD MSTORE PUSH2 0x640 DUP13 ADD MSTORE DUP12 MLOAD DUP1 DUP14 ADD DUP14 MSTORE DUP6 DUP2 MSTORE PUSH9 0x20B632BC173539B7B7 PUSH1 0xB9 SHL DUP2 DUP12 ADD MSTORE PUSH2 0x660 DUP13 ADD MSTORE DUP12 MLOAD DUP1 DUP14 ADD DUP14 MSTORE DUP6 DUP2 MSTORE PUSH9 0x21B0B9B2973539B7B7 PUSH1 0xB9 SHL DUP2 DUP12 ADD MSTORE PUSH2 0x680 DUP13 ADD MSTORE DUP12 MLOAD DUP1 DUP14 ADD DUP14 MSTORE DUP8 DUP2 MSTORE PUSH12 0x22B634B0B73730973539B7B7 PUSH1 0xA1 SHL DUP2 DUP12 ADD MSTORE PUSH2 0x6A0 DUP13 ADD MSTORE DUP12 MLOAD DUP1 DUP14 ADD DUP14 MSTORE DUP11 DUP2 MSTORE PUSH11 0x24BD30B4B0B4173539B7B7 PUSH1 0xA9 SHL DUP2 DUP12 ADD MSTORE PUSH2 0x6C0 DUP13 ADD MSTORE DUP12 MLOAD DUP1 DUP14 ADD DUP14 MSTORE DUP8 DUP2 MSTORE PUSH12 0x2632B0B7323937973539B7B7 PUSH1 0xA1 SHL DUP2 DUP12 ADD MSTORE PUSH2 0x6E0 DUP13 ADD MSTORE DUP12 MLOAD DUP1 DUP14 ADD DUP14 MSTORE DUP11 DUP2 MSTORE PUSH11 0x2732B63634B2973539B7B7 PUSH1 0xA9 SHL DUP2 DUP12 ADD MSTORE PUSH2 0x700 DUP13 ADD MSTORE DUP12 MLOAD DUP1 DUP14 ADD DUP14 MSTORE DUP9 DUP2 MSTORE PUSH10 0x2A30B637B7173539B7B7 PUSH1 0xB1 SHL DUP2 DUP12 ADD MSTORE PUSH2 0x720 DUP13 ADD MSTORE DUP12 MLOAD DUP1 DUP14 ADD DUP14 MSTORE DUP11 DUP2 MSTORE PUSH11 0x20B632BC34B9973539B7B7 PUSH1 0xA9 SHL DUP2 DUP12 ADD MSTORE PUSH2 0x740 DUP13 ADD MSTORE DUP12 MLOAD DUP1 DUP14 ADD DUP14 MSTORE DUP9 DUP2 MSTORE PUSH10 0x21B0B9B2B7173539B7B7 PUSH1 0xB1 SHL DUP2 DUP12 ADD MSTORE PUSH2 0x760 DUP13 ADD MSTORE DUP12 MLOAD DUP1 DUP14 ADD DUP14 MSTORE DUP2 DUP2 MSTORE PUSH14 0x22B634BD30B132BA34173539B7B7 PUSH1 0x91 SHL DUP2 DUP12 ADD MSTORE PUSH2 0x780 DUP13 ADD MSTORE DUP12 MLOAD DUP1 DUP14 ADD DUP14 MSTORE DUP6 DUP2 MSTORE PUSH9 0x2530B5B2973539B7B7 PUSH1 0xB9 SHL DUP2 DUP12 ADD MSTORE PUSH2 0x7A0 DUP13 ADD MSTORE DUP12 MLOAD DUP1 DUP14 ADD DUP14 MSTORE DUP8 DUP2 MSTORE PUSH12 0x2632B7B730B932173539B7B7 PUSH1 0xA1 SHL DUP2 DUP12 ADD MSTORE PUSH2 0x7C0 DUP13 ADD MSTORE DUP12 MLOAD DUP1 DUP14 ADD DUP14 MSTORE DUP7 DUP2 MSTORE PUSH13 0x2734B1B437B630B9973539B7B7 PUSH1 0x99 SHL DUP2 DUP12 ADD MSTORE PUSH2 0x7E0 DUP13 ADD MSTORE DUP12 MLOAD DUP1 DUP14 ADD DUP14 MSTORE DUP11 DUP2 MSTORE PUSH11 0x2A30BCB637B9173539B7B7 PUSH1 0xA9 SHL DUP2 DUP12 ADD MSTORE PUSH2 0x800 DUP13 ADD MSTORE DUP12 MLOAD DUP1 DUP14 ADD DUP14 MSTORE DUP6 DUP2 MSTORE PUSH9 0x20B634B0973539B7B7 PUSH1 0xB9 SHL DUP2 DUP12 ADD MSTORE PUSH2 0x820 DUP13 ADD MSTORE DUP12 MLOAD DUP1 DUP14 ADD DUP14 MSTORE DUP11 DUP2 MSTORE PUSH11 0x21B0BCB9B7B7173539B7B7 PUSH1 0xA9 SHL DUP2 DUP12 ADD MSTORE PUSH2 0x840 DUP13 ADD MSTORE DUP12 MLOAD DUP1 DUP14 ADD DUP14 MSTORE DUP8 DUP2 MSTORE PUSH12 0x22B63634B0B730973539B7B7 PUSH1 0xA1 SHL DUP2 DUP12 ADD MSTORE PUSH2 0x860 DUP13 ADD MSTORE DUP12 MLOAD DUP1 DUP14 ADD DUP14 MSTORE DUP9 DUP2 MSTORE PUSH10 0x2530B632B7173539B7B7 PUSH1 0xB1 SHL DUP2 DUP12 ADD MSTORE PUSH2 0x880 DUP13 ADD MSTORE DUP12 MLOAD DUP1 DUP14 ADD DUP14 MSTORE DUP9 DUP2 MSTORE PUSH10 0x2632BC34B2973539B7B7 PUSH1 0xB1 SHL DUP2 DUP12 ADD MSTORE PUSH2 0x8A0 DUP13 ADD MSTORE DUP12 MLOAD DUP1 DUP14 ADD DUP14 MSTORE DUP6 DUP2 MSTORE PUSH9 0x2734B5B7973539B7B7 PUSH1 0xB9 SHL DUP2 DUP12 ADD MSTORE PUSH2 0x8C0 DUP13 ADD MSTORE DUP12 MLOAD DUP1 DUP14 ADD DUP14 MSTORE DUP9 DUP2 MSTORE PUSH10 0x2A32B9B9B0973539B7B7 PUSH1 0xB1 SHL DUP2 DUP12 ADD MSTORE PUSH2 0x8E0 DUP13 ADD MSTORE DUP12 MLOAD DUP1 DUP14 ADD DUP14 MSTORE DUP11 DUP2 MSTORE PUSH11 0x20B63CB9B9B0973539B7B7 PUSH1 0xA9 SHL DUP2 DUP12 ADD MSTORE PUSH2 0x900 DUP13 ADD MSTORE DUP12 MLOAD DUP1 DUP14 ADD DUP14 MSTORE DUP9 DUP2 MSTORE PUSH10 0x21B2B9B0B9173539B7B7 PUSH1 0xB1 SHL DUP2 DUP12 ADD MSTORE PUSH2 0x920 DUP13 ADD MSTORE DUP12 MLOAD DUP1 DUP14 ADD DUP14 MSTORE DUP7 DUP2 MSTORE PUSH13 0x22B63634B0B73730973539B7B7 PUSH1 0x99 SHL DUP2 DUP12 ADD MSTORE PUSH2 0x940 DUP13 ADD MSTORE DUP12 MLOAD DUP1 DUP14 ADD DUP14 MSTORE DUP6 DUP2 MSTORE PUSH9 0x2530B9B2973539B7B7 PUSH1 0xB9 SHL DUP2 DUP12 ADD MSTORE PUSH2 0x960 DUP13 ADD MSTORE DUP12 MLOAD DUP1 DUP14 ADD DUP14 MSTORE DUP9 DUP2 MSTORE PUSH10 0x2634B0B730973539B7B7 PUSH1 0xB1 SHL DUP2 DUP12 ADD MSTORE PUSH2 0x980 DUP13 ADD MSTORE DUP12 MLOAD DUP1 DUP14 ADD DUP14 MSTORE DUP11 DUP2 MSTORE PUSH11 0x27B0B5B63CB7173539B7B7 PUSH1 0xA9 SHL DUP2 DUP12 ADD MSTORE PUSH2 0x9A0 DUP13 ADD MSTORE DUP12 MLOAD DUP1 DUP14 ADD DUP14 MSTORE DUP6 DUP2 MSTORE PUSH9 0x2A3432B7973539B7B7 PUSH1 0xB9 SHL DUP2 DUP12 ADD MSTORE PUSH2 0x9C0 DUP13 ADD MSTORE DUP12 MLOAD DUP1 DUP14 ADD DUP14 MSTORE DUP9 DUP2 MSTORE PUSH10 0x20B6B7B930973539B7B7 PUSH1 0xB1 SHL DUP2 DUP12 ADD MSTORE PUSH2 0x9E0 DUP13 ADD MSTORE DUP12 MLOAD DUP1 DUP14 ADD DUP14 MSTORE DUP8 DUP2 MSTORE PUSH12 0x21B430B93634B2973539B7B7 PUSH1 0xA1 SHL DUP2 DUP12 ADD MSTORE PUSH2 0xA00 DUP13 ADD MSTORE DUP12 MLOAD DUP1 DUP14 ADD DUP14 MSTORE DUP9 DUP2 MSTORE PUSH10 0x22B63CB9B2973539B7B7 PUSH1 0xB1 SHL DUP2 DUP12 ADD MSTORE PUSH2 0xA20 DUP13 ADD MSTORE DUP12 MLOAD DUP1 DUP14 ADD DUP14 MSTORE DUP11 DUP2 MSTORE PUSH11 0x2530BC3A3CB7173539B7B7 PUSH1 0xA9 SHL DUP2 DUP12 ADD MSTORE PUSH2 0xA40 DUP13 ADD MSTORE DUP12 MLOAD DUP1 DUP14 ADD DUP14 MSTORE DUP8 DUP2 MSTORE PUSH12 0x2634B634B0B730973539B7B7 PUSH1 0xA1 SHL DUP2 DUP12 ADD MSTORE PUSH2 0xA60 DUP13 ADD MSTORE DUP12 MLOAD DUP1 DUP14 ADD DUP14 MSTORE DUP8 DUP2 MSTORE PUSH12 0x27B0B5B63CB737173539B7B7 PUSH1 0xA1 SHL DUP2 DUP12 ADD MSTORE PUSH2 0xA80 DUP13 ADD MSTORE DUP12 MLOAD DUP1 DUP14 ADD DUP14 MSTORE DUP9 DUP2 MSTORE PUSH10 0x2A37B6B0B9973539B7B7 PUSH1 0xB1 SHL DUP2 DUP12 ADD MSTORE PUSH2 0xAA0 DUP13 ADD MSTORE DUP12 MLOAD DUP1 DUP14 ADD DUP14 MSTORE DUP11 DUP2 MSTORE PUSH11 0x20B730B5B4B7173539B7B7 PUSH1 0xA9 SHL DUP2 DUP12 ADD MSTORE PUSH2 0xAC0 DUP13 ADD MSTORE DUP12 MLOAD DUP1 DUP14 ADD DUP14 MSTORE DUP11 DUP2 MSTORE PUSH11 0x21B630B4B932973539B7B7 PUSH1 0xA9 SHL DUP2 DUP12 ADD MSTORE PUSH2 0xAE0 DUP13 ADD MSTORE DUP12 MLOAD DUP1 DUP14 ADD DUP14 MSTORE DUP6 DUP2 MSTORE PUSH9 0x22BB30B7173539B7B7 PUSH1 0xB9 SHL DUP2 DUP12 ADD MSTORE PUSH2 0xB00 DUP13 ADD MSTORE DUP12 MLOAD DUP1 DUP14 ADD DUP14 MSTORE DUP5 DUP2 MSTORE PUSH8 0x2530BC973539B7B7 PUSH1 0xC1 SHL DUP2 DUP12 ADD MSTORE PUSH2 0xB20 DUP13 ADD MSTORE DUP12 MLOAD DUP1 DUP11 ADD DUP14 MSTORE DUP4 DUP2 MSTORE PUSH2 0xB40 DUP13 ADD MSTORE DUP12 MLOAD DUP1 DUP14 ADD DUP14 MSTORE DUP9 DUP2 MSTORE PUSH10 0x2634B73230973539B7B7 PUSH1 0xB1 SHL DUP2 DUP12 ADD MSTORE PUSH2 0xB60 DUP13 ADD MSTORE DUP12 MLOAD DUP1 DUP14 ADD DUP14 MSTORE DUP8 DUP2 MSTORE PUSH12 0x2830B4B9B632BC973539B7B7 PUSH1 0xA1 SHL DUP2 DUP12 ADD MSTORE PUSH2 0xB80 DUP13 ADD MSTORE DUP12 MLOAD DUP1 DUP14 ADD DUP14 MSTORE PUSH1 0x7 DUP2 MSTORE PUSH7 0x2A3C973539B7B7 PUSH1 0xC9 SHL DUP2 DUP12 ADD MSTORE PUSH2 0xBA0 DUP13 ADD MSTORE DUP12 MLOAD DUP1 DUP14 ADD DUP14 MSTORE DUP7 DUP2 MSTORE PUSH13 0x20B733B2B634B730973539B7B7 PUSH1 0x99 SHL DUP2 DUP12 ADD MSTORE PUSH2 0xBC0 DUP13 ADD MSTORE DUP12 MLOAD DUP1 DUP14 ADD DUP14 MSTORE DUP9 DUP2 MSTORE PUSH10 0x21B630B935973539B7B7 PUSH1 0xB1 SHL DUP2 DUP12 ADD MSTORE PUSH2 0xBE0 DUP13 ADD MSTORE DUP12 MLOAD DUP1 DUP14 ADD DUP14 MSTORE DUP3 DUP2 MSTORE PUSH15 0x22BB30B733B2B634B732973539B7B7 PUSH1 0x89 SHL DUP2 DUP12 ADD MSTORE PUSH2 0xC00 DUP13 ADD MSTORE DUP12 MLOAD DUP1 DUP14 ADD DUP14 MSTORE DUP8 DUP2 MSTORE PUSH12 0x2532B3333932BC973539B7B7 PUSH1 0xA1 SHL DUP2 DUP12 ADD MSTORE PUSH2 0xC20 DUP13 ADD MSTORE DUP12 MLOAD DUP1 DUP14 ADD DUP14 MSTORE DUP5 DUP2 MSTORE PUSH8 0x2634BB173539B7B7 PUSH1 0xC1 SHL DUP2 DUP12 ADD MSTORE PUSH2 0xC40 DUP13 ADD MSTORE DUP12 MLOAD DUP1 DUP11 ADD DUP14 MSTORE DUP4 DUP2 MSTORE PUSH2 0xC60 DUP13 ADD MSTORE DUP12 MLOAD DUP1 DUP14 ADD DUP14 MSTORE DUP11 DUP2 MSTORE PUSH11 0x2830B935B2B9173539B7B7 PUSH1 0xA9 SHL DUP2 DUP12 ADD MSTORE PUSH2 0xC80 DUP13 ADD MSTORE DUP12 MLOAD DUP1 DUP14 ADD DUP14 MSTORE DUP9 DUP2 MSTORE PUSH10 0x2A3CB632B9173539B7B7 PUSH1 0xB1 SHL DUP2 DUP12 ADD MSTORE PUSH2 0xCA0 DUP13 ADD MSTORE DUP12 MLOAD DUP1 DUP14 ADD DUP14 MSTORE SWAP1 DUP2 MSTORE PUSH14 0x20B73730B132B63630973539B7B7 PUSH1 0x91 SHL DUP2 DUP11 ADD MSTORE PUSH2 0xCC0 DUP12 ADD MSTORE DUP11 MLOAD DUP1 DUP13 ADD DUP13 MSTORE SWAP1 DUP2 MSTORE PUSH15 0x21B632B6B2B73A34B732973539B7B7 PUSH1 0x89 SHL DUP2 DUP10 ADD MSTORE PUSH2 0xCE0 DUP11 ADD MSTORE DUP10 MLOAD DUP1 DUP12 ADD DUP12 MSTORE DUP3 DUP2 MSTORE PUSH8 0x22BB32973539B7B7 PUSH1 0xC1 SHL DUP2 DUP10 ADD MSTORE PUSH2 0xD00 DUP11 ADD MSTORE DUP10 MLOAD DUP1 DUP9 ADD DUP12 MSTORE DUP2 DUP2 MSTORE PUSH2 0xD20 DUP11 ADD MSTORE DUP10 MLOAD DUP1 DUP12 ADD DUP12 MSTORE DUP9 DUP2 MSTORE PUSH11 0x2534B0B73730973539B7B7 PUSH1 0xA9 SHL DUP2 DUP10 ADD MSTORE PUSH2 0xD40 DUP11 ADD MSTORE DUP10 MLOAD DUP1 DUP12 ADD DUP12 MSTORE DUP7 DUP2 MSTORE PUSH10 0x263AB1B1B0973539B7B7 PUSH1 0xB1 SHL DUP2 DUP10 ADD MSTORE PUSH2 0xD60 DUP11 ADD MSTORE DUP10 MLOAD DUP1 DUP12 ADD DUP12 MSTORE DUP4 DUP2 MSTORE PUSH9 0x2830BAB6173539B7B7 PUSH1 0xB9 SHL DUP2 DUP10 ADD MSTORE PUSH2 0xD80 DUP11 ADD MSTORE DUP10 MLOAD DUP1 DUP12 ADD DUP12 MSTORE DUP3 DUP2 MSTORE PUSH8 0x2B30B7173539B7B7 PUSH1 0xC1 SHL DUP2 DUP10 ADD MSTORE PUSH2 0xDA0 DUP11 ADD MSTORE DUP10 MLOAD DUP1 DUP12 ADD DUP12 MSTORE DUP7 DUP2 MSTORE PUSH10 0x20B934B2B6173539B7B7 PUSH1 0xB1 SHL DUP2 DUP10 ADD MSTORE PUSH2 0xDC0 DUP11 ADD MSTORE DUP10 MLOAD DUP1 DUP12 ADD DUP12 MSTORE DUP4 DUP2 MSTORE PUSH9 0x21B7B2B7173539B7B7 PUSH1 0xB9 SHL DUP2 DUP10 ADD MSTORE PUSH2 0xDE0 DUP11 ADD MSTORE DUP10 MLOAD DUP1 DUP12 ADD DUP12 MSTORE DUP6 DUP2 MSTORE PUSH12 0x22BB32B932BA3A173539B7B7 PUSH1 0xA1 SHL DUP2 DUP10 ADD MSTORE PUSH2 0xE00 DUP11 ADD MSTORE DUP10 MLOAD DUP1 DUP12 ADD DUP12 MSTORE DUP4 DUP2 MSTORE PUSH9 0x253AB232973539B7B7 PUSH1 0xB9 SHL DUP2 DUP10 ADD MSTORE PUSH2 0xE20 DUP11 ADD MSTORE DUP10 MLOAD DUP1 DUP12 ADD DUP12 MSTORE DUP6 DUP2 MSTORE PUSH12 0x263AB1B4B0B730973539B7B7 PUSH1 0xA1 SHL DUP2 DUP10 ADD MSTORE PUSH2 0xE40 DUP11 ADD MSTORE DUP10 MLOAD DUP1 DUP12 ADD DUP12 MSTORE DUP5 DUP2 MSTORE PUSH13 0x2832B732B637B832973539B7B7 PUSH1 0x99 SHL DUP2 DUP10 ADD MSTORE PUSH2 0xE60 DUP11 ADD MSTORE DUP10 MLOAD DUP1 DUP12 ADD DUP12 MSTORE DUP9 DUP2 MSTORE PUSH11 0x2BB0B63A32B9173539B7B7 PUSH1 0xA9 SHL DUP2 DUP10 ADD MSTORE PUSH2 0xE80 DUP11 ADD MSTORE DUP10 MLOAD DUP1 DUP12 ADD DUP12 MSTORE DUP9 DUP2 MSTORE PUSH11 0x20B934BCB0B4173539B7B7 PUSH1 0xA9 SHL DUP2 DUP10 ADD MSTORE PUSH2 0xEA0 DUP11 ADD MSTORE DUP10 MLOAD DUP1 DUP12 ADD DUP12 MSTORE DUP7 DUP2 MSTORE PUSH10 0x21B7B932BC973539B7B7 PUSH1 0xB1 SHL DUP2 DUP10 ADD MSTORE PUSH2 0xEC0 DUP11 ADD MSTORE DUP10 MLOAD DUP1 DUP12 ADD DUP12 MSTORE DUP4 DUP2 MSTORE PUSH9 0x22BB34B2973539B7B7 PUSH1 0xB9 SHL DUP2 DUP10 ADD MSTORE PUSH2 0xEE0 DUP11 ADD MSTORE DUP10 MLOAD DUP1 DUP12 ADD DUP12 MSTORE DUP9 DUP2 MSTORE PUSH11 0x253AB234BA34173539B7B7 PUSH1 0xA9 SHL DUP2 DUP10 ADD MSTORE PUSH2 0xF00 DUP11 ADD MSTORE DUP10 MLOAD DUP1 DUP12 ADD DUP12 MSTORE DUP6 DUP2 MSTORE PUSH12 0x26B0B234B9BCB7173539B7B7 PUSH1 0xA1 SHL DUP2 DUP10 ADD MSTORE PUSH2 0xF20 DUP11 ADD MSTORE DUP10 MLOAD DUP1 DUP12 ADD DUP12 MSTORE DUP7 DUP2 MSTORE PUSH10 0x2832BA32B9173539B7B7 PUSH1 0xB1 SHL DUP2 DUP10 ADD MSTORE PUSH2 0xF40 DUP11 ADD MSTORE DUP10 MLOAD DUP1 DUP12 ADD DUP12 MSTORE DUP9 DUP2 MSTORE PUSH11 0x2BB0BA39B7B7173539B7B7 PUSH1 0xA9 SHL DUP2 DUP10 ADD MSTORE PUSH2 0xF60 DUP11 ADD MSTORE DUP10 MLOAD DUP1 DUP12 ADD DUP12 MSTORE DUP9 DUP2 MSTORE PUSH11 0x20B93A343AB9173539B7B7 PUSH1 0xA9 SHL DUP2 DUP10 ADD MSTORE PUSH2 0xF80 DUP11 ADD MSTORE DUP10 MLOAD DUP1 DUP12 ADD DUP12 MSTORE DUP9 DUP2 MSTORE PUSH11 0x2230B5B0B934973539B7B7 PUSH1 0xA9 SHL DUP2 DUP10 ADD MSTORE PUSH2 0xFA0 DUP11 ADD MSTORE DUP10 MLOAD DUP1 DUP12 ADD DUP12 MSTORE DUP9 DUP2 MSTORE PUSH11 0x2330B63637B7173539B7B7 PUSH1 0xA9 SHL DUP2 DUP10 ADD MSTORE PUSH2 0xFC0 DUP11 ADD MSTORE DUP10 MLOAD DUP1 DUP12 ADD DUP12 MSTORE DUP9 DUP2 MSTORE PUSH11 0x253AB634B0B7173539B7B7 PUSH1 0xA9 SHL DUP2 DUP10 ADD MSTORE PUSH2 0xFE0 DUP11 ADD MSTORE DUP10 MLOAD DUP1 DUP12 ADD DUP12 MSTORE DUP6 DUP2 MSTORE PUSH12 0x26B0B5B2B73730973539B7B7 PUSH1 0xA1 SHL DUP2 DUP10 ADD MSTORE PUSH2 0x1000 DUP11 ADD MSTORE DUP10 MLOAD DUP1 DUP12 ADD DUP12 MSTORE DUP6 DUP2 MSTORE PUSH12 0x283932B9B632BC973539B7B7 PUSH1 0xA1 SHL DUP2 DUP10 ADD MSTORE PUSH2 0x1020 DUP11 ADD MSTORE DUP10 MLOAD DUP1 DUP12 ADD DUP12 MSTORE DUP9 DUP2 MSTORE PUSH11 0x2BB2B9BA34B7173539B7B7 PUSH1 0xA9 SHL DUP2 DUP10 ADD MSTORE PUSH2 0x1040 DUP11 ADD MSTORE DUP10 MLOAD DUP1 DUP12 ADD DUP12 MSTORE SWAP2 DUP3 MSTORE PUSH8 0x20BC36173539B7B7 PUSH1 0xC1 SHL DUP3 DUP9 ADD MSTORE PUSH2 0x1060 DUP10 ADD SWAP2 SWAP1 SWAP2 MSTORE DUP9 MLOAD DUP1 DUP8 ADD DUP11 MSTORE SWAP1 DUP2 MSTORE PUSH2 0x1080 DUP9 ADD MSTORE DUP8 MLOAD DUP1 DUP10 ADD DUP10 MSTORE DUP7 DUP2 MSTORE PUSH11 0x2230B63630B9973539B7B7 PUSH1 0xA9 SHL DUP2 DUP8 ADD MSTORE PUSH2 0x10A0 DUP9 ADD MSTORE DUP8 MLOAD DUP1 DUP10 ADD DUP10 MSTORE DUP7 DUP2 MSTORE PUSH11 0x2334B73632BC973539B7B7 PUSH1 0xA9 SHL DUP2 DUP8 ADD MSTORE PUSH2 0x10C0 DUP9 ADD MSTORE DUP8 MLOAD DUP1 DUP10 ADD DUP10 MSTORE DUP5 DUP2 MSTORE PUSH10 0x253AB634B7973539B7B7 PUSH1 0xB1 SHL DUP2 DUP8 ADD MSTORE PUSH2 0x10E0 DUP9 ADD MSTORE DUP8 MLOAD DUP1 DUP10 ADD DUP10 MSTORE DUP7 DUP2 MSTORE PUSH11 0x26B0B630BCB0973539B7B7 PUSH1 0xA9 SHL DUP2 DUP8 ADD MSTORE PUSH2 0x1100 DUP9 ADD MSTORE DUP8 MLOAD DUP1 DUP10 ADD DUP10 MSTORE DUP5 DUP2 MSTORE PUSH10 0x28BAB4B737173539B7B7 PUSH1 0xB1 SHL DUP2 DUP8 ADD MSTORE PUSH2 0x1120 DUP9 ADD MSTORE DUP8 MLOAD DUP1 DUP10 ADD DUP10 MSTORE DUP7 DUP2 MSTORE PUSH11 0x2C34B6B2B730973539B7B7 PUSH1 0xA9 SHL DUP2 DUP8 ADD MSTORE PUSH2 0x1140 DUP9 ADD MSTORE DUP8 MLOAD DUP1 DUP10 ADD DUP10 MSTORE DUP5 DUP2 MSTORE PUSH10 0x20BC3A37B7173539B7B7 PUSH1 0xB1 SHL DUP2 DUP8 ADD MSTORE PUSH2 0x1160 DUP9 ADD MSTORE DUP8 MLOAD DUP1 DUP10 ADD DUP10 MSTORE DUP7 DUP2 MSTORE PUSH11 0x2230B734B2B6173539B7B7 PUSH1 0xA9 SHL DUP2 DUP8 ADD MSTORE PUSH2 0x1180 DUP9 ADD MSTORE DUP8 MLOAD DUP1 DUP10 ADD DUP10 MSTORE DUP2 DUP2 MSTORE PUSH9 0x23B0B93C973539B7B7 PUSH1 0xB9 SHL DUP2 DUP8 ADD MSTORE PUSH2 0x11A0 DUP9 ADD MSTORE DUP8 MLOAD DUP1 DUP10 ADD DUP10 MSTORE DUP2 DUP2 MSTORE PUSH9 0x25B0B232973539B7B7 PUSH1 0xB9 SHL DUP2 DUP8 ADD MSTORE PUSH2 0x11C0 DUP9 ADD MSTORE DUP8 MLOAD DUP1 DUP10 ADD DUP10 MSTORE DUP7 DUP2 MSTORE PUSH11 0x26B0B931B7B9973539B7B7 PUSH1 0xA9 SHL DUP2 DUP8 ADD MSTORE PUSH2 0x11E0 DUP9 ADD MSTORE DUP8 MLOAD DUP1 DUP10 ADD DUP10 MSTORE DUP4 DUP2 MSTORE PUSH12 0x28BAB4B73A37B7173539B7B7 PUSH1 0xA1 SHL DUP2 DUP8 ADD MSTORE PUSH2 0x1200 DUP9 ADD MSTORE DUP8 MLOAD DUP1 DUP10 ADD DUP10 MSTORE DUP7 DUP2 MSTORE PUSH11 0x2CB7BAB9B2B3173539B7B7 PUSH1 0xA9 SHL DUP2 DUP8 ADD MSTORE PUSH2 0x1220 DUP9 ADD MSTORE DUP8 MLOAD DUP1 DUP10 ADD DUP10 MSTORE DUP5 DUP2 MSTORE PUSH10 0x2132B632B7173539B7B7 PUSH1 0xB1 SHL DUP2 DUP8 ADD MSTORE PUSH2 0x1240 DUP9 ADD MSTORE DUP8 MLOAD DUP1 DUP10 ADD DUP10 MSTORE DUP3 DUP2 MSTORE PUSH13 0x2230B734B2B63632973539B7B7 PUSH1 0x99 SHL DUP2 DUP8 ADD MSTORE PUSH2 0x1260 DUP9 ADD MSTORE DUP8 MLOAD DUP1 DUP10 ADD DUP10 MSTORE DUP4 DUP2 MSTORE PUSH12 0x23B2B7B933B4B0973539B7B7 PUSH1 0xA1 SHL DUP2 DUP8 ADD MSTORE PUSH2 0x1280 DUP9 ADD MSTORE DUP8 MLOAD DUP1 DUP10 ADD DUP10 MSTORE DUP5 DUP2 MSTORE PUSH10 0x25B0B4B934973539B7B7 PUSH1 0xB1 SHL DUP2 DUP8 ADD MSTORE PUSH2 0x12A0 DUP9 ADD MSTORE DUP8 MLOAD DUP1 DUP10 ADD DUP10 MSTORE DUP3 DUP2 MSTORE PUSH13 0x26B0B934B0B73730973539B7B7 PUSH1 0x99 SHL DUP2 DUP8 ADD MSTORE PUSH2 0x12C0 DUP9 ADD MSTORE DUP8 MLOAD DUP1 DUP10 ADD DUP10 MSTORE DUP5 DUP2 MSTORE PUSH10 0x2930BB32B7173539B7B7 PUSH1 0xB1 SHL DUP2 DUP8 ADD MSTORE PUSH2 0x12E0 DUP9 ADD MSTORE DUP8 MLOAD DUP1 DUP10 ADD DUP10 MSTORE DUP7 DUP2 MSTORE PUSH11 0x2D30B4B730B1173539B7B7 PUSH1 0xA9 SHL DUP2 DUP8 ADD MSTORE PUSH2 0x1300 DUP9 ADD MSTORE DUP8 MLOAD DUP1 DUP10 ADD DUP10 MSTORE DUP7 DUP2 MSTORE PUSH11 0x213930B232B7173539B7B7 PUSH1 0xA9 SHL DUP2 DUP8 ADD MSTORE PUSH2 0x1320 DUP9 ADD MSTORE DUP8 MLOAD DUP1 DUP10 ADD DUP10 MSTORE DUP5 DUP2 MSTORE PUSH10 0x2230B7373C973539B7B7 PUSH1 0xB1 SHL DUP2 DUP8 ADD MSTORE PUSH2 0x1340 DUP9 ADD MSTORE DUP8 MLOAD DUP1 DUP10 ADD DUP10 MSTORE DUP5 DUP2 MSTORE PUSH10 0x23B930B1B2973539B7B7 PUSH1 0xB1 SHL DUP2 DUP8 ADD MSTORE PUSH2 0x1360 DUP9 ADD MSTORE DUP8 MLOAD DUP1 DUP10 ADD DUP10 MSTORE DUP7 DUP2 MSTORE PUSH11 0x25B0B6B0B934973539B7B7 PUSH1 0xA9 SHL DUP2 DUP8 ADD MSTORE PUSH2 0x1380 DUP9 ADD MSTORE DUP8 MLOAD DUP1 DUP10 ADD DUP10 MSTORE DUP3 DUP2 MSTORE PUSH13 0x26B0B93632B4B3B4173539B7B7 PUSH1 0x99 SHL DUP2 DUP8 ADD MSTORE PUSH2 0x13A0 DUP9 ADD MSTORE DUP8 MLOAD DUP1 DUP10 ADD DUP10 MSTORE DUP2 DUP2 MSTORE PUSH9 0x293432B0973539B7B7 PUSH1 0xB9 SHL DUP2 DUP8 ADD MSTORE PUSH2 0x13C0 DUP9 ADD MSTORE DUP8 MLOAD DUP1 DUP10 ADD DUP10 MSTORE DUP5 DUP2 MSTORE PUSH10 0x2D32B63230973539B7B7 PUSH1 0xB1 SHL DUP2 DUP8 ADD MSTORE PUSH2 0x13E0 DUP9 ADD MSTORE DUP8 MLOAD DUP1 DUP10 ADD DUP10 MSTORE DUP4 DUP2 MSTORE PUSH12 0x213930B23632BC973539B7B7 PUSH1 0xA1 SHL DUP2 DUP8 ADD MSTORE PUSH2 0x1400 DUP9 ADD MSTORE DUP8 MLOAD DUP1 DUP10 ADD DUP10 MSTORE DUP7 DUP2 MSTORE PUSH11 0x2230B93BB4B7173539B7B7 PUSH1 0xA9 SHL DUP2 DUP8 ADD MSTORE PUSH2 0x1420 DUP9 ADD MSTORE DUP8 MLOAD DUP1 DUP10 ADD DUP10 MSTORE DUP2 DUP2 MSTORE PUSH9 0x2430B637973539B7B7 PUSH1 0xB9 SHL DUP2 DUP8 ADD MSTORE PUSH2 0x1440 DUP9 ADD MSTORE DUP8 MLOAD DUP1 DUP10 ADD DUP10 MSTORE DUP7 DUP2 MSTORE PUSH11 0x25B0B932B2B6973539B7B7 PUSH1 0xA9 SHL DUP2 DUP8 ADD MSTORE PUSH2 0x1460 DUP9 ADD MSTORE DUP8 MLOAD DUP1 DUP10 ADD DUP10 MSTORE DUP5 DUP2 MSTORE PUSH10 0x26B0BA32B7973539B7B7 PUSH1 0xB1 SHL DUP2 DUP8 ADD MSTORE PUSH2 0x1480 DUP9 ADD MSTORE DUP8 MLOAD DUP1 DUP10 ADD DUP10 MSTORE DUP5 DUP2 MSTORE PUSH10 0x293432BA3A173539B7B7 PUSH1 0xB1 SHL DUP2 DUP8 ADD MSTORE PUSH2 0x14A0 DUP9 ADD MSTORE DUP8 MLOAD DUP1 DUP10 ADD DUP10 MSTORE DUP2 DUP2 MSTORE PUSH9 0x2D37B630973539B7B7 PUSH1 0xB9 SHL DUP2 DUP8 ADD MSTORE PUSH2 0x14C0 DUP9 ADD MSTORE DUP8 MLOAD DUP1 DUP10 ADD DUP10 MSTORE DUP4 DUP2 MSTORE PUSH12 0x213932B1B5B2B7173539B7B7 PUSH1 0xA1 SHL DUP2 DUP8 ADD MSTORE PUSH2 0x14E0 DUP9 ADD MSTORE DUP8 MLOAD DUP1 DUP10 ADD DUP10 MSTORE DUP5 DUP2 MSTORE PUSH10 0x2230BB34B9973539B7B7 PUSH1 0xB1 SHL DUP2 DUP8 ADD MSTORE PUSH2 0x1500 DUP9 ADD MSTORE DUP8 MLOAD DUP1 DUP10 ADD DUP10 MSTORE DUP2 DUP2 MSTORE PUSH9 0x2430B730973539B7B7 PUSH1 0xB9 SHL DUP2 DUP8 ADD MSTORE PUSH2 0x1520 DUP9 ADD MSTORE DUP8 MLOAD DUP1 DUP10 ADD DUP10 MSTORE DUP2 DUP2 MSTORE PUSH9 0x25B0B9B4173539B7B7 PUSH1 0xB9 SHL DUP2 DUP8 ADD MSTORE PUSH2 0x1540 DUP9 ADD MSTORE DUP8 MLOAD DUP1 DUP10 ADD DUP10 MSTORE DUP4 DUP2 MSTORE PUSH12 0x26B0BC3BB2B636173539B7B7 PUSH1 0xA1 SHL DUP2 DUP8 ADD MSTORE PUSH2 0x1560 DUP9 ADD MSTORE DUP8 MLOAD DUP1 DUP10 ADD DUP10 MSTORE SWAP1 DUP2 MSTORE PUSH9 0x29343CB9973539B7B7 PUSH1 0xB9 SHL DUP2 DUP7 ADD MSTORE PUSH2 0x1580 DUP8 ADD MSTORE DUP7 MLOAD DUP1 DUP9 ADD DUP9 MSTORE DUP2 DUP2 MSTORE PUSH13 0x726561645F66696C65732E7079 PUSH1 0x98 SHL DUP2 DUP7 ADD MSTORE PUSH2 0x15A0 DUP8 ADD MSTORE DUP7 MLOAD DUP1 DUP9 ADD DUP9 MSTORE DUP3 DUP2 MSTORE PUSH12 0x213934B73632BC973539B7B7 PUSH1 0xA1 SHL DUP2 DUP7 ADD MSTORE PUSH2 0x15C0 DUP8 ADD MSTORE DUP7 MLOAD DUP1 DUP9 ADD DUP9 MSTORE DUP6 DUP2 MSTORE PUSH11 0x2230BC3A37B7173539B7B7 PUSH1 0xA9 SHL DUP2 DUP7 ADD MSTORE PUSH2 0x15E0 DUP8 ADD MSTORE DUP7 MLOAD DUP1 DUP9 ADD DUP9 MSTORE DUP4 DUP2 MSTORE PUSH10 0x2430B73730973539B7B7 PUSH1 0xB1 SHL DUP2 DUP7 ADD MSTORE PUSH2 0x1600 DUP8 ADD MSTORE DUP7 MLOAD DUP1 DUP9 ADD DUP9 MSTORE DUP3 DUP2 MSTORE PUSH12 0x25B0B9B43A37B7173539B7B7 PUSH1 0xA1 SHL DUP2 DUP7 ADD MSTORE PUSH2 0x1620 DUP8 ADD MSTORE DUP7 MLOAD DUP1 DUP9 ADD DUP9 MSTORE DUP2 DUP2 MSTORE PUSH13 0x26B1B5B4B73632BC973539B7B7 PUSH1 0x99 SHL DUP2 DUP7 ADD MSTORE PUSH2 0x1640 DUP8 ADD MSTORE DUP7 MLOAD DUP1 DUP9 ADD DUP9 MSTORE SWAP1 DUP2 MSTORE PUSH13 0x2937B9B2B6B0B93C973539B7B7 PUSH1 0x99 SHL DUP2 DUP6 ADD MSTORE PUSH2 0x1660 DUP7 ADD MSTORE DUP6 MLOAD DUP1 DUP8 ADD DUP8 MSTORE DUP2 DUP2 MSTORE PUSH12 0x21393CB73632B2973539B7B7 PUSH1 0xA1 SHL DUP2 DUP6 ADD MSTORE PUSH2 0x1680 DUP7 ADD MSTORE DUP6 MLOAD DUP1 DUP8 ADD DUP8 MSTORE DUP3 DUP2 MSTORE PUSH10 0x2232B63630973539B7B7 PUSH1 0xB1 SHL DUP2 DUP6 ADD MSTORE PUSH2 0x16A0 DUP7 ADD MSTORE DUP6 MLOAD DUP1 DUP8 ADD DUP8 MSTORE DUP5 DUP2 MSTORE PUSH11 0x2430B73730B4173539B7B7 PUSH1 0xA9 SHL DUP2 DUP6 ADD MSTORE PUSH2 0x16C0 DUP7 ADD MSTORE DUP6 MLOAD DUP1 DUP8 ADD DUP8 MSTORE SWAP4 DUP5 MSTORE PUSH11 0x25B0BCB9B7B7173539B7B7 PUSH1 0xA9 SHL DUP5 DUP5 ADD MSTORE PUSH2 0x16E0 DUP6 ADD SWAP4 SWAP1 SWAP4 MSTORE DUP5 MLOAD DUP1 DUP7 ADD DUP7 MSTORE DUP4 DUP2 MSTORE PUSH12 0x26B2B634B9B9B0973539B7B7 PUSH1 0xA1 SHL DUP2 DUP5 ADD MSTORE PUSH2 0x1700 DUP6 ADD MSTORE DUP5 MLOAD DUP1 DUP7 ADD SWAP1 SWAP6 MSTORE DUP5 MSTORE PUSH10 0x2937BCB0B6173539B7B7 PUSH1 0xB1 SHL SWAP1 DUP5 ADD MSTORE PUSH2 0x1720 DUP3 ADD SWAP3 SWAP1 SWAP3 MSTORE PUSH3 0x1A96 SWAP2 SWAP1 PUSH1 0xBA PUSH3 0x1BC5 JUMP JUMPDEST POP PUSH3 0x1CB5 JUMP JUMPDEST PUSH1 0x1 PUSH1 0x1 PUSH1 0xE0 SHL SUB NOT DUP1 DUP3 AND EQ ISZERO PUSH3 0x1AFD JUMPI PUSH1 0x40 DUP1 MLOAD PUSH3 0x461BCD PUSH1 0xE5 SHL DUP2 MSTORE PUSH1 0x20 PUSH1 0x4 DUP3 ADD MSTORE PUSH1 0x1C PUSH1 0x24 DUP3 ADD MSTORE PUSH32 0x4552433136353A20696E76616C696420696E7465726661636520696400000000 PUSH1 0x44 DUP3 ADD MSTORE SWAP1 MLOAD SWAP1 DUP2 SWAP1 SUB PUSH1 0x64 ADD SWAP1 REVERT JUMPDEST PUSH1 0x1 PUSH1 0x1 PUSH1 0xE0 SHL SUB NOT AND PUSH1 0x0 SWAP1 DUP2 MSTORE PUSH1 0x20 DUP2 SWAP1 MSTORE PUSH1 0x40 SWAP1 KECCAK256 DUP1 SLOAD PUSH1 0xFF NOT AND PUSH1 0x1 OR SWAP1 SSTORE JUMP JUMPDEST CALLER JUMPDEST SWAP1 JUMP JUMPDEST DUP1 MLOAD PUSH3 0x1B3C SWAP1 PUSH1 0x9 SWAP1 PUSH1 0x20 DUP5 ADD SWAP1 PUSH3 0x1B40 JUMP JUMPDEST POP POP JUMP JUMPDEST DUP3 DUP1 SLOAD PUSH1 0x1 DUP2 PUSH1 0x1 AND ISZERO PUSH2 0x100 MUL SUB AND PUSH1 0x2 SWAP1 DIV SWAP1 PUSH1 0x0 MSTORE PUSH1 0x20 PUSH1 0x0 KECCAK256 SWAP1 PUSH1 0x1F ADD PUSH1 0x20 SWAP1 DIV DUP2 ADD SWAP3 DUP3 PUSH1 0x1F LT PUSH3 0x1B83 JUMPI DUP1 MLOAD PUSH1 0xFF NOT AND DUP4 DUP1 ADD OR DUP6 SSTORE PUSH3 0x1BB3 JUMP JUMPDEST DUP3 DUP1 ADD PUSH1 0x1 ADD DUP6 SSTORE DUP3 ISZERO PUSH3 0x1BB3 JUMPI SWAP2 DUP3 ADD JUMPDEST DUP3 DUP2 GT ISZERO PUSH3 0x1BB3 JUMPI DUP3 MLOAD DUP3 SSTORE SWAP2 PUSH1 0x20 ADD SWAP2 SWAP1 PUSH1 0x1 ADD SWAP1 PUSH3 0x1B96 JUMP JUMPDEST POP PUSH3 0x1BC1 SWAP3 SWAP2 POP PUSH3 0x1C25 JUMP JUMPDEST POP SWAP1 JUMP JUMPDEST DUP3 DUP1 SLOAD DUP3 DUP3 SSTORE SWAP1 PUSH1 0x0 MSTORE PUSH1 0x20 PUSH1 0x0 KECCAK256 SWAP1 DUP2 ADD SWAP3 DUP3 ISZERO PUSH3 0x1C17 JUMPI SWAP2 PUSH1 0x20 MUL DUP3 ADD JUMPDEST DUP3 DUP2 GT ISZERO PUSH3 0x1C17 JUMPI DUP3 MLOAD DUP1 MLOAD PUSH3 0x1C06 SWAP2 DUP5 SWAP2 PUSH1 0x20 SWAP1 SWAP2 ADD SWAP1 PUSH3 0x1B40 JUMP JUMPDEST POP SWAP2 PUSH1 0x20 ADD SWAP2 SWAP1 PUSH1 0x1 ADD SWAP1 PUSH3 0x1BE6 JUMP JUMPDEST POP PUSH3 0x1BC1 SWAP3 SWAP2 POP PUSH3 0x1C42 JUMP JUMPDEST PUSH3 0x1B24 SWAP2 SWAP1 JUMPDEST DUP1 DUP3 GT ISZERO PUSH3 0x1BC1 JUMPI PUSH1 0x0 DUP2 SSTORE PUSH1 0x1 ADD PUSH3 0x1C2C JUMP JUMPDEST PUSH3 0x1B24 SWAP2 SWAP1 JUMPDEST DUP1 DUP3 GT ISZERO PUSH3 0x1BC1 JUMPI PUSH1 0x0 PUSH3 0x1C60 DUP3 DUP3 PUSH3 0x1C6A JUMP JUMPDEST POP PUSH1 0x1 ADD PUSH3 0x1C49 JUMP JUMPDEST POP DUP1 SLOAD PUSH1 0x1 DUP2 PUSH1 0x1 AND ISZERO PUSH2 0x100 MUL SUB AND PUSH1 0x2 SWAP1 DIV PUSH1 0x0 DUP3 SSTORE DUP1 PUSH1 0x1F LT PUSH3 0x1C92 JUMPI POP PUSH3 0x1CB2 JUMP JUMPDEST PUSH1 0x1F ADD PUSH1 0x20 SWAP1 DIV SWAP1 PUSH1 0x0 MSTORE PUSH1 0x20 PUSH1 0x0 KECCAK256 SWAP1 DUP2 ADD SWAP1 PUSH3 0x1CB2 SWAP2 SWAP1 PUSH3 0x1C25 JUMP JUMPDEST POP JUMP JUMPDEST PUSH2 0x230A DUP1 PUSH3 0x1CC5 PUSH1 0x0 CODECOPY PUSH1 0x0 RETURN INVALID PUSH1 0x80 PUSH1 0x40 MSTORE PUSH1 0x4 CALLDATASIZE LT PUSH2 0x14B JUMPI PUSH1 0x0 CALLDATALOAD PUSH1 0xE0 SHR DUP1 PUSH4 0x6C0360EB GT PUSH2 0xB6 JUMPI DUP1 PUSH4 0xA4D66DAF GT PUSH2 0x6F JUMPI DUP1 PUSH4 0xA4D66DAF EQ PUSH2 0x4C9 JUMPI DUP1 PUSH4 0xAFB7BED9 EQ PUSH2 0x4DE JUMPI DUP1 PUSH4 0xB88D4FDE EQ PUSH2 0x4E6 JUMPI DUP1 PUSH4 0xC87B56DD EQ PUSH2 0x5B9 JUMPI DUP1 PUSH4 0xE985E9C5 EQ PUSH2 0x5E3 JUMPI DUP1 PUSH4 0xF2FDE38B EQ PUSH2 0x61E JUMPI PUSH2 0x14B JUMP JUMPDEST DUP1 PUSH4 0x6C0360EB EQ PUSH2 0x407 JUMPI DUP1 PUSH4 0x70A08231 EQ PUSH2 0x41C JUMPI DUP1 PUSH4 0x715018A6 EQ PUSH2 0x44F JUMPI DUP1 PUSH4 0x8DA5CB5B EQ PUSH2 0x464 JUMPI DUP1 PUSH4 0x95D89B41 EQ PUSH2 0x479 JUMPI DUP1 PUSH4 0xA22CB465 EQ PUSH2 0x48E JUMPI PUSH2 0x14B JUMP JUMPDEST DUP1 PUSH4 0x23B872DD GT PUSH2 0x108 JUMPI DUP1 PUSH4 0x23B872DD EQ PUSH2 0x2DF JUMPI DUP1 PUSH4 0x2F745C59 EQ PUSH2 0x322 JUMPI DUP1 PUSH4 0x3FAE9651 EQ PUSH2 0x35B JUMPI DUP1 PUSH4 0x42842E0E EQ PUSH2 0x370 JUMPI DUP1 PUSH4 0x4F6CCCE7 EQ PUSH2 0x3B3 JUMPI DUP1 PUSH4 0x6352211E EQ PUSH2 0x3DD JUMPI PUSH2 0x14B JUMP JUMPDEST DUP1 PUSH4 0x1FFC9A7 EQ PUSH2 0x150 JUMPI DUP1 PUSH4 0x5F02FF2 EQ PUSH2 0x198 JUMPI DUP1 PUSH4 0x6FDDE03 EQ PUSH2 0x1C9 JUMPI DUP1 PUSH4 0x81812FC EQ PUSH2 0x253 JUMPI DUP1 PUSH4 0x95EA7B3 EQ PUSH2 0x27D JUMPI DUP1 PUSH4 0x18160DDD EQ PUSH2 0x2B8 JUMPI JUMPDEST PUSH1 0x0 DUP1 REVERT JUMPDEST CALLVALUE DUP1 ISZERO PUSH2 0x15C JUMPI PUSH1 0x0 DUP1 REVERT JUMPDEST POP PUSH2 0x184 PUSH1 0x4 DUP1 CALLDATASIZE SUB PUSH1 0x20 DUP2 LT ISZERO PUSH2 0x173 JUMPI PUSH1 0x0 DUP1 REVERT JUMPDEST POP CALLDATALOAD PUSH1 0x1 PUSH1 0x1 PUSH1 0xE0 SHL SUB NOT AND PUSH2 0x651 JUMP JUMPDEST PUSH1 0x40 DUP1 MLOAD SWAP2 ISZERO ISZERO DUP3 MSTORE MLOAD SWAP1 DUP2 SWAP1 SUB PUSH1 0x20 ADD SWAP1 RETURN JUMPDEST CALLVALUE DUP1 ISZERO PUSH2 0x1A4 JUMPI PUSH1 0x0 DUP1 REVERT JUMPDEST POP PUSH2 0x1AD PUSH2 0x674 JUMP JUMPDEST PUSH1 0x40 DUP1 MLOAD PUSH1 0x1 PUSH1 0x1 PUSH1 0xA0 SHL SUB SWAP1 SWAP3 AND DUP3 MSTORE MLOAD SWAP1 DUP2 SWAP1 SUB PUSH1 0x20 ADD SWAP1 RETURN JUMPDEST CALLVALUE DUP1 ISZERO PUSH2 0x1D5 JUMPI PUSH1 0x0 DUP1 REVERT JUMPDEST POP PUSH2 0x1DE PUSH2 0x68C JUMP JUMPDEST PUSH1 0x40 DUP1 MLOAD PUSH1 0x20 DUP1 DUP3 MSTORE DUP4 MLOAD DUP2 DUP4 ADD MSTORE DUP4 MLOAD SWAP2 SWAP3 DUP4 SWAP3 SWAP1 DUP4 ADD SWAP2 DUP6 ADD SWAP1 DUP1 DUP4 DUP4 PUSH1 0x0 JUMPDEST DUP4 DUP2 LT ISZERO PUSH2 0x218 JUMPI DUP2 DUP2 ADD MLOAD DUP4 DUP3 ADD MSTORE PUSH1 0x20 ADD PUSH2 0x200 JUMP JUMPDEST POP POP POP POP SWAP1 POP SWAP1 DUP2 ADD SWAP1 PUSH1 0x1F AND DUP1 ISZERO PUSH2 0x245 JUMPI DUP1 DUP3 SUB DUP1 MLOAD PUSH1 0x1 DUP4 PUSH1 0x20 SUB PUSH2 0x100 EXP SUB NOT AND DUP2 MSTORE PUSH1 0x20 ADD SWAP2 POP JUMPDEST POP SWAP3 POP POP POP PUSH1 0x40 MLOAD DUP1 SWAP2 SUB SWAP1 RETURN JUMPDEST CALLVALUE DUP1 ISZERO PUSH2 0x25F JUMPI PUSH1 0x0 DUP1 REVERT JUMPDEST POP PUSH2 0x1AD PUSH1 0x4 DUP1 CALLDATASIZE SUB PUSH1 0x20 DUP2 LT ISZERO PUSH2 0x276 JUMPI PUSH1 0x0 DUP1 REVERT JUMPDEST POP CALLDATALOAD PUSH2 0x723 JUMP JUMPDEST CALLVALUE DUP1 ISZERO PUSH2 0x289 JUMPI PUSH1 0x0 DUP1 REVERT JUMPDEST POP PUSH2 0x2B6 PUSH1 0x4 DUP1 CALLDATASIZE SUB PUSH1 0x40 DUP2 LT ISZERO PUSH2 0x2A0 JUMPI PUSH1 0x0 DUP1 REVERT JUMPDEST POP PUSH1 0x1 PUSH1 0x1 PUSH1 0xA0 SHL SUB DUP2 CALLDATALOAD AND SWAP1 PUSH1 0x20 ADD CALLDATALOAD PUSH2 0x785 JUMP JUMPDEST STOP JUMPDEST CALLVALUE DUP1 ISZERO PUSH2 0x2C4 JUMPI PUSH1 0x0 DUP1 REVERT JUMPDEST POP PUSH2 0x2CD PUSH2 0x860 JUMP JUMPDEST PUSH1 0x40 DUP1 MLOAD SWAP2 DUP3 MSTORE MLOAD SWAP1 DUP2 SWAP1 SUB PUSH1 0x20 ADD SWAP1 RETURN JUMPDEST CALLVALUE DUP1 ISZERO PUSH2 0x2EB JUMPI PUSH1 0x0 DUP1 REVERT JUMPDEST POP PUSH2 0x2B6 PUSH1 0x4 DUP1 CALLDATASIZE SUB PUSH1 0x60 DUP2 LT ISZERO PUSH2 0x302 JUMPI PUSH1 0x0 DUP1 REVERT JUMPDEST POP PUSH1 0x1 PUSH1 0x1 PUSH1 0xA0 SHL SUB DUP2 CALLDATALOAD DUP2 AND SWAP2 PUSH1 0x20 DUP2 ADD CALLDATALOAD SWAP1 SWAP2 AND SWAP1 PUSH1 0x40 ADD CALLDATALOAD PUSH2 0x871 JUMP JUMPDEST CALLVALUE DUP1 ISZERO PUSH2 0x32E JUMPI PUSH1 0x0 DUP1 REVERT JUMPDEST POP PUSH2 0x2CD PUSH1 0x4 DUP1 CALLDATASIZE SUB PUSH1 0x40 DUP2 LT ISZERO PUSH2 0x345 JUMPI PUSH1 0x0 DUP1 REVERT JUMPDEST POP PUSH1 0x1 PUSH1 0x1 PUSH1 0xA0 SHL SUB DUP2 CALLDATALOAD AND SWAP1 PUSH1 0x20 ADD CALLDATALOAD PUSH2 0x8C8 JUMP JUMPDEST CALLVALUE DUP1 ISZERO PUSH2 0x367 JUMPI PUSH1 0x0 DUP1 REVERT JUMPDEST POP PUSH2 0x2CD PUSH2 0x8F9 JUMP JUMPDEST CALLVALUE DUP1 ISZERO PUSH2 0x37C JUMPI PUSH1 0x0 DUP1 REVERT JUMPDEST POP PUSH2 0x2B6 PUSH1 0x4 DUP1 CALLDATASIZE SUB PUSH1 0x60 DUP2 LT ISZERO PUSH2 0x393 JUMPI PUSH1 0x0 DUP1 REVERT JUMPDEST POP PUSH1 0x1 PUSH1 0x1 PUSH1 0xA0 SHL SUB DUP2 CALLDATALOAD DUP2 AND SWAP2 PUSH1 0x20 DUP2 ADD CALLDATALOAD SWAP1 SWAP2 AND SWAP1 PUSH1 0x40 ADD CALLDATALOAD PUSH2 0x8FF JUMP JUMPDEST CALLVALUE DUP1 ISZERO PUSH2 0x3BF JUMPI PUSH1 0x0 DUP1 REVERT JUMPDEST POP PUSH2 0x2CD PUSH1 0x4 DUP1 CALLDATASIZE SUB PUSH1 0x20 DUP2 LT ISZERO PUSH2 0x3D6 JUMPI PUSH1 0x0 DUP1 REVERT JUMPDEST POP CALLDATALOAD PUSH2 0x91A JUMP JUMPDEST CALLVALUE DUP1 ISZERO PUSH2 0x3E9 JUMPI PUSH1 0x0 DUP1 REVERT JUMPDEST POP PUSH2 0x1AD PUSH1 0x4 DUP1 CALLDATASIZE SUB PUSH1 0x20 DUP2 LT ISZERO PUSH2 0x400 JUMPI PUSH1 0x0 DUP1 REVERT JUMPDEST POP CALLDATALOAD PUSH2 0x936 JUMP JUMPDEST CALLVALUE DUP1 ISZERO PUSH2 0x413 JUMPI PUSH1 0x0 DUP1 REVERT JUMPDEST POP PUSH2 0x1DE PUSH2 0x964 JUMP JUMPDEST CALLVALUE DUP1 ISZERO PUSH2 0x428 JUMPI PUSH1 0x0 DUP1 REVERT JUMPDEST POP PUSH2 0x2CD PUSH1 0x4 DUP1 CALLDATASIZE SUB PUSH1 0x20 DUP2 LT ISZERO PUSH2 0x43F JUMPI PUSH1 0x0 DUP1 REVERT JUMPDEST POP CALLDATALOAD PUSH1 0x1 PUSH1 0x1 PUSH1 0xA0 SHL SUB AND PUSH2 0x9C5 JUMP JUMPDEST CALLVALUE DUP1 ISZERO PUSH2 0x45B JUMPI PUSH1 0x0 DUP1 REVERT JUMPDEST POP PUSH2 0x2B6 PUSH2 0xA2D JUMP JUMPDEST CALLVALUE DUP1 ISZERO PUSH2 0x470 JUMPI PUSH1 0x0 DUP1 REVERT JUMPDEST POP PUSH2 0x1AD PUSH2 0xAE1 JUMP JUMPDEST CALLVALUE DUP1 ISZERO PUSH2 0x485 JUMPI PUSH1 0x0 DUP1 REVERT JUMPDEST POP PUSH2 0x1DE PUSH2 0xAF0 JUMP JUMPDEST CALLVALUE DUP1 ISZERO PUSH2 0x49A JUMPI PUSH1 0x0 DUP1 REVERT JUMPDEST POP PUSH2 0x2B6 PUSH1 0x4 DUP1 CALLDATASIZE SUB PUSH1 0x40 DUP2 LT ISZERO PUSH2 0x4B1 JUMPI PUSH1 0x0 DUP1 REVERT JUMPDEST POP PUSH1 0x1 PUSH1 0x1 PUSH1 0xA0 SHL SUB DUP2 CALLDATALOAD AND SWAP1 PUSH1 0x20 ADD CALLDATALOAD ISZERO ISZERO PUSH2 0xB51 JUMP JUMPDEST CALLVALUE DUP1 ISZERO PUSH2 0x4D5 JUMPI PUSH1 0x0 DUP1 REVERT JUMPDEST POP PUSH2 0x2CD PUSH2 0xC56 JUMP JUMPDEST PUSH2 0x2B6 PUSH2 0xC5B JUMP JUMPDEST CALLVALUE DUP1 ISZERO PUSH2 0x4F2 JUMPI PUSH1 0x0 DUP1 REVERT JUMPDEST POP PUSH2 0x2B6 PUSH1 0x4 DUP1 CALLDATASIZE SUB PUSH1 0x80 DUP2 LT ISZERO PUSH2 0x509 JUMPI PUSH1 0x0 DUP1 REVERT JUMPDEST PUSH1 0x1 PUSH1 0x1 PUSH1 0xA0 SHL SUB DUP3 CALLDATALOAD DUP2 AND SWAP3 PUSH1 0x20 DUP2 ADD CALLDATALOAD SWAP1 SWAP2 AND SWAP2 PUSH1 0x40 DUP3 ADD CALLDATALOAD SWAP2 SWAP1 DUP2 ADD SWAP1 PUSH1 0x80 DUP2 ADD PUSH1 0x60 DUP3 ADD CALLDATALOAD PUSH5 0x100000000 DUP2 GT ISZERO PUSH2 0x544 JUMPI PUSH1 0x0 DUP1 REVERT JUMPDEST DUP3 ADD DUP4 PUSH1 0x20 DUP3 ADD GT ISZERO PUSH2 0x556 JUMPI PUSH1 0x0 DUP1 REVERT JUMPDEST DUP1 CALLDATALOAD SWAP1 PUSH1 0x20 ADD SWAP2 DUP5 PUSH1 0x1 DUP4 MUL DUP5 ADD GT PUSH5 0x100000000 DUP4 GT OR ISZERO PUSH2 0x578 JUMPI PUSH1 0x0 DUP1 REVERT JUMPDEST SWAP2 SWAP1 DUP1 DUP1 PUSH1 0x1F ADD PUSH1 0x20 DUP1 SWAP2 DIV MUL PUSH1 0x20 ADD PUSH1 0x40 MLOAD SWAP1 DUP2 ADD PUSH1 0x40 MSTORE DUP1 SWAP4 SWAP3 SWAP2 SWAP1 DUP2 DUP2 MSTORE PUSH1 0x20 ADD DUP4 DUP4 DUP1 DUP3 DUP5 CALLDATACOPY PUSH1 0x0 SWAP3 ADD SWAP2 SWAP1 SWAP2 MSTORE POP SWAP3 SWAP6 POP PUSH2 0xE7D SWAP5 POP POP POP POP POP JUMP JUMPDEST CALLVALUE DUP1 ISZERO PUSH2 0x5C5 JUMPI PUSH1 0x0 DUP1 REVERT JUMPDEST POP PUSH2 0x1DE PUSH1 0x4 DUP1 CALLDATASIZE SUB PUSH1 0x20 DUP2 LT ISZERO PUSH2 0x5DC JUMPI PUSH1 0x0 DUP1 REVERT JUMPDEST POP CALLDATALOAD PUSH2 0xEDB JUMP JUMPDEST CALLVALUE DUP1 ISZERO PUSH2 0x5EF JUMPI PUSH1 0x0 DUP1 REVERT JUMPDEST POP PUSH2 0x184 PUSH1 0x4 DUP1 CALLDATASIZE SUB PUSH1 0x40 DUP2 LT ISZERO PUSH2 0x606 JUMPI PUSH1 0x0 DUP1 REVERT JUMPDEST POP PUSH1 0x1 PUSH1 0x1 PUSH1 0xA0 SHL SUB DUP2 CALLDATALOAD DUP2 AND SWAP2 PUSH1 0x20 ADD CALLDATALOAD AND PUSH2 0x1182 JUMP JUMPDEST CALLVALUE DUP1 ISZERO PUSH2 0x62A JUMPI PUSH1 0x0 DUP1 REVERT JUMPDEST POP PUSH2 0x2B6 PUSH1 0x4 DUP1 CALLDATASIZE SUB PUSH1 0x20 DUP2 LT ISZERO PUSH2 0x641 JUMPI PUSH1 0x0 DUP1 REVERT JUMPDEST POP CALLDATALOAD PUSH1 0x1 PUSH1 0x1 PUSH1 0xA0 SHL SUB AND PUSH2 0x11B0 JUMP JUMPDEST PUSH1 0x1 PUSH1 0x1 PUSH1 0xE0 SHL SUB NOT DUP2 AND PUSH1 0x0 SWAP1 DUP2 MSTORE PUSH1 0x20 DUP2 SWAP1 MSTORE PUSH1 0x40 SWAP1 KECCAK256 SLOAD PUSH1 0xFF AND JUMPDEST SWAP2 SWAP1 POP JUMP JUMPDEST PUSH20 0xDE21F729137C5AF1B01D73AF1DC21EFFA2B8A0D6 DUP2 JUMP JUMPDEST PUSH1 0x6 DUP1 SLOAD PUSH1 0x40 DUP1 MLOAD PUSH1 0x20 PUSH1 0x1F PUSH1 0x2 PUSH1 0x0 NOT PUSH2 0x100 PUSH1 0x1 DUP9 AND ISZERO MUL ADD SWAP1 SWAP6 AND SWAP5 SWAP1 SWAP5 DIV SWAP4 DUP5 ADD DUP2 SWAP1 DIV DUP2 MUL DUP3 ADD DUP2 ADD SWAP1 SWAP3 MSTORE DUP3 DUP2 MSTORE PUSH1 0x60 SWAP4 SWAP1 SWAP3 SWAP1 SWAP2 DUP4 ADD DUP3 DUP3 DUP1 ISZERO PUSH2 0x718 JUMPI DUP1 PUSH1 0x1F LT PUSH2 0x6ED JUMPI PUSH2 0x100 DUP1 DUP4 SLOAD DIV MUL DUP4 MSTORE SWAP2 PUSH1 0x20 ADD SWAP2 PUSH2 0x718 JUMP JUMPDEST DUP3 ADD SWAP2 SWAP1 PUSH1 0x0 MSTORE PUSH1 0x20 PUSH1 0x0 KECCAK256 SWAP1 JUMPDEST DUP2 SLOAD DUP2 MSTORE SWAP1 PUSH1 0x1 ADD SWAP1 PUSH1 0x20 ADD DUP1 DUP4 GT PUSH2 0x6FB JUMPI DUP3 SWAP1 SUB PUSH1 0x1F AND DUP3 ADD SWAP2 JUMPDEST POP POP POP POP POP SWAP1 POP JUMPDEST SWAP1 JUMP JUMPDEST PUSH1 0x0 PUSH2 0x72E DUP3 PUSH2 0x12BB JUMP JUMPDEST PUSH2 0x769 JUMPI PUSH1 0x40 MLOAD PUSH3 0x461BCD PUSH1 0xE5 SHL DUP2 MSTORE PUSH1 0x4 ADD DUP1 DUP1 PUSH1 0x20 ADD DUP3 DUP2 SUB DUP3 MSTORE PUSH1 0x2C DUP2 MSTORE PUSH1 0x20 ADD DUP1 PUSH2 0x21D3 PUSH1 0x2C SWAP2 CODECOPY PUSH1 0x40 ADD SWAP2 POP POP PUSH1 0x40 MLOAD DUP1 SWAP2 SUB SWAP1 REVERT JUMPDEST POP PUSH1 0x0 SWAP1 DUP2 MSTORE PUSH1 0x4 PUSH1 0x20 MSTORE PUSH1 0x40 SWAP1 KECCAK256 SLOAD PUSH1 0x1 PUSH1 0x1 PUSH1 0xA0 SHL SUB AND SWAP1 JUMP JUMPDEST PUSH1 0x0 PUSH2 0x790 DUP3 PUSH2 0x936 JUMP JUMPDEST SWAP1 POP DUP1 PUSH1 0x1 PUSH1 0x1 PUSH1 0xA0 SHL SUB AND DUP4 PUSH1 0x1 PUSH1 0x1 PUSH1 0xA0 SHL SUB AND EQ ISZERO PUSH2 0x7E3 JUMPI PUSH1 0x40 MLOAD PUSH3 0x461BCD PUSH1 0xE5 SHL DUP2 MSTORE PUSH1 0x4 ADD DUP1 DUP1 PUSH1 0x20 ADD DUP3 DUP2 SUB DUP3 MSTORE PUSH1 0x21 DUP2 MSTORE PUSH1 0x20 ADD DUP1 PUSH2 0x2283 PUSH1 0x21 SWAP2 CODECOPY PUSH1 0x40 ADD SWAP2 POP POP PUSH1 0x40 MLOAD DUP1 SWAP2 SUB SWAP1 REVERT JUMPDEST DUP1 PUSH1 0x1 PUSH1 0x1 PUSH1 0xA0 SHL SUB AND PUSH2 0x7F5 PUSH2 0x12CE JUMP JUMPDEST PUSH1 0x1 PUSH1 0x1 PUSH1 0xA0 SHL SUB AND EQ DUP1 PUSH2 0x816 JUMPI POP PUSH2 0x816 DUP2 PUSH2 0x811 PUSH2 0x12CE JUMP JUMPDEST PUSH2 0x1182 JUMP JUMPDEST PUSH2 0x851 JUMPI PUSH1 0x40 MLOAD PUSH3 0x461BCD PUSH1 0xE5 SHL DUP2 MSTORE PUSH1 0x4 ADD DUP1 DUP1 PUSH1 0x20 ADD DUP3 DUP2 SUB DUP3 MSTORE PUSH1 0x38 DUP2 MSTORE PUSH1 0x20 ADD DUP1 PUSH2 0x2126 PUSH1 0x38 SWAP2 CODECOPY PUSH1 0x40 ADD SWAP2 POP POP PUSH1 0x40 MLOAD DUP1 SWAP2 SUB SWAP1 REVERT JUMPDEST PUSH2 0x85B DUP4 DUP4 PUSH2 0x12D2 JUMP JUMPDEST POP POP POP JUMP JUMPDEST PUSH1 0x0 PUSH2 0x86C PUSH1 0x2 PUSH2 0x1340 JUMP JUMPDEST SWAP1 POP SWAP1 JUMP JUMPDEST PUSH2 0x882 PUSH2 0x87C PUSH2 0x12CE JUMP JUMPDEST DUP3 PUSH2 0x134B JUMP JUMPDEST PUSH2 0x8BD JUMPI PUSH1 0x40 MLOAD PUSH3 0x461BCD PUSH1 0xE5 SHL DUP2 MSTORE PUSH1 0x4 ADD DUP1 DUP1 PUSH1 0x20 ADD DUP3 DUP2 SUB DUP3 MSTORE PUSH1 0x31 DUP2 MSTORE PUSH1 0x20 ADD DUP1 PUSH2 0x22A4 PUSH1 0x31 SWAP2 CODECOPY PUSH1 0x40 ADD SWAP2 POP POP PUSH1 0x40 MLOAD DUP1 SWAP2 SUB SWAP1 REVERT JUMPDEST PUSH2 0x85B DUP4 DUP4 DUP4 PUSH2 0x13EF JUMP JUMPDEST PUSH1 0x1 PUSH1 0x1 PUSH1 0xA0 SHL SUB DUP3 AND PUSH1 0x0 SWAP1 DUP2 MSTORE PUSH1 0x1 PUSH1 0x20 MSTORE PUSH1 0x40 DUP2 KECCAK256 PUSH2 0x8F0 SWAP1 DUP4 PUSH4 0xFFFFFFFF PUSH2 0x154D AND JUMP JUMPDEST SWAP1 POP JUMPDEST SWAP3 SWAP2 POP POP JUMP JUMPDEST PUSH1 0xD SLOAD DUP2 JUMP JUMPDEST PUSH2 0x85B DUP4 DUP4 DUP4 PUSH1 0x40 MLOAD DUP1 PUSH1 0x20 ADD PUSH1 0x40 MSTORE DUP1 PUSH1 0x0 DUP2 MSTORE POP PUSH2 0xE7D JUMP JUMPDEST PUSH1 0x0 DUP1 PUSH2 0x92E PUSH1 0x2 DUP5 PUSH4 0xFFFFFFFF PUSH2 0x1559 AND JUMP JUMPDEST POP SWAP4 SWAP3 POP POP POP JUMP JUMPDEST PUSH1 0x0 PUSH2 0x8F3 DUP3 PUSH1 0x40 MLOAD DUP1 PUSH1 0x60 ADD PUSH1 0x40 MSTORE DUP1 PUSH1 0x29 DUP2 MSTORE PUSH1 0x20 ADD PUSH2 0x2188 PUSH1 0x29 SWAP2 CODECOPY PUSH1 0x2 SWAP2 SWAP1 PUSH4 0xFFFFFFFF PUSH2 0x1575 AND JUMP JUMPDEST PUSH1 0x9 DUP1 SLOAD PUSH1 0x40 DUP1 MLOAD PUSH1 0x20 PUSH1 0x1F PUSH1 0x2 PUSH1 0x0 NOT PUSH2 0x100 PUSH1 0x1 DUP9 AND ISZERO MUL ADD SWAP1 SWAP6 AND SWAP5 SWAP1 SWAP5 DIV SWAP4 DUP5 ADD DUP2 SWAP1 DIV DUP2 MUL DUP3 ADD DUP2 ADD SWAP1 SWAP3 MSTORE DUP3 DUP2 MSTORE PUSH1 0x60 SWAP4 SWAP1 SWAP3 SWAP1 SWAP2 DUP4 ADD DUP3 DUP3 DUP1 ISZERO PUSH2 0x718 JUMPI DUP1 PUSH1 0x1F LT PUSH2 0x6ED JUMPI PUSH2 0x100 DUP1 DUP4 SLOAD DIV MUL DUP4 MSTORE SWAP2 PUSH1 0x20 ADD SWAP2 PUSH2 0x718 JUMP JUMPDEST PUSH1 0x0 PUSH1 0x1 PUSH1 0x1 PUSH1 0xA0 SHL SUB DUP3 AND PUSH2 0xA0C JUMPI PUSH1 0x40 MLOAD PUSH3 0x461BCD PUSH1 0xE5 SHL DUP2 MSTORE PUSH1 0x4 ADD DUP1 DUP1 PUSH1 0x20 ADD DUP3 DUP2 SUB DUP3 MSTORE PUSH1 0x2A DUP2 MSTORE PUSH1 0x20 ADD DUP1 PUSH2 0x215E PUSH1 0x2A SWAP2 CODECOPY PUSH1 0x40 ADD SWAP2 POP POP PUSH1 0x40 MLOAD DUP1 SWAP2 SUB SWAP1 REVERT JUMPDEST PUSH1 0x1 PUSH1 0x1 PUSH1 0xA0 SHL SUB DUP3 AND PUSH1 0x0 SWAP1 DUP2 MSTORE PUSH1 0x1 PUSH1 0x20 MSTORE PUSH1 0x40 SWAP1 KECCAK256 PUSH2 0x8F3 SWAP1 PUSH2 0x1340 JUMP JUMPDEST PUSH2 0xA35 PUSH2 0x12CE JUMP JUMPDEST PUSH1 0xA SLOAD PUSH1 0x1 PUSH1 0x1 PUSH1 0xA0 SHL SUB SWAP1 DUP2 AND SWAP2 AND EQ PUSH2 0xA97 JUMPI PUSH1 0x40 DUP1 MLOAD PUSH3 0x461BCD PUSH1 0xE5 SHL DUP2 MSTORE PUSH1 0x20 PUSH1 0x4 DUP3 ADD DUP2 SWAP1 MSTORE PUSH1 0x24 DUP3 ADD MSTORE PUSH32 0x4F776E61626C653A2063616C6C6572206973206E6F7420746865206F776E6572 PUSH1 0x44 DUP3 ADD MSTORE SWAP1 MLOAD SWAP1 DUP2 SWAP1 SUB PUSH1 0x64 ADD SWAP1 REVERT JUMPDEST PUSH1 0xA SLOAD PUSH1 0x40 MLOAD PUSH1 0x0 SWAP2 PUSH1 0x1 PUSH1 0x1 PUSH1 0xA0 SHL SUB AND SWAP1 PUSH32 0x8BE0079C531659141344CD1FD0A4F28419497F9722A3DAAFE3B4186F6B6457E0 SWAP1 DUP4 SWAP1 LOG3 PUSH1 0xA DUP1 SLOAD PUSH1 0x1 PUSH1 0x1 PUSH1 0xA0 SHL SUB NOT AND SWAP1 SSTORE JUMP JUMPDEST PUSH1 0xA SLOAD PUSH1 0x1 PUSH1 0x1 PUSH1 0xA0 SHL SUB AND SWAP1 JUMP JUMPDEST PUSH1 0x7 DUP1 SLOAD PUSH1 0x40 DUP1 MLOAD PUSH1 0x20 PUSH1 0x1F PUSH1 0x2 PUSH1 0x0 NOT PUSH2 0x100 PUSH1 0x1 DUP9 AND ISZERO MUL ADD SWAP1 SWAP6 AND SWAP5 SWAP1 SWAP5 DIV SWAP4 DUP5 ADD DUP2 SWAP1 DIV DUP2 MUL DUP3 ADD DUP2 ADD SWAP1 SWAP3 MSTORE DUP3 DUP2 MSTORE PUSH1 0x60 SWAP4 SWAP1 SWAP3 SWAP1 SWAP2 DUP4 ADD DUP3 DUP3 DUP1 ISZERO PUSH2 0x718 JUMPI DUP1 PUSH1 0x1F LT PUSH2 0x6ED JUMPI PUSH2 0x100 DUP1 DUP4 SLOAD DIV MUL DUP4 MSTORE SWAP2 PUSH1 0x20 ADD SWAP2 PUSH2 0x718 JUMP JUMPDEST PUSH2 0xB59 PUSH2 0x12CE JUMP JUMPDEST PUSH1 0x1 PUSH1 0x1 PUSH1 0xA0 SHL SUB AND DUP3 PUSH1 0x1 PUSH1 0x1 PUSH1 0xA0 SHL SUB AND EQ ISZERO PUSH2 0xBBF JUMPI PUSH1 0x40 DUP1 MLOAD PUSH3 0x461BCD PUSH1 0xE5 SHL DUP2 MSTORE PUSH1 0x20 PUSH1 0x4 DUP3 ADD MSTORE PUSH1 0x19 PUSH1 0x24 DUP3 ADD MSTORE PUSH32 0x4552433732313A20617070726F766520746F2063616C6C657200000000000000 PUSH1 0x44 DUP3 ADD MSTORE SWAP1 MLOAD SWAP1 DUP2 SWAP1 SUB PUSH1 0x64 ADD SWAP1 REVERT JUMPDEST DUP1 PUSH1 0x5 PUSH1 0x0 PUSH2 0xBCC PUSH2 0x12CE JUMP JUMPDEST PUSH1 0x1 PUSH1 0x1 PUSH1 0xA0 SHL SUB SWAP1 DUP2 AND DUP3 MSTORE PUSH1 0x20 DUP1 DUP4 ADD SWAP4 SWAP1 SWAP4 MSTORE PUSH1 0x40 SWAP2 DUP3 ADD PUSH1 0x0 SWAP1 DUP2 KECCAK256 SWAP2 DUP8 AND DUP1 DUP3 MSTORE SWAP2 SWAP1 SWAP4 MSTORE SWAP2 KECCAK256 DUP1 SLOAD PUSH1 0xFF NOT AND SWAP3 ISZERO ISZERO SWAP3 SWAP1 SWAP3 OR SWAP1 SWAP2 SSTORE PUSH2 0xC10 PUSH2 0x12CE JUMP JUMPDEST PUSH1 0x40 DUP1 MLOAD DUP5 ISZERO ISZERO DUP2 MSTORE SWAP1 MLOAD PUSH1 0x1 PUSH1 0x1 PUSH1 0xA0 SHL SUB SWAP3 SWAP1 SWAP3 AND SWAP2 PUSH32 0x17307EAB39AB6107E8899845AD3D59BD9653F200F220920489CA2B5937696C31 SWAP2 DUP2 SWAP1 SUB PUSH1 0x20 ADD SWAP1 LOG3 POP POP JUMP JUMPDEST PUSH1 0x64 DUP2 JUMP JUMPDEST PUSH1 0xD DUP1 SLOAD PUSH1 0x1 DUP2 ADD SWAP1 SWAP2 SSTORE PUSH1 0x64 GT PUSH2 0xCA9 JUMPI PUSH1 0x40 DUP1 MLOAD PUSH3 0x461BCD PUSH1 0xE5 SHL DUP2 MSTORE PUSH1 0x20 PUSH1 0x4 DUP3 ADD MSTORE PUSH1 0xC PUSH1 0x24 DUP3 ADD MSTORE PUSH12 0x444F4E45204D494E54494E47 PUSH1 0xA0 SHL PUSH1 0x44 DUP3 ADD MSTORE SWAP1 MLOAD SWAP1 DUP2 SWAP1 SUB PUSH1 0x64 ADD SWAP1 REVERT JUMPDEST PUSH7 0x38D7EA4C68000 CALLVALUE LT ISZERO PUSH2 0xCF2 JUMPI PUSH1 0x40 DUP1 MLOAD PUSH3 0x461BCD PUSH1 0xE5 SHL DUP2 MSTORE PUSH1 0x20 PUSH1 0x4 DUP3 ADD MSTORE PUSH1 0xA PUSH1 0x24 DUP3 ADD MSTORE PUSH10 0x9C9EA8408A9C9EAA8E9 PUSH1 0xB3 SHL PUSH1 0x44 DUP3 ADD MSTORE SWAP1 MLOAD SWAP1 DUP2 SWAP1 SUB PUSH1 0x64 ADD SWAP1 REVERT JUMPDEST PUSH1 0x40 MLOAD PUSH1 0x0 SWAP1 PUSH20 0xDE21F729137C5AF1B01D73AF1DC21EFFA2B8A0D6 SWAP1 CALLVALUE SWAP1 DUP4 DUP2 DUP2 DUP2 DUP6 DUP8 GAS CALL SWAP3 POP POP POP RETURNDATASIZE DUP1 PUSH1 0x0 DUP2 EQ PUSH2 0xD48 JUMPI PUSH1 0x40 MLOAD SWAP2 POP PUSH1 0x1F NOT PUSH1 0x3F RETURNDATASIZE ADD AND DUP3 ADD PUSH1 0x40 MSTORE RETURNDATASIZE DUP3 MSTORE RETURNDATASIZE PUSH1 0x0 PUSH1 0x20 DUP5 ADD RETURNDATACOPY PUSH2 0xD4D JUMP JUMPDEST PUSH1 0x60 SWAP2 POP JUMPDEST POP POP SWAP1 POP DUP1 PUSH2 0xD94 JUMPI PUSH1 0x40 DUP1 MLOAD PUSH3 0x461BCD PUSH1 0xE5 SHL DUP2 MSTORE PUSH1 0x20 PUSH1 0x4 DUP3 ADD MSTORE PUSH1 0xE PUSH1 0x24 DUP3 ADD MSTORE PUSH14 0x18DBDD5B19081B9BDD081CD95B99 PUSH1 0x92 SHL PUSH1 0x44 DUP3 ADD MSTORE SWAP1 MLOAD SWAP1 DUP2 SWAP1 SUB PUSH1 0x64 ADD SWAP1 REVERT JUMPDEST PUSH1 0x40 DUP1 MLOAD CALLER DUP2 MSTORE CALLVALUE PUSH1 0x20 DUP3 ADD MSTORE DUP2 MLOAD PUSH32 0xE31C60E37AB1301F69F01B436A1D13486E6C16CC22C888A08C0E64A39230B6AC SWAP3 SWAP2 DUP2 SWAP1 SUB SWAP1 SWAP2 ADD SWAP1 LOG1 PUSH2 0xE79 CALLER PUSH1 0xC PUSH1 0xD SLOAD DUP2 SLOAD DUP2 LT PUSH2 0xDE1 JUMPI INVALID JUMPDEST PUSH1 0x0 SWAP2 DUP3 MSTORE PUSH1 0x20 SWAP2 DUP3 SWAP1 KECCAK256 ADD DUP1 SLOAD PUSH1 0x40 DUP1 MLOAD PUSH1 0x1F PUSH1 0x2 PUSH1 0x0 NOT PUSH2 0x100 PUSH1 0x1 DUP8 AND ISZERO MUL ADD SWAP1 SWAP5 AND SWAP4 SWAP1 SWAP4 DIV SWAP3 DUP4 ADD DUP6 SWAP1 DIV DUP6 MUL DUP2 ADD DUP6 ADD SWAP1 SWAP2 MSTORE DUP2 DUP2 MSTORE SWAP3 DUP4 ADD DUP3 DUP3 DUP1 ISZERO PUSH2 0xE6F JUMPI DUP1 PUSH1 0x1F LT PUSH2 0xE44 JUMPI PUSH2 0x100 DUP1 DUP4 SLOAD DIV MUL DUP4 MSTORE SWAP2 PUSH1 0x20 ADD SWAP2 PUSH2 0xE6F JUMP JUMPDEST DUP3 ADD SWAP2 SWAP1 PUSH1 0x0 MSTORE PUSH1 0x20 PUSH1 0x0 KECCAK256 SWAP1 JUMPDEST DUP2 SLOAD DUP2 MSTORE SWAP1 PUSH1 0x1 ADD SWAP1 PUSH1 0x20 ADD DUP1 DUP4 GT PUSH2 0xE52 JUMPI DUP3 SWAP1 SUB PUSH1 0x1F AND DUP3 ADD SWAP2 JUMPDEST POP POP POP POP POP PUSH2 0x158C JUMP JUMPDEST POP POP JUMP JUMPDEST PUSH2 0xE8E PUSH2 0xE88 PUSH2 0x12CE JUMP JUMPDEST DUP4 PUSH2 0x134B JUMP JUMPDEST PUSH2 0xEC9 JUMPI PUSH1 0x40 MLOAD PUSH3 0x461BCD PUSH1 0xE5 SHL DUP2 MSTORE PUSH1 0x4 ADD DUP1 DUP1 PUSH1 0x20 ADD DUP3 DUP2 SUB DUP3 MSTORE PUSH1 0x31 DUP2 MSTORE PUSH1 0x20 ADD DUP1 PUSH2 0x22A4 PUSH1 0x31 SWAP2 CODECOPY PUSH1 0x40 ADD SWAP2 POP POP PUSH1 0x40 MLOAD DUP1 SWAP2 SUB SWAP1 REVERT JUMPDEST PUSH2 0xED5 DUP5 DUP5 DUP5 DUP5 PUSH2 0x164D JUMP JUMPDEST POP POP POP POP JUMP JUMPDEST PUSH1 0x60 PUSH2 0xEE6 DUP3 PUSH2 0x12BB JUMP JUMPDEST PUSH2 0xF21 JUMPI PUSH1 0x40 MLOAD PUSH3 0x461BCD PUSH1 0xE5 SHL DUP2 MSTORE PUSH1 0x4 ADD DUP1 DUP1 PUSH1 0x20 ADD DUP3 DUP2 SUB DUP3 MSTORE PUSH1 0x2F DUP2 MSTORE PUSH1 0x20 ADD DUP1 PUSH2 0x2254 PUSH1 0x2F SWAP2 CODECOPY PUSH1 0x40 ADD SWAP2 POP POP PUSH1 0x40 MLOAD DUP1 SWAP2 SUB SWAP1 REVERT JUMPDEST PUSH1 0x0 DUP3 DUP2 MSTORE PUSH1 0x8 PUSH1 0x20 SWAP1 DUP2 MSTORE PUSH1 0x40 SWAP2 DUP3 SWAP1 KECCAK256 DUP1 SLOAD DUP4 MLOAD PUSH1 0x1F PUSH1 0x2 PUSH1 0x0 NOT PUSH2 0x100 PUSH1 0x1 DUP7 AND ISZERO MUL ADD SWAP1 SWAP4 AND SWAP3 SWAP1 SWAP3 DIV SWAP2 DUP3 ADD DUP5 SWAP1 DIV DUP5 MUL DUP2 ADD DUP5 ADD SWAP1 SWAP5 MSTORE DUP1 DUP5 MSTORE PUSH1 0x60 SWAP4 SWAP3 DUP4 ADD DUP3 DUP3 DUP1 ISZERO PUSH2 0xFB6 JUMPI DUP1 PUSH1 0x1F LT PUSH2 0xF8B JUMPI PUSH2 0x100 DUP1 DUP4 SLOAD DIV MUL DUP4 MSTORE SWAP2 PUSH1 0x20 ADD SWAP2 PUSH2 0xFB6 JUMP JUMPDEST DUP3 ADD SWAP2 SWAP1 PUSH1 0x0 MSTORE PUSH1 0x20 PUSH1 0x0 KECCAK256 SWAP1 JUMPDEST DUP2 SLOAD DUP2 MSTORE SWAP1 PUSH1 0x1 ADD SWAP1 PUSH1 0x20 ADD DUP1 DUP4 GT PUSH2 0xF99 JUMPI DUP3 SWAP1 SUB PUSH1 0x1F AND DUP3 ADD SWAP2 JUMPDEST POP POP PUSH1 0x9 SLOAD SWAP4 SWAP5 POP POP POP POP PUSH1 0x2 PUSH1 0x0 NOT PUSH2 0x100 PUSH1 0x1 DUP5 AND ISZERO MUL ADD SWAP1 SWAP2 AND DIV PUSH2 0xFDF JUMPI SWAP1 POP PUSH2 0x66F JUMP JUMPDEST DUP1 MLOAD ISZERO PUSH2 0x10B0 JUMPI PUSH1 0x9 DUP2 PUSH1 0x40 MLOAD PUSH1 0x20 ADD DUP1 DUP4 DUP1 SLOAD PUSH1 0x1 DUP2 PUSH1 0x1 AND ISZERO PUSH2 0x100 MUL SUB AND PUSH1 0x2 SWAP1 DIV DUP1 ISZERO PUSH2 0x1047 JUMPI DUP1 PUSH1 0x1F LT PUSH2 0x1025 JUMPI PUSH2 0x100 DUP1 DUP4 SLOAD DIV MUL DUP4 MSTORE SWAP2 DUP3 ADD SWAP2 PUSH2 0x1047 JUMP JUMPDEST DUP3 ADD SWAP2 SWAP1 PUSH1 0x0 MSTORE PUSH1 0x20 PUSH1 0x0 KECCAK256 SWAP1 JUMPDEST DUP2 SLOAD DUP2 MSTORE SWAP1 PUSH1 0x1 ADD SWAP1 PUSH1 0x20 ADD DUP1 DUP4 GT PUSH2 0x1033 JUMPI JUMPDEST POP POP DUP3 MLOAD PUSH1 0x20 DUP5 ADD SWAP1 DUP1 DUP4 DUP4 JUMPDEST PUSH1 0x20 DUP4 LT PUSH2 0x1073 JUMPI DUP1 MLOAD DUP3 MSTORE PUSH1 0x1F NOT SWAP1 SWAP3 ADD SWAP2 PUSH1 0x20 SWAP2 DUP3 ADD SWAP2 ADD PUSH2 0x1054 JUMP JUMPDEST PUSH1 0x1 DUP4 PUSH1 0x20 SUB PUSH2 0x100 EXP SUB DUP1 NOT DUP3 MLOAD AND DUP2 DUP5 MLOAD AND DUP1 DUP3 OR DUP6 MSTORE POP POP POP POP POP POP SWAP1 POP ADD SWAP3 POP POP POP PUSH1 0x40 MLOAD PUSH1 0x20 DUP2 DUP4 SUB SUB DUP2 MSTORE SWAP1 PUSH1 0x40 MSTORE SWAP2 POP POP PUSH2 0x66F JUMP JUMPDEST PUSH1 0x9 PUSH2 0x10BB DUP5 PUSH2 0x169F JUMP JUMPDEST PUSH1 0x40 MLOAD PUSH1 0x20 ADD DUP1 DUP4 DUP1 SLOAD PUSH1 0x1 DUP2 PUSH1 0x1 AND ISZERO PUSH2 0x100 MUL SUB AND PUSH1 0x2 SWAP1 DIV DUP1 ISZERO PUSH2 0x1119 JUMPI DUP1 PUSH1 0x1F LT PUSH2 0x10F7 JUMPI PUSH2 0x100 DUP1 DUP4 SLOAD DIV MUL DUP4 MSTORE SWAP2 DUP3 ADD SWAP2 PUSH2 0x1119 JUMP JUMPDEST DUP3 ADD SWAP2 SWAP1 PUSH1 0x0 MSTORE PUSH1 0x20 PUSH1 0x0 KECCAK256 SWAP1 JUMPDEST DUP2 SLOAD DUP2 MSTORE SWAP1 PUSH1 0x1 ADD SWAP1 PUSH1 0x20 ADD DUP1 DUP4 GT PUSH2 0x1105 JUMPI JUMPDEST POP POP DUP3 MLOAD PUSH1 0x20 DUP5 ADD SWAP1 DUP1 DUP4 DUP4 JUMPDEST PUSH1 0x20 DUP4 LT PUSH2 0x1145 JUMPI DUP1 MLOAD DUP3 MSTORE PUSH1 0x1F NOT SWAP1 SWAP3 ADD SWAP2 PUSH1 0x20 SWAP2 DUP3 ADD SWAP2 ADD PUSH2 0x1126 JUMP JUMPDEST PUSH1 0x1 DUP4 PUSH1 0x20 SUB PUSH2 0x100 EXP SUB DUP1 NOT DUP3 MLOAD AND DUP2 DUP5 MLOAD AND DUP1 DUP3 OR DUP6 MSTORE POP POP POP POP POP POP SWAP1 POP ADD SWAP3 POP POP POP PUSH1 0x40 MLOAD PUSH1 0x20 DUP2 DUP4 SUB SUB DUP2 MSTORE SWAP1 PUSH1 0x40 MSTORE SWAP2 POP POP SWAP2 SWAP1 POP JUMP JUMPDEST PUSH1 0x1 PUSH1 0x1 PUSH1 0xA0 SHL SUB SWAP2 DUP3 AND PUSH1 0x0 SWAP1 DUP2 MSTORE PUSH1 0x5 PUSH1 0x20 SWAP1 DUP2 MSTORE PUSH1 0x40 DUP1 DUP4 KECCAK256 SWAP4 SWAP1 SWAP5 AND DUP3 MSTORE SWAP2 SWAP1 SWAP2 MSTORE KECCAK256 SLOAD PUSH1 0xFF AND SWAP1 JUMP JUMPDEST PUSH2 0x11B8 PUSH2 0x12CE JUMP JUMPDEST PUSH1 0xA SLOAD PUSH1 0x1 PUSH1 0x1 PUSH1 0xA0 SHL SUB SWAP1 DUP2 AND SWAP2 AND EQ PUSH2 0x121A JUMPI PUSH1 0x40 DUP1 MLOAD PUSH3 0x461BCD PUSH1 0xE5 SHL DUP2 MSTORE PUSH1 0x20 PUSH1 0x4 DUP3 ADD DUP2 SWAP1 MSTORE PUSH1 0x24 DUP3 ADD MSTORE PUSH32 0x4F776E61626C653A2063616C6C6572206973206E6F7420746865206F776E6572 PUSH1 0x44 DUP3 ADD MSTORE SWAP1 MLOAD SWAP1 DUP2 SWAP1 SUB PUSH1 0x64 ADD SWAP1 REVERT JUMPDEST PUSH1 0x1 PUSH1 0x1 PUSH1 0xA0 SHL SUB DUP2 AND PUSH2 0x125F JUMPI PUSH1 0x40 MLOAD PUSH3 0x461BCD PUSH1 0xE5 SHL DUP2 MSTORE PUSH1 0x4 ADD DUP1 DUP1 PUSH1 0x20 ADD DUP3 DUP2 SUB DUP3 MSTORE PUSH1 0x26 DUP2 MSTORE PUSH1 0x20 ADD DUP1 PUSH2 0x20B0 PUSH1 0x26 SWAP2 CODECOPY PUSH1 0x40 ADD SWAP2 POP POP PUSH1 0x40 MLOAD DUP1 SWAP2 SUB SWAP1 REVERT JUMPDEST PUSH1 0xA SLOAD PUSH1 0x40 MLOAD PUSH1 0x1 PUSH1 0x1 PUSH1 0xA0 SHL SUB DUP1 DUP5 AND SWAP3 AND SWAP1 PUSH32 0x8BE0079C531659141344CD1FD0A4F28419497F9722A3DAAFE3B4186F6B6457E0 SWAP1 PUSH1 0x0 SWAP1 LOG3 PUSH1 0xA DUP1 SLOAD PUSH1 0x1 PUSH1 0x1 PUSH1 0xA0 SHL SUB NOT AND PUSH1 0x1 PUSH1 0x1 PUSH1 0xA0 SHL SUB SWAP3 SWAP1 SWAP3 AND SWAP2 SWAP1 SWAP2 OR SWAP1 SSTORE JUMP JUMPDEST PUSH1 0x0 PUSH2 0x8F3 PUSH1 0x2 DUP4 PUSH4 0xFFFFFFFF PUSH2 0x177A AND JUMP JUMPDEST CALLER SWAP1 JUMP JUMPDEST PUSH1 0x0 DUP2 DUP2 MSTORE PUSH1 0x4 PUSH1 0x20 MSTORE PUSH1 0x40 SWAP1 KECCAK256 DUP1 SLOAD PUSH1 0x1 PUSH1 0x1 PUSH1 0xA0 SHL SUB NOT AND PUSH1 0x1 PUSH1 0x1 PUSH1 0xA0 SHL SUB DUP5 AND SWAP1 DUP2 OR SWAP1 SWAP2 SSTORE DUP2 SWAP1 PUSH2 0x1307 DUP3 PUSH2 0x936 JUMP JUMPDEST PUSH1 0x1 PUSH1 0x1 PUSH1 0xA0 SHL SUB AND PUSH32 0x8C5BE1E5EBEC7D5BD14F71427D1E84F3DD0314C0F7B2291E5B200AC8C7C3B925 PUSH1 0x40 MLOAD PUSH1 0x40 MLOAD DUP1 SWAP2 SUB SWAP1 LOG4 POP POP JUMP JUMPDEST PUSH1 0x0 PUSH2 0x8F3 DUP3 PUSH2 0x1786 JUMP JUMPDEST PUSH1 0x0 PUSH2 0x1356 DUP3 PUSH2 0x12BB JUMP JUMPDEST PUSH2 0x1391 JUMPI PUSH1 0x40 MLOAD PUSH3 0x461BCD PUSH1 0xE5 SHL DUP2 MSTORE PUSH1 0x4 ADD DUP1 DUP1 PUSH1 0x20 ADD DUP3 DUP2 SUB DUP3 MSTORE PUSH1 0x2C DUP2 MSTORE PUSH1 0x20 ADD DUP1 PUSH2 0x20FA PUSH1 0x2C SWAP2 CODECOPY PUSH1 0x40 ADD SWAP2 POP POP PUSH1 0x40 MLOAD DUP1 SWAP2 SUB SWAP1 REVERT JUMPDEST PUSH1 0x0 PUSH2 0x139C DUP4 PUSH2 0x936 JUMP JUMPDEST SWAP1 POP DUP1 PUSH1 0x1 PUSH1 0x1 PUSH1 0xA0 SHL SUB AND DUP5 PUSH1 0x1 PUSH1 0x1 PUSH1 0xA0 SHL SUB AND EQ DUP1 PUSH2 0x13D7 JUMPI POP DUP4 PUSH1 0x1 PUSH1 0x1 PUSH1 0xA0 SHL SUB AND PUSH2 0x13CC DUP5 PUSH2 0x723 JUMP JUMPDEST PUSH1 0x1 PUSH1 0x1 PUSH1 0xA0 SHL SUB AND EQ JUMPDEST DUP1 PUSH2 0x13E7 JUMPI POP PUSH2 0x13E7 DUP2 DUP6 PUSH2 0x1182 JUMP JUMPDEST SWAP5 SWAP4 POP POP POP POP JUMP JUMPDEST DUP3 PUSH1 0x1 PUSH1 0x1 PUSH1 0xA0 SHL SUB AND PUSH2 0x1402 DUP3 PUSH2 0x936 JUMP JUMPDEST PUSH1 0x1 PUSH1 0x1 PUSH1 0xA0 SHL SUB AND EQ PUSH2 0x1447 JUMPI PUSH1 0x40 MLOAD PUSH3 0x461BCD PUSH1 0xE5 SHL DUP2 MSTORE PUSH1 0x4 ADD DUP1 DUP1 PUSH1 0x20 ADD DUP3 DUP2 SUB DUP3 MSTORE PUSH1 0x29 DUP2 MSTORE PUSH1 0x20 ADD DUP1 PUSH2 0x222B PUSH1 0x29 SWAP2 CODECOPY PUSH1 0x40 ADD SWAP2 POP POP PUSH1 0x40 MLOAD DUP1 SWAP2 SUB SWAP1 REVERT JUMPDEST PUSH1 0x1 PUSH1 0x1 PUSH1 0xA0 SHL SUB DUP3 AND PUSH2 0x148C JUMPI PUSH1 0x40 MLOAD PUSH3 0x461BCD PUSH1 0xE5 SHL DUP2 MSTORE PUSH1 0x4 ADD DUP1 DUP1 PUSH1 0x20 ADD DUP3 DUP2 SUB DUP3 MSTORE PUSH1 0x24 DUP2 MSTORE PUSH1 0x20 ADD DUP1 PUSH2 0x20D6 PUSH1 0x24 SWAP2 CODECOPY PUSH1 0x40 ADD SWAP2 POP POP PUSH1 0x40 MLOAD DUP1 SWAP2 SUB SWAP1 REVERT JUMPDEST PUSH2 0x1497 DUP4 DUP4 DUP4 PUSH2 0x85B JUMP JUMPDEST PUSH2 0x14A2 PUSH1 0x0 DUP3 PUSH2 0x12D2 JUMP JUMPDEST PUSH1 0x1 PUSH1 0x1 PUSH1 0xA0 SHL SUB DUP4 AND PUSH1 0x0 SWAP1 DUP2 MSTORE PUSH1 0x1 PUSH1 0x20 MSTORE PUSH1 0x40 SWAP1 KECCAK256 PUSH2 0x14CA SWAP1 DUP3 PUSH4 0xFFFFFFFF PUSH2 0x178A AND JUMP JUMPDEST POP PUSH1 0x1 PUSH1 0x1 PUSH1 0xA0 SHL SUB DUP3 AND PUSH1 0x0 SWAP1 DUP2 MSTORE PUSH1 0x1 PUSH1 0x20 MSTORE PUSH1 0x40 SWAP1 KECCAK256 PUSH2 0x14F3 SWAP1 DUP3 PUSH4 0xFFFFFFFF PUSH2 0x1796 AND JUMP JUMPDEST POP PUSH2 0x1506 PUSH1 0x2 DUP3 DUP5 PUSH4 0xFFFFFFFF PUSH2 0x17A2 AND JUMP JUMPDEST POP DUP1 DUP3 PUSH1 0x1 PUSH1 0x1 PUSH1 0xA0 SHL SUB AND DUP5 PUSH1 0x1 PUSH1 0x1 PUSH1 0xA0 SHL SUB AND PUSH32 0xDDF252AD1BE2C89B69C2B068FC378DAA952BA7F163C4A11628F55A4DF523B3EF PUSH1 0x40 MLOAD PUSH1 0x40 MLOAD DUP1 SWAP2 SUB SWAP1 LOG4 POP POP POP JUMP JUMPDEST PUSH1 0x0 PUSH2 0x8F0 DUP4 DUP4 PUSH2 0x17B8 JUMP JUMPDEST PUSH1 0x0 DUP1 DUP1 DUP1 PUSH2 0x1568 DUP7 DUP7 PUSH2 0x181C JUMP JUMPDEST SWAP1 SWAP8 SWAP1 SWAP7 POP SWAP5 POP POP POP POP POP JUMP JUMPDEST PUSH1 0x0 PUSH2 0x1582 DUP5 DUP5 DUP5 PUSH2 0x1897 JUMP JUMPDEST SWAP1 POP JUMPDEST SWAP4 SWAP3 POP POP POP JUMP JUMPDEST PUSH1 0x0 PUSH1 0x64 PUSH1 0xD SLOAD LT PUSH2 0x15D4 JUMPI PUSH1 0x40 DUP1 MLOAD PUSH3 0x461BCD PUSH1 0xE5 SHL DUP2 MSTORE PUSH1 0x20 PUSH1 0x4 DUP3 ADD MSTORE PUSH1 0xC PUSH1 0x24 DUP3 ADD MSTORE PUSH12 0x444F4E45204D494E54494E47 PUSH1 0xA0 SHL PUSH1 0x44 DUP3 ADD MSTORE SWAP1 MLOAD SWAP1 DUP2 SWAP1 SUB PUSH1 0x64 ADD SWAP1 REVERT JUMPDEST PUSH1 0x64 PUSH2 0x15E0 PUSH1 0xB PUSH2 0x1786 JUMP JUMPDEST LT PUSH2 0x1621 JUMPI PUSH1 0x40 DUP1 MLOAD PUSH3 0x461BCD PUSH1 0xE5 SHL DUP2 MSTORE PUSH1 0x20 PUSH1 0x4 DUP3 ADD MSTORE PUSH1 0xC PUSH1 0x24 DUP3 ADD MSTORE PUSH12 0x444F4E45204D494E54494E47 PUSH1 0xA0 SHL PUSH1 0x44 DUP3 ADD MSTORE SWAP1 MLOAD SWAP1 DUP2 SWAP1 SUB PUSH1 0x64 ADD SWAP1 REVERT JUMPDEST PUSH2 0x162B PUSH1 0xB PUSH2 0x1961 JUMP JUMPDEST PUSH1 0x0 PUSH2 0x1637 PUSH1 0xB PUSH2 0x1786 JUMP JUMPDEST SWAP1 POP PUSH2 0x1643 DUP5 DUP3 PUSH2 0x196A JUMP JUMPDEST PUSH2 0x8F0 DUP2 DUP5 PUSH2 0x1AA4 JUMP JUMPDEST PUSH2 0x1658 DUP5 DUP5 DUP5 PUSH2 0x13EF JUMP JUMPDEST PUSH2 0x1664 DUP5 DUP5 DUP5 DUP5 PUSH2 0x1B07 JUMP JUMPDEST PUSH2 0xED5 JUMPI PUSH1 0x40 MLOAD PUSH3 0x461BCD PUSH1 0xE5 SHL DUP2 MSTORE PUSH1 0x4 ADD DUP1 DUP1 PUSH1 0x20 ADD DUP3 DUP2 SUB DUP3 MSTORE PUSH1 0x32 DUP2 MSTORE PUSH1 0x20 ADD DUP1 PUSH2 0x207E PUSH1 0x32 SWAP2 CODECOPY PUSH1 0x40 ADD SWAP2 POP POP PUSH1 0x40 MLOAD DUP1 SWAP2 SUB SWAP1 REVERT JUMPDEST PUSH1 0x60 DUP2 PUSH2 0x16C4 JUMPI POP PUSH1 0x40 DUP1 MLOAD DUP1 DUP3 ADD SWAP1 SWAP2 MSTORE PUSH1 0x1 DUP2 MSTORE PUSH1 0x3 PUSH1 0xFC SHL PUSH1 0x20 DUP3 ADD MSTORE PUSH2 0x66F JUMP JUMPDEST DUP2 PUSH1 0x0 JUMPDEST DUP2 ISZERO PUSH2 0x16DC JUMPI PUSH1 0x1 ADD PUSH1 0xA DUP3 DIV SWAP2 POP PUSH2 0x16C8 JUMP JUMPDEST PUSH1 0x60 DUP2 PUSH8 0xFFFFFFFFFFFFFFFF DUP2 GT DUP1 ISZERO PUSH2 0x16F5 JUMPI PUSH1 0x0 DUP1 REVERT JUMPDEST POP PUSH1 0x40 MLOAD SWAP1 DUP1 DUP3 MSTORE DUP1 PUSH1 0x1F ADD PUSH1 0x1F NOT AND PUSH1 0x20 ADD DUP3 ADD PUSH1 0x40 MSTORE DUP1 ISZERO PUSH2 0x1720 JUMPI PUSH1 0x20 DUP3 ADD DUP2 DUP1 CALLDATASIZE DUP4 CALLDATACOPY ADD SWAP1 POP JUMPDEST POP DUP6 SWAP4 POP SWAP1 POP PUSH1 0x0 NOT DUP3 ADD JUMPDEST DUP4 ISZERO PUSH2 0x1771 JUMPI PUSH1 0xA DUP5 MOD PUSH1 0x30 ADD PUSH1 0xF8 SHL DUP3 DUP3 DUP1 PUSH1 0x1 SWAP1 SUB SWAP4 POP DUP2 MLOAD DUP2 LT PUSH2 0x174F JUMPI INVALID JUMPDEST PUSH1 0x20 ADD ADD SWAP1 PUSH1 0x1 PUSH1 0x1 PUSH1 0xF8 SHL SUB NOT AND SWAP1 DUP2 PUSH1 0x0 BYTE SWAP1 MSTORE8 POP PUSH1 0xA DUP5 DIV SWAP4 POP PUSH2 0x172C JUMP JUMPDEST POP SWAP5 SWAP4 POP POP POP POP JUMP JUMPDEST PUSH1 0x0 PUSH2 0x8F0 DUP4 DUP4 PUSH2 0x1C87 JUMP JUMPDEST SLOAD SWAP1 JUMP JUMPDEST PUSH1 0x0 PUSH2 0x8F0 DUP4 DUP4 PUSH2 0x1C9F JUMP JUMPDEST PUSH1 0x0 PUSH2 0x8F0 DUP4 DUP4 PUSH2 0x1D65 JUMP JUMPDEST PUSH1 0x0 PUSH2 0x1582 DUP5 DUP5 PUSH1 0x1 PUSH1 0x1 PUSH1 0xA0 SHL SUB DUP6 AND PUSH2 0x1DAF JUMP JUMPDEST DUP2 SLOAD PUSH1 0x0 SWAP1 DUP3 LT PUSH2 0x17FA JUMPI PUSH1 0x40 MLOAD PUSH3 0x461BCD PUSH1 0xE5 SHL DUP2 MSTORE PUSH1 0x4 ADD DUP1 DUP1 PUSH1 0x20 ADD DUP3 DUP2 SUB DUP3 MSTORE PUSH1 0x22 DUP2 MSTORE PUSH1 0x20 ADD DUP1 PUSH2 0x205C PUSH1 0x22 SWAP2 CODECOPY PUSH1 0x40 ADD SWAP2 POP POP PUSH1 0x40 MLOAD DUP1 SWAP2 SUB SWAP1 REVERT JUMPDEST DUP3 PUSH1 0x0 ADD DUP3 DUP2 SLOAD DUP2 LT PUSH2 0x1809 JUMPI INVALID JUMPDEST SWAP1 PUSH1 0x0 MSTORE PUSH1 0x20 PUSH1 0x0 KECCAK256 ADD SLOAD SWAP1 POP SWAP3 SWAP2 POP POP JUMP JUMPDEST DUP2 SLOAD PUSH1 0x0 SWAP1 DUP2 SWAP1 DUP4 LT PUSH2 0x1860 JUMPI PUSH1 0x40 MLOAD PUSH3 0x461BCD PUSH1 0xE5 SHL DUP2 MSTORE PUSH1 0x4 ADD DUP1 DUP1 PUSH1 0x20 ADD DUP3 DUP2 SUB DUP3 MSTORE PUSH1 0x22 DUP2 MSTORE PUSH1 0x20 ADD DUP1 PUSH2 0x21B1 PUSH1 0x22 SWAP2 CODECOPY PUSH1 0x40 ADD SWAP2 POP POP PUSH1 0x40 MLOAD DUP1 SWAP2 SUB SWAP1 REVERT JUMPDEST PUSH1 0x0 DUP5 PUSH1 0x0 ADD DUP5 DUP2 SLOAD DUP2 LT PUSH2 0x1871 JUMPI INVALID JUMPDEST SWAP1 PUSH1 0x0 MSTORE PUSH1 0x20 PUSH1 0x0 KECCAK256 SWAP1 PUSH1 0x2 MUL ADD SWAP1 POP DUP1 PUSH1 0x0 ADD SLOAD DUP2 PUSH1 0x1 ADD SLOAD SWAP3 POP SWAP3 POP POP SWAP3 POP SWAP3 SWAP1 POP JUMP JUMPDEST PUSH1 0x0 DUP3 DUP2 MSTORE PUSH1 0x1 DUP5 ADD PUSH1 0x20 MSTORE PUSH1 0x40 DUP2 KECCAK256 SLOAD DUP3 DUP2 PUSH2 0x1932 JUMPI PUSH1 0x40 MLOAD PUSH3 0x461BCD PUSH1 0xE5 SHL DUP2 MSTORE PUSH1 0x4 ADD DUP1 DUP1 PUSH1 0x20 ADD DUP3 DUP2 SUB DUP3 MSTORE DUP4 DUP2 DUP2 MLOAD DUP2 MSTORE PUSH1 0x20 ADD SWAP2 POP DUP1 MLOAD SWAP1 PUSH1 0x20 ADD SWAP1 DUP1 DUP4 DUP4 PUSH1 0x0 JUMPDEST DUP4 DUP2 LT ISZERO PUSH2 0x18F7 JUMPI DUP2 DUP2 ADD MLOAD DUP4 DUP3 ADD MSTORE PUSH1 0x20 ADD PUSH2 0x18DF JUMP JUMPDEST POP POP POP POP SWAP1 POP SWAP1 DUP2 ADD SWAP1 PUSH1 0x1F AND DUP1 ISZERO PUSH2 0x1924 JUMPI DUP1 DUP3 SUB DUP1 MLOAD PUSH1 0x1 DUP4 PUSH1 0x20 SUB PUSH2 0x100 EXP SUB NOT AND DUP2 MSTORE PUSH1 0x20 ADD SWAP2 POP JUMPDEST POP SWAP3 POP POP POP PUSH1 0x40 MLOAD DUP1 SWAP2 SUB SWAP1 REVERT JUMPDEST POP DUP5 PUSH1 0x0 ADD PUSH1 0x1 DUP3 SUB DUP2 SLOAD DUP2 LT PUSH2 0x1945 JUMPI INVALID JUMPDEST SWAP1 PUSH1 0x0 MSTORE PUSH1 0x20 PUSH1 0x0 KECCAK256 SWAP1 PUSH1 0x2 MUL ADD PUSH1 0x1 ADD SLOAD SWAP2 POP POP SWAP4 SWAP3 POP POP POP JUMP JUMPDEST DUP1 SLOAD PUSH1 0x1 ADD SWAP1 SSTORE JUMP JUMPDEST PUSH1 0x1 PUSH1 0x1 PUSH1 0xA0 SHL SUB DUP3 AND PUSH2 0x19C5 JUMPI PUSH1 0x40 DUP1 MLOAD PUSH3 0x461BCD PUSH1 0xE5 SHL DUP2 MSTORE PUSH1 0x20 PUSH1 0x4 DUP3 ADD DUP2 SWAP1 MSTORE PUSH1 0x24 DUP3 ADD MSTORE PUSH32 0x4552433732313A206D696E7420746F20746865207A65726F2061646472657373 PUSH1 0x44 DUP3 ADD MSTORE SWAP1 MLOAD SWAP1 DUP2 SWAP1 SUB PUSH1 0x64 ADD SWAP1 REVERT JUMPDEST PUSH2 0x19CE DUP2 PUSH2 0x12BB JUMP JUMPDEST ISZERO PUSH2 0x1A20 JUMPI PUSH1 0x40 DUP1 MLOAD PUSH3 0x461BCD PUSH1 0xE5 SHL DUP2 MSTORE PUSH1 0x20 PUSH1 0x4 DUP3 ADD MSTORE PUSH1 0x1C PUSH1 0x24 DUP3 ADD MSTORE PUSH32 0x4552433732313A20746F6B656E20616C7265616479206D696E74656400000000 PUSH1 0x44 DUP3 ADD MSTORE SWAP1 MLOAD SWAP1 DUP2 SWAP1 SUB PUSH1 0x64 ADD SWAP1 REVERT JUMPDEST PUSH2 0x1A2C PUSH1 0x0 DUP4 DUP4 PUSH2 0x85B JUMP JUMPDEST PUSH1 0x1 PUSH1 0x1 PUSH1 0xA0 SHL SUB DUP3 AND PUSH1 0x0 SWAP1 DUP2 MSTORE PUSH1 0x1 PUSH1 0x20 MSTORE PUSH1 0x40 SWAP1 KECCAK256 PUSH2 0x1A54 SWAP1 DUP3 PUSH4 0xFFFFFFFF PUSH2 0x1796 AND JUMP JUMPDEST POP PUSH2 0x1A67 PUSH1 0x2 DUP3 DUP5 PUSH4 0xFFFFFFFF PUSH2 0x17A2 AND JUMP JUMPDEST POP PUSH1 0x40 MLOAD DUP2 SWAP1 PUSH1 0x1 PUSH1 0x1 PUSH1 0xA0 SHL SUB DUP5 AND SWAP1 PUSH1 0x0 SWAP1 PUSH32 0xDDF252AD1BE2C89B69C2B068FC378DAA952BA7F163C4A11628F55A4DF523B3EF SWAP1 DUP3 SWAP1 LOG4 POP POP JUMP JUMPDEST PUSH2 0x1AAD DUP3 PUSH2 0x12BB JUMP JUMPDEST PUSH2 0x1AE8 JUMPI PUSH1 0x40 MLOAD PUSH3 0x461BCD PUSH1 0xE5 SHL DUP2 MSTORE PUSH1 0x4 ADD DUP1 DUP1 PUSH1 0x20 ADD DUP3 DUP2 SUB DUP3 MSTORE PUSH1 0x2C DUP2 MSTORE PUSH1 0x20 ADD DUP1 PUSH2 0x21FF PUSH1 0x2C SWAP2 CODECOPY PUSH1 0x40 ADD SWAP2 POP POP PUSH1 0x40 MLOAD DUP1 SWAP2 SUB SWAP1 REVERT JUMPDEST PUSH1 0x0 DUP3 DUP2 MSTORE PUSH1 0x8 PUSH1 0x20 SWAP1 DUP2 MSTORE PUSH1 0x40 SWAP1 SWAP2 KECCAK256 DUP3 MLOAD PUSH2 0x85B SWAP3 DUP5 ADD SWAP1 PUSH2 0x1FC3 JUMP JUMPDEST PUSH1 0x0 PUSH2 0x1B1B DUP5 PUSH1 0x1 PUSH1 0x1 PUSH1 0xA0 SHL SUB AND PUSH2 0x1E46 JUMP JUMPDEST PUSH2 0x1B27 JUMPI POP PUSH1 0x1 PUSH2 0x13E7 JUMP JUMPDEST PUSH1 0x60 PUSH2 0x1C4D PUSH4 0xA85BD01 PUSH1 0xE1 SHL PUSH2 0x1B3C PUSH2 0x12CE JUMP JUMPDEST DUP9 DUP8 DUP8 PUSH1 0x40 MLOAD PUSH1 0x24 ADD DUP1 DUP6 PUSH1 0x1 PUSH1 0x1 PUSH1 0xA0 SHL SUB AND PUSH1 0x1 PUSH1 0x1 PUSH1 0xA0 SHL SUB AND DUP2 MSTORE PUSH1 0x20 ADD DUP5 PUSH1 0x1 PUSH1 0x1 PUSH1 0xA0 SHL SUB AND PUSH1 0x1 PUSH1 0x1 PUSH1 0xA0 SHL SUB AND DUP2 MSTORE PUSH1 0x20 ADD DUP4 DUP2 MSTORE PUSH1 0x20 ADD DUP1 PUSH1 0x20 ADD DUP3 DUP2 SUB DUP3 MSTORE DUP4 DUP2 DUP2 MLOAD DUP2 MSTORE PUSH1 0x20 ADD SWAP2 POP DUP1 MLOAD SWAP1 PUSH1 0x20 ADD SWAP1 DUP1 DUP4 DUP4 PUSH1 0x0 JUMPDEST DUP4 DUP2 LT ISZERO PUSH2 0x1BB5 JUMPI DUP2 DUP2 ADD MLOAD DUP4 DUP3 ADD MSTORE PUSH1 0x20 ADD PUSH2 0x1B9D JUMP JUMPDEST POP POP POP POP SWAP1 POP SWAP1 DUP2 ADD SWAP1 PUSH1 0x1F AND DUP1 ISZERO PUSH2 0x1BE2 JUMPI DUP1 DUP3 SUB DUP1 MLOAD PUSH1 0x1 DUP4 PUSH1 0x20 SUB PUSH2 0x100 EXP SUB NOT AND DUP2 MSTORE PUSH1 0x20 ADD SWAP2 POP JUMPDEST POP SWAP6 POP POP POP POP POP POP PUSH1 0x40 MLOAD PUSH1 0x20 DUP2 DUP4 SUB SUB DUP2 MSTORE SWAP1 PUSH1 0x40 MSTORE SWAP1 PUSH1 0x1 PUSH1 0x1 PUSH1 0xE0 SHL SUB NOT AND PUSH1 0x20 DUP3 ADD DUP1 MLOAD PUSH1 0x1 PUSH1 0x1 PUSH1 0xE0 SHL SUB DUP4 DUP2 DUP4 AND OR DUP4 MSTORE POP POP POP POP PUSH1 0x40 MLOAD DUP1 PUSH1 0x60 ADD PUSH1 0x40 MSTORE DUP1 PUSH1 0x32 DUP2 MSTORE PUSH1 0x20 ADD PUSH2 0x207E PUSH1 0x32 SWAP2 CODECOPY PUSH1 0x1 PUSH1 0x1 PUSH1 0xA0 SHL SUB DUP9 AND SWAP2 SWAP1 PUSH4 0xFFFFFFFF PUSH2 0x1E4C AND JUMP JUMPDEST SWAP1 POP PUSH1 0x0 DUP2 DUP1 PUSH1 0x20 ADD SWAP1 MLOAD PUSH1 0x20 DUP2 LT ISZERO PUSH2 0x1C66 JUMPI PUSH1 0x0 DUP1 REVERT JUMPDEST POP MLOAD PUSH1 0x1 PUSH1 0x1 PUSH1 0xE0 SHL SUB NOT AND PUSH4 0xA85BD01 PUSH1 0xE1 SHL EQ SWAP3 POP POP POP SWAP5 SWAP4 POP POP POP POP JUMP JUMPDEST PUSH1 0x0 SWAP1 DUP2 MSTORE PUSH1 0x1 SWAP2 SWAP1 SWAP2 ADD PUSH1 0x20 MSTORE PUSH1 0x40 SWAP1 KECCAK256 SLOAD ISZERO ISZERO SWAP1 JUMP JUMPDEST PUSH1 0x0 DUP2 DUP2 MSTORE PUSH1 0x1 DUP4 ADD PUSH1 0x20 MSTORE PUSH1 0x40 DUP2 KECCAK256 SLOAD DUP1 ISZERO PUSH2 0x1D5B JUMPI DUP4 SLOAD PUSH1 0x0 NOT DUP1 DUP4 ADD SWAP2 SWAP1 DUP2 ADD SWAP1 PUSH1 0x0 SWAP1 DUP8 SWAP1 DUP4 SWAP1 DUP2 LT PUSH2 0x1CD2 JUMPI INVALID JUMPDEST SWAP1 PUSH1 0x0 MSTORE PUSH1 0x20 PUSH1 0x0 KECCAK256 ADD SLOAD SWAP1 POP DUP1 DUP8 PUSH1 0x0 ADD DUP5 DUP2 SLOAD DUP2 LT PUSH2 0x1CEF JUMPI INVALID JUMPDEST PUSH1 0x0 SWAP2 DUP3 MSTORE PUSH1 0x20 DUP1 DUP4 KECCAK256 SWAP1 SWAP2 ADD SWAP3 SWAP1 SWAP3 SSTORE DUP3 DUP2 MSTORE PUSH1 0x1 DUP10 DUP2 ADD SWAP1 SWAP3 MSTORE PUSH1 0x40 SWAP1 KECCAK256 SWAP1 DUP5 ADD SWAP1 SSTORE DUP7 SLOAD DUP8 SWAP1 DUP1 PUSH2 0x1D1F JUMPI INVALID JUMPDEST PUSH1 0x1 SWAP1 SUB DUP2 DUP2 SWAP1 PUSH1 0x0 MSTORE PUSH1 0x20 PUSH1 0x0 KECCAK256 ADD PUSH1 0x0 SWAP1 SSTORE SWAP1 SSTORE DUP7 PUSH1 0x1 ADD PUSH1 0x0 DUP8 DUP2 MSTORE PUSH1 0x20 ADD SWAP1 DUP2 MSTORE PUSH1 0x20 ADD PUSH1 0x0 KECCAK256 PUSH1 0x0 SWAP1 SSTORE PUSH1 0x1 SWAP5 POP POP POP POP POP PUSH2 0x8F3 JUMP JUMPDEST PUSH1 0x0 SWAP2 POP POP PUSH2 0x8F3 JUMP JUMPDEST PUSH1 0x0 PUSH2 0x1D71 DUP4 DUP4 PUSH2 0x1C87 JUMP JUMPDEST PUSH2 0x1DA7 JUMPI POP DUP2 SLOAD PUSH1 0x1 DUP2 DUP2 ADD DUP5 SSTORE PUSH1 0x0 DUP5 DUP2 MSTORE PUSH1 0x20 DUP1 DUP3 KECCAK256 SWAP1 SWAP4 ADD DUP5 SWAP1 SSTORE DUP5 SLOAD DUP5 DUP3 MSTORE DUP3 DUP7 ADD SWAP1 SWAP4 MSTORE PUSH1 0x40 SWAP1 KECCAK256 SWAP2 SWAP1 SWAP2 SSTORE PUSH2 0x8F3 JUMP JUMPDEST POP PUSH1 0x0 PUSH2 0x8F3 JUMP JUMPDEST PUSH1 0x0 DUP3 DUP2 MSTORE PUSH1 0x1 DUP5 ADD PUSH1 0x20 MSTORE PUSH1 0x40 DUP2 KECCAK256 SLOAD DUP1 PUSH2 0x1E14 JUMPI POP POP PUSH1 0x40 DUP1 MLOAD DUP1 DUP3 ADD DUP3 MSTORE DUP4 DUP2 MSTORE PUSH1 0x20 DUP1 DUP3 ADD DUP5 DUP2 MSTORE DUP7 SLOAD PUSH1 0x1 DUP2 DUP2 ADD DUP10 SSTORE PUSH1 0x0 DUP10 DUP2 MSTORE DUP5 DUP2 KECCAK256 SWAP6 MLOAD PUSH1 0x2 SWAP1 SWAP4 MUL SWAP1 SWAP6 ADD SWAP2 DUP3 SSTORE SWAP2 MLOAD SWAP1 DUP3 ADD SSTORE DUP7 SLOAD DUP7 DUP5 MSTORE DUP2 DUP9 ADD SWAP1 SWAP3 MSTORE SWAP3 SWAP1 SWAP2 KECCAK256 SSTORE PUSH2 0x1585 JUMP JUMPDEST DUP3 DUP6 PUSH1 0x0 ADD PUSH1 0x1 DUP4 SUB DUP2 SLOAD DUP2 LT PUSH2 0x1E27 JUMPI INVALID JUMPDEST SWAP1 PUSH1 0x0 MSTORE PUSH1 0x20 PUSH1 0x0 KECCAK256 SWAP1 PUSH1 0x2 MUL ADD PUSH1 0x1 ADD DUP2 SWAP1 SSTORE POP PUSH1 0x0 SWAP2 POP POP PUSH2 0x1585 JUMP JUMPDEST EXTCODESIZE ISZERO ISZERO SWAP1 JUMP JUMPDEST PUSH1 0x60 PUSH2 0x1582 DUP5 DUP5 PUSH1 0x0 DUP6 PUSH1 0x60 PUSH2 0x1E61 DUP6 PUSH2 0x1E46 JUMP JUMPDEST PUSH2 0x1EB2 JUMPI PUSH1 0x40 DUP1 MLOAD PUSH3 0x461BCD PUSH1 0xE5 SHL DUP2 MSTORE PUSH1 0x20 PUSH1 0x4 DUP3 ADD MSTORE PUSH1 0x1D PUSH1 0x24 DUP3 ADD MSTORE PUSH32 0x416464726573733A2063616C6C20746F206E6F6E2D636F6E7472616374000000 PUSH1 0x44 DUP3 ADD MSTORE SWAP1 MLOAD SWAP1 DUP2 SWAP1 SUB PUSH1 0x64 ADD SWAP1 REVERT JUMPDEST PUSH1 0x0 PUSH1 0x60 DUP7 PUSH1 0x1 PUSH1 0x1 PUSH1 0xA0 SHL SUB AND DUP6 DUP8 PUSH1 0x40 MLOAD DUP1 DUP3 DUP1 MLOAD SWAP1 PUSH1 0x20 ADD SWAP1 DUP1 DUP4 DUP4 JUMPDEST PUSH1 0x20 DUP4 LT PUSH2 0x1EF1 JUMPI DUP1 MLOAD DUP3 MSTORE PUSH1 0x1F NOT SWAP1 SWAP3 ADD SWAP2 PUSH1 0x20 SWAP2 DUP3 ADD SWAP2 ADD PUSH2 0x1ED2 JUMP JUMPDEST PUSH1 0x1 DUP4 PUSH1 0x20 SUB PUSH2 0x100 EXP SUB DUP1 NOT DUP3 MLOAD AND DUP2 DUP5 MLOAD AND DUP1 DUP3 OR DUP6 MSTORE POP POP POP POP POP POP SWAP1 POP ADD SWAP2 POP POP PUSH1 0x0 PUSH1 0x40 MLOAD DUP1 DUP4 SUB DUP2 DUP6 DUP8 GAS CALL SWAP3 POP POP POP RETURNDATASIZE DUP1 PUSH1 0x0 DUP2 EQ PUSH2 0x1F53 JUMPI PUSH1 0x40 MLOAD SWAP2 POP PUSH1 0x1F NOT PUSH1 0x3F RETURNDATASIZE ADD AND DUP3 ADD PUSH1 0x40 MSTORE RETURNDATASIZE DUP3 MSTORE RETURNDATASIZE PUSH1 0x0 PUSH1 0x20 DUP5 ADD RETURNDATACOPY PUSH2 0x1F58 JUMP JUMPDEST PUSH1 0x60 SWAP2 POP JUMPDEST POP SWAP2 POP SWAP2 POP DUP2 ISZERO PUSH2 0x1F6C JUMPI SWAP2 POP PUSH2 0x13E7 SWAP1 POP JUMP JUMPDEST DUP1 MLOAD ISZERO PUSH2 0x1F7C JUMPI DUP1 MLOAD DUP1 DUP3 PUSH1 0x20 ADD REVERT JUMPDEST PUSH1 0x40 MLOAD PUSH3 0x461BCD PUSH1 0xE5 SHL DUP2 MSTORE PUSH1 0x20 PUSH1 0x4 DUP3 ADD DUP2 DUP2 MSTORE DUP7 MLOAD PUSH1 0x24 DUP5 ADD MSTORE DUP7 MLOAD DUP8 SWAP4 SWAP2 SWAP3 DUP4 SWAP3 PUSH1 0x44 ADD SWAP2 SWAP1 DUP6 ADD SWAP1 DUP1 DUP4 DUP4 PUSH1 0x0 DUP4 ISZERO PUSH2 0x18F7 JUMPI DUP2 DUP2 ADD MLOAD DUP4 DUP3 ADD MSTORE PUSH1 0x20 ADD PUSH2 0x18DF JUMP JUMPDEST DUP3 DUP1 SLOAD PUSH1 0x1 DUP2 PUSH1 0x1 AND ISZERO PUSH2 0x100 MUL SUB AND PUSH1 0x2 SWAP1 DIV SWAP1 PUSH1 0x0 MSTORE PUSH1 0x20 PUSH1 0x0 KECCAK256 SWAP1 PUSH1 0x1F ADD PUSH1 0x20 SWAP1 DIV DUP2 ADD SWAP3 DUP3 PUSH1 0x1F LT PUSH2 0x2004 JUMPI DUP1 MLOAD PUSH1 0xFF NOT AND DUP4 DUP1 ADD OR DUP6 SSTORE PUSH2 0x2031 JUMP JUMPDEST DUP3 DUP1 ADD PUSH1 0x1 ADD DUP6 SSTORE DUP3 ISZERO PUSH2 0x2031 JUMPI SWAP2 DUP3 ADD JUMPDEST DUP3 DUP2 GT ISZERO PUSH2 0x2031 JUMPI DUP3 MLOAD DUP3 SSTORE SWAP2 PUSH1 0x20 ADD SWAP2 SWAP1 PUSH1 0x1 ADD SWAP1 PUSH2 0x2016 JUMP JUMPDEST POP PUSH2 0x203D SWAP3 SWAP2 POP PUSH2 0x2041 JUMP JUMPDEST POP SWAP1 JUMP JUMPDEST PUSH2 0x720 SWAP2 SWAP1 JUMPDEST DUP1 DUP3 GT ISZERO PUSH2 0x203D JUMPI PUSH1 0x0 DUP2 SSTORE PUSH1 0x1 ADD PUSH2 0x2047 JUMP INVALID GASLIMIT PUSH15 0x756D657261626C655365743A20696E PUSH5 0x6578206F75 PUSH21 0x206F6620626F756E64734552433732313A20747261 PUSH15 0x7366657220746F206E6F6E20455243 CALLDATACOPY ORIGIN BALANCE MSTORE PUSH6 0x636569766572 KECCAK256 PUSH10 0x6D706C656D656E746572 0x4F PUSH24 0x6E61626C653A206E6577206F776E65722069732074686520 PUSH27 0x65726F20616464726573734552433732313A207472616E73666572 KECCAK256 PUSH21 0x6F20746865207A65726F2061646472657373455243 CALLDATACOPY ORIGIN BALANCE GASPRICE KECCAK256 PUSH16 0x70657261746F7220717565727920666F PUSH19 0x206E6F6E6578697374656E7420746F6B656E45 MSTORE NUMBER CALLDATACOPY ORIGIN BALANCE GASPRICE KECCAK256 PUSH2 0x7070 PUSH19 0x6F76652063616C6C6572206973206E6F74206F PUSH24 0x6E6572206E6F7220617070726F76656420666F7220616C6C GASLIMIT MSTORE NUMBER CALLDATACOPY ORIGIN BALANCE GASPRICE KECCAK256 PUSH3 0x616C61 PUSH15 0x636520717565727920666F72207468 PUSH6 0x207A65726F20 PUSH2 0x6464 PUSH19 0x6573734552433732313A206F776E6572207175 PUSH6 0x727920666F72 KECCAK256 PUSH15 0x6F6E6578697374656E7420746F6B65 PUSH15 0x456E756D657261626C654D61703A20 PUSH10 0x6E646578206F7574206F PUSH7 0x20626F756E6473 GASLIMIT MSTORE NUMBER CALLDATACOPY ORIGIN BALANCE GASPRICE KECCAK256 PUSH2 0x7070 PUSH19 0x6F76656420717565727920666F72206E6F6E65 PUSH25 0x697374656E7420746F6B656E4552433732314D657461646174 PUSH2 0x3A20 SSTORE MSTORE 0x49 KECCAK256 PUSH20 0x6574206F66206E6F6E6578697374656E7420746F PUSH12 0x656E4552433732313A207472 PUSH2 0x6E73 PUSH7 0x6572206F662074 PUSH16 0x6B656E2074686174206973206E6F7420 PUSH16 0x776E4552433732314D65746164617461 GASPRICE KECCAK256 SSTORE MSTORE 0x49 KECCAK256 PUSH18 0x7565727920666F72206E6F6E657869737465 PUSH15 0x7420746F6B656E4552433732313A20 PUSH2 0x7070 PUSH19 0x6F76616C20746F2063757272656E74206F776E PUSH6 0x724552433732 BALANCE GASPRICE KECCAK256 PUSH21 0x72616E736665722063616C6C6572206973206E6F74 KECCAK256 PUSH16 0x776E6572206E6F7220617070726F7665 PUSH5 0xA264697066 PUSH20 0x58221220E12530F21FFF475FDE1E94A5C14D4B88 0x24 PUSH17 0xFF5C368740F4B73C3B19DEDD507364736F PUSH13 0x6343000607003368747470733A 0x2F 0x2F PUSH8 0x6174657761792E70 PUSH10 0x6E6174612E636C6F7564 0x2F PUSH10 0x7066732F516D646B5A57 CODESIZE PUSH9 0x4D625353426A72466F PUSH23 0x3773476F656F7876594A6E56703867783770674279434E PUSH16 0x4D366B6F2F0000000000000000000000 "
        },
        "gasEstimates": {
          "creation": {
            "codeDepositCost": "1794000",
            "executionCost": "infinite",
            "totalCost": "infinite"
          },
          "external": {
            "approve(address,uint256)": "infinite",
            "balanceOf(address)": "infinite",
            "baseURI()": "infinite",
            "getApproved(uint256)": "infinite",
            "gitcoin()": "265",
            "isApprovedForAll(address,address)": "1372",
            "limit()": "220",
            "name()": "infinite",
            "owner()": "1126",
            "ownerOf(uint256)": "infinite",
            "renounceOwnership()": "24268",
            "requestMint()": "infinite",
            "requested()": "1065",
            "safeTransferFrom(address,address,uint256)": "infinite",
            "safeTransferFrom(address,address,uint256,bytes)": "infinite",
            "setApprovalForAll(address,bool)": "infinite",
            "supportsInterface(bytes4)": "1196",
            "symbol()": "infinite",
            "tokenByIndex(uint256)": "infinite",
            "tokenOfOwnerByIndex(address,uint256)": "infinite",
            "tokenURI(uint256)": "infinite",
            "totalSupply()": "1207",
            "transferFrom(address,address,uint256)": "infinite",
            "transferOwnership(address)": "infinite"
          },
          "internal": {
            "mintItem(address,string memory)": "infinite"
          }
        },
        "methodIdentifiers": {
          "approve(address,uint256)": "095ea7b3",
          "balanceOf(address)": "70a08231",
          "baseURI()": "6c0360eb",
          "getApproved(uint256)": "081812fc",
          "gitcoin()": "05f02ff2",
          "isApprovedForAll(address,address)": "e985e9c5",
          "limit()": "a4d66daf",
          "name()": "06fdde03",
          "owner()": "8da5cb5b",
          "ownerOf(uint256)": "6352211e",
          "renounceOwnership()": "715018a6",
          "requestMint()": "afb7bed9",
          "requested()": "3fae9651",
          "safeTransferFrom(address,address,uint256)": "42842e0e",
          "safeTransferFrom(address,address,uint256,bytes)": "b88d4fde",
          "setApprovalForAll(address,bool)": "a22cb465",
          "supportsInterface(bytes4)": "01ffc9a7",
          "symbol()": "95d89b41",
          "tokenByIndex(uint256)": "4f6ccce7",
          "tokenOfOwnerByIndex(address,uint256)": "2f745c59",
          "tokenURI(uint256)": "c87b56dd",
          "totalSupply()": "18160ddd",
          "transferFrom(address,address,uint256)": "23b872dd",
          "transferOwnership(address)": "f2fde38b"
        }
      },
      "storageLayout": {
        "storage": [
          {
            "astId": 144,
            "contract": "contracts/MoonshotBot.sol:MoonshotBot",
            "label": "_supportedInterfaces",
            "offset": 0,
            "slot": "0",
            "type": "t_mapping(t_bytes4,t_bool)"
          },
          {
            "astId": 441,
            "contract": "contracts/MoonshotBot.sol:MoonshotBot",
            "label": "_holderTokens",
            "offset": 0,
            "slot": "1",
            "type": "t_mapping(t_address,t_struct(UintSet)2518_storage)"
          },
          {
            "astId": 443,
            "contract": "contracts/MoonshotBot.sol:MoonshotBot",
            "label": "_tokenOwners",
            "offset": 0,
            "slot": "2",
            "type": "t_struct(UintToAddressMap)2043_storage"
          },
          {
            "astId": 447,
            "contract": "contracts/MoonshotBot.sol:MoonshotBot",
            "label": "_tokenApprovals",
            "offset": 0,
            "slot": "4",
            "type": "t_mapping(t_uint256,t_address)"
          },
          {
            "astId": 453,
            "contract": "contracts/MoonshotBot.sol:MoonshotBot",
            "label": "_operatorApprovals",
            "offset": 0,
            "slot": "5",
            "type": "t_mapping(t_address,t_mapping(t_address,t_bool))"
          },
          {
            "astId": 455,
            "contract": "contracts/MoonshotBot.sol:MoonshotBot",
            "label": "_name",
            "offset": 0,
            "slot": "6",
            "type": "t_string_storage"
          },
          {
            "astId": 457,
            "contract": "contracts/MoonshotBot.sol:MoonshotBot",
            "label": "_symbol",
            "offset": 0,
            "slot": "7",
            "type": "t_string_storage"
          },
          {
            "astId": 461,
            "contract": "contracts/MoonshotBot.sol:MoonshotBot",
            "label": "_tokenURIs",
            "offset": 0,
            "slot": "8",
            "type": "t_mapping(t_uint256,t_string_storage)"
          },
          {
            "astId": 463,
            "contract": "contracts/MoonshotBot.sol:MoonshotBot",
            "label": "_baseURI",
            "offset": 0,
            "slot": "9",
            "type": "t_string_storage"
          },
          {
            "astId": 30,
            "contract": "contracts/MoonshotBot.sol:MoonshotBot",
            "label": "_owner",
            "offset": 0,
            "slot": "10",
            "type": "t_address"
          },
          {
            "astId": 2717,
            "contract": "contracts/MoonshotBot.sol:MoonshotBot",
            "label": "_tokenIds",
            "offset": 0,
            "slot": "11",
            "type": "t_struct(Counter)1723_storage"
          },
          {
            "astId": 2720,
            "contract": "contracts/MoonshotBot.sol:MoonshotBot",
            "label": "uris",
            "offset": 0,
            "slot": "12",
            "type": "t_array(t_string_storage)dyn_storage"
          },
          {
            "astId": 2927,
            "contract": "contracts/MoonshotBot.sol:MoonshotBot",
            "label": "requested",
            "offset": 0,
            "slot": "13",
            "type": "t_uint256"
          }
        ],
        "types": {
          "t_address": {
            "encoding": "inplace",
            "label": "address",
            "numberOfBytes": "20"
          },
          "t_array(t_bytes32)dyn_storage": {
            "base": "t_bytes32",
            "encoding": "dynamic_array",
            "label": "bytes32[]",
            "numberOfBytes": "32"
          },
          "t_array(t_string_storage)dyn_storage": {
            "base": "t_string_storage",
            "encoding": "dynamic_array",
            "label": "string[]",
            "numberOfBytes": "32"
          },
          "t_array(t_struct(MapEntry)1771_storage)dyn_storage": {
            "base": "t_struct(MapEntry)1771_storage",
            "encoding": "dynamic_array",
            "label": "struct EnumerableMap.MapEntry[]",
            "numberOfBytes": "32"
          },
          "t_bool": {
            "encoding": "inplace",
            "label": "bool",
            "numberOfBytes": "1"
          },
          "t_bytes32": {
            "encoding": "inplace",
            "label": "bytes32",
            "numberOfBytes": "32"
          },
          "t_bytes4": {
            "encoding": "inplace",
            "label": "bytes4",
            "numberOfBytes": "4"
          },
          "t_mapping(t_address,t_bool)": {
            "encoding": "mapping",
            "key": "t_address",
            "label": "mapping(address => bool)",
            "numberOfBytes": "32",
            "value": "t_bool"
          },
          "t_mapping(t_address,t_mapping(t_address,t_bool))": {
            "encoding": "mapping",
            "key": "t_address",
            "label": "mapping(address => mapping(address => bool))",
            "numberOfBytes": "32",
            "value": "t_mapping(t_address,t_bool)"
          },
          "t_mapping(t_address,t_struct(UintSet)2518_storage)": {
            "encoding": "mapping",
            "key": "t_address",
            "label": "mapping(address => struct EnumerableSet.UintSet)",
            "numberOfBytes": "32",
            "value": "t_struct(UintSet)2518_storage"
          },
          "t_mapping(t_bytes32,t_uint256)": {
            "encoding": "mapping",
            "key": "t_bytes32",
            "label": "mapping(bytes32 => uint256)",
            "numberOfBytes": "32",
            "value": "t_uint256"
          },
          "t_mapping(t_bytes4,t_bool)": {
            "encoding": "mapping",
            "key": "t_bytes4",
            "label": "mapping(bytes4 => bool)",
            "numberOfBytes": "32",
            "value": "t_bool"
          },
          "t_mapping(t_uint256,t_address)": {
            "encoding": "mapping",
            "key": "t_uint256",
            "label": "mapping(uint256 => address)",
            "numberOfBytes": "32",
            "value": "t_address"
          },
          "t_mapping(t_uint256,t_string_storage)": {
            "encoding": "mapping",
            "key": "t_uint256",
            "label": "mapping(uint256 => string)",
            "numberOfBytes": "32",
            "value": "t_string_storage"
          },
          "t_string_storage": {
            "encoding": "bytes",
            "label": "string",
            "numberOfBytes": "32"
          },
          "t_struct(Counter)1723_storage": {
            "encoding": "inplace",
            "label": "struct Counters.Counter",
            "members": [
              {
                "astId": 1722,
                "contract": "contracts/MoonshotBot.sol:MoonshotBot",
                "label": "_value",
                "offset": 0,
                "slot": "0",
                "type": "t_uint256"
              }
            ],
            "numberOfBytes": "32"
          },
          "t_struct(Map)1779_storage": {
            "encoding": "inplace",
            "label": "struct EnumerableMap.Map",
            "members": [
              {
                "astId": 1774,
                "contract": "contracts/MoonshotBot.sol:MoonshotBot",
                "label": "_entries",
                "offset": 0,
                "slot": "0",
                "type": "t_array(t_struct(MapEntry)1771_storage)dyn_storage"
              },
              {
                "astId": 1778,
                "contract": "contracts/MoonshotBot.sol:MoonshotBot",
                "label": "_indexes",
                "offset": 0,
                "slot": "1",
                "type": "t_mapping(t_bytes32,t_uint256)"
              }
            ],
            "numberOfBytes": "64"
          },
          "t_struct(MapEntry)1771_storage": {
            "encoding": "inplace",
            "label": "struct EnumerableMap.MapEntry",
            "members": [
              {
                "astId": 1768,
                "contract": "contracts/MoonshotBot.sol:MoonshotBot",
                "label": "_key",
                "offset": 0,
                "slot": "0",
                "type": "t_bytes32"
              },
              {
                "astId": 1770,
                "contract": "contracts/MoonshotBot.sol:MoonshotBot",
                "label": "_value",
                "offset": 0,
                "slot": "1",
                "type": "t_bytes32"
              }
            ],
            "numberOfBytes": "64"
          },
          "t_struct(Set)2229_storage": {
            "encoding": "inplace",
            "label": "struct EnumerableSet.Set",
            "members": [
              {
                "astId": 2224,
                "contract": "contracts/MoonshotBot.sol:MoonshotBot",
                "label": "_values",
                "offset": 0,
                "slot": "0",
                "type": "t_array(t_bytes32)dyn_storage"
              },
              {
                "astId": 2228,
                "contract": "contracts/MoonshotBot.sol:MoonshotBot",
                "label": "_indexes",
                "offset": 0,
                "slot": "1",
                "type": "t_mapping(t_bytes32,t_uint256)"
              }
            ],
            "numberOfBytes": "64"
          },
          "t_struct(UintSet)2518_storage": {
            "encoding": "inplace",
            "label": "struct EnumerableSet.UintSet",
            "members": [
              {
                "astId": 2517,
                "contract": "contracts/MoonshotBot.sol:MoonshotBot",
                "label": "_inner",
                "offset": 0,
                "slot": "0",
                "type": "t_struct(Set)2229_storage"
              }
            ],
            "numberOfBytes": "64"
          },
          "t_struct(UintToAddressMap)2043_storage": {
            "encoding": "inplace",
            "label": "struct EnumerableMap.UintToAddressMap",
            "members": [
              {
                "astId": 2042,
                "contract": "contracts/MoonshotBot.sol:MoonshotBot",
                "label": "_inner",
                "offset": 0,
                "slot": "0",
                "type": "t_struct(Map)1779_storage"
              }
            ],
            "numberOfBytes": "64"
          },
          "t_uint256": {
            "encoding": "inplace",
            "label": "uint256",
            "numberOfBytes": "32"
          }
        }
      },
      "userdoc": {
        "methods": {}
      }
    }
  }
}