{
  "address": "0x37E2c6400214ae49339f2BEfAB1Abf3Dd39b2b74",
  "abi": [
    {
      "inputs": [],
      "stateMutability": "nonpayable",
      "type": "constructor"
    },
    {
      "anonymous": false,
      "inputs": [
        {
          "indexed": true,
          "internalType": "address",
          "name": "owner",
          "type": "address"
        },
        {
          "indexed": true,
          "internalType": "address",
          "name": "approved",
          "type": "address"
        },
        {
          "indexed": true,
          "internalType": "uint256",
          "name": "tokenId",
          "type": "uint256"
        }
      ],
      "name": "Approval",
      "type": "event"
    },
    {
      "anonymous": false,
      "inputs": [
        {
          "indexed": true,
          "internalType": "address",
          "name": "owner",
          "type": "address"
        },
        {
          "indexed": true,
          "internalType": "address",
          "name": "operator",
          "type": "address"
        },
        {
          "indexed": false,
          "internalType": "bool",
          "name": "approved",
          "type": "bool"
        }
      ],
      "name": "ApprovalForAll",
      "type": "event"
    },
    {
      "anonymous": false,
      "inputs": [
        {
          "indexed": true,
          "internalType": "address",
          "name": "previousOwner",
          "type": "address"
        },
        {
          "indexed": true,
          "internalType": "address",
          "name": "newOwner",
          "type": "address"
        }
      ],
      "name": "OwnershipTransferred",
      "type": "event"
    },
    {
      "anonymous": false,
      "inputs": [
        {
          "indexed": true,
          "internalType": "address",
          "name": "from",
          "type": "address"
        },
        {
          "indexed": true,
          "internalType": "address",
          "name": "to",
          "type": "address"
        },
        {
          "indexed": true,
          "internalType": "uint256",
          "name": "tokenId",
          "type": "uint256"
        }
      ],
      "name": "Transfer",
      "type": "event"
    },
    {
      "inputs": [],
      "name": "_tokenIds",
      "outputs": [
        {
          "internalType": "uint256",
          "name": "",
          "type": "uint256"
        }
      ],
      "stateMutability": "view",
      "type": "function"
    },
    {
      "inputs": [
        {
          "internalType": "address",
          "name": "to",
          "type": "address"
        },
        {
          "internalType": "uint256",
          "name": "tokenId",
          "type": "uint256"
        }
      ],
      "name": "approve",
      "outputs": [],
      "stateMutability": "nonpayable",
      "type": "function"
    },
    {
      "inputs": [
        {
          "internalType": "address",
          "name": "owner",
          "type": "address"
        }
      ],
      "name": "balanceOf",
      "outputs": [
        {
          "internalType": "uint256",
          "name": "",
          "type": "uint256"
        }
      ],
      "stateMutability": "view",
      "type": "function"
    },
    {
      "inputs": [
        {
          "internalType": "uint256",
          "name": "",
          "type": "uint256"
        },
        {
          "internalType": "uint256",
          "name": "",
          "type": "uint256"
        }
      ],
      "name": "componentByTankId",
      "outputs": [
        {
          "internalType": "uint256",
          "name": "blockAdded",
          "type": "uint256"
        },
        {
          "internalType": "uint256",
          "name": "id",
          "type": "uint256"
        },
        {
          "internalType": "address",
          "name": "addr",
          "type": "address"
        },
        {
          "internalType": "uint8",
          "name": "x",
          "type": "uint8"
        },
        {
          "internalType": "uint8",
          "name": "y",
          "type": "uint8"
        },
        {
          "internalType": "uint8",
          "name": "scale",
          "type": "uint8"
        },
        {
          "internalType": "int8",
          "name": "dx",
          "type": "int8"
        },
        {
          "internalType": "int8",
          "name": "dy",
          "type": "int8"
        }
      ],
      "stateMutability": "view",
      "type": "function"
    },
    {
      "inputs": [
        {
          "internalType": "uint256",
          "name": "tokenId",
          "type": "uint256"
        }
      ],
      "name": "getApproved",
      "outputs": [
        {
          "internalType": "address",
          "name": "",
          "type": "address"
        }
      ],
      "stateMutability": "view",
      "type": "function"
    },
    {
      "inputs": [
        {
          "internalType": "address",
          "name": "owner",
          "type": "address"
        },
        {
          "internalType": "address",
          "name": "operator",
          "type": "address"
        }
      ],
      "name": "isApprovedForAll",
      "outputs": [
        {
          "internalType": "bool",
          "name": "",
          "type": "bool"
        }
      ],
      "stateMutability": "view",
      "type": "function"
    },
    {
      "inputs": [],
      "name": "mintItem",
      "outputs": [
        {
          "internalType": "uint256",
          "name": "",
          "type": "uint256"
        }
      ],
      "stateMutability": "payable",
      "type": "function"
    },
    {
      "inputs": [],
      "name": "name",
      "outputs": [
        {
          "internalType": "string",
          "name": "",
          "type": "string"
        }
      ],
      "stateMutability": "view",
      "type": "function"
    },
    {
      "inputs": [],
      "name": "owner",
      "outputs": [
        {
          "internalType": "address",
          "name": "",
          "type": "address"
        }
      ],
      "stateMutability": "view",
      "type": "function"
    },
    {
      "inputs": [
        {
          "internalType": "uint256",
          "name": "tokenId",
          "type": "uint256"
        }
      ],
      "name": "ownerOf",
      "outputs": [
        {
          "internalType": "address",
          "name": "",
          "type": "address"
        }
      ],
      "stateMutability": "view",
      "type": "function"
    },
    {
      "inputs": [],
      "name": "price",
      "outputs": [
        {
          "internalType": "uint256",
          "name": "",
          "type": "uint256"
        }
      ],
      "stateMutability": "view",
      "type": "function"
    },
    {
      "inputs": [
        {
          "internalType": "uint256",
          "name": "id",
          "type": "uint256"
        }
      ],
      "name": "renderTokenById",
      "outputs": [
        {
          "internalType": "string",
          "name": "",
          "type": "string"
        }
      ],
      "stateMutability": "view",
      "type": "function"
    },
    {
      "inputs": [],
      "name": "renounceOwnership",
      "outputs": [],
      "stateMutability": "nonpayable",
      "type": "function"
    },
    {
      "inputs": [
        {
          "internalType": "uint256",
          "name": "_id",
          "type": "uint256"
        }
      ],
      "name": "returnAll",
      "outputs": [],
      "stateMutability": "nonpayable",
      "type": "function"
    },
    {
      "inputs": [
        {
          "internalType": "address",
          "name": "from",
          "type": "address"
        },
        {
          "internalType": "address",
          "name": "to",
          "type": "address"
        },
        {
          "internalType": "uint256",
          "name": "tokenId",
          "type": "uint256"
        }
      ],
      "name": "safeTransferFrom",
      "outputs": [],
      "stateMutability": "nonpayable",
      "type": "function"
    },
    {
      "inputs": [
        {
          "internalType": "address",
          "name": "from",
          "type": "address"
        },
        {
          "internalType": "address",
          "name": "to",
          "type": "address"
        },
        {
          "internalType": "uint256",
          "name": "tokenId",
          "type": "uint256"
        },
        {
          "internalType": "bytes",
          "name": "_data",
          "type": "bytes"
        }
      ],
      "name": "safeTransferFrom",
      "outputs": [],
      "stateMutability": "nonpayable",
      "type": "function"
    },
    {
      "inputs": [],
      "name": "senEthToOwner",
      "outputs": [],
      "stateMutability": "nonpayable",
      "type": "function"
    },
    {
      "inputs": [
        {
          "internalType": "address",
          "name": "operator",
          "type": "address"
        },
        {
          "internalType": "bool",
          "name": "approved",
          "type": "bool"
        }
      ],
      "name": "setApprovalForAll",
      "outputs": [],
      "stateMutability": "nonpayable",
      "type": "function"
    },
    {
      "inputs": [
        {
          "internalType": "bytes4",
          "name": "interfaceId",
          "type": "bytes4"
        }
      ],
      "name": "supportsInterface",
      "outputs": [
        {
          "internalType": "bool",
          "name": "",
          "type": "bool"
        }
      ],
      "stateMutability": "view",
      "type": "function"
    },
    {
      "inputs": [],
      "name": "symbol",
      "outputs": [
        {
          "internalType": "string",
          "name": "",
          "type": "string"
        }
      ],
      "stateMutability": "view",
      "type": "function"
    },
    {
      "inputs": [
        {
          "internalType": "uint256",
          "name": "index",
          "type": "uint256"
        }
      ],
      "name": "tokenByIndex",
      "outputs": [
        {
          "internalType": "uint256",
          "name": "",
          "type": "uint256"
        }
      ],
      "stateMutability": "view",
      "type": "function"
    },
    {
      "inputs": [
        {
          "internalType": "address",
          "name": "owner",
          "type": "address"
        },
        {
          "internalType": "uint256",
          "name": "index",
          "type": "uint256"
        }
      ],
      "name": "tokenOfOwnerByIndex",
      "outputs": [
        {
          "internalType": "uint256",
          "name": "",
          "type": "uint256"
        }
      ],
      "stateMutability": "view",
      "type": "function"
    },
    {
      "inputs": [
        {
          "internalType": "uint256",
          "name": "id",
          "type": "uint256"
        }
      ],
      "name": "tokenURI",
      "outputs": [
        {
          "internalType": "string",
          "name": "",
          "type": "string"
        }
      ],
      "stateMutability": "view",
      "type": "function"
    },
    {
      "inputs": [],
      "name": "totalSupply",
      "outputs": [
        {
          "internalType": "uint256",
          "name": "",
          "type": "uint256"
        }
      ],
      "stateMutability": "view",
      "type": "function"
    },
    {
      "inputs": [
        {
          "internalType": "address",
          "name": "from",
          "type": "address"
        },
        {
          "internalType": "address",
          "name": "to",
          "type": "address"
        },
        {
          "internalType": "uint256",
          "name": "tokenId",
          "type": "uint256"
        }
      ],
      "name": "transferFrom",
      "outputs": [],
      "stateMutability": "nonpayable",
      "type": "function"
    },
    {
      "inputs": [
        {
          "internalType": "address",
          "name": "nftAddr",
          "type": "address"
        },
        {
          "internalType": "uint256",
          "name": "tokenId",
          "type": "uint256"
        },
        {
          "internalType": "uint256",
          "name": "tankId",
          "type": "uint256"
        },
        {
          "internalType": "uint8",
          "name": "scale",
          "type": "uint8"
        }
      ],
      "name": "transferNFT",
      "outputs": [],
      "stateMutability": "nonpayable",
      "type": "function"
    },
    {
      "inputs": [
        {
          "internalType": "address",
          "name": "newOwner",
          "type": "address"
        }
      ],
      "name": "transferOwnership",
      "outputs": [],
      "stateMutability": "nonpayable",
      "type": "function"
    }
  ],
  "transactionHash": "0x6fed9288fbe0fa16c37de99e4a4ec1dc28ba0b7402adb0775e91cd5ccceaa6bb",
  "args": [],
  "solcInputHash": "b619a9b06bbd3400db09a46809deabce",
  "bytecode": "0x60806040523480156200001157600080fd5b506040518060400160405280600481526020017f54616e6b000000000000000000000000000000000000000000000000000000008152506040518060400160405280600481526020017f54414e4b00000000000000000000000000000000000000000000000000000000815250816000908051906020019062000096929190620001ae565b508060019080519060200190620000af929190620001ae565b505050620000d2620000c6620000e060201b60201c565b620000e860201b60201c565b6001600b81905550620002c3565b600033905090565b6000600a60009054906101000a900473ffffffffffffffffffffffffffffffffffffffff16905081600a60006101000a81548173ffffffffffffffffffffffffffffffffffffffff021916908373ffffffffffffffffffffffffffffffffffffffff1602179055508173ffffffffffffffffffffffffffffffffffffffff168173ffffffffffffffffffffffffffffffffffffffff167f8be0079c531659141344cd1fd0a4f28419497f9722a3daafe3b4186f6b6457e060405160405180910390a35050565b828054620001bc906200025e565b90600052602060002090601f016020900481019282620001e057600085556200022c565b82601f10620001fb57805160ff19168380011785556200022c565b828001600101855582156200022c579182015b828111156200022b5782518255916020019190600101906200020e565b5b5090506200023b91906200023f565b5090565b5b808211156200025a57600081600090555060010162000240565b5090565b600060028204905060018216806200027757607f821691505b602082108114156200028e576200028d62000294565b5b50919050565b7f4e487b7100000000000000000000000000000000000000000000000000000000600052602260045260246000fd5b615da080620002d36000396000f3fe60806040526004361061019c5760003560e01c80638da5cb5b116100ec578063c87b56dd1161008a578063eb93406b11610064578063eb93406b146105fe578063f2fde38b1461061c578063fd1913fc14610645578063fe1855e51461065c5761019c565b8063c87b56dd1461055b578063e985e9c514610598578063eb784c6b146105d55761019c565b8063a22cb465116100c6578063a22cb465146104a1578063a2d6c6da146104ca578063aa46a40014610507578063b88d4fde146105325761019c565b80638da5cb5b1461042057806395d89b411461044b578063a035b1fe146104765761019c565b806323b872dd116101595780634f6ccce7116101335780634f6ccce7146103525780636352211e1461038f57806370a08231146103cc578063715018a6146104095761019c565b806323b872dd146102c35780632f745c59146102ec57806342842e0e146103295761019c565b806301ffc9a7146101a157806306fdde03146101de578063081812fc14610209578063095ea7b314610246578063115bdd801461026f57806318160ddd14610298575b600080fd5b3480156101ad57600080fd5b506101c860048036038101906101c39190613aff565b6106a0565b6040516101d591906147dc565b60405180910390f35b3480156101ea57600080fd5b506101f361071a565b60405161020091906147f7565b60405180910390f35b34801561021557600080fd5b50610230600480360381019061022b9190613b92565b6107ac565b60405161023d919061473e565b60405180910390f35b34801561025257600080fd5b5061026d60048036038101906102689190613a60565b610831565b005b34801561027b57600080fd5b5061029660048036038101906102919190613b92565b610949565b005b3480156102a457600080fd5b506102ad610b98565b6040516102ba9190614b59565b60405180910390f35b3480156102cf57600080fd5b506102ea60048036038101906102e5919061395a565b610ba5565b005b3480156102f857600080fd5b50610313600480360381019061030e9190613a60565b610c05565b6040516103209190614b59565b60405180910390f35b34801561033557600080fd5b50610350600480360381019061034b919061395a565b610caa565b005b34801561035e57600080fd5b5061037960048036038101906103749190613b92565b610cca565b6040516103869190614b59565b60405180910390f35b34801561039b57600080fd5b506103b660048036038101906103b19190613b92565b610d61565b6040516103c3919061473e565b60405180910390f35b3480156103d857600080fd5b506103f360048036038101906103ee91906138cc565b610e13565b6040516104009190614b59565b60405180910390f35b34801561041557600080fd5b5061041e610ecb565b005b34801561042c57600080fd5b50610435610f53565b604051610442919061473e565b60405180910390f35b34801561045757600080fd5b50610460610f7d565b60405161046d91906147f7565b60405180910390f35b34801561048257600080fd5b5061048b61100f565b6040516104989190614b59565b60405180910390f35b3480156104ad57600080fd5b506104c860048036038101906104c39190613a24565b61101a565b005b3480156104d657600080fd5b506104f160048036038101906104ec9190613b92565b61119b565b6040516104fe91906147f7565b60405180910390f35b34801561051357600080fd5b5061051c6111d2565b6040516105299190614b59565b60405180910390f35b34801561053e57600080fd5b50610559600480360381019061055491906139a9565b6111d8565b005b34801561056757600080fd5b50610582600480360381019061057d9190613b92565b61123a565b60405161058f91906147f7565b60405180910390f35b3480156105a457600080fd5b506105bf60048036038101906105ba919061391e565b61136f565b6040516105cc91906147dc565b60405180910390f35b3480156105e157600080fd5b506105fc60048036038101906105f79190613a9c565b611403565b005b6106066119d4565b6040516106139190614b59565b60405180910390f35b34801561062857600080fd5b50610643600480360381019061063e91906138cc565b611aa9565b005b34801561065157600080fd5b5061065a611ba1565b005b34801561066857600080fd5b50610683600480360381019061067e9190613bbb565b611c57565b604051610697989796959493929190614b74565b60405180910390f35b60007f780e9d63000000000000000000000000000000000000000000000000000000007bffffffffffffffffffffffffffffffffffffffffffffffffffffffff1916827bffffffffffffffffffffffffffffffffffffffffffffffffffffffff19161480610713575061071282611d1d565b5b9050919050565b60606000805461072990614ee0565b80601f016020809104026020016040519081016040528092919081815260200182805461075590614ee0565b80156107a25780601f10610777576101008083540402835291602001916107a2565b820191906000526020600020905b81548152906001019060200180831161078557829003601f168201915b5050505050905090565b60006107b782611dff565b6107f6576040517f08c379a00000000000000000000000000000000000000000000000000000000081526004016107ed906149f9565b60405180910390fd5b6004600083815260200190815260200160002060009054906101000a900473ffffffffffffffffffffffffffffffffffffffff169050919050565b600061083c82610d61565b90508073ffffffffffffffffffffffffffffffffffffffff168373ffffffffffffffffffffffffffffffffffffffff1614156108ad576040517f08c379a00000000000000000000000000000000000000000000000000000000081526004016108a490614a99565b60405180910390fd5b8073ffffffffffffffffffffffffffffffffffffffff166108cc611e6b565b73ffffffffffffffffffffffffffffffffffffffff1614806108fb57506108fa816108f5611e6b565b61136f565b5b61093a576040517f08c379a000000000000000000000000000000000000000000000000000000000815260040161093190614979565b60405180910390fd5b6109448383611e73565b505050565b6002600b54141561098f576040517f08c379a000000000000000000000000000000000000000000000000000000000815260040161098690614b39565b60405180910390fd5b6002600b819055506109a86109a2611e6b565b82611f2c565b6109e7576040517f08c379a00000000000000000000000000000000000000000000000000000000081526004016109de906148f9565b60405180910390fd5b60005b600d600083815260200190815260200160002080549050811015610b6d57600d60008381526020019081526020016000208181548110610a53577f4e487b7100000000000000000000000000000000000000000000000000000000600052603260045260246000fd5b906000526020600020906003020160020160009054906101000a900473ffffffffffffffffffffffffffffffffffffffff1673ffffffffffffffffffffffffffffffffffffffff166323b872dd30610aaa85610d61565b600d60008781526020019081526020016000208581548110610af5577f4e487b7100000000000000000000000000000000000000000000000000000000600052603260045260246000fd5b9060005260206000209060030201600101546040518463ffffffff1660e01b8152600401610b2593929190614759565b600060405180830381600087803b158015610b3f57600080fd5b505af1925050508015610b50575060015b610b5957610b5a565b5b8080610b6590614f43565b9150506109ea565b50600d60008281526020019081526020016000206000610b8d9190613693565b6001600b8190555050565b6000600880549050905090565b610bb6610bb0611e6b565b82611f2c565b610bf5576040517f08c379a0000000000000000000000000000000000000000000000000000000008152600401610bec90614ab9565b60405180910390fd5b610c0083838361200a565b505050565b6000610c1083610e13565b8210610c51576040517f08c379a0000000000000000000000000000000000000000000000000000000008152600401610c4890614839565b60405180910390fd5b600660008473ffffffffffffffffffffffffffffffffffffffff1673ffffffffffffffffffffffffffffffffffffffff168152602001908152602001600020600083815260200190815260200160002054905092915050565b610cc5838383604051806020016040528060008152506111d8565b505050565b6000610cd4610b98565b8210610d15576040517f08c379a0000000000000000000000000000000000000000000000000000000008152600401610d0c90614ad9565b60405180910390fd5b60088281548110610d4f577f4e487b7100000000000000000000000000000000000000000000000000000000600052603260045260246000fd5b90600052602060002001549050919050565b6000806002600084815260200190815260200160002060009054906101000a900473ffffffffffffffffffffffffffffffffffffffff169050600073ffffffffffffffffffffffffffffffffffffffff168173ffffffffffffffffffffffffffffffffffffffff161415610e0a576040517f08c379a0000000000000000000000000000000000000000000000000000000008152600401610e01906149b9565b60405180910390fd5b80915050919050565b60008073ffffffffffffffffffffffffffffffffffffffff168273ffffffffffffffffffffffffffffffffffffffff161415610e84576040517f08c379a0000000000000000000000000000000000000000000000000000000008152600401610e7b90614999565b60405180910390fd5b600360008373ffffffffffffffffffffffffffffffffffffffff1673ffffffffffffffffffffffffffffffffffffffff168152602001908152602001600020549050919050565b610ed3611e6b565b73ffffffffffffffffffffffffffffffffffffffff16610ef1610f53565b73ffffffffffffffffffffffffffffffffffffffff1614610f47576040517f08c379a0000000000000000000000000000000000000000000000000000000008152600401610f3e90614a19565b60405180910390fd5b610f516000612266565b565b6000600a60009054906101000a900473ffffffffffffffffffffffffffffffffffffffff16905090565b606060018054610f8c90614ee0565b80601f0160208091040260200160405190810160405280929190818152602001828054610fb890614ee0565b80156110055780601f10610fda57610100808354040283529160200191611005565b820191906000526020600020905b815481529060010190602001808311610fe857829003601f168201915b5050505050905090565b6611c37937e0800081565b611022611e6b565b73ffffffffffffffffffffffffffffffffffffffff168273ffffffffffffffffffffffffffffffffffffffff161415611090576040517f08c379a000000000000000000000000000000000000000000000000000000000815260040161108790614919565b60405180910390fd5b806005600061109d611e6b565b73ffffffffffffffffffffffffffffffffffffffff1673ffffffffffffffffffffffffffffffffffffffff16815260200190815260200160002060008473ffffffffffffffffffffffffffffffffffffffff1673ffffffffffffffffffffffffffffffffffffffff16815260200190815260200160002060006101000a81548160ff0219169083151502179055508173ffffffffffffffffffffffffffffffffffffffff1661114a611e6b565b73ffffffffffffffffffffffffffffffffffffffff167f17307eab39ab6107e8899845ad3d59bd9653f200f220920489ca2b5937696c318360405161118f91906147dc565b60405180910390a35050565b606060006111a88361232c565b6040516020016111b891906146e5565b604051602081830303815290604052905080915050919050565b600c5481565b6111e96111e3611e6b565b83611f2c565b611228576040517f08c379a000000000000000000000000000000000000000000000000000000000815260040161121f90614ab9565b60405180910390fd5b61123484848484612741565b50505050565b606061124582611dff565b611284576040517f08c379a000000000000000000000000000000000000000000000000000000000815260040161127b90614a79565b60405180910390fd5b600061128f8361279d565b60405160200161129f91906146c3565b604051602081830303815290604052905060006040516020016112c1906146ae565b604051602081830303815290604052905060006112e56112e08661294a565b612981565b9050611346838361131e60146112fa8a610d61565b73ffffffffffffffffffffffffffffffffffffffff16612b2c90919063ffffffff16565b846040516020016113329493929190614623565b604051602081830303815290604052612981565b6040516020016113569190614707565b6040516020818303038152906040529350505050919050565b6000600560008473ffffffffffffffffffffffffffffffffffffffff1673ffffffffffffffffffffffffffffffffffffffff16815260200190815260200160002060008373ffffffffffffffffffffffffffffffffffffffff1673ffffffffffffffffffffffffffffffffffffffff16815260200190815260200160002060009054906101000a900460ff16905092915050565b6002600b541415611449576040517f08c379a000000000000000000000000000000000000000000000000000000000815260040161144090614b39565b60405180910390fd5b6002600b819055506000849050611467611461611e6b565b84611f2c565b6114a6576040517f08c379a000000000000000000000000000000000000000000000000000000000815260040161149d90614a59565b60405180910390fd5b3073ffffffffffffffffffffffffffffffffffffffff168573ffffffffffffffffffffffffffffffffffffffff161415611515576040517f08c379a000000000000000000000000000000000000000000000000000000000815260040161150c90614819565b60405180910390fd5b60ff600d6000858152602001908152602001600020805490501061156e576040517f08c379a000000000000000000000000000000000000000000000000000000000815260040161156590614959565b60405180910390fd5b8073ffffffffffffffffffffffffffffffffffffffff166323b872dd611592611e6b565b30876040518463ffffffff1660e01b81526004016115b293929190614759565b600060405180830381600087803b1580156115cc57600080fd5b505af11580156115e0573d6000803e3d6000fd5b505050503073ffffffffffffffffffffffffffffffffffffffff168173ffffffffffffffffffffffffffffffffffffffff16636352211e866040518263ffffffff1660e01b81526004016116349190614b59565b60206040518083038186803b15801561164c57600080fd5b505afa158015611660573d6000803e3d6000fd5b505050506040513d601f19601f8201168201806040525081019061168491906138f5565b73ffffffffffffffffffffffffffffffffffffffff16146116da576040517f08c379a00000000000000000000000000000000000000000000000000000000081526004016116d1906148b9565b60405180910390fd5b60006001436116e99190614da8565b406116f2611e6b565b308787604051602001611709959493929190614446565b604051602081830303815290604052805190602001209050600d60008581526020019081526020016000206040518061010001604052804381526020018781526020018873ffffffffffffffffffffffffffffffffffffffff168152602001836000602081106117a2577f4e487b7100000000000000000000000000000000000000000000000000000000600052603260045260246000fd5b1a60f81b60f81c60ff168152602001836001602081106117eb577f4e487b7100000000000000000000000000000000000000000000000000000000600052603260045260246000fd5b1a60f81b60f81c60ff1681526020018560ff1681526020018360026020811061183d577f4e487b7100000000000000000000000000000000000000000000000000000000600052603260045260246000fd5b1a60f81b60f81c60000b815260200183600360208110611886577f4e487b7100000000000000000000000000000000000000000000000000000000600052603260045260246000fd5b1a60f81b60f81c60000b8152509080600181540180825580915050600190039060005260206000209060030201600090919091909150600082015181600001556020820151816001015560408201518160020160006101000a81548173ffffffffffffffffffffffffffffffffffffffff021916908373ffffffffffffffffffffffffffffffffffffffff16021790555060608201518160020160146101000a81548160ff021916908360ff16021790555060808201518160020160156101000a81548160ff021916908360ff16021790555060a08201518160020160166101000a81548160ff021916908360ff16021790555060c08201518160020160176101000a81548160ff021916908360000b60ff16021790555060e08201518160020160186101000a81548160ff021916908360000b60ff160217905550505050506001600b8190555050505050565b60006002600b541415611a1c576040517f08c379a0000000000000000000000000000000000000000000000000000000008152600401611a1390614b39565b60405180910390fd5b6002600b819055506611c37937e08000341015611a6e576040517f08c379a0000000000000000000000000000000000000000000000000000000008152600401611a6590614b19565b60405180910390fd5b600c6000815480929190611a8190614f43565b9190505550611a99611a91611e6b565b600c54612de3565b600c5490506001600b8190555090565b611ab1611e6b565b73ffffffffffffffffffffffffffffffffffffffff16611acf610f53565b73ffffffffffffffffffffffffffffffffffffffff1614611b25576040517f08c379a0000000000000000000000000000000000000000000000000000000008152600401611b1c90614a19565b60405180910390fd5b600073ffffffffffffffffffffffffffffffffffffffff168173ffffffffffffffffffffffffffffffffffffffff161415611b95576040517f08c379a0000000000000000000000000000000000000000000000000000000008152600401611b8c90614879565b60405180910390fd5b611b9e81612266565b50565b6000611bab610f53565b73ffffffffffffffffffffffffffffffffffffffff1647604051611bce90614729565b60006040518083038185875af1925050503d8060008114611c0b576040519150601f19603f3d011682016040523d82523d6000602084013e611c10565b606091505b5050905080611c54576040517f08c379a0000000000000000000000000000000000000000000000000000000008152600401611c4b90614af9565b60405180910390fd5b50565b600d6020528160005260406000208181548110611c7357600080fd5b9060005260206000209060030201600091509150508060000154908060010154908060020160009054906101000a900473ffffffffffffffffffffffffffffffffffffffff16908060020160149054906101000a900460ff16908060020160159054906101000a900460ff16908060020160169054906101000a900460ff16908060020160179054906101000a900460000b908060020160189054906101000a900460000b905088565b60007f80ac58cd000000000000000000000000000000000000000000000000000000007bffffffffffffffffffffffffffffffffffffffffffffffffffffffff1916827bffffffffffffffffffffffffffffffffffffffffffffffffffffffff19161480611de857507f5b5e139f000000000000000000000000000000000000000000000000000000007bffffffffffffffffffffffffffffffffffffffffffffffffffffffff1916827bffffffffffffffffffffffffffffffffffffffffffffffffffffffff1916145b80611df85750611df782612fb1565b5b9050919050565b60008073ffffffffffffffffffffffffffffffffffffffff166002600084815260200190815260200160002060009054906101000a900473ffffffffffffffffffffffffffffffffffffffff1673ffffffffffffffffffffffffffffffffffffffff1614159050919050565b600033905090565b816004600083815260200190815260200160002060006101000a81548173ffffffffffffffffffffffffffffffffffffffff021916908373ffffffffffffffffffffffffffffffffffffffff160217905550808273ffffffffffffffffffffffffffffffffffffffff16611ee683610d61565b73ffffffffffffffffffffffffffffffffffffffff167f8c5be1e5ebec7d5bd14f71427d1e84f3dd0314c0f7b2291e5b200ac8c7c3b92560405160405180910390a45050565b6000611f3782611dff565b611f76576040517f08c379a0000000000000000000000000000000000000000000000000000000008152600401611f6d90614939565b60405180910390fd5b6000611f8183610d61565b90508073ffffffffffffffffffffffffffffffffffffffff168473ffffffffffffffffffffffffffffffffffffffff161480611ff057508373ffffffffffffffffffffffffffffffffffffffff16611fd8846107ac565b73ffffffffffffffffffffffffffffffffffffffff16145b806120015750612000818561136f565b5b91505092915050565b8273ffffffffffffffffffffffffffffffffffffffff1661202a82610d61565b73ffffffffffffffffffffffffffffffffffffffff1614612080576040517f08c379a000000000000000000000000000000000000000000000000000000000815260040161207790614a39565b60405180910390fd5b600073ffffffffffffffffffffffffffffffffffffffff168273ffffffffffffffffffffffffffffffffffffffff1614156120f0576040517f08c379a00000000000000000000000000000000000000000000000000000000081526004016120e7906148d9565b60405180910390fd5b6120fb83838361301b565b612106600082611e73565b6001600360008573ffffffffffffffffffffffffffffffffffffffff1673ffffffffffffffffffffffffffffffffffffffff16815260200190815260200160002060008282546121569190614da8565b925050819055506001600360008473ffffffffffffffffffffffffffffffffffffffff1673ffffffffffffffffffffffffffffffffffffffff16815260200190815260200160002060008282546121ad9190614cc7565b92505081905550816002600083815260200190815260200160002060006101000a81548173ffffffffffffffffffffffffffffffffffffffff021916908373ffffffffffffffffffffffffffffffffffffffff160217905550808273ffffffffffffffffffffffffffffffffffffffff168473ffffffffffffffffffffffffffffffffffffffff167fddf252ad1be2c89b69c2b068fc378daa952ba7f163c4a11628f55a4df523b3ef60405160405180910390a4505050565b6000600a60009054906101000a900473ffffffffffffffffffffffffffffffffffffffff16905081600a60006101000a81548173ffffffffffffffffffffffffffffffffffffffff021916908373ffffffffffffffffffffffffffffffffffffffff1602179055508173ffffffffffffffffffffffffffffffffffffffff168173ffffffffffffffffffffffffffffffffffffffff167f8be0079c531659141344cd1fd0a4f28419497f9722a3daafe3b4186f6b6457e060405160405180910390a35050565b6060600060405180602001604052806000815250905060005b600d6000858152602001908152602001600020805490508160ff161015612736576000600d60008681526020019081526020016000208260ff16815481106123b6577f4e487b7100000000000000000000000000000000000000000000000000000000600052603260045260246000fd5b90600052602060002090600302016040518061010001604052908160008201548152602001600182015481526020016002820160009054906101000a900473ffffffffffffffffffffffffffffffffffffffff1673ffffffffffffffffffffffffffffffffffffffff1673ffffffffffffffffffffffffffffffffffffffff1681526020016002820160149054906101000a900460ff1660ff1660ff1681526020016002820160159054906101000a900460ff1660ff1660ff1681526020016002820160169054906101000a900460ff1660ff1660ff1681526020016002820160179054906101000a900460000b60000b60000b81526020016002820160189054906101000a900460000b60000b60000b81525050905060006101008260000151436124e29190614da8565b6124ec9190614fee565b90506000806125048460c0015184866060015161312f565b91506125198460e0015184866080015161312f565b9050856125288360ff1661279d565b6125348360ff1661279d565b604051602001612546939291906144ec565b604051602081830303815290604052955060005b60648160ff1610156125d9576125768560c0015160018561312f565b92506125888560e0015160018461312f565b9150866125978460ff1661279d565b6125a38460ff1661279d565b6040516020016125b5939291906144a5565b604051602081830303815290604052965080806125d190614f8c565b91505061255a565b5060008460a001519050600060405180602001604052806000815250905060008260ff161461263d5761260e8260ff1661279d565b61261a8360ff1661279d565b60405160200161262b9291906145de565b60405160208183030381529060405290505b6060866040015173ffffffffffffffffffffffffffffffffffffffff1663a2d6c6da88602001516040518263ffffffff1660e01b81526004016126809190614b59565b60006040518083038186803b15801561269857600080fd5b505afa9250505080156126ce57506040513d6000823e3d601f19601f820116820180604052508101906126cb9190613b51565b60015b6126f25760405180602001604052806000815250995050505050505050505061273c565b8091505088828260405160200161270b93929190614554565b604051602081830303815290604052985050505050505050808061272e90614f8c565b915050612345565b50809150505b919050565b61274c84848461200a565b6127588484848461316c565b612797576040517f08c379a000000000000000000000000000000000000000000000000000000000815260040161278e90614859565b60405180910390fd5b50505050565b606060008214156127e5576040518060400160405280600181526020017f30000000000000000000000000000000000000000000000000000000000000008152509050612945565b600082905060005b6000821461281757808061280090614f43565b915050600a826128109190614d1d565b91506127ed565b60008167ffffffffffffffff811115612859577f4e487b7100000000000000000000000000000000000000000000000000000000600052604160045260246000fd5b6040519080825280601f01601f19166020018201604052801561288b5781602001600182028036833780820191505090505b5090505b6000851461293e576001826128a49190614da8565b9150600a856128b39190614fee565b60306128bf9190614cc7565b60f81b8183815181106128fb577f4e487b7100000000000000000000000000000000000000000000000000000000600052603260045260246000fd5b60200101907effffffffffffffffffffffffffffffffffffffffffffffffffffffffffffff1916908160001a905350600a856129379190614d1d565b945061288f565b8093505050505b919050565b606060006129578361119b565b60405160200161296791906145b1565b604051602081830303815290604052905080915050919050565b60606000825114156129a457604051806020016040528060008152509050612b27565b6000604051806060016040528060408152602001615d2b60409139905060006003600285516129d39190614cc7565b6129dd9190614d1d565b60046129e99190614d4e565b905060006020826129fa9190614cc7565b67ffffffffffffffff811115612a39577f4e487b7100000000000000000000000000000000000000000000000000000000600052604160045260246000fd5b6040519080825280601f01601f191660200182016040528015612a6b5781602001600182028036833780820191505090505b509050818152600183018586518101602084015b81831015612ae6576003830192508251603f8160121c1685015160f81b8252600182019150603f81600c1c1685015160f81b8252600182019150603f8160061c1685015160f81b8252600182019150603f811685015160f81b825260018201915050612a7f565b600389510660018114612b005760028114612b1057612b1b565b613d3d60f01b6002830352612b1b565b603d60f81b60018303525b50505050508093505050505b919050565b606060006002836002612b3f9190614d4e565b612b499190614cc7565b67ffffffffffffffff811115612b88577f4e487b7100000000000000000000000000000000000000000000000000000000600052604160045260246000fd5b6040519080825280601f01601f191660200182016040528015612bba5781602001600182028036833780820191505090505b5090507f300000000000000000000000000000000000000000000000000000000000000081600081518110612c18577f4e487b7100000000000000000000000000000000000000000000000000000000600052603260045260246000fd5b60200101907effffffffffffffffffffffffffffffffffffffffffffffffffffffffffffff1916908160001a9053507f780000000000000000000000000000000000000000000000000000000000000081600181518110612ca2577f4e487b7100000000000000000000000000000000000000000000000000000000600052603260045260246000fd5b60200101907effffffffffffffffffffffffffffffffffffffffffffffffffffffffffffff1916908160001a90535060006001846002612ce29190614d4e565b612cec9190614cc7565b90505b6001811115612dd8577f3031323334353637383961626364656600000000000000000000000000000000600f861660108110612d54577f4e487b7100000000000000000000000000000000000000000000000000000000600052603260045260246000fd5b1a60f81b828281518110612d91577f4e487b7100000000000000000000000000000000000000000000000000000000600052603260045260246000fd5b60200101907effffffffffffffffffffffffffffffffffffffffffffffffffffffffffffff1916908160001a905350600485901c945080612dd190614eb6565b9050612cef565b508091505092915050565b600073ffffffffffffffffffffffffffffffffffffffff168273ffffffffffffffffffffffffffffffffffffffff161415612e53576040517f08c379a0000000000000000000000000000000000000000000000000000000008152600401612e4a906149d9565b60405180910390fd5b612e5c81611dff565b15612e9c576040517f08c379a0000000000000000000000000000000000000000000000000000000008152600401612e9390614899565b60405180910390fd5b612ea86000838361301b565b6001600360008473ffffffffffffffffffffffffffffffffffffffff1673ffffffffffffffffffffffffffffffffffffffff1681526020019081526020016000206000828254612ef89190614cc7565b92505081905550816002600083815260200190815260200160002060006101000a81548173ffffffffffffffffffffffffffffffffffffffff021916908373ffffffffffffffffffffffffffffffffffffffff160217905550808273ffffffffffffffffffffffffffffffffffffffff16600073ffffffffffffffffffffffffffffffffffffffff167fddf252ad1be2c89b69c2b068fc378daa952ba7f163c4a11628f55a4df523b3ef60405160405180910390a45050565b60007f01ffc9a7000000000000000000000000000000000000000000000000000000007bffffffffffffffffffffffffffffffffffffffffffffffffffffffff1916827bffffffffffffffffffffffffffffffffffffffffffffffffffffffff1916149050919050565b613026838383613303565b600073ffffffffffffffffffffffffffffffffffffffff168373ffffffffffffffffffffffffffffffffffffffff1614156130695761306481613308565b6130a8565b8173ffffffffffffffffffffffffffffffffffffffff168373ffffffffffffffffffffffffffffffffffffffff16146130a7576130a68382613351565b5b5b600073ffffffffffffffffffffffffffffffffffffffff168273ffffffffffffffffffffffffffffffffffffffff1614156130eb576130e6816134be565b61312a565b8273ffffffffffffffffffffffffffffffffffffffff168273ffffffffffffffffffffffffffffffffffffffff1614613129576131288282613601565b5b5b505050565b6000806000808660000b1261315257858502915081840190508092505050613165565b8560000385029150818403905080925050505b9392505050565b600061318d8473ffffffffffffffffffffffffffffffffffffffff16613680565b156132f6578373ffffffffffffffffffffffffffffffffffffffff1663150b7a026131b6611e6b565b8786866040518563ffffffff1660e01b81526004016131d89493929190614790565b602060405180830381600087803b1580156131f257600080fd5b505af192505050801561322357506040513d601f19601f820116820180604052508101906132209190613b28565b60015b6132a6573d8060008114613253576040519150601f19603f3d011682016040523d82523d6000602084013e613258565b606091505b5060008151141561329e576040517f08c379a000000000000000000000000000000000000000000000000000000000815260040161329590614859565b60405180910390fd5b805181602001fd5b63150b7a0260e01b7bffffffffffffffffffffffffffffffffffffffffffffffffffffffff1916817bffffffffffffffffffffffffffffffffffffffffffffffffffffffff1916149150506132fb565b600190505b949350505050565b505050565b6008805490506009600083815260200190815260200160002081905550600881908060018154018082558091505060019003906000526020600020016000909190919091505550565b6000600161335e84610e13565b6133689190614da8565b905060006007600084815260200190815260200160002054905081811461344d576000600660008673ffffffffffffffffffffffffffffffffffffffff1673ffffffffffffffffffffffffffffffffffffffff168152602001908152602001600020600084815260200190815260200160002054905080600660008773ffffffffffffffffffffffffffffffffffffffff1673ffffffffffffffffffffffffffffffffffffffff168152602001908152602001600020600084815260200190815260200160002081905550816007600083815260200190815260200160002081905550505b6007600084815260200190815260200160002060009055600660008573ffffffffffffffffffffffffffffffffffffffff1673ffffffffffffffffffffffffffffffffffffffff16815260200190815260200160002060008381526020019081526020016000206000905550505050565b600060016008805490506134d29190614da8565b9050600060096000848152602001908152602001600020549050600060088381548110613528577f4e487b7100000000000000000000000000000000000000000000000000000000600052603260045260246000fd5b906000526020600020015490508060088381548110613570577f4e487b7100000000000000000000000000000000000000000000000000000000600052603260045260246000fd5b9060005260206000200181905550816009600083815260200190815260200160002081905550600960008581526020019081526020016000206000905560088054806135e5577f4e487b7100000000000000000000000000000000000000000000000000000000600052603160045260246000fd5b6001900381819060005260206000200160009055905550505050565b600061360c83610e13565b905081600660008573ffffffffffffffffffffffffffffffffffffffff1673ffffffffffffffffffffffffffffffffffffffff168152602001908152602001600020600083815260200190815260200160002081905550806007600084815260200190815260200160002081905550505050565b600080823b905060008111915050919050565b50805460008255600302906000526020600020908101906136b491906136b7565b50565b5b808211156137655760008082016000905560018201600090556002820160006101000a81549073ffffffffffffffffffffffffffffffffffffffff02191690556002820160146101000a81549060ff02191690556002820160156101000a81549060ff02191690556002820160166101000a81549060ff02191690556002820160176101000a81549060ff02191690556002820160186101000a81549060ff0219169055506003016136b8565b5090565b600061377c61377784614c17565b614bf2565b90508281526020810184848401111561379457600080fd5b61379f848285614e74565b509392505050565b60006137ba6137b584614c48565b614bf2565b9050828152602081018484840111156137d257600080fd5b6137dd848285614e83565b509392505050565b6000813590506137f481615cb7565b92915050565b60008151905061380981615cb7565b92915050565b60008135905061381e81615cce565b92915050565b60008135905061383381615ce5565b92915050565b60008151905061384881615ce5565b92915050565b600082601f83011261385f57600080fd5b813561386f848260208601613769565b91505092915050565b600082601f83011261388957600080fd5b81516138998482602086016137a7565b91505092915050565b6000813590506138b181615cfc565b92915050565b6000813590506138c681615d13565b92915050565b6000602082840312156138de57600080fd5b60006138ec848285016137e5565b91505092915050565b60006020828403121561390757600080fd5b6000613915848285016137fa565b91505092915050565b6000806040838503121561393157600080fd5b600061393f858286016137e5565b9250506020613950858286016137e5565b9150509250929050565b60008060006060848603121561396f57600080fd5b600061397d868287016137e5565b935050602061398e868287016137e5565b925050604061399f868287016138a2565b9150509250925092565b600080600080608085870312156139bf57600080fd5b60006139cd878288016137e5565b94505060206139de878288016137e5565b93505060406139ef878288016138a2565b925050606085013567ffffffffffffffff811115613a0c57600080fd5b613a188782880161384e565b91505092959194509250565b60008060408385031215613a3757600080fd5b6000613a45858286016137e5565b9250506020613a568582860161380f565b9150509250929050565b60008060408385031215613a7357600080fd5b6000613a81858286016137e5565b9250506020613a92858286016138a2565b9150509250929050565b60008060008060808587031215613ab257600080fd5b6000613ac0878288016137e5565b9450506020613ad1878288016138a2565b9350506040613ae2878288016138a2565b9250506060613af3878288016138b7565b91505092959194509250565b600060208284031215613b1157600080fd5b6000613b1f84828501613824565b91505092915050565b600060208284031215613b3a57600080fd5b6000613b4884828501613839565b91505092915050565b600060208284031215613b6357600080fd5b600082015167ffffffffffffffff811115613b7d57600080fd5b613b8984828501613878565b91505092915050565b600060208284031215613ba457600080fd5b6000613bb2848285016138a2565b91505092915050565b60008060408385031215613bce57600080fd5b6000613bdc858286016138a2565b9250506020613bed858286016138a2565b9150509250929050565b613c0081614ddc565b82525050565b613c17613c1282614ddc565b614fb6565b82525050565b613c2681614dee565b82525050565b613c3d613c3882614dfa565b614fc8565b82525050565b6000613c4e82614c79565b613c588185614c8f565b9350613c68818560208601614e83565b613c71816150db565b840191505092915050565b613c8581614e30565b82525050565b6000613c9682614c84565b613ca08185614cab565b9350613cb0818560208601614e83565b613cb9816150db565b840191505092915050565b6000613ccf82614c84565b613cd98185614cbc565b9350613ce9818560208601614e83565b80840191505092915050565b6000613d02600983614cab565b9150613d0d826150f9565b602082019050919050565b6000613d25604183614cbc565b9150613d3082615122565b604182019050919050565b6000613d48600a83614cbc565b9150613d5382615197565b600a82019050919050565b6000613d6b600983614cbc565b9150613d76826151c0565b600982019050919050565b6000613d8e600383614cbc565b9150613d99826151e9565b600382019050919050565b6000613db1602b83614cab565b9150613dbc82615212565b604082019050919050565b6000613dd4603283614cab565b9150613ddf82615261565b604082019050919050565b6000613df7602683614cab565b9150613e02826152b0565b604082019050919050565b6000613e1a600283614cbc565b9150613e25826152ff565b600282019050919050565b6000613e3d601c83614cab565b9150613e4882615328565b602082019050919050565b6000613e60600b83614cbc565b9150613e6b82615351565b600b82019050919050565b6000613e83606683614cbc565b9150613e8e8261537a565b606682019050919050565b6000613ea6601383614cab565b9150613eb182615415565b602082019050919050565b6000613ec9602483614cab565b9150613ed48261543e565b604082019050919050565b6000613eec602f83614cab565b9150613ef78261548d565b604082019050919050565b6000613f0f601983614cab565b9150613f1a826154dc565b602082019050919050565b6000613f32602c83614cab565b9150613f3d82615505565b604082019050919050565b6000613f55600383614cbc565b9150613f6082615554565b600382019050919050565b6000613f78603083614cab565b9150613f838261557d565b604082019050919050565b6000613f9b600183614cbc565b9150613fa6826155cc565b600182019050919050565b6000613fbe600183614cbc565b9150613fc9826155f5565b600182019050919050565b6000613fe1603883614cab565b9150613fec8261561e565b604082019050919050565b6000614004600183614cbc565b915061400f8261566d565b600182019050919050565b6000614027602a83614cab565b915061403282615696565b604082019050919050565b600061404a602983614cab565b9150614055826156e5565b604082019050919050565b600061406d600283614cbc565b915061407882615734565b600282019050919050565b6000614090602083614cab565b915061409b8261575d565b602082019050919050565b60006140b3600d83614cbc565b91506140be82615786565b600d82019050919050565b60006140d6602c83614cab565b91506140e1826157af565b604082019050919050565b60006140f9601283614cbc565b9150614104826157fe565b601282019050919050565b600061411c602083614cab565b915061412782615827565b602082019050919050565b600061413f600d83614cbc565b915061414a82615850565b600d82019050919050565b6000614162602983614cab565b915061416d82615879565b604082019050919050565b6000614185601883614cab565b9150614190826158c8565b602082019050919050565b60006141a8600483614cbc565b91506141b3826158f1565b600482019050919050565b60006141cb600983614cbc565b91506141d68261591a565b600982019050919050565b60006141ee601583614cab565b91506141f982615943565b602082019050919050565b6000614211605b83614cbc565b915061421c8261596c565b605b82019050919050565b6000614234600383614cbc565b915061423f826159e1565b600382019050919050565b6000614257602183614cab565b915061426282615a0a565b604082019050919050565b600061427a601d83614cbc565b915061428582615a59565b601d82019050919050565b600061429d600083614ca0565b91506142a882615a82565b600082019050919050565b60006142c0603183614cab565b91506142cb82615a85565b604082019050919050565b60006142e3604883614cbc565b91506142ee82615ad4565b604882019050919050565b6000614306600283614cbc565b915061431182615b49565b600282019050919050565b6000614329602c83614cab565b915061433482615b72565b604082019050919050565b600061434c601483614cab565b915061435782615bc1565b602082019050919050565b600061436f601383614cab565b915061437a82615bea565b602082019050919050565b6000614392601f83614cab565b915061439d82615c13565b602082019050919050565b60006143b5600683614cbc565b91506143c082615c3c565b600682019050919050565b60006143d8600883614cbc565b91506143e382615c65565b600882019050919050565b60006143fb601a83614cbc565b915061440682615c8e565b601a82019050919050565b61441a81614e5d565b82525050565b61443161442c82614e5d565b614fe4565b82525050565b61444081614e67565b82525050565b60006144528288613c2c565b6020820191506144628287613c06565b6014820191506144728286613c06565b6014820191506144828285614420565b6020820191506144928284614420565b6020820191508190509695505050505050565b60006144b18286613cc4565b91506144bd8285613cc4565b91506144c882613f8e565b91506144d48284613cc4565b91506144df82613fb1565b9150819050949350505050565b60006144f88286613cc4565b915061450382613d81565b915061450e82613e76565b9150614519826143cb565b91506145258285613cc4565b915061453082613f8e565b915061453c8284613cc4565b915061454782613fb1565b9150819050949350505050565b60006145608286613cc4565b915061456b82614227565b9150614576826142d6565b91506145828285613cc4565b915061458d826142f9565b91506145998284613cc4565b91506145a48261419b565b9150819050949350505050565b60006145bc82613d18565b91506145c88284613cc4565b91506145d3826143a8565b915081905092915050565b60006145e982613d3b565b91506145f58285613cc4565b915061460082613f48565b915061460c8284613cc4565b915061461782613ff7565b91508190509392505050565b600061462e82613d5e565b915061463a8287613cc4565b9150614645826140ec565b91506146518286613cc4565b915061465c82613e0d565b9150614667826141be565b91506146738285613cc4565b915061467e826140a6565b9150614689826143ee565b91506146958284613cc4565b91506146a082614060565b915081905095945050505050565b60006146b982613e53565b9150819050919050565b60006146ce82614132565b91506146da8284613cc4565b915081905092915050565b60006146f082614204565b91506146fc8284613cc4565b915081905092915050565b60006147128261426d565b915061471e8284613cc4565b915081905092915050565b600061473482614290565b9150819050919050565b60006020820190506147536000830184613bf7565b92915050565b600060608201905061476e6000830186613bf7565b61477b6020830185613bf7565b6147886040830184614411565b949350505050565b60006080820190506147a56000830187613bf7565b6147b26020830186613bf7565b6147bf6040830185614411565b81810360608301526147d18184613c43565b905095945050505050565b60006020820190506147f16000830184613c1d565b92915050565b600060208201905081810360008301526148118184613c8b565b905092915050565b6000602082019050818103600083015261483281613cf5565b9050919050565b6000602082019050818103600083015261485281613da4565b9050919050565b6000602082019050818103600083015261487281613dc7565b9050919050565b6000602082019050818103600083015261489281613dea565b9050919050565b600060208201905081810360008301526148b281613e30565b9050919050565b600060208201905081810360008301526148d281613e99565b9050919050565b600060208201905081810360008301526148f281613ebc565b9050919050565b6000602082019050818103600083015261491281613edf565b9050919050565b6000602082019050818103600083015261493281613f02565b9050919050565b6000602082019050818103600083015261495281613f25565b9050919050565b6000602082019050818103600083015261497281613f6b565b9050919050565b6000602082019050818103600083015261499281613fd4565b9050919050565b600060208201905081810360008301526149b28161401a565b9050919050565b600060208201905081810360008301526149d28161403d565b9050919050565b600060208201905081810360008301526149f281614083565b9050919050565b60006020820190508181036000830152614a12816140c9565b9050919050565b60006020820190508181036000830152614a328161410f565b9050919050565b60006020820190508181036000830152614a5281614155565b9050919050565b60006020820190508181036000830152614a7281614178565b9050919050565b60006020820190508181036000830152614a92816141e1565b9050919050565b60006020820190508181036000830152614ab28161424a565b9050919050565b60006020820190508181036000830152614ad2816142b3565b9050919050565b60006020820190508181036000830152614af28161431c565b9050919050565b60006020820190508181036000830152614b128161433f565b9050919050565b60006020820190508181036000830152614b3281614362565b9050919050565b60006020820190508181036000830152614b5281614385565b9050919050565b6000602082019050614b6e6000830184614411565b92915050565b600061010082019050614b8a600083018b614411565b614b97602083018a614411565b614ba46040830189613bf7565b614bb16060830188614437565b614bbe6080830187614437565b614bcb60a0830186614437565b614bd860c0830185613c7c565b614be560e0830184613c7c565b9998505050505050505050565b6000614bfc614c0d565b9050614c088282614f12565b919050565b6000604051905090565b600067ffffffffffffffff821115614c3257614c316150ac565b5b614c3b826150db565b9050602081019050919050565b600067ffffffffffffffff821115614c6357614c626150ac565b5b614c6c826150db565b9050602081019050919050565b600081519050919050565b600081519050919050565b600082825260208201905092915050565b600081905092915050565b600082825260208201905092915050565b600081905092915050565b6000614cd282614e5d565b9150614cdd83614e5d565b9250827fffffffffffffffffffffffffffffffffffffffffffffffffffffffffffffffff03821115614d1257614d1161501f565b5b828201905092915050565b6000614d2882614e5d565b9150614d3383614e5d565b925082614d4357614d4261504e565b5b828204905092915050565b6000614d5982614e5d565b9150614d6483614e5d565b9250817fffffffffffffffffffffffffffffffffffffffffffffffffffffffffffffffff0483118215151615614d9d57614d9c61501f565b5b828202905092915050565b6000614db382614e5d565b9150614dbe83614e5d565b925082821015614dd157614dd061501f565b5b828203905092915050565b6000614de782614e3d565b9050919050565b60008115159050919050565b6000819050919050565b60007fffffffff0000000000000000000000000000000000000000000000000000000082169050919050565b60008160000b9050919050565b600073ffffffffffffffffffffffffffffffffffffffff82169050919050565b6000819050919050565b600060ff82169050919050565b82818337600083830152505050565b60005b83811015614ea1578082015181840152602081019050614e86565b83811115614eb0576000848401525b50505050565b6000614ec182614e5d565b91506000821415614ed557614ed461501f565b5b600182039050919050565b60006002820490506001821680614ef857607f821691505b60208210811415614f0c57614f0b61507d565b5b50919050565b614f1b826150db565b810181811067ffffffffffffffff82111715614f3a57614f396150ac565b5b80604052505050565b6000614f4e82614e5d565b91507fffffffffffffffffffffffffffffffffffffffffffffffffffffffffffffffff821415614f8157614f8061501f565b5b600182019050919050565b6000614f9782614e67565b915060ff821415614fab57614faa61501f565b5b600182019050919050565b6000614fc182614fd2565b9050919050565b6000819050919050565b6000614fdd826150ec565b9050919050565b6000819050919050565b6000614ff982614e5d565b915061500483614e5d565b9250826150145761501361504e565b5b828206905092915050565b7f4e487b7100000000000000000000000000000000000000000000000000000000600052601160045260246000fd5b7f4e487b7100000000000000000000000000000000000000000000000000000000600052601260045260246000fd5b7f4e487b7100000000000000000000000000000000000000000000000000000000600052602260045260246000fd5b7f4e487b7100000000000000000000000000000000000000000000000000000000600052604160045260246000fd5b6000601f19601f8301169050919050565b60008160601b9050919050565b7f6e69636520747279210000000000000000000000000000000000000000000000600082015250565b7f3c7376672077696474683d2233313022206865696768743d223331302220786d60008201527f6c6e733d22687474703a2f2f7777772e77332e6f72672f323030302f7376672260208201527f3e00000000000000000000000000000000000000000000000000000000000000604082015250565b7f76616c7565733d22302e00000000000000000000000000000000000000000000600082015250565b7f7b226e616d65223a220000000000000000000000000000000000000000000000600082015250565b7f3c673e0000000000000000000000000000000000000000000000000000000000600082015250565b7f455243373231456e756d657261626c653a206f776e657220696e646578206f7560008201527f74206f6620626f756e6473000000000000000000000000000000000000000000602082015250565b7f4552433732313a207472616e7366657220746f206e6f6e20455243373231526560008201527f63656976657220696d706c656d656e7465720000000000000000000000000000602082015250565b7f4f776e61626c653a206e6577206f776e657220697320746865207a65726f206160008201527f6464726573730000000000000000000000000000000000000000000000000000602082015250565b7f222c000000000000000000000000000000000000000000000000000000000000600082015250565b7f4552433732313a20746f6b656e20616c7265616479206d696e74656400000000600082015250565b7f4c6f6f6769652054616e6b000000000000000000000000000000000000000000600082015250565b7f3c616e696d6174655472616e73666f726d206174747269627574654e616d653d60008201527f227472616e73666f726d22206475723d223135303073222066696c6c3d22667260208201527f65657a652220747970653d227472616e736c617465222061646469746976653d60408201527f2273756d22200000000000000000000000000000000000000000000000000000606082015250565b7f4e4654206e6f74207472616e7366657272656400000000000000000000000000600082015250565b7f4552433732313a207472616e7366657220746f20746865207a65726f2061646460008201527f7265737300000000000000000000000000000000000000000000000000000000602082015250565b7f6f6e6c792074616e6b206f776e6572206f7220617070726f7665642063616e2060008201527f72657475726e20746865204e4654730000000000000000000000000000000000602082015250565b7f4552433732313a20617070726f766520746f2063616c6c657200000000000000600082015250565b7f4552433732313a206f70657261746f7220717565727920666f72206e6f6e657860008201527f697374656e7420746f6b656e0000000000000000000000000000000000000000602082015250565b7f20302e0000000000000000000000000000000000000000000000000000000000600082015250565b7f74616e6b20686173207265616368656420746865206d6178206c696d6974206f60008201527f662032353520636f6d706f6e656e747300000000000000000000000000000000602082015250565b7f2000000000000000000000000000000000000000000000000000000000000000600082015250565b7f3b00000000000000000000000000000000000000000000000000000000000000600082015250565b7f4552433732313a20617070726f76652063616c6c6572206973206e6f74206f7760008201527f6e6572206e6f7220617070726f76656420666f7220616c6c0000000000000000602082015250565b7f2200000000000000000000000000000000000000000000000000000000000000600082015250565b7f4552433732313a2062616c616e636520717565727920666f7220746865207a6560008201527f726f206164647265737300000000000000000000000000000000000000000000602082015250565b7f4552433732313a206f776e657220717565727920666f72206e6f6e657869737460008201527f656e7420746f6b656e0000000000000000000000000000000000000000000000602082015250565b7f227d000000000000000000000000000000000000000000000000000000000000600082015250565b7f4552433732313a206d696e7420746f20746865207a65726f2061646472657373600082015250565b7f222c2022696d616765223a202200000000000000000000000000000000000000600082015250565b7f4552433732313a20617070726f76656420717565727920666f72206e6f6e657860008201527f697374656e7420746f6b656e0000000000000000000000000000000000000000602082015250565b7f222c20226465736372697074696f6e223a220000000000000000000000000000600082015250565b7f4f776e61626c653a2063616c6c6572206973206e6f7420746865206f776e6572600082015250565b7f4c6f6f6769652054616e6b202300000000000000000000000000000000000000600082015250565b7f4552433732313a207472616e73666572206f6620746f6b656e2074686174206960008201527f73206e6f74206f776e0000000000000000000000000000000000000000000000602082015250565b7f796f75206e65656420746f206f776e207468652074616e6b0000000000000000600082015250565b7f3c2f673e00000000000000000000000000000000000000000000000000000000600082015250565b7f226f776e6572223a220000000000000000000000000000000000000000000000600082015250565b7f746f6b656e20646f65736e206e6f742065786973740000000000000000000000600082015250565b7f3c7265637420783d22302220793d2230222077696474683d223331302220686560008201527f696768743d2233313022207374726f6b653d22626c61636b222066696c6c3d2260208201527f2338464239454222207374726f6b652d77696474683d2235222f3e0000000000604082015250565b7f222f3e0000000000000000000000000000000000000000000000000000000000600082015250565b7f4552433732313a20617070726f76616c20746f2063757272656e74206f776e6560008201527f7200000000000000000000000000000000000000000000000000000000000000602082015250565b7f646174613a6170706c69636174696f6e2f6a736f6e3b6261736536342c000000600082015250565b50565b7f4552433732313a207472616e736665722063616c6c6572206973206e6f74206f60008201527f776e6572206e6f7220617070726f766564000000000000000000000000000000602082015250565b7f3c616e696d6174655472616e73666f726d206174747269627574654e616d653d60008201527f227472616e73666f726d2220747970653d227363616c6522206164646974697660208201527f653d2273756d2220000000000000000000000000000000000000000000000000604082015250565b7f2f3e000000000000000000000000000000000000000000000000000000000000600082015250565b7f455243373231456e756d657261626c653a20676c6f62616c20696e646578206f60008201527f7574206f6620626f756e64730000000000000000000000000000000000000000602082015250565b7f636f756c64206e6f742073656e64206574686572000000000000000000000000600082015250565b7f53656e7420657468206e6f7420656e6f75676800000000000000000000000000600082015250565b7f5265656e7472616e637947756172643a207265656e7472616e742063616c6c00600082015250565b7f3c2f7376673e0000000000000000000000000000000000000000000000000000600082015250565b7f76616c7565733d22000000000000000000000000000000000000000000000000600082015250565b7f646174613a696d6167652f7376672b786d6c3b6261736536342c000000000000600082015250565b615cc081614ddc565b8114615ccb57600080fd5b50565b615cd781614dee565b8114615ce257600080fd5b50565b615cee81614e04565b8114615cf957600080fd5b50565b615d0581614e5d565b8114615d1057600080fd5b50565b615d1c81614e67565b8114615d2757600080fd5b5056fe4142434445464748494a4b4c4d4e4f505152535455565758595a6162636465666768696a6b6c6d6e6f707172737475767778797a303132333435363738392b2fa264697066735822122083b79e15d6d4f96984856f3c5be2e427555ee5fc30f1e103404028e51ffa631864736f6c63430008040033",
  "devdoc": {
    "kind": "dev",
    "methods": {
      "approve(address,uint256)": {
        "details": "See {IERC721-approve}."
      },
      "balanceOf(address)": {
        "details": "See {IERC721-balanceOf}."
      },
      "getApproved(uint256)": {
        "details": "See {IERC721-getApproved}."
      },
      "isApprovedForAll(address,address)": {
        "details": "See {IERC721-isApprovedForAll}."
      },
      "name()": {
        "details": "See {IERC721Metadata-name}."
      },
      "owner()": {
        "details": "Returns the address of the current owner."
      },
      "ownerOf(uint256)": {
        "details": "See {IERC721-ownerOf}."
      },
      "renounceOwnership()": {
        "details": "Leaves the contract without owner. It will not be possible to call `onlyOwner` functions anymore. Can only be called by the current owner. NOTE: Renouncing ownership will leave the contract without an owner, thereby removing any functionality that is only available to the owner."
      },
      "safeTransferFrom(address,address,uint256)": {
        "details": "See {IERC721-safeTransferFrom}."
      },
      "safeTransferFrom(address,address,uint256,bytes)": {
        "details": "See {IERC721-safeTransferFrom}."
      },
      "setApprovalForAll(address,bool)": {
        "details": "See {IERC721-setApprovalForAll}."
      },
      "supportsInterface(bytes4)": {
        "details": "See {IERC165-supportsInterface}."
      },
      "symbol()": {
        "details": "See {IERC721Metadata-symbol}."
      },
      "tokenByIndex(uint256)": {
        "details": "See {IERC721Enumerable-tokenByIndex}."
      },
      "tokenOfOwnerByIndex(address,uint256)": {
        "details": "See {IERC721Enumerable-tokenOfOwnerByIndex}."
      },
      "totalSupply()": {
        "details": "See {IERC721Enumerable-totalSupply}."
      },
      "transferFrom(address,address,uint256)": {
        "details": "See {IERC721-transferFrom}."
      },
      "transferOwnership(address)": {
        "details": "Transfers ownership of the contract to a new account (`newOwner`). Can only be called by the current owner."
      }
    },
    "version": 1
  },
  "userdoc": {
    "kind": "user",
    "methods": {},
    "version": 1
  },
  "storageLayout": {
    "storage": [
      {
        "astId": 169,
        "contract": "contracts/LoogieTank.sol:LoogieTank",
        "label": "_name",
        "offset": 0,
        "slot": "0",
        "type": "t_string_storage"
      },
      {
        "astId": 171,
        "contract": "contracts/LoogieTank.sol:LoogieTank",
        "label": "_symbol",
        "offset": 0,
        "slot": "1",
        "type": "t_string_storage"
      },
      {
        "astId": 175,
        "contract": "contracts/LoogieTank.sol:LoogieTank",
        "label": "_owners",
        "offset": 0,
        "slot": "2",
        "type": "t_mapping(t_uint256,t_address)"
      },
      {
        "astId": 179,
        "contract": "contracts/LoogieTank.sol:LoogieTank",
        "label": "_balances",
        "offset": 0,
        "slot": "3",
        "type": "t_mapping(t_address,t_uint256)"
      },
      {
        "astId": 183,
        "contract": "contracts/LoogieTank.sol:LoogieTank",
        "label": "_tokenApprovals",
        "offset": 0,
        "slot": "4",
        "type": "t_mapping(t_uint256,t_address)"
      },
      {
        "astId": 189,
        "contract": "contracts/LoogieTank.sol:LoogieTank",
        "label": "_operatorApprovals",
        "offset": 0,
        "slot": "5",
        "type": "t_mapping(t_address,t_mapping(t_address,t_bool))"
      },
      {
        "astId": 1108,
        "contract": "contracts/LoogieTank.sol:LoogieTank",
        "label": "_ownedTokens",
        "offset": 0,
        "slot": "6",
        "type": "t_mapping(t_address,t_mapping(t_uint256,t_uint256))"
      },
      {
        "astId": 1112,
        "contract": "contracts/LoogieTank.sol:LoogieTank",
        "label": "_ownedTokensIndex",
        "offset": 0,
        "slot": "7",
        "type": "t_mapping(t_uint256,t_uint256)"
      },
      {
        "astId": 1115,
        "contract": "contracts/LoogieTank.sol:LoogieTank",
        "label": "_allTokens",
        "offset": 0,
        "slot": "8",
        "type": "t_array(t_uint256)dyn_storage"
      },
      {
        "astId": 1119,
        "contract": "contracts/LoogieTank.sol:LoogieTank",
        "label": "_allTokensIndex",
        "offset": 0,
        "slot": "9",
        "type": "t_mapping(t_uint256,t_uint256)"
      },
      {
        "astId": 7,
        "contract": "contracts/LoogieTank.sol:LoogieTank",
        "label": "_owner",
        "offset": 0,
        "slot": "10",
        "type": "t_address"
      },
      {
        "astId": 114,
        "contract": "contracts/LoogieTank.sol:LoogieTank",
        "label": "_status",
        "offset": 0,
        "slot": "11",
        "type": "t_uint256"
      },
      {
        "astId": 2212,
        "contract": "contracts/LoogieTank.sol:LoogieTank",
        "label": "_tokenIds",
        "offset": 0,
        "slot": "12",
        "type": "t_uint256"
      },
      {
        "astId": 2238,
        "contract": "contracts/LoogieTank.sol:LoogieTank",
        "label": "componentByTankId",
        "offset": 0,
        "slot": "13",
        "type": "t_mapping(t_uint256,t_array(t_struct(Component)2232_storage)dyn_storage)"
      }
    ],
    "types": {
      "t_address": {
        "encoding": "inplace",
        "label": "address",
        "numberOfBytes": "20"
      },
      "t_array(t_struct(Component)2232_storage)dyn_storage": {
        "base": "t_struct(Component)2232_storage",
        "encoding": "dynamic_array",
        "label": "struct LoogieTank.Component[]",
        "numberOfBytes": "32"
      },
      "t_array(t_uint256)dyn_storage": {
        "base": "t_uint256",
        "encoding": "dynamic_array",
        "label": "uint256[]",
        "numberOfBytes": "32"
      },
      "t_bool": {
        "encoding": "inplace",
        "label": "bool",
        "numberOfBytes": "1"
      },
      "t_int8": {
        "encoding": "inplace",
        "label": "int8",
        "numberOfBytes": "1"
      },
      "t_mapping(t_address,t_bool)": {
        "encoding": "mapping",
        "key": "t_address",
        "label": "mapping(address => bool)",
        "numberOfBytes": "32",
        "value": "t_bool"
      },
      "t_mapping(t_address,t_mapping(t_address,t_bool))": {
        "encoding": "mapping",
        "key": "t_address",
        "label": "mapping(address => mapping(address => bool))",
        "numberOfBytes": "32",
        "value": "t_mapping(t_address,t_bool)"
      },
      "t_mapping(t_address,t_mapping(t_uint256,t_uint256))": {
        "encoding": "mapping",
        "key": "t_address",
        "label": "mapping(address => mapping(uint256 => uint256))",
        "numberOfBytes": "32",
        "value": "t_mapping(t_uint256,t_uint256)"
      },
      "t_mapping(t_address,t_uint256)": {
        "encoding": "mapping",
        "key": "t_address",
        "label": "mapping(address => uint256)",
        "numberOfBytes": "32",
        "value": "t_uint256"
      },
      "t_mapping(t_uint256,t_address)": {
        "encoding": "mapping",
        "key": "t_uint256",
        "label": "mapping(uint256 => address)",
        "numberOfBytes": "32",
        "value": "t_address"
      },
      "t_mapping(t_uint256,t_array(t_struct(Component)2232_storage)dyn_storage)": {
        "encoding": "mapping",
        "key": "t_uint256",
        "label": "mapping(uint256 => struct LoogieTank.Component[])",
        "numberOfBytes": "32",
        "value": "t_array(t_struct(Component)2232_storage)dyn_storage"
      },
      "t_mapping(t_uint256,t_uint256)": {
        "encoding": "mapping",
        "key": "t_uint256",
        "label": "mapping(uint256 => uint256)",
        "numberOfBytes": "32",
        "value": "t_uint256"
      },
      "t_string_storage": {
        "encoding": "bytes",
        "label": "string",
        "numberOfBytes": "32"
      },
      "t_struct(Component)2232_storage": {
        "encoding": "inplace",
        "label": "struct LoogieTank.Component",
        "members": [
          {
            "astId": 2217,
            "contract": "contracts/LoogieTank.sol:LoogieTank",
            "label": "blockAdded",
            "offset": 0,
            "slot": "0",
            "type": "t_uint256"
          },
          {
            "astId": 2219,
            "contract": "contracts/LoogieTank.sol:LoogieTank",
            "label": "id",
            "offset": 0,
            "slot": "1",
            "type": "t_uint256"
          },
          {
            "astId": 2221,
            "contract": "contracts/LoogieTank.sol:LoogieTank",
            "label": "addr",
            "offset": 0,
            "slot": "2",
            "type": "t_address"
          },
          {
            "astId": 2223,
            "contract": "contracts/LoogieTank.sol:LoogieTank",
            "label": "x",
            "offset": 20,
            "slot": "2",
            "type": "t_uint8"
          },
          {
            "astId": 2225,
            "contract": "contracts/LoogieTank.sol:LoogieTank",
            "label": "y",
            "offset": 21,
            "slot": "2",
            "type": "t_uint8"
          },
          {
            "astId": 2227,
            "contract": "contracts/LoogieTank.sol:LoogieTank",
            "label": "scale",
            "offset": 22,
            "slot": "2",
            "type": "t_uint8"
          },
          {
            "astId": 2229,
            "contract": "contracts/LoogieTank.sol:LoogieTank",
            "label": "dx",
            "offset": 23,
            "slot": "2",
            "type": "t_int8"
          },
          {
            "astId": 2231,
            "contract": "contracts/LoogieTank.sol:LoogieTank",
            "label": "dy",
            "offset": 24,
            "slot": "2",
            "type": "t_int8"
          }
        ],
        "numberOfBytes": "96"
      },
      "t_uint256": {
        "encoding": "inplace",
        "label": "uint256",
        "numberOfBytes": "32"
      },
      "t_uint8": {
        "encoding": "inplace",
        "label": "uint8",
        "numberOfBytes": "1"
      }
    }
  }
}