{
  "_format": "hh-sol-artifact-1",
  "contractName": "Level1",
  "sourceName": "contracts/Level1.sol",
  "abi": [
    {
      "inputs": [],
      "stateMutability": "payable",
      "type": "constructor"
    },
    {
      "anonymous": false,
      "inputs": [
        {
          "indexed": false,
          "internalType": "uint256",
          "name": "id",
          "type": "uint256"
        },
        {
          "indexed": false,
          "internalType": "address",
          "name": "owner",
          "type": "address"
        },
        {
          "indexed": false,
          "internalType": "uint16",
          "name": "x",
          "type": "uint16"
        },
        {
          "indexed": false,
          "internalType": "uint16",
          "name": "y",
          "type": "uint16"
        },
        {
          "indexed": false,
          "internalType": "int8",
          "name": "dx",
          "type": "int8"
        },
        {
          "indexed": false,
          "internalType": "int8",
          "name": "dy",
          "type": "int8"
        },
        {
          "indexed": false,
          "internalType": "string",
          "name": "emoji",
          "type": "string"
        },
        {
          "indexed": false,
          "internalType": "uint64",
          "name": "stopAfter",
          "type": "uint64"
        },
        {
          "indexed": false,
          "internalType": "uint64",
          "name": "startTime",
          "type": "uint64"
        }
      ],
      "name": "AgentRender",
      "type": "event"
    },
    {
      "anonymous": false,
      "inputs": [
        {
          "indexed": true,
          "internalType": "address",
          "name": "previousOwner",
          "type": "address"
        },
        {
          "indexed": true,
          "internalType": "address",
          "name": "newOwner",
          "type": "address"
        }
      ],
      "name": "OwnershipTransferred",
      "type": "event"
    },
    {
      "anonymous": false,
      "inputs": [
        {
          "indexed": false,
          "internalType": "uint256",
          "name": "id",
          "type": "uint256"
        },
        {
          "indexed": false,
          "internalType": "address",
          "name": "owner",
          "type": "address"
        },
        {
          "indexed": false,
          "internalType": "uint16",
          "name": "x",
          "type": "uint16"
        },
        {
          "indexed": false,
          "internalType": "uint16",
          "name": "y",
          "type": "uint16"
        },
        {
          "indexed": false,
          "internalType": "string",
          "name": "emoji",
          "type": "string"
        },
        {
          "indexed": false,
          "internalType": "uint64",
          "name": "startTime",
          "type": "uint64"
        }
      ],
      "name": "StructureRender",
      "type": "event"
    },
    {
      "stateMutability": "payable",
      "type": "fallback"
    },
    {
      "inputs": [
        {
          "internalType": "uint256",
          "name": "agentId",
          "type": "uint256"
        },
        {
          "internalType": "uint256",
          "name": "structureId",
          "type": "uint256"
        }
      ],
      "name": "agentDistanceFromStructure",
      "outputs": [
        {
          "internalType": "uint256",
          "name": "",
          "type": "uint256"
        }
      ],
      "stateMutability": "view",
      "type": "function"
    },
    {
      "inputs": [
        {
          "internalType": "uint256",
          "name": "agentId",
          "type": "uint256"
        }
      ],
      "name": "agentLocation",
      "outputs": [
        {
          "internalType": "uint16",
          "name": "",
          "type": "uint16"
        },
        {
          "internalType": "uint16",
          "name": "",
          "type": "uint16"
        }
      ],
      "stateMutability": "view",
      "type": "function"
    },
    {
      "inputs": [
        {
          "internalType": "uint256",
          "name": "",
          "type": "uint256"
        }
      ],
      "name": "agents",
      "outputs": [
        {
          "internalType": "address",
          "name": "owner",
          "type": "address"
        },
        {
          "internalType": "uint16",
          "name": "x",
          "type": "uint16"
        },
        {
          "internalType": "uint16",
          "name": "y",
          "type": "uint16"
        },
        {
          "internalType": "int8",
          "name": "dx",
          "type": "int8"
        },
        {
          "internalType": "int8",
          "name": "dy",
          "type": "int8"
        },
        {
          "internalType": "string",
          "name": "emoji",
          "type": "string"
        },
        {
          "internalType": "uint64",
          "name": "stopAfter",
          "type": "uint64"
        },
        {
          "internalType": "uint64",
          "name": "startTime",
          "type": "uint64"
        }
      ],
      "stateMutability": "view",
      "type": "function"
    },
    {
      "inputs": [],
      "name": "car",
      "outputs": [
        {
          "internalType": "uint256",
          "name": "",
          "type": "uint256"
        }
      ],
      "stateMutability": "payable",
      "type": "function"
    },
    {
      "inputs": [
        {
          "internalType": "uint256",
          "name": "",
          "type": "uint256"
        }
      ],
      "name": "cars",
      "outputs": [
        {
          "internalType": "uint256",
          "name": "",
          "type": "uint256"
        }
      ],
      "stateMutability": "view",
      "type": "function"
    },
    {
      "inputs": [
        {
          "internalType": "uint256",
          "name": "agentId",
          "type": "uint256"
        },
        {
          "internalType": "uint256",
          "name": "structureId",
          "type": "uint256"
        }
      ],
      "name": "collect",
      "outputs": [],
      "stateMutability": "nonpayable",
      "type": "function"
    },
    {
      "inputs": [
        {
          "internalType": "uint16",
          "name": "x1",
          "type": "uint16"
        },
        {
          "internalType": "uint16",
          "name": "y1",
          "type": "uint16"
        },
        {
          "internalType": "uint16",
          "name": "x2",
          "type": "uint16"
        },
        {
          "internalType": "uint16",
          "name": "y2",
          "type": "uint16"
        }
      ],
      "name": "distance",
      "outputs": [
        {
          "internalType": "uint256",
          "name": "",
          "type": "uint256"
        }
      ],
      "stateMutability": "pure",
      "type": "function"
    },
    {
      "inputs": [
        {
          "internalType": "uint16",
          "name": "x",
          "type": "uint16"
        },
        {
          "internalType": "uint16",
          "name": "y",
          "type": "uint16"
        },
        {
          "internalType": "uint256",
          "name": "structureId",
          "type": "uint256"
        }
      ],
      "name": "distanceFromStructure",
      "outputs": [
        {
          "internalType": "uint256",
          "name": "",
          "type": "uint256"
        }
      ],
      "stateMutability": "view",
      "type": "function"
    },
    {
      "inputs": [],
      "name": "generate",
      "outputs": [],
      "stateMutability": "nonpayable",
      "type": "function"
    },
    {
      "inputs": [
        {
          "internalType": "uint256",
          "name": "agentId",
          "type": "uint256"
        },
        {
          "internalType": "uint256",
          "name": "structureId",
          "type": "uint256"
        }
      ],
      "name": "harvest",
      "outputs": [],
      "stateMutability": "nonpayable",
      "type": "function"
    },
    {
      "inputs": [
        {
          "internalType": "uint256",
          "name": "",
          "type": "uint256"
        }
      ],
      "name": "houseBalanceOfTrucks",
      "outputs": [
        {
          "internalType": "uint256",
          "name": "",
          "type": "uint256"
        }
      ],
      "stateMutability": "view",
      "type": "function"
    },
    {
      "inputs": [
        {
          "internalType": "uint256",
          "name": "",
          "type": "uint256"
        }
      ],
      "name": "houseBalanceOfWood",
      "outputs": [
        {
          "internalType": "uint256",
          "name": "",
          "type": "uint256"
        }
      ],
      "stateMutability": "view",
      "type": "function"
    },
    {
      "inputs": [],
      "name": "owner",
      "outputs": [
        {
          "internalType": "address",
          "name": "",
          "type": "address"
        }
      ],
      "stateMutability": "view",
      "type": "function"
    },
    {
      "inputs": [],
      "name": "renounceOwnership",
      "outputs": [],
      "stateMutability": "nonpayable",
      "type": "function"
    },
    {
      "inputs": [
        {
          "internalType": "uint16",
          "name": "x",
          "type": "uint16"
        },
        {
          "internalType": "uint16",
          "name": "y",
          "type": "uint16"
        }
      ],
      "name": "stake",
      "outputs": [
        {
          "internalType": "uint256",
          "name": "",
          "type": "uint256"
        }
      ],
      "stateMutability": "payable",
      "type": "function"
    },
    {
      "inputs": [
        {
          "internalType": "uint256",
          "name": "",
          "type": "uint256"
        }
      ],
      "name": "structures",
      "outputs": [
        {
          "internalType": "address",
          "name": "owner",
          "type": "address"
        },
        {
          "internalType": "uint16",
          "name": "x",
          "type": "uint16"
        },
        {
          "internalType": "uint16",
          "name": "y",
          "type": "uint16"
        }
      ],
      "stateMutability": "view",
      "type": "function"
    },
    {
      "inputs": [
        {
          "internalType": "address",
          "name": "newOwner",
          "type": "address"
        }
      ],
      "name": "transferOwnership",
      "outputs": [],
      "stateMutability": "nonpayable",
      "type": "function"
    },
    {
      "inputs": [
        {
          "internalType": "uint256",
          "name": "",
          "type": "uint256"
        }
      ],
      "name": "treeBalanceOfWood",
      "outputs": [
        {
          "internalType": "uint256",
          "name": "",
          "type": "uint256"
        }
      ],
      "stateMutability": "view",
      "type": "function"
    },
    {
      "inputs": [
        {
          "internalType": "uint256",
          "name": "structureId",
          "type": "uint256"
        },
        {
          "internalType": "int8",
          "name": "dx",
          "type": "int8"
        },
        {
          "internalType": "int8",
          "name": "dy",
          "type": "int8"
        },
        {
          "internalType": "uint64",
          "name": "stopAfter",
          "type": "uint64"
        }
      ],
      "name": "truck",
      "outputs": [
        {
          "internalType": "uint256",
          "name": "",
          "type": "uint256"
        }
      ],
      "stateMutability": "payable",
      "type": "function"
    },
    {
      "inputs": [
        {
          "internalType": "uint256",
          "name": "",
          "type": "uint256"
        }
      ],
      "name": "truckBalanceOfWood",
      "outputs": [
        {
          "internalType": "uint256",
          "name": "",
          "type": "uint256"
        }
      ],
      "stateMutability": "view",
      "type": "function"
    },
    {
      "inputs": [
        {
          "internalType": "uint256",
          "name": "agentId",
          "type": "uint256"
        },
        {
          "internalType": "int8",
          "name": "dx",
          "type": "int8"
        },
        {
          "internalType": "int8",
          "name": "dy",
          "type": "int8"
        },
        {
          "internalType": "uint64",
          "name": "stopAfter",
          "type": "uint64"
        }
      ],
      "name": "updateTruck",
      "outputs": [],
      "stateMutability": "payable",
      "type": "function"
    },
    {
      "stateMutability": "payable",
      "type": "receive"
    }
  ],
  "bytecode": "0x60806040526200000f3362000075565b6200001c60014362000260565b60408051914060208301520160408051601f1981840301815282825280516020918201206007558282019091526004825263784fc7d560e11b908201526200006c903390617530908190620000c5565b60085562000284565b600080546001600160a01b038381166001600160a01b0319831681178455604051919092169283917f8be0079c531659141344cd1fd0a4f28419497f9722a3daafe3b4186f6b6457e09190a35050565b6001546040516000917f45ab2cd1af38dab76e39338fcff58666aae639cd495592e23eccc7c686be9f749162000106919088908890889088904290620001c5565b60405180910390a1604080516060810182526001600160a01b03808816825261ffff80881660208401908152878216948401948552600180548082018255600082905294517fb10e2d527612073b26eecdfd717e6a320cf44b4afac2b0732d9fcbe2b7fa0cf69095018054925196518416600160b01b0261ffff60b01b1997909416600160a01b026001600160b01b031990931695909416949094171793909316929092179091558054620001bc919062000260565b95945050505050565b8681526000602060018060a01b0388168184015261ffff808816604085015280871660608501525060c0608084015284518060c0850152825b818110156200021c5786810183015185820160e001528201620001fe565b818111156200022e578360e083870101525b50601f01601f1916830160e001915062000255905060a08301846001600160401b03169052565b979650505050505050565b6000828210156200027f57634e487b7160e01b81526011600452602481fd5b500390565b61254d80620002946000396000f3fe6080604052600436106101225760003560e01c8063944ac05b116100a5578063dfa9af281161006c578063dfa9af281461035b578063e4a4b7b11461037b578063edafceed1461039b578063ee26fac3146103d6578063f2fde38b146103de578063f7746e36146103fe57005b8063944ac05b146102845780639e3cb488146102b1578063a5d392fe146102fb578063aa28878214610328578063cfa6f8271461033b57005b80636a9f649d116100e95780636a9f649d146101e757806370d7d81614610214578063715018a614610234578063864c3e95146102495780638da5cb5b1461025c57005b806316acf49a1461012b5780632a1bbc341461013e5780634aec63ef1461015357806350ad3f3214610186578063513856c8146101b357005b3661012957005b005b61012961013936600461211a565b61041e565b34801561014a57600080fd5b506101296105da565b34801561015f57600080fd5b5061017361016e3660046120c7565b6108c3565b6040519081526020015b60405180910390f35b34801561019257600080fd5b506101736101a1366004612102565b60056020526000908152604090205481565b3480156101bf57600080fd5b506101d36101ce366004612102565b610947565b60405161017d9897969594939291906121df565b3480156101f357600080fd5b50610173610202366004612102565b60066020526000908152604090205481565b34801561022057600080fd5b5061017361022f366004612074565b610a4f565b34801561024057600080fd5b50610129610b63565b61017361025736600461211a565b610b77565b34801561026857600080fd5b506000546040516001600160a01b03909116815260200161017d565b34801561029057600080fd5b5061017361029f366004612102565b60046020526000908152604090205481565b3480156102bd57600080fd5b506102d16102cc366004612102565b610cf7565b604080516001600160a01b03909416845261ffff928316602085015291169082015260600161017d565b34801561030757600080fd5b50610173610316366004612102565b60036020526000908152604090205481565b610173610336366004612042565b610d37565b34801561034757600080fd5b50610129610356366004612173565b610d7e565b34801561036757600080fd5b50610173610376366004612173565b61103b565b34801561038757600080fd5b50610129610396366004612173565b611059565b3480156103a757600080fd5b506103bb6103b6366004612102565b611409565b6040805161ffff93841681529290911660208301520161017d565b610173611662565b3480156103ea57600080fd5b506101296103f9366004612014565b61169c565b34801561040a57600080fd5b50610173610419366004612102565b611715565b60006002858154811061044157634e487b7160e01b600052603260045260246000fd5b600091825260208083206040805161010081018252600390940290910180546001600160a01b038116855261ffff600160a01b8204811694860194909452600160b01b810490931691840191909152600160c01b8204840b840b840b6060840152600160c81b909104830b830b90920b608082015260018201805491929160a0840191906104ce9061243a565b80601f01602080910402602001604051908101604052809291908181526020018280546104fa9061243a565b80156105475780601f1061051c57610100808354040283529160200191610547565b820191906000526020600020905b81548152906001019060200180831161052a57829003601f168201915b5050509183525050600291909101546001600160401b038082166020840152600160401b9091041660409091015280519091506001600160a01b031633146105aa5760405162461bcd60e51b81526004016105a190612270565b60405180910390fd5b6000806105b687611409565b80925081935050506105d187838389898860a001518a611736565b50505050505050565b6105e760075460fa61187b565b6007556000805b60218161ffff1610156108bf57600061060983600754611949565b600791909155604080518082019091526004815263784fcd4d60e11b60208201529194509150600a61063c6064846124ac565b61ffff16116106665750604080518082019091526004815263f09f9a9760e01b6020820152610872565b60146106736064846124ac565b61ffff161161069d5750604080518082019091526004815263f09f9a9960e01b6020820152610872565b60196106aa6064846124ac565b61ffff16116106d45750604080518082019091526004815263f09f9a9560e01b6020820152610872565b60286106e16064846124ac565b61ffff161161070b5750604080518082019091526004815263784fcd4d60e11b6020820152610872565b603c6107186064846124ac565b61ffff16116107425750604080518082019091526004815263f09f9a9b60e01b6020820152610872565b604661074f6064846124ac565b61ffff161161077957506040805180820190915260048152633c27e6a360e21b6020820152610872565b60506107866064846124ac565b61ffff16116107b057506040805180820190915260048152630f09f9a960e41b6020820152610872565b60556107bd6064846124ac565b61ffff16116107e75750604080518082019091526004815263f09f9a9160e01b6020820152610872565b605a6107f46064846124ac565b61ffff161161081e5750604080518082019091526004815263f09f9a9360e01b6020820152610872565b605f61082b6064846124ac565b61ffff16116108555750604080518082019091526004815263784fcd4960e11b6020820152610872565b50604080518082019091526004815263f09f9bbb60e01b60208201525b600961089433610884866107d061239b565b6179186031196000876000611a3d565b81546001810183556000928352602090922090910155508190506108b78161246f565b9150506105ee565b5050565b600080600183815481106108e757634e487b7160e01b600052603260045260246000fd5b60009182526020918290206040805160608101825291909201546001600160a01b038116825261ffff600160a01b82048116948301859052600160b01b90910416918101829052925061093e918791879190610a4f565b95945050505050565b6002818154811061095757600080fd5b60009182526020822060039091020180546001820180546001600160a01b038316955061ffff600160a01b8404811695600160b01b850490911694600160c01b8504820b94600160c81b900490910b9290916109b29061243a565b80601f01602080910402602001604051908101604052809291908181526020018280546109de9061243a565b8015610a2b5780601f10610a0057610100808354040283529160200191610a2b565b820191906000526020600020905b815481529060010190602001808311610a0e57829003601f168201915b505050600290930154919250506001600160401b0380821691600160401b90041688565b6000808361ffff168661ffff161115610a9457610a7361ffff8086169088166123e4565b9050618000811115610a8f57610a8c81620100006123e4565b90505b610ac1565b610aa561ffff8088169086166123e4565b9050618000811115610ac157610abe81620100006123e4565b90505b60008361ffff168661ffff161115610b0557610ae461ffff8086169088166123e4565b9050618000811115610b0057610afd81620100006123e4565b90505b610b32565b610b1661ffff8088169086166123e4565b9050618000811115610b3257610b2f81620100006123e4565b90505b610b58610b3f82806123c5565b610b4984806123c5565b610b53919061236f565b611c2b565b979650505050505050565b610b6b611c9b565b610b756000611cf5565b565b600084815260066020526040812054610bd25760405162461bcd60e51b815260206004820152601e60248201527f596f7520646f6e2774206861766520616e7920747275636b73206c656674000060448201526064016105a1565b600085815260066020526040902054610bed906001906123e4565b6000868152600660205260408120919091556001805487908110610c2157634e487b7160e01b600052603260045260246000fd5b60009182526020918290206040805160608101825292909101546001600160a01b03811680845261ffff600160a01b8304811695850195909552600160b01b9091049093169082015291503314610cba5760405162461bcd60e51b815260206004820152601a60248201527f596f75206d757374206f776e207468652073747275637475726500000000000060448201526064016105a1565b610ced3382602001518360400151888860405180604001604052806004815260200163f09f9bbb60e01b81525089611a3d565b9695505050505050565b60018181548110610d0757600080fd5b6000918252602090912001546001600160a01b038116915061ffff600160a01b8204811691600160b01b90041683565b600080610d6433858560405180604001604052806006815260200165e29bbaefb88f60d01b815250611d45565b600081815260066020526040902060039055949350505050565b6101f4610d8b838361103b565b10610dc75760405162461bcd60e51b815260206004820152600c60248201526b746f6f20666172206177617960a01b60448201526064016105a1565b600060028381548110610dea57634e487b7160e01b600052603260045260246000fd5b600091825260208083206040805161010081018252600390940290910180546001600160a01b038116855261ffff600160a01b8204811694860194909452600160b01b810490931691840191909152600160c01b8204840b840b840b6060840152600160c81b909104830b830b90920b608082015260018201805491929160a084019190610e779061243a565b80601f0160208091040260200160405190810160405280929190818152602001828054610ea39061243a565b8015610ef05780601f10610ec557610100808354040283529160200191610ef0565b820191906000526020600020905b815481529060010190602001808311610ed357829003601f168201915b5050509183525050600291909101546001600160401b038082166020840152600160401b9091041660409091015280519091506001600160a01b03163314610f4a5760405162461bcd60e51b81526004016105a190612270565b60008381526004602052604090205460011415610f9157600083815260046020908152604080832083905584835260059091528120805491610f8b83612491565b91905055505b6000828152600660205260408120805491610fab83612491565b9190505550600060018381548110610fd357634e487b7160e01b600052603260045260246000fd5b600091825260208083206040805160608101825291909301546001600160a01b038116825261ffff600160a01b8204811683850152600160b01b9091048116828501528351928301909352838252935061103592879291829190819081611736565b50505050565b600080600061104985611409565b909250905061093e8282866108c3565b61012c611066838361103b565b106110a25760405162461bcd60e51b815260206004820152600c60248201526b746f6f20666172206177617960a01b60448201526064016105a1565b6000600283815481106110c557634e487b7160e01b600052603260045260246000fd5b600091825260208083206040805161010081018252600390940290910180546001600160a01b038116855261ffff600160a01b8204811694860194909452600160b01b810490931691840191909152600160c01b8204840b840b840b6060840152600160c81b909104830b830b90920b608082015260018201805491929160a0840191906111529061243a565b80601f016020809104026020016040519081016040528092919081815260200182805461117e9061243a565b80156111cb5780601f106111a0576101008083540402835291602001916111cb565b820191906000526020600020905b8154815290600101906020018083116111ae57829003601f168201915b5050509183525050600291909101546001600160401b038082166020840152600160401b9091041660409091015280519091506001600160a01b031633146112255760405162461bcd60e51b81526004016105a190612270565b6000828152600360205260409020546112785760405162461bcd60e51b81526020600482015260156024820152741d1c9959481a185cc81b9bc81ddbdbd9081b19599d605a1b60448201526064016105a1565b600082815260036020526040812080549161129283612423565b91905055506000600183815481106112ba57634e487b7160e01b600052603260045260246000fd5b600091825260208083206040805160608101825291909301546001600160a01b038116825261ffff600160a01b8204811683850152600160b01b90910416818401528784526004909152912054909150156113575760405162461bcd60e51b815260206004820152601760248201527f747275636b20616c72656164792068617320636172676f00000000000000000060448201526064016105a1565b6001600460008681526020019081526020016000208190555061138d84826020015183604001516000808760a001516000611736565b6000838152600360205260409020546113ca576113ca8361ffff8060405180604001604052806004815260200163784fd54d60e11b815250611e38565b6110356040518060400160405280601b81526020017f68617276657374656420776f6f642066726f6d2074726565202573000000000081525084611ef6565b60008060006002848154811061142f57634e487b7160e01b600052603260045260246000fd5b600091825260208083206040805161010081018252600390940290910180546001600160a01b038116855261ffff600160a01b8204811694860194909452600160b01b810490931691840191909152600160c01b8204840b840b840b6060840152600160c81b909104830b830b90920b608082015260018201805491929160a0840191906114bc9061243a565b80601f01602080910402602001604051908101604052809291908181526020018280546114e89061243a565b80156115355780601f1061150a57610100808354040283529160200191611535565b820191906000526020600020905b81548152906001019060200180831161151857829003601f168201915b5050509183525050600291909101546001600160401b038082166020840152600160401b9091041660409091015260e081015190915060009061157890426123fb565b905060008260c001516001600160401b03161180156115ac57508160c001516001600160401b0316816001600160401b0316115b156115b8575060c08101515b60208201516060830151600090810b13156115e457606083015160ff16820261ffff9190911601611607565b600083606001516115f4906124cd565b60ff16830261ffff929092169190910390505b60408301516080840151600090810b131561163357608084015160ff16830261ffff9190911601611656565b60008460800151611643906124cd565b60ff16840261ffff929092169190910390505b90969095509350505050565b60006116973361ffff617530607e19600060405180604001604052806004815260200163f09f9a9760e01b8152506000611a3d565b905090565b6116a4611c9b565b6001600160a01b0381166117095760405162461bcd60e51b815260206004820152602660248201527f4f776e61626c653a206e6577206f776e657220697320746865207a65726f206160448201526564647265737360d01b60648201526084016105a1565b61171281611cf5565b50565b6009818154811061172557600080fd5b600091825260209091200154905081565b60006002888154811061175957634e487b7160e01b600052603260045260246000fd5b600091825260208083206003909202909101805487840b60ff908116600160c81b0260ff60c81b19958b900b909116600160c01b029490941661ffff60c01b1961ffff8c8116600160b01b0261ffff60b01b19918f16600160a01b029190911663ffffffff60a01b199094169390931792909217919091161792909217825584519192506117ee916001840191860190611f57565b50600281018054426001600160401b03818116600160401b026001600160801b0319909316908616179190911790915581546040517f4076b51b816c36ff024203b677416b58126ebb77bb9f601ae660baf0d9cae77492611869928c926001600160a01b03909116918c918c918c918c918c918c91906122a0565b60405180910390a15050505050505050565b60008083815b84811161191c5760006118948484611949565b9195509350905060006118a78585611949565b80935081965082975050505060006118dd33848460405180604001604052806004815260200163784fc65960e11b815250611d45565b905060006118eb8787611949565b506000938452600360205260409093206001905596509094508392506119149150829050612491565b915050611881565b50604080516020810183905201604051602081830303815290604052805190602001209250505092915050565b60008080806008858761195b81612491565b98506020811061197b57634e487b7160e01b600052603260045260246000fd5b1a60f81b6001600160f81b031916901c9050602086106119be57604080516020810187905201604051602081830303815290604052805190602001209450600095505b600085876119cb81612491565b9850602081106119eb57634e487b7160e01b600052603260045260246000fd5b1a60f81b6001600160f81b0319168217905060208710611a2e57604080516020810188905201604051602081830303815290604052805190602001209550600096505b9596949560f01c949350505050565b6002546040516000917f4076b51b816c36ff024203b677416b58126ebb77bb9f601ae660baf0d9cae77491611a8291908b908b908b908b908b908b908b9042906122a0565b60405180910390a160408051610100810182526001600160a01b03808b16825261ffff808b1660208085019182528b831695850195865260008b810b606087019081528b820b6080880190815260a088018c81526001600160401b03808d1660c08b0152421660e08a015260028054600181018255908552895160039091027f405787fa12a823e0f2b7631cc41b3ba8828b3321ca811111fa75cd3aa3bb5ace8101805498519c5195519451870b60ff908116600160c81b0260ff60c81b199690980b16600160c01b0260ff60c01b19968b16600160b01b029690961662ffffff60b01b199d909a16600160a01b026001600160b01b031990991692909a169190911796909617999099169590951717939093169290921783559351805193949293611bd5937f405787fa12a823e0f2b7631cc41b3ba8828b3321ca811111fa75cd3aa3bb5acf01929190910190611f57565b5060c08201516002918201805460e0909401516001600160401b03908116600160401b026001600160801b03199095169216919091179290921790915554611c1f906001906123e4565b98975050505050505050565b60006003821115611c8c5750806000611c45600283612387565b611c5090600161236f565b90505b81811015611c8657905080600281611c6b8186612387565b611c75919061236f565b611c7f9190612387565b9050611c53565b50919050565b8115611c96575060015b919050565b6000546001600160a01b03163314610b755760405162461bcd60e51b815260206004820181905260248201527f4f776e61626c653a2063616c6c6572206973206e6f7420746865206f776e657260448201526064016105a1565b600080546001600160a01b038381166001600160a01b0319831681178455604051919092169283917f8be0079c531659141344cd1fd0a4f28419497f9722a3daafe3b4186f6b6457e09190a35050565b6001546040516000917f45ab2cd1af38dab76e39338fcff58666aae639cd495592e23eccc7c686be9f7491611d84919088908890889088904290612317565b60405180910390a1604080516060810182526001600160a01b03808816825261ffff80881660208401908152878216948401948552600180548082018255600082905294517fb10e2d527612073b26eecdfd717e6a320cf44b4afac2b0732d9fcbe2b7fa0cf69095018054925196518416600160b01b0261ffff60b01b1997909416600160a01b026001600160b01b03199093169590941694909417179390931692909217909155805461093e91906123e4565b600060018581548110611e5b57634e487b7160e01b600052603260045260246000fd5b6000918252602090912001805463ffffffff60a01b1916600160a01b61ffff878116820261ffff60b01b191692909217600160b01b8784168102919091178085556040519495507f45ab2cd1af38dab76e39338fcff58666aae639cd495592e23eccc7c686be9f7494611ee7948b946001600160a01b0384169490840482169304169088904290612317565b60405180910390a15050505050565b6108bf8282604051602401611f0c92919061224e565b60408051601f198184030181529190526020810180516001600160e01b0316632d839cb360e21b17905280516a636f6e736f6c652e6c6f67602083016000808483855afa5050505050565b828054611f639061243a565b90600052602060002090601f016020900481019282611f855760008555611fcb565b82601f10611f9e57805160ff1916838001178555611fcb565b82800160010185558215611fcb579182015b82811115611fcb578251825591602001919060010190611fb0565b50611fd7929150611fdb565b5090565b5b80821115611fd75760008155600101611fdc565b8035600081900b8114611c9657600080fd5b803561ffff81168114611c9657600080fd5b600060208284031215612025578081fd5b81356001600160a01b038116811461203b578182fd5b9392505050565b60008060408385031215612054578081fd5b61205d83612002565b915061206b60208401612002565b90509250929050565b60008060008060808587031215612089578182fd5b61209285612002565b93506120a060208601612002565b92506120ae60408601612002565b91506120bc60608601612002565b905092959194509250565b6000806000606084860312156120db578283fd5b6120e484612002565b92506120f260208501612002565b9150604084013590509250925092565b600060208284031215612113578081fd5b5035919050565b6000806000806080858703121561212f578384fd5b8435935061213f60208601611ff0565b925061214d60408601611ff0565b915060608501356001600160401b0381168114612168578182fd5b939692955090935050565b60008060408385031215612185578182fd5b50508035926020909101359150565b60008151808452815b818110156121b95760208185018101518683018201520161219d565b818111156121ca5782602083870101525b50601f01601f19169290920160200192915050565b6001600160a01b038916815261ffff888116602083015287166040820152600086810b606083015285810b608083015261010060a0830181905261222583820187612194565b9150506001600160401b0380851660c084015280841660e0840152509998505050505050505050565b6040815260006122616040830185612194565b90508260208301529392505050565b602080825260169082015275165bdd481b5d5cdd081bdddb881d1a19481859d95b9d60521b604082015260600190565b8981526001600160a01b038916602082015261ffff888116604083015287166060820152600086810b608083015285810b60a083015261012060c083018190526122ec83820187612194565b9150506001600160401b0380851660e0840152808416610100840152509a9950505050505050505050565b8681526001600160a01b038616602082015261ffff85811660408301528416606082015260c06080820181905260009061235390830185612194565b90506001600160401b03831660a0830152979650505050505050565b60008219821115612382576123826124eb565b500190565b60008261239657612396612501565b500490565b600061ffff808316818516818304811182151516156123bc576123bc6124eb565b02949350505050565b60008160001904831182151516156123df576123df6124eb565b500290565b6000828210156123f6576123f66124eb565b500390565b60006001600160401b038381169083168181101561241b5761241b6124eb565b039392505050565b600081612432576124326124eb565b506000190190565b600181811c9082168061244e57607f821691505b60208210811415611c8657634e487b7160e01b600052602260045260246000fd5b600061ffff80831681811415612487576124876124eb565b6001019392505050565b60006000198214156124a5576124a56124eb565b5060010190565b600061ffff808416806124c1576124c1612501565b92169190910692915050565b600081810b607f198114156124e4576124e46124eb565b9003919050565b634e487b7160e01b600052601160045260246000fd5b634e487b7160e01b600052601260045260246000fdfea26469706673582212204afa74d1ddefe99e81f803f38061dff1cf3469da26d4929be1fb62f3f731b80464736f6c63430008040033",
  "linkReferences": {},
  "deployedLinkReferences": {}
}