{
  "_format": "hh-sol-artifact-1",
  "contractName": "Level1",
  "sourceName": "contracts/Level1.sol",
  "abi": [
    {
      "inputs": [],
      "stateMutability": "payable",
      "type": "constructor"
    },
    {
      "anonymous": false,
      "inputs": [
        {
          "indexed": false,
          "internalType": "uint256",
          "name": "id",
          "type": "uint256"
        },
        {
          "indexed": false,
          "internalType": "address",
          "name": "owner",
          "type": "address"
        },
        {
          "indexed": false,
          "internalType": "uint16",
          "name": "x",
          "type": "uint16"
        },
        {
          "indexed": false,
          "internalType": "uint16",
          "name": "y",
          "type": "uint16"
        },
        {
          "indexed": false,
          "internalType": "int8",
          "name": "dx",
          "type": "int8"
        },
        {
          "indexed": false,
          "internalType": "int8",
          "name": "dy",
          "type": "int8"
        },
        {
          "indexed": false,
          "internalType": "string",
          "name": "emoji",
          "type": "string"
        },
        {
          "indexed": false,
          "internalType": "uint64",
          "name": "stopAfter",
          "type": "uint64"
        },
        {
          "indexed": false,
          "internalType": "uint64",
          "name": "startTime",
          "type": "uint64"
        }
      ],
      "name": "AgentRender",
      "type": "event"
    },
    {
      "anonymous": false,
      "inputs": [
        {
          "indexed": true,
          "internalType": "address",
          "name": "owner",
          "type": "address"
        },
        {
          "indexed": true,
          "internalType": "address",
          "name": "spender",
          "type": "address"
        },
        {
          "indexed": false,
          "internalType": "uint256",
          "name": "value",
          "type": "uint256"
        }
      ],
      "name": "Approval",
      "type": "event"
    },
    {
      "anonymous": false,
      "inputs": [
        {
          "indexed": true,
          "internalType": "address",
          "name": "previousOwner",
          "type": "address"
        },
        {
          "indexed": true,
          "internalType": "address",
          "name": "newOwner",
          "type": "address"
        }
      ],
      "name": "OwnershipTransferred",
      "type": "event"
    },
    {
      "anonymous": false,
      "inputs": [
        {
          "indexed": false,
          "internalType": "uint256",
          "name": "id",
          "type": "uint256"
        },
        {
          "indexed": false,
          "internalType": "address",
          "name": "owner",
          "type": "address"
        },
        {
          "indexed": false,
          "internalType": "uint16",
          "name": "x",
          "type": "uint16"
        },
        {
          "indexed": false,
          "internalType": "uint16",
          "name": "y",
          "type": "uint16"
        },
        {
          "indexed": false,
          "internalType": "string",
          "name": "emoji",
          "type": "string"
        },
        {
          "indexed": false,
          "internalType": "uint64",
          "name": "startTime",
          "type": "uint64"
        }
      ],
      "name": "StructureRender",
      "type": "event"
    },
    {
      "anonymous": false,
      "inputs": [
        {
          "indexed": true,
          "internalType": "address",
          "name": "from",
          "type": "address"
        },
        {
          "indexed": true,
          "internalType": "address",
          "name": "to",
          "type": "address"
        },
        {
          "indexed": false,
          "internalType": "uint256",
          "name": "value",
          "type": "uint256"
        }
      ],
      "name": "Transfer",
      "type": "event"
    },
    {
      "stateMutability": "payable",
      "type": "fallback"
    },
    {
      "inputs": [
        {
          "internalType": "uint256",
          "name": "agentId",
          "type": "uint256"
        },
        {
          "internalType": "uint256",
          "name": "structureId",
          "type": "uint256"
        }
      ],
      "name": "agentDistanceFromStructure",
      "outputs": [
        {
          "internalType": "uint256",
          "name": "",
          "type": "uint256"
        }
      ],
      "stateMutability": "view",
      "type": "function"
    },
    {
      "inputs": [
        {
          "internalType": "uint256",
          "name": "agentId",
          "type": "uint256"
        }
      ],
      "name": "agentLocation",
      "outputs": [
        {
          "internalType": "uint16",
          "name": "",
          "type": "uint16"
        },
        {
          "internalType": "uint16",
          "name": "",
          "type": "uint16"
        }
      ],
      "stateMutability": "view",
      "type": "function"
    },
    {
      "inputs": [
        {
          "internalType": "uint256",
          "name": "",
          "type": "uint256"
        }
      ],
      "name": "agents",
      "outputs": [
        {
          "internalType": "address",
          "name": "owner",
          "type": "address"
        },
        {
          "internalType": "uint16",
          "name": "x",
          "type": "uint16"
        },
        {
          "internalType": "uint16",
          "name": "y",
          "type": "uint16"
        },
        {
          "internalType": "int8",
          "name": "dx",
          "type": "int8"
        },
        {
          "internalType": "int8",
          "name": "dy",
          "type": "int8"
        },
        {
          "internalType": "string",
          "name": "emoji",
          "type": "string"
        },
        {
          "internalType": "uint64",
          "name": "stopAfter",
          "type": "uint64"
        },
        {
          "internalType": "uint64",
          "name": "startTime",
          "type": "uint64"
        }
      ],
      "stateMutability": "view",
      "type": "function"
    },
    {
      "inputs": [
        {
          "internalType": "address",
          "name": "owner",
          "type": "address"
        },
        {
          "internalType": "address",
          "name": "spender",
          "type": "address"
        }
      ],
      "name": "allowance",
      "outputs": [
        {
          "internalType": "uint256",
          "name": "",
          "type": "uint256"
        }
      ],
      "stateMutability": "view",
      "type": "function"
    },
    {
      "inputs": [
        {
          "internalType": "address",
          "name": "spender",
          "type": "address"
        },
        {
          "internalType": "uint256",
          "name": "amount",
          "type": "uint256"
        }
      ],
      "name": "approve",
      "outputs": [
        {
          "internalType": "bool",
          "name": "",
          "type": "bool"
        }
      ],
      "stateMutability": "nonpayable",
      "type": "function"
    },
    {
      "inputs": [
        {
          "internalType": "address",
          "name": "account",
          "type": "address"
        }
      ],
      "name": "balanceOf",
      "outputs": [
        {
          "internalType": "uint256",
          "name": "",
          "type": "uint256"
        }
      ],
      "stateMutability": "view",
      "type": "function"
    },
    {
      "inputs": [
        {
          "internalType": "uint16",
          "name": "fromX",
          "type": "uint16"
        },
        {
          "internalType": "uint16",
          "name": "fromY",
          "type": "uint16"
        },
        {
          "internalType": "uint16",
          "name": "toX",
          "type": "uint16"
        },
        {
          "internalType": "uint16",
          "name": "toY",
          "type": "uint16"
        }
      ],
      "name": "calculateRoute",
      "outputs": [
        {
          "internalType": "int8",
          "name": "",
          "type": "int8"
        },
        {
          "internalType": "int8",
          "name": "",
          "type": "int8"
        },
        {
          "internalType": "uint64",
          "name": "",
          "type": "uint64"
        }
      ],
      "stateMutability": "view",
      "type": "function"
    },
    {
      "inputs": [],
      "name": "car",
      "outputs": [
        {
          "internalType": "uint256",
          "name": "",
          "type": "uint256"
        }
      ],
      "stateMutability": "payable",
      "type": "function"
    },
    {
      "inputs": [
        {
          "internalType": "uint256",
          "name": "",
          "type": "uint256"
        }
      ],
      "name": "cargoTruckBalanceOfWood",
      "outputs": [
        {
          "internalType": "uint256",
          "name": "",
          "type": "uint256"
        }
      ],
      "stateMutability": "view",
      "type": "function"
    },
    {
      "inputs": [
        {
          "internalType": "uint256",
          "name": "",
          "type": "uint256"
        }
      ],
      "name": "cars",
      "outputs": [
        {
          "internalType": "uint256",
          "name": "",
          "type": "uint256"
        }
      ],
      "stateMutability": "view",
      "type": "function"
    },
    {
      "inputs": [
        {
          "internalType": "uint256",
          "name": "agentId",
          "type": "uint256"
        },
        {
          "internalType": "uint256",
          "name": "structureId",
          "type": "uint256"
        }
      ],
      "name": "collect",
      "outputs": [],
      "stateMutability": "nonpayable",
      "type": "function"
    },
    {
      "inputs": [
        {
          "internalType": "uint256",
          "name": "agentId",
          "type": "uint256"
        },
        {
          "internalType": "uint256",
          "name": "structureId",
          "type": "uint256"
        }
      ],
      "name": "collectCargoTruck",
      "outputs": [],
      "stateMutability": "nonpayable",
      "type": "function"
    },
    {
      "inputs": [],
      "name": "decimals",
      "outputs": [
        {
          "internalType": "uint8",
          "name": "",
          "type": "uint8"
        }
      ],
      "stateMutability": "view",
      "type": "function"
    },
    {
      "inputs": [
        {
          "internalType": "address",
          "name": "spender",
          "type": "address"
        },
        {
          "internalType": "uint256",
          "name": "subtractedValue",
          "type": "uint256"
        }
      ],
      "name": "decreaseAllowance",
      "outputs": [
        {
          "internalType": "bool",
          "name": "",
          "type": "bool"
        }
      ],
      "stateMutability": "nonpayable",
      "type": "function"
    },
    {
      "inputs": [
        {
          "internalType": "uint16",
          "name": "x1",
          "type": "uint16"
        },
        {
          "internalType": "uint16",
          "name": "y1",
          "type": "uint16"
        },
        {
          "internalType": "uint16",
          "name": "x2",
          "type": "uint16"
        },
        {
          "internalType": "uint16",
          "name": "y2",
          "type": "uint16"
        }
      ],
      "name": "distance",
      "outputs": [
        {
          "internalType": "uint256",
          "name": "",
          "type": "uint256"
        }
      ],
      "stateMutability": "pure",
      "type": "function"
    },
    {
      "inputs": [
        {
          "internalType": "uint16",
          "name": "x",
          "type": "uint16"
        },
        {
          "internalType": "uint16",
          "name": "y",
          "type": "uint16"
        },
        {
          "internalType": "uint256",
          "name": "structureId",
          "type": "uint256"
        }
      ],
      "name": "distanceFromStructure",
      "outputs": [
        {
          "internalType": "uint256",
          "name": "",
          "type": "uint256"
        }
      ],
      "stateMutability": "view",
      "type": "function"
    },
    {
      "inputs": [],
      "name": "generate",
      "outputs": [],
      "stateMutability": "nonpayable",
      "type": "function"
    },
    {
      "inputs": [
        {
          "internalType": "uint256",
          "name": "agentId",
          "type": "uint256"
        },
        {
          "internalType": "uint256",
          "name": "structureId",
          "type": "uint256"
        }
      ],
      "name": "harvest",
      "outputs": [],
      "stateMutability": "nonpayable",
      "type": "function"
    },
    {
      "inputs": [
        {
          "internalType": "uint256",
          "name": "",
          "type": "uint256"
        }
      ],
      "name": "houseBalanceOfCargoTrucks",
      "outputs": [
        {
          "internalType": "uint256",
          "name": "",
          "type": "uint256"
        }
      ],
      "stateMutability": "view",
      "type": "function"
    },
    {
      "inputs": [
        {
          "internalType": "uint256",
          "name": "",
          "type": "uint256"
        }
      ],
      "name": "houseBalanceOfTrucks",
      "outputs": [
        {
          "internalType": "uint256",
          "name": "",
          "type": "uint256"
        }
      ],
      "stateMutability": "view",
      "type": "function"
    },
    {
      "inputs": [
        {
          "internalType": "uint256",
          "name": "",
          "type": "uint256"
        }
      ],
      "name": "houseBalanceOfWood",
      "outputs": [
        {
          "internalType": "uint256",
          "name": "",
          "type": "uint256"
        }
      ],
      "stateMutability": "view",
      "type": "function"
    },
    {
      "inputs": [
        {
          "internalType": "address",
          "name": "spender",
          "type": "address"
        },
        {
          "internalType": "uint256",
          "name": "addedValue",
          "type": "uint256"
        }
      ],
      "name": "increaseAllowance",
      "outputs": [
        {
          "internalType": "bool",
          "name": "",
          "type": "bool"
        }
      ],
      "stateMutability": "nonpayable",
      "type": "function"
    },
    {
      "inputs": [],
      "name": "name",
      "outputs": [
        {
          "internalType": "string",
          "name": "",
          "type": "string"
        }
      ],
      "stateMutability": "view",
      "type": "function"
    },
    {
      "inputs": [],
      "name": "owner",
      "outputs": [
        {
          "internalType": "address",
          "name": "",
          "type": "address"
        }
      ],
      "stateMutability": "view",
      "type": "function"
    },
    {
      "inputs": [],
      "name": "renounceOwnership",
      "outputs": [],
      "stateMutability": "nonpayable",
      "type": "function"
    },
    {
      "inputs": [
        {
          "internalType": "uint256",
          "name": "cargoTruckId",
          "type": "uint256"
        },
        {
          "internalType": "uint16",
          "name": "toX",
          "type": "uint16"
        },
        {
          "internalType": "uint16",
          "name": "toY",
          "type": "uint16"
        }
      ],
      "name": "returnCargoTruckTo",
      "outputs": [],
      "stateMutability": "payable",
      "type": "function"
    },
    {
      "inputs": [
        {
          "internalType": "uint256",
          "name": "truckId",
          "type": "uint256"
        },
        {
          "internalType": "uint16",
          "name": "toX",
          "type": "uint16"
        },
        {
          "internalType": "uint16",
          "name": "toY",
          "type": "uint16"
        }
      ],
      "name": "returnTruckTo",
      "outputs": [],
      "stateMutability": "payable",
      "type": "function"
    },
    {
      "inputs": [
        {
          "internalType": "uint256",
          "name": "agentId",
          "type": "uint256"
        },
        {
          "internalType": "uint256",
          "name": "structureId",
          "type": "uint256"
        }
      ],
      "name": "sellCargo",
      "outputs": [
        {
          "internalType": "uint256",
          "name": "",
          "type": "uint256"
        }
      ],
      "stateMutability": "nonpayable",
      "type": "function"
    },
    {
      "inputs": [
        {
          "internalType": "uint256",
          "name": "fromStructureId",
          "type": "uint256"
        },
        {
          "internalType": "uint16",
          "name": "toX",
          "type": "uint16"
        },
        {
          "internalType": "uint16",
          "name": "toY",
          "type": "uint16"
        }
      ],
      "name": "sendCargoTruckTo",
      "outputs": [
        {
          "internalType": "uint256",
          "name": "",
          "type": "uint256"
        }
      ],
      "stateMutability": "payable",
      "type": "function"
    },
    {
      "inputs": [
        {
          "internalType": "uint256",
          "name": "fromStructureId",
          "type": "uint256"
        },
        {
          "internalType": "uint16",
          "name": "toX",
          "type": "uint16"
        },
        {
          "internalType": "uint16",
          "name": "toY",
          "type": "uint16"
        }
      ],
      "name": "sendTruckTo",
      "outputs": [
        {
          "internalType": "uint256",
          "name": "",
          "type": "uint256"
        }
      ],
      "stateMutability": "payable",
      "type": "function"
    },
    {
      "inputs": [
        {
          "internalType": "uint16",
          "name": "x",
          "type": "uint16"
        },
        {
          "internalType": "uint16",
          "name": "y",
          "type": "uint16"
        }
      ],
      "name": "stake",
      "outputs": [
        {
          "internalType": "uint256",
          "name": "",
          "type": "uint256"
        }
      ],
      "stateMutability": "payable",
      "type": "function"
    },
    {
      "inputs": [
        {
          "internalType": "uint256",
          "name": "",
          "type": "uint256"
        }
      ],
      "name": "structures",
      "outputs": [
        {
          "internalType": "address",
          "name": "owner",
          "type": "address"
        },
        {
          "internalType": "uint16",
          "name": "x",
          "type": "uint16"
        },
        {
          "internalType": "uint16",
          "name": "y",
          "type": "uint16"
        },
        {
          "internalType": "bool",
          "name": "isMarket",
          "type": "bool"
        }
      ],
      "stateMutability": "view",
      "type": "function"
    },
    {
      "inputs": [],
      "name": "symbol",
      "outputs": [
        {
          "internalType": "string",
          "name": "",
          "type": "string"
        }
      ],
      "stateMutability": "view",
      "type": "function"
    },
    {
      "inputs": [],
      "name": "totalSupply",
      "outputs": [
        {
          "internalType": "uint256",
          "name": "",
          "type": "uint256"
        }
      ],
      "stateMutability": "view",
      "type": "function"
    },
    {
      "inputs": [
        {
          "internalType": "address",
          "name": "to",
          "type": "address"
        },
        {
          "internalType": "uint256",
          "name": "amount",
          "type": "uint256"
        }
      ],
      "name": "transfer",
      "outputs": [
        {
          "internalType": "bool",
          "name": "",
          "type": "bool"
        }
      ],
      "stateMutability": "nonpayable",
      "type": "function"
    },
    {
      "inputs": [
        {
          "internalType": "address",
          "name": "from",
          "type": "address"
        },
        {
          "internalType": "address",
          "name": "to",
          "type": "address"
        },
        {
          "internalType": "uint256",
          "name": "amount",
          "type": "uint256"
        }
      ],
      "name": "transferFrom",
      "outputs": [
        {
          "internalType": "bool",
          "name": "",
          "type": "bool"
        }
      ],
      "stateMutability": "nonpayable",
      "type": "function"
    },
    {
      "inputs": [
        {
          "internalType": "address",
          "name": "newOwner",
          "type": "address"
        }
      ],
      "name": "transferOwnership",
      "outputs": [],
      "stateMutability": "nonpayable",
      "type": "function"
    },
    {
      "inputs": [
        {
          "internalType": "uint256",
          "name": "",
          "type": "uint256"
        }
      ],
      "name": "treeBalanceOfWood",
      "outputs": [
        {
          "internalType": "uint256",
          "name": "",
          "type": "uint256"
        }
      ],
      "stateMutability": "view",
      "type": "function"
    },
    {
      "inputs": [
        {
          "internalType": "uint256",
          "name": "",
          "type": "uint256"
        }
      ],
      "name": "truckBalanceOfWood",
      "outputs": [
        {
          "internalType": "uint256",
          "name": "",
          "type": "uint256"
        }
      ],
      "stateMutability": "view",
      "type": "function"
    },
    {
      "stateMutability": "payable",
      "type": "receive"
    }
  ],
  "bytecode": "0x600460808181526311dbdb1960e21b60a05261010060405260c09182526311d3d31160e21b60e052906200003333620000c9565b81516200004890600690602085019062000289565b5080516200005e90600790602084019062000289565b505050600143620000709190620003bf565b60408051914060208301520160408051601f198184030181528282528051602091820120600e558282019091526004825263784fc7d560e11b90820152620000c090339061753090819062000119565b600f5562000453565b600080546001600160a01b038381166001600160a01b0319831681178455604051919092169283917f8be0079c531659141344cd1fd0a4f28419497f9722a3daafe3b4186f6b6457e09190a35050565b6001546040516000917f45ab2cd1af38dab76e39338fcff58666aae639cd495592e23eccc7c686be9f74916200015a9190889088908890889042906200034d565b60405180910390a160016040518060800160405280876001600160a01b031681526020018661ffff1681526020018561ffff168152602001604051602001620001ad9063784fc7d560e11b815260040190565b6040516020818303038152906040528051906020012085604051602001620001d691906200032f565b60408051601f1981840301815291815281516020928301209290921490925283546001818101865560009586529483902084519101805493850151928501516060909501511515600160c01b0260ff60c01b1961ffff968716600160b01b021662ffffff60b01b1996909416600160a01b026001600160b01b03199095166001600160a01b03909316929092179390931793909316179190911790558054620002809190620003bf565b95945050505050565b828054620002979062000416565b90600052602060002090601f016020900481019282620002bb576000855562000306565b82601f10620002d657805160ff191683800117855562000306565b8280016001018555821562000306579182015b8281111562000306578251825591602001919060010190620002e9565b506200031492915062000318565b5090565b5b8082111562000314576000815560010162000319565b6000825162000343818460208701620003e3565b9190910192915050565b86815260018060a01b0386166020820152600061ffff808716604084015280861660608401525060c0608083015283518060c0840152620003968160e0850160208801620003e3565b6001600160401b039390931660a083015250601f91909101601f19160160e00195945050505050565b600082821015620003de57634e487b7160e01b81526011600452602481fd5b500390565b60005b8381101562000400578181015183820152602001620003e6565b8381111562000410576000848401525b50505050565b600181811c908216806200042b57607f821691505b602082108114156200044d57634e487b7160e01b600052602260045260246000fd5b50919050565b61398680620004636000396000f3fe60806040526004361061021c5760003560e01c80638da5cb5b11610122578063cfa6f827116100a5578063edafceed1161006c578063edafceed14610706578063ee26fac314610741578063f2fde38b14610749578063f7746e3614610769578063f990c1651461052a57005b8063cfa6f82714610673578063dba41a8914610693578063dd62ed3e146106a6578063dfa9af28146106c6578063e4a4b7b1146106e657005b8063a457c2d7116100e9578063a457c2d7146105d3578063a54fcabb146105f3578063a5d392fe14610613578063a9059cbb14610640578063aa2887821461066057005b80638da5cb5b146105025780638ef770d01461052a578063944ac05b1461053d57806395d89b411461056a5780639e3cb4881461057f57005b80634aec63ef116101aa57806370d7d8161161017157806370d7d81614610460578063715018a6146104805780637bb80856146104955780638ab5e94f146104a85780638d3dcebc146104d557005b80634aec63ef1461037c57806350ad3f321461039c578063513856c8146103c95780636a9f649d146103fd57806370a082311461042a57005b8063261e1858116101ee578063261e1858146102bf5780632a1bbc34146102df578063313ce567146102f457806339509351146103105780634adf5ac31461033057005b806306fdde0314610225578063095ea7b31461025057806318160ddd1461028057806323b872dd1461029f57005b3661022357005b005b34801561023157600080fd5b5061023a610789565b60405161024791906135fc565b60405180910390f35b34801561025c57600080fd5b5061027061026b366004613401565b61081b565b6040519015158152602001610247565b34801561028c57600080fd5b506005545b604051908152602001610247565b3480156102ab57600080fd5b506102706102ba3660046133c6565b610833565b3480156102cb57600080fd5b506102236102da366004613524565b610857565b3480156102eb57600080fd5b50610223610aa8565b34801561030057600080fd5b5060405160128152602001610247565b34801561031c57600080fd5b5061027061032b366004613401565b610da1565b34801561033c57600080fd5b5061035061034b366004613453565b610dc3565b60408051600094850b81529290930b60208301526001600160401b031691810191909152606001610247565b34801561038857600080fd5b506102916103973660046134a6565b610f92565b3480156103a857600080fd5b506102916103b73660046134d1565b600b6020526000908152604090205481565b3480156103d557600080fd5b506103e96103e43660046134d1565b611027565b60405161024798979695949392919061358d565b34801561040957600080fd5b506102916104183660046134d1565b600c6020526000908152604090205481565b34801561043657600080fd5b50610291610445366004613373565b6001600160a01b031660009081526003602052604090205490565b34801561046c57600080fd5b5061029161047b366004613453565b61112f565b34801561048c57600080fd5b50610223611234565b6102916104a33660046134e9565b611248565b3480156104b457600080fd5b506102916104c33660046134d1565b600d6020526000908152604090205481565b3480156104e157600080fd5b506102916104f03660046134d1565b600a6020526000908152604090205481565b34801561050e57600080fd5b506000546040516001600160a01b039091168152602001610247565b6102236105383660046134e9565b6114e9565b34801561054957600080fd5b506102916105583660046134d1565b60096020526000908152604090205481565b34801561057657600080fd5b5061023a6116b1565b34801561058b57600080fd5b5061059f61059a3660046134d1565b6116c0565b604080516001600160a01b0395909516855261ffff9384166020860152919092169083015215156060820152608001610247565b3480156105df57600080fd5b506102706105ee366004613401565b61170e565b3480156105ff57600080fd5b5061029161060e366004613524565b611789565b34801561061f57600080fd5b5061029161062e3660046134d1565b60086020526000908152604090205481565b34801561064c57600080fd5b5061027061065b366004613401565b611a5f565b61029161066e36600461342a565b611a6d565b34801561067f57600080fd5b5061022361068e366004613524565b611ac2565b6102916106a13660046134e9565b611cd0565b3480156106b257600080fd5b506102916106c1366004613394565b611e79565b3480156106d257600080fd5b506102916106e1366004613524565b611ea4565b3480156106f257600080fd5b50610223610701366004613524565b611ec2565b34801561071257600080fd5b506107266107213660046134d1565b61225c565b6040805161ffff938416815292909116602083015201610247565b6102916124b5565b34801561075557600080fd5b50610223610764366004613373565b6124ef565b34801561077557600080fd5b506102916107843660046134d1565b612568565b60606006805461079890613873565b80601f01602080910402602001604051908101604052809291908181526020018280546107c490613873565b80156108115780601f106107e657610100808354040283529160200191610811565b820191906000526020600020905b8154815290600101906020018083116107f457829003601f168201915b5050505050905090565b600033610829818585612589565b5060019392505050565b6000336108418582856126ad565b61084c858585612721565b506001949350505050565b6101f46108648383611ea4565b1061088a5760405162461bcd60e51b815260040161088190613661565b60405180910390fd5b6000600283815481106108ad57634e487b7160e01b600052603260045260246000fd5b600091825260208083206040805161010081018252600390940290910180546001600160a01b038116855261ffff600160a01b8204811694860194909452600160b01b810490931691840191909152600160c01b8204840b840b840b6060840152600160c81b909104830b830b90920b608082015260018201805491929160a08401919061093a90613873565b80601f016020809104026020016040519081016040528092919081815260200182805461096690613873565b80156109b35780601f10610988576101008083540402835291602001916109b3565b820191906000526020600020905b81548152906001019060200180831161099657829003601f168201915b5050509183525050600291909101546001600160401b038082166020840152600160401b9091041660409091015280519091506001600160a01b03163314610a0d5760405162461bcd60e51b815260040161088190613631565b6000838152600a602052604090205415610a63576000838152600a6020908152604080832054858452600b9092528220805491929091610a4e90849061377c565b90915550506000838152600a60205260408120555b6000828152600d60205260408120805491610a7d836138ca565b9190505550610aa3836000806000806040518060200160405280600081525060006128cc565b505050565b610ab5600e54601e612a11565b600e819055610ac59060fa612a11565b600e556000805b60218161ffff161015610d9d576000610ae783600e54612afa565b600e91909155604080518082019091526004815263784fcd4d60e11b60208201529194509150600a610b1a6064846138e5565b61ffff1611610b445750604080518082019091526004815263f09f9a9760e01b6020820152610d50565b6014610b516064846138e5565b61ffff1611610b7b5750604080518082019091526004815263f09f9a9960e01b6020820152610d50565b6019610b886064846138e5565b61ffff1611610bb25750604080518082019091526004815263f09f9a9560e01b6020820152610d50565b6028610bbf6064846138e5565b61ffff1611610be95750604080518082019091526004815263784fcd4d60e11b6020820152610d50565b603c610bf66064846138e5565b61ffff1611610c205750604080518082019091526004815263f09f9a9b60e01b6020820152610d50565b6046610c2d6064846138e5565b61ffff1611610c5757506040805180820190915260048152633c27e6a360e21b6020820152610d50565b6050610c646064846138e5565b61ffff1611610c8e57506040805180820190915260048152630f09f9a960e41b6020820152610d50565b6055610c9b6064846138e5565b61ffff1611610cc55750604080518082019091526004815263f09f9a9160e01b6020820152610d50565b605a610cd26064846138e5565b61ffff1611610cfc5750604080518082019091526004815263f09f9a9360e01b6020820152610d50565b605f610d096064846138e5565b61ffff1611610d335750604080518082019091526004815263784fcd4960e11b6020820152610d50565b50604080518082019091526004815263f09f9bbb60e01b60208201525b6010610d7233610d62866107d06137a8565b6179186031196000876000612bee565b8154600181018355600092835260209092209091015550819050610d95816138a8565b915050610acc565b5050565b600033610829818585610db48383611e79565b610dbe919061377c565b612589565b6000806000806000808761ffff168a61ffff161115610e125760019250610df161ffff808a16908c166137f1565b9050618000811115610e0d57610e0a81620100006137f1565b90505b610e3f565b610e2361ffff808c16908a166137f1565b9050618000811115610e3f57610e3c81620100006137f1565b90505b60008761ffff168a61ffff161115610e875760019250610e6661ffff808a16908c166137f1565b9050618000811115610e8257610e7f81620100006137f1565b90505b610eb4565b610e9861ffff808c16908a166137f1565b9050618000811115610eb457610eb181620100006137f1565b90505b6000610edc610ec383806137d2565b610ecd85806137d2565b610ed7919061377c565b612dd0565b905060646000610eec8284613794565b90506000610efa8287613794565b90506000610f088387613794565b9050610f1382612e40565b610f1c81612e40565b8181610f2a60ff8316612e40565b610f368160ff16612e40565b8a15610f4857610f4582613906565b91505b8915610f5a57610f5781613906565b90505b610f6960008360000b12612e85565b610f7860008260000b12612e85565b909c509a5091985050505050505050509450945094915050565b60008060018381548110610fb657634e487b7160e01b600052603260045260246000fd5b60009182526020918290206040805160808101825291909201546001600160a01b038116825261ffff600160a01b82048116948301859052600160b01b82041692820183905260ff600160c01b9091041615156060820152925061101e91879187919061112f565b95945050505050565b6002818154811061103757600080fd5b60009182526020822060039091020180546001820180546001600160a01b038316955061ffff600160a01b8404811695600160b01b850490911694600160c01b8504820b94600160c81b900490910b92909161109290613873565b80601f01602080910402602001604051908101604052809291908181526020018280546110be90613873565b801561110b5780601f106110e05761010080835404028352916020019161110b565b820191906000526020600020905b8154815290600101906020018083116110ee57829003601f168201915b505050600290930154919250506001600160401b0380821691600160401b90041688565b6000808361ffff168661ffff1611156111745761115361ffff8086169088166137f1565b905061800081111561116f5761116c81620100006137f1565b90505b6111a1565b61118561ffff8088169086166137f1565b90506180008111156111a15761119e81620100006137f1565b90505b60008361ffff168661ffff1611156111e5576111c461ffff8086169088166137f1565b90506180008111156111e0576111dd81620100006137f1565b90505b611212565b6111f661ffff8088169086166137f1565b90506180008111156112125761120f81620100006137f1565b90505b61122961121f82806137d2565b610ecd84806137d2565b979650505050505050565b61123c612ec6565b6112466000612f20565b565b6000838152600b60205260408120546112a35760405162461bcd60e51b815260206004820152601760248201527f596f7520646f6e2774206861766520616e7920776f6f640000000000000000006044820152606401610881565b6000848152600d602052604090205461130a5760405162461bcd60e51b8152602060048201526024808201527f596f7520646f6e2774206861766520616e7920636172676f20747275636b73206044820152631b19599d60e21b6064820152608401610881565b6000848152600d6020526040902054611325906001906137f1565b6000858152600d6020526040812091909155600180548690811061135957634e487b7160e01b600052603260045260246000fd5b60009182526020918290206040805160808101825292909101546001600160a01b038116808452600160a01b820461ffff90811695850195909552600160b01b820490941691830191909152600160c01b900460ff1615156060820152915033146114065760405162461bcd60e51b815260206004820152601a60248201527f596f75206d757374206f776e20746865207374727563747572650000000000006044820152606401610881565b600080600061141f846020015185604001518989610dc3565b925092509250600061145a3386602001518760400151878760405180604001604052806004815260200163f09f9a9b60e01b81525088612bee565b60008a8152600b60205260409020549091506003106114a0576000898152600b602081815260408084208054868652600a8452918520919091558c8452919052556114dd565b6000898152600b60205260409020546114bb906003906137f1565b60008a8152600b6020908152604080832093909355838252600a905220600390555b98975050505050505050565b60006002848154811061150c57634e487b7160e01b600052603260045260246000fd5b600091825260208083206040805161010081018252600390940290910180546001600160a01b038116855261ffff600160a01b8204811694860194909452600160b01b810490931691840191909152600160c01b8204840b840b840b6060840152600160c81b909104830b830b90920b608082015260018201805491929160a08401919061159990613873565b80601f01602080910402602001604051908101604052809291908181526020018280546115c590613873565b80156116125780601f106115e757610100808354040283529160200191611612565b820191906000526020600020905b8154815290600101906020018083116115f557829003601f168201915b5050509183525050600291909101546001600160401b038082166020840152600160401b9091041660409091015280519091506001600160a01b0316331461166c5760405162461bcd60e51b815260040161088190613631565b6000806116788661225c565b90925090506000808061168d85858a8a610dc3565b9250925092506116a689868686868b60a00151876128cc565b505050505050505050565b60606007805461079890613873565b600181815481106116d057600080fd5b6000918252602090912001546001600160a01b038116915061ffff600160a01b8204811691600160b01b81049091169060ff600160c01b9091041684565b6000338161171c8286611e79565b90508381101561177c5760405162461bcd60e51b815260206004820152602560248201527f45524332303a2064656372656173656420616c6c6f77616e63652062656c6f77604482015264207a65726f60d81b6064820152608401610881565b61084c8286868403612589565b60006101f46117988484611ea4565b106117b55760405162461bcd60e51b815260040161088190613661565b6000600183815481106117d857634e487b7160e01b600052603260045260246000fd5b60009182526020918290206040805160808101825292909101546001600160a01b0381168352600160a01b810461ffff90811694840194909452600160b01b810490931690820152600160c01b90910460ff161515606082018190529091506118725760405162461bcd60e51b815260206004820152600c60248201526b1b9bdd0818481b585c9ad95d60a21b6044820152606401610881565b6000848152600a60205260409020546118bf5760405162461bcd60e51b815260206004820152600f60248201526e1b9bc81ddbdbd9081d1bc81cd95b1b608a1b6044820152606401610881565b6000600285815481106118e257634e487b7160e01b600052603260045260246000fd5b600091825260208083206040805161010081018252600390940290910180546001600160a01b038116855261ffff600160a01b8204811694860194909452600160b01b810490931691840191909152600160c01b8204840b840b840b6060840152600160c81b909104830b830b90920b608082015260018201805491929160a08401919061196f90613873565b80601f016020809104026020016040519081016040528092919081815260200182805461199b90613873565b80156119e85780601f106119bd576101008083540402835291602001916119e8565b820191906000526020600020905b8154815290600101906020018083116119cb57829003601f168201915b5050509183525050600291909101546001600160401b038082166020840152600160401b9091041660409091015280519091506001600160a01b03163314611a425760405162461bcd60e51b815260040161088190613631565b6000858152600a60205260408120805491905561101e3382612f70565b600033610829818585612721565b600080611a9a33858560405180604001604052806006815260200165e29bbaefb88f60d01b815250613031565b6000818152600c6020908152604080832060039055600d909152902060029055949350505050565b6101f4611acf8383611ea4565b10611aec5760405162461bcd60e51b815260040161088190613661565b600060028381548110611b0f57634e487b7160e01b600052603260045260246000fd5b600091825260208083206040805161010081018252600390940290910180546001600160a01b038116855261ffff600160a01b8204811694860194909452600160b01b810490931691840191909152600160c01b8204840b840b840b6060840152600160c81b909104830b830b90920b608082015260018201805491929160a084019190611b9c90613873565b80601f0160208091040260200160405190810160405280929190818152602001828054611bc890613873565b8015611c155780601f10611bea57610100808354040283529160200191611c15565b820191906000526020600020905b815481529060010190602001808311611bf857829003601f168201915b5050509183525050600291909101546001600160401b038082166020840152600160401b9091041660409091015280519091506001600160a01b03163314611c6f5760405162461bcd60e51b815260040161088190613631565b60008381526009602052604090205460011415611cb6576000838152600960209081526040808320839055848352600b9091528120805491611cb0836138ca565b91905055505b6000828152600c60205260408120805491610a7d836138ca565b6000838152600c6020526040812054611d2b5760405162461bcd60e51b815260206004820152601e60248201527f596f7520646f6e2774206861766520616e7920747275636b73206c65667400006044820152606401610881565b6000848152600c6020526040902054611d46906001906137f1565b6000858152600c60205260408120919091556001805486908110611d7a57634e487b7160e01b600052603260045260246000fd5b60009182526020918290206040805160808101825292909101546001600160a01b038116808452600160a01b820461ffff90811695850195909552600160b01b820490941691830191909152600160c01b900460ff161515606082015291503314611e275760405162461bcd60e51b815260206004820152601a60248201527f596f75206d757374206f776e20746865207374727563747572650000000000006044820152606401610881565b6000806000611e40846020015185604001518989610dc3565b9250925092506114dd3385602001518660400151868660405180604001604052806004815260200163f09f9bbb60e01b81525087612bee565b6001600160a01b03918216600090815260046020908152604080832093909416825291909152205490565b6000806000611eb28561225c565b909250905061101e828286610f92565b61012c611ecf8383611ea4565b10611eec5760405162461bcd60e51b815260040161088190613661565b600060028381548110611f0f57634e487b7160e01b600052603260045260246000fd5b600091825260208083206040805161010081018252600390940290910180546001600160a01b038116855261ffff600160a01b8204811694860194909452600160b01b810490931691840191909152600160c01b8204840b840b840b6060840152600160c81b909104830b830b90920b608082015260018201805491929160a084019190611f9c90613873565b80601f0160208091040260200160405190810160405280929190818152602001828054611fc890613873565b80156120155780601f10611fea57610100808354040283529160200191612015565b820191906000526020600020905b815481529060010190602001808311611ff857829003601f168201915b5050509183525050600291909101546001600160401b038082166020840152600160401b9091041660409091015280519091506001600160a01b0316331461206f5760405162461bcd60e51b815260040161088190613631565b6000828152600860205260409020546120c25760405162461bcd60e51b81526020600482015260156024820152741d1c9959481a185cc81b9bc81ddbdbd9081b19599d605a1b6044820152606401610881565b60008281526008602052604081208054916120dc8361385c565b919050555060006001838154811061210457634e487b7160e01b600052603260045260246000fd5b600091825260208083206040805160808101825291909301546001600160a01b038116825261ffff600160a01b8204811683850152600160b01b8204168285015260ff600160c01b90910416151560608201528784526009909152912054909150156121b25760405162461bcd60e51b815260206004820152601760248201527f747275636b20616c72656164792068617320636172676f0000000000000000006044820152606401610881565b600160096000868152602001908152602001600020819055506121e884826020015183604001516000808760a0015160006128cc565b600083815260086020526040902054612217576122178360008060405180602001604052806000815250613191565b6122566040518060400160405280601b81526020017f68617276657374656420776f6f642066726f6d207472656520257300000000008152508461324f565b50505050565b60008060006002848154811061228257634e487b7160e01b600052603260045260246000fd5b600091825260208083206040805161010081018252600390940290910180546001600160a01b038116855261ffff600160a01b8204811694860194909452600160b01b810490931691840191909152600160c01b8204840b840b840b6060840152600160c81b909104830b830b90920b608082015260018201805491929160a08401919061230f90613873565b80601f016020809104026020016040519081016040528092919081815260200182805461233b90613873565b80156123885780601f1061235d57610100808354040283529160200191612388565b820191906000526020600020905b81548152906001019060200180831161236b57829003601f168201915b5050509183525050600291909101546001600160401b038082166020840152600160401b9091041660409091015260e08101519091506000906123cb9042613808565b905060008260c001516001600160401b03161180156123ff57508160c001516001600160401b0316816001600160401b0316115b1561240b575060c08101515b60208201516060830151600090810b131561243757606083015160ff16820261ffff919091160161245a565b6000836060015161244790613906565b60ff16830261ffff929092169190910390505b60408301516080840151600090810b131561248657608084015160ff16830261ffff91909116016124a9565b6000846080015161249690613906565b60ff16840261ffff929092169190910390505b90969095509350505050565b60006124ea3361ffff617530607e19600060405180604001604052806004815260200163f09f9a9760e01b8152506000612bee565b905090565b6124f7612ec6565b6001600160a01b03811661255c5760405162461bcd60e51b815260206004820152602660248201527f4f776e61626c653a206e6577206f776e657220697320746865207a65726f206160448201526564647265737360d01b6064820152608401610881565b61256581612f20565b50565b6010818154811061257857600080fd5b600091825260209091200154905081565b6001600160a01b0383166125eb5760405162461bcd60e51b8152602060048201526024808201527f45524332303a20617070726f76652066726f6d20746865207a65726f206164646044820152637265737360e01b6064820152608401610881565b6001600160a01b03821661264c5760405162461bcd60e51b815260206004820152602260248201527f45524332303a20617070726f766520746f20746865207a65726f206164647265604482015261737360f01b6064820152608401610881565b6001600160a01b0383811660008181526004602090815260408083209487168084529482529182902085905590518481527f8c5be1e5ebec7d5bd14f71427d1e84f3dd0314c0f7b2291e5b200ac8c7c3b925910160405180910390a3505050565b60006126b98484611e79565b9050600019811461225657818110156127145760405162461bcd60e51b815260206004820152601d60248201527f45524332303a20696e73756666696369656e7420616c6c6f77616e63650000006044820152606401610881565b6122568484848403612589565b6001600160a01b0383166127855760405162461bcd60e51b815260206004820152602560248201527f45524332303a207472616e736665722066726f6d20746865207a65726f206164604482015264647265737360d81b6064820152608401610881565b6001600160a01b0382166127e75760405162461bcd60e51b815260206004820152602360248201527f45524332303a207472616e7366657220746f20746865207a65726f206164647260448201526265737360e81b6064820152608401610881565b6001600160a01b0383166000908152600360205260409020548181101561285f5760405162461bcd60e51b815260206004820152602660248201527f45524332303a207472616e7366657220616d6f756e7420657863656564732062604482015265616c616e636560d01b6064820152608401610881565b6001600160a01b0380851660008181526003602052604080822086860390559286168082529083902080548601905591517fddf252ad1be2c89b69c2b068fc378daa952ba7f163c4a11628f55a4df523b3ef906128bf9086815260200190565b60405180910390a3612256565b6000600288815481106128ef57634e487b7160e01b600052603260045260246000fd5b600091825260208083206003909202909101805487840b60ff908116600160c81b0260ff60c81b19958b900b909116600160c01b029490941661ffff60c01b1961ffff8c8116600160b01b0261ffff60b01b19918f16600160a01b029190911663ffffffff60a01b199094169390931792909217919091161792909217825584519192506129849160018401918601906132b1565b50600281018054426001600160401b03818116600160401b026001600160801b0319909316908616179190911790915581546040517f4076b51b816c36ff024203b677416b58126ebb77bb9f601ae660baf0d9cae774926129ff928c926001600160a01b03909116918c918c918c918c918c918c9190613687565b60405180910390a15050505050505050565b60008083815b848111612acd576000612a2a8484612afa565b919550935090506000612a3d8585612afa565b8093508196508297505050506000612a7333848460405180604001604052806004815260200163784fc65960e11b815250613031565b90506000612a818787612afa565b91985096509050612a936003826138e5565b612a9e906001613756565b60009283526008602052604090922061ffff90921690915550829150612ac59050816138ca565b915050612a17565b50604080516020810183905201604051602081830303815290604052805190602001209250505092915050565b600080808060088587612b0c816138ca565b985060208110612b2c57634e487b7160e01b600052603260045260246000fd5b1a60f81b6001600160f81b031916901c905060208610612b6f57604080516020810187905201604051602081830303815290604052805190602001209450600095505b60008587612b7c816138ca565b985060208110612b9c57634e487b7160e01b600052603260045260246000fd5b1a60f81b6001600160f81b0319168217905060208710612bdf57604080516020810188905201604051602081830303815290604052805190602001209550600096505b9596949560f01c949350505050565b6002546040516000917f4076b51b816c36ff024203b677416b58126ebb77bb9f601ae660baf0d9cae77491612c3391908b908b908b908b908b908b908b904290613687565b60405180910390a160408051610100810182526001600160a01b03808b16825261ffff808b1660208085019182528b831695850195865260008b810b606087019081528b820b6080880190815260a088018c81526001600160401b03808d1660c08b0152421660e08a015260028054600181018255908552895160039091027f405787fa12a823e0f2b7631cc41b3ba8828b3321ca811111fa75cd3aa3bb5ace8101805498519c5195519451870b60ff908116600160c81b0260ff60c81b199690980b16600160c01b0260ff60c01b19968b16600160b01b029690961662ffffff60b01b199d909a16600160a01b026001600160b01b031990991692909a169190911796909617999099169590951717939093169290921783559351805193949293612d86937f405787fa12a823e0f2b7631cc41b3ba8828b3321ca811111fa75cd3aa3bb5acf019291909101906132b1565b5060c08201516002918201805460e0909401516001600160401b03908116600160401b026001600160801b031990951692169190911792909217909155546114dd906001906137f1565b60006003821115612e315750806000612dea600283613794565b612df590600161377c565b90505b81811015612e2b57905080600281612e108186613794565b612e1a919061377c565b612e249190613794565b9050612df8565b50919050565b8115612e3b575060015b919050565b61256581604051602401612e5691815260200190565b60408051601f198184030181529190526020810180516001600160e01b031663f82c50f160e01b179052613290565b60405181151560248201526125659060440160408051601f198184030181529190526020810180516001600160e01b03166332458eed60e01b179052613290565b6000546001600160a01b031633146112465760405162461bcd60e51b815260206004820181905260248201527f4f776e61626c653a2063616c6c6572206973206e6f7420746865206f776e65726044820152606401610881565b600080546001600160a01b038381166001600160a01b0319831681178455604051919092169283917f8be0079c531659141344cd1fd0a4f28419497f9722a3daafe3b4186f6b6457e09190a35050565b6001600160a01b038216612fc65760405162461bcd60e51b815260206004820152601f60248201527f45524332303a206d696e7420746f20746865207a65726f2061646472657373006044820152606401610881565b8060056000828254612fd8919061377c565b90915550506001600160a01b0382166000818152600360209081526040808320805486019055518481527fddf252ad1be2c89b69c2b068fc378daa952ba7f163c4a11628f55a4df523b3ef910160405180910390a35050565b6001546040516000917f45ab2cd1af38dab76e39338fcff58666aae639cd495592e23eccc7c686be9f74916130709190889088908890889042906136fe565b60405180910390a160016040518060800160405280876001600160a01b031681526020018661ffff1681526020018561ffff1681526020016040516020016130c29063784fc7d560e11b815260040190565b60405160208183030381529060405280519060200120856040516020016130e99190613571565b60408051601f1981840301815291815281516020928301209290921490925283546001818101865560009586529483902084519101805493850151928501516060909501511515600160c01b0260ff60c01b1961ffff968716600160b01b021662ffffff60b01b1996909416600160a01b026001600160b01b03199095166001600160a01b0390931692909217939093179390931617919091179055805461101e91906137f1565b6000600185815481106131b457634e487b7160e01b600052603260045260246000fd5b6000918252602090912001805463ffffffff60a01b1916600160a01b61ffff878116820261ffff60b01b191692909217600160b01b8784168102919091178085556040519495507f45ab2cd1af38dab76e39338fcff58666aae639cd495592e23eccc7c686be9f7494613240948b946001600160a01b03841694908404821693041690889042906136fe565b60405180910390a15050505050565b610d9d828260405160240161326592919061360f565b60408051601f198184030181529190526020810180516001600160e01b0316632d839cb360e21b1790525b80516a636f6e736f6c652e6c6f67602083016000808483855afa5050505050565b8280546132bd90613873565b90600052602060002090601f0160209004810192826132df5760008555613325565b82601f106132f857805160ff1916838001178555613325565b82800160010185558215613325579182015b8281111561332557825182559160200191906001019061330a565b50613331929150613335565b5090565b5b808211156133315760008155600101613336565b80356001600160a01b0381168114612e3b57600080fd5b803561ffff81168114612e3b57600080fd5b600060208284031215613384578081fd5b61338d8261334a565b9392505050565b600080604083850312156133a6578081fd5b6133af8361334a565b91506133bd6020840161334a565b90509250929050565b6000806000606084860312156133da578081fd5b6133e38461334a565b92506133f16020850161334a565b9150604084013590509250925092565b60008060408385031215613413578182fd5b61341c8361334a565b946020939093013593505050565b6000806040838503121561343c578182fd5b61344583613361565b91506133bd60208401613361565b60008060008060808587031215613468578081fd5b61347185613361565b935061347f60208601613361565b925061348d60408601613361565b915061349b60608601613361565b905092959194509250565b6000806000606084860312156134ba578283fd5b6134c384613361565b92506133f160208501613361565b6000602082840312156134e2578081fd5b5035919050565b6000806000606084860312156134fd578283fd5b8335925061350d60208501613361565b915061351b60408501613361565b90509250925092565b60008060408385031215613536578182fd5b50508035926020909101359150565b6000815180845261355d816020860160208601613830565b601f01601f19169290920160200192915050565b60008251613583818460208701613830565b9190910192915050565b6001600160a01b038916815261ffff888116602083015287166040820152600086810b606083015285810b608083015261010060a083018190526135d383820187613545565b9150506001600160401b0380851660c084015280841660e0840152509998505050505050505050565b60208152600061338d6020830184613545565b6040815260006136226040830185613545565b90508260208301529392505050565b602080825260169082015275165bdd481b5d5cdd081bdddb881d1a19481859d95b9d60521b604082015260600190565b6020808252600c908201526b746f6f20666172206177617960a01b604082015260600190565b8981526001600160a01b038916602082015261ffff888116604083015287166060820152600086810b608083015285810b60a083015261012060c083018190526136d383820187613545565b9150506001600160401b0380851660e0840152808416610100840152509a9950505050505050505050565b8681526001600160a01b038616602082015261ffff85811660408301528416606082015260c06080820181905260009061373a90830185613545565b90506001600160401b03831660a0830152979650505050505050565b600061ffff80831681851680830382111561377357613773613924565b01949350505050565b6000821982111561378f5761378f613924565b500190565b6000826137a3576137a361393a565b500490565b600061ffff808316818516818304811182151516156137c9576137c9613924565b02949350505050565b60008160001904831182151516156137ec576137ec613924565b500290565b60008282101561380357613803613924565b500390565b60006001600160401b038381169083168181101561382857613828613924565b039392505050565b60005b8381101561384b578181015183820152602001613833565b838111156122565750506000910152565b60008161386b5761386b613924565b506000190190565b600181811c9082168061388757607f821691505b60208210811415612e2b57634e487b7160e01b600052602260045260246000fd5b600061ffff808316818114156138c0576138c0613924565b6001019392505050565b60006000198214156138de576138de613924565b5060010190565b600061ffff808416806138fa576138fa61393a565b92169190910692915050565b600081810b607f1981141561391d5761391d613924565b9003919050565b634e487b7160e01b600052601160045260246000fd5b634e487b7160e01b600052601260045260246000fdfea2646970667358221220f490eb97ab4878c75eb9ec6c287eccba4311c286a69e39496db326a6a602966a64736f6c63430008040033",
  "linkReferences": {},
  "deployedLinkReferences": {}
}