{
  "address": "0x1C905Df4D353a99359d4b1CDb8C599cE22fEfa8D",
  "abi": [
    {
      "inputs": [],
      "stateMutability": "nonpayable",
      "type": "constructor"
    },
    {
      "anonymous": false,
      "inputs": [
        {
          "indexed": true,
          "internalType": "address",
          "name": "owner",
          "type": "address"
        },
        {
          "indexed": true,
          "internalType": "address",
          "name": "approved",
          "type": "address"
        },
        {
          "indexed": true,
          "internalType": "uint256",
          "name": "tokenId",
          "type": "uint256"
        }
      ],
      "name": "Approval",
      "type": "event"
    },
    {
      "anonymous": false,
      "inputs": [
        {
          "indexed": true,
          "internalType": "address",
          "name": "owner",
          "type": "address"
        },
        {
          "indexed": true,
          "internalType": "address",
          "name": "operator",
          "type": "address"
        },
        {
          "indexed": false,
          "internalType": "bool",
          "name": "approved",
          "type": "bool"
        }
      ],
      "name": "ApprovalForAll",
      "type": "event"
    },
    {
      "anonymous": false,
      "inputs": [
        {
          "indexed": true,
          "internalType": "address",
          "name": "previousOwner",
          "type": "address"
        },
        {
          "indexed": true,
          "internalType": "address",
          "name": "newOwner",
          "type": "address"
        }
      ],
      "name": "OwnershipTransferred",
      "type": "event"
    },
    {
      "anonymous": false,
      "inputs": [
        {
          "indexed": true,
          "internalType": "address",
          "name": "from",
          "type": "address"
        },
        {
          "indexed": true,
          "internalType": "address",
          "name": "to",
          "type": "address"
        },
        {
          "indexed": true,
          "internalType": "uint256",
          "name": "tokenId",
          "type": "uint256"
        }
      ],
      "name": "Transfer",
      "type": "event"
    },
    {
      "inputs": [],
      "name": "_tokenIds",
      "outputs": [
        {
          "internalType": "uint256",
          "name": "",
          "type": "uint256"
        }
      ],
      "stateMutability": "view",
      "type": "function"
    },
    {
      "inputs": [
        {
          "internalType": "address",
          "name": "to",
          "type": "address"
        },
        {
          "internalType": "uint256",
          "name": "tokenId",
          "type": "uint256"
        }
      ],
      "name": "approve",
      "outputs": [],
      "stateMutability": "nonpayable",
      "type": "function"
    },
    {
      "inputs": [
        {
          "internalType": "address",
          "name": "owner",
          "type": "address"
        }
      ],
      "name": "balanceOf",
      "outputs": [
        {
          "internalType": "uint256",
          "name": "",
          "type": "uint256"
        }
      ],
      "stateMutability": "view",
      "type": "function"
    },
    {
      "inputs": [
        {
          "internalType": "uint256",
          "name": "",
          "type": "uint256"
        },
        {
          "internalType": "uint256",
          "name": "",
          "type": "uint256"
        }
      ],
      "name": "componentByTankId",
      "outputs": [
        {
          "internalType": "uint256",
          "name": "blockAdded",
          "type": "uint256"
        },
        {
          "internalType": "uint256",
          "name": "id",
          "type": "uint256"
        },
        {
          "internalType": "address",
          "name": "addr",
          "type": "address"
        },
        {
          "internalType": "uint8",
          "name": "x",
          "type": "uint8"
        },
        {
          "internalType": "uint8",
          "name": "y",
          "type": "uint8"
        },
        {
          "internalType": "uint8",
          "name": "scale",
          "type": "uint8"
        },
        {
          "internalType": "int8",
          "name": "dx",
          "type": "int8"
        },
        {
          "internalType": "int8",
          "name": "dy",
          "type": "int8"
        }
      ],
      "stateMutability": "view",
      "type": "function"
    },
    {
      "inputs": [
        {
          "internalType": "uint256",
          "name": "tokenId",
          "type": "uint256"
        }
      ],
      "name": "getApproved",
      "outputs": [
        {
          "internalType": "address",
          "name": "",
          "type": "address"
        }
      ],
      "stateMutability": "view",
      "type": "function"
    },
    {
      "inputs": [
        {
          "internalType": "address",
          "name": "owner",
          "type": "address"
        },
        {
          "internalType": "address",
          "name": "operator",
          "type": "address"
        }
      ],
      "name": "isApprovedForAll",
      "outputs": [
        {
          "internalType": "bool",
          "name": "",
          "type": "bool"
        }
      ],
      "stateMutability": "view",
      "type": "function"
    },
    {
      "inputs": [],
      "name": "mintItem",
      "outputs": [
        {
          "internalType": "uint256",
          "name": "",
          "type": "uint256"
        }
      ],
      "stateMutability": "payable",
      "type": "function"
    },
    {
      "inputs": [],
      "name": "name",
      "outputs": [
        {
          "internalType": "string",
          "name": "",
          "type": "string"
        }
      ],
      "stateMutability": "view",
      "type": "function"
    },
    {
      "inputs": [],
      "name": "owner",
      "outputs": [
        {
          "internalType": "address",
          "name": "",
          "type": "address"
        }
      ],
      "stateMutability": "view",
      "type": "function"
    },
    {
      "inputs": [
        {
          "internalType": "uint256",
          "name": "tokenId",
          "type": "uint256"
        }
      ],
      "name": "ownerOf",
      "outputs": [
        {
          "internalType": "address",
          "name": "",
          "type": "address"
        }
      ],
      "stateMutability": "view",
      "type": "function"
    },
    {
      "inputs": [],
      "name": "price",
      "outputs": [
        {
          "internalType": "uint256",
          "name": "",
          "type": "uint256"
        }
      ],
      "stateMutability": "view",
      "type": "function"
    },
    {
      "inputs": [
        {
          "internalType": "uint256",
          "name": "id",
          "type": "uint256"
        }
      ],
      "name": "renderTokenById",
      "outputs": [
        {
          "internalType": "string",
          "name": "",
          "type": "string"
        }
      ],
      "stateMutability": "view",
      "type": "function"
    },
    {
      "inputs": [],
      "name": "renounceOwnership",
      "outputs": [],
      "stateMutability": "nonpayable",
      "type": "function"
    },
    {
      "inputs": [
        {
          "internalType": "uint256",
          "name": "_id",
          "type": "uint256"
        }
      ],
      "name": "returnAll",
      "outputs": [],
      "stateMutability": "nonpayable",
      "type": "function"
    },
    {
      "inputs": [
        {
          "internalType": "address",
          "name": "from",
          "type": "address"
        },
        {
          "internalType": "address",
          "name": "to",
          "type": "address"
        },
        {
          "internalType": "uint256",
          "name": "tokenId",
          "type": "uint256"
        }
      ],
      "name": "safeTransferFrom",
      "outputs": [],
      "stateMutability": "nonpayable",
      "type": "function"
    },
    {
      "inputs": [
        {
          "internalType": "address",
          "name": "from",
          "type": "address"
        },
        {
          "internalType": "address",
          "name": "to",
          "type": "address"
        },
        {
          "internalType": "uint256",
          "name": "tokenId",
          "type": "uint256"
        },
        {
          "internalType": "bytes",
          "name": "_data",
          "type": "bytes"
        }
      ],
      "name": "safeTransferFrom",
      "outputs": [],
      "stateMutability": "nonpayable",
      "type": "function"
    },
    {
      "inputs": [],
      "name": "senEthToOwner",
      "outputs": [],
      "stateMutability": "nonpayable",
      "type": "function"
    },
    {
      "inputs": [
        {
          "internalType": "address",
          "name": "operator",
          "type": "address"
        },
        {
          "internalType": "bool",
          "name": "approved",
          "type": "bool"
        }
      ],
      "name": "setApprovalForAll",
      "outputs": [],
      "stateMutability": "nonpayable",
      "type": "function"
    },
    {
      "inputs": [
        {
          "internalType": "bytes4",
          "name": "interfaceId",
          "type": "bytes4"
        }
      ],
      "name": "supportsInterface",
      "outputs": [
        {
          "internalType": "bool",
          "name": "",
          "type": "bool"
        }
      ],
      "stateMutability": "view",
      "type": "function"
    },
    {
      "inputs": [],
      "name": "symbol",
      "outputs": [
        {
          "internalType": "string",
          "name": "",
          "type": "string"
        }
      ],
      "stateMutability": "view",
      "type": "function"
    },
    {
      "inputs": [
        {
          "internalType": "uint256",
          "name": "index",
          "type": "uint256"
        }
      ],
      "name": "tokenByIndex",
      "outputs": [
        {
          "internalType": "uint256",
          "name": "",
          "type": "uint256"
        }
      ],
      "stateMutability": "view",
      "type": "function"
    },
    {
      "inputs": [
        {
          "internalType": "address",
          "name": "owner",
          "type": "address"
        },
        {
          "internalType": "uint256",
          "name": "index",
          "type": "uint256"
        }
      ],
      "name": "tokenOfOwnerByIndex",
      "outputs": [
        {
          "internalType": "uint256",
          "name": "",
          "type": "uint256"
        }
      ],
      "stateMutability": "view",
      "type": "function"
    },
    {
      "inputs": [
        {
          "internalType": "uint256",
          "name": "id",
          "type": "uint256"
        }
      ],
      "name": "tokenURI",
      "outputs": [
        {
          "internalType": "string",
          "name": "",
          "type": "string"
        }
      ],
      "stateMutability": "view",
      "type": "function"
    },
    {
      "inputs": [],
      "name": "totalSupply",
      "outputs": [
        {
          "internalType": "uint256",
          "name": "",
          "type": "uint256"
        }
      ],
      "stateMutability": "view",
      "type": "function"
    },
    {
      "inputs": [
        {
          "internalType": "address",
          "name": "from",
          "type": "address"
        },
        {
          "internalType": "address",
          "name": "to",
          "type": "address"
        },
        {
          "internalType": "uint256",
          "name": "tokenId",
          "type": "uint256"
        }
      ],
      "name": "transferFrom",
      "outputs": [],
      "stateMutability": "nonpayable",
      "type": "function"
    },
    {
      "inputs": [
        {
          "internalType": "address",
          "name": "nftAddr",
          "type": "address"
        },
        {
          "internalType": "uint256",
          "name": "tokenId",
          "type": "uint256"
        },
        {
          "internalType": "uint256",
          "name": "tankId",
          "type": "uint256"
        },
        {
          "internalType": "uint8",
          "name": "scale",
          "type": "uint8"
        }
      ],
      "name": "transferNFT",
      "outputs": [],
      "stateMutability": "nonpayable",
      "type": "function"
    },
    {
      "inputs": [
        {
          "internalType": "address",
          "name": "newOwner",
          "type": "address"
        }
      ],
      "name": "transferOwnership",
      "outputs": [],
      "stateMutability": "nonpayable",
      "type": "function"
    }
  ],
  "transactionHash": "0x79789d7c663e90407eeb37c26ac4e0e1c0e58364e64459315b9b0935a0e256ea",
  "args": [],
  "solcInputHash": "40d10d5b95c33267bf6302479ed094a3",
  "bytecode": "0x60806040523480156200001157600080fd5b506040518060400160405280600481526020017f54616e6b000000000000000000000000000000000000000000000000000000008152506040518060400160405280600481526020017f54414e4b00000000000000000000000000000000000000000000000000000000815250816000908051906020019062000096929190620001ae565b508060019080519060200190620000af929190620001ae565b505050620000d2620000c6620000e060201b60201c565b620000e860201b60201c565b6001600b81905550620002c3565b600033905090565b6000600a60009054906101000a900473ffffffffffffffffffffffffffffffffffffffff16905081600a60006101000a81548173ffffffffffffffffffffffffffffffffffffffff021916908373ffffffffffffffffffffffffffffffffffffffff1602179055508173ffffffffffffffffffffffffffffffffffffffff168173ffffffffffffffffffffffffffffffffffffffff167f8be0079c531659141344cd1fd0a4f28419497f9722a3daafe3b4186f6b6457e060405160405180910390a35050565b828054620001bc906200025e565b90600052602060002090601f016020900481019282620001e057600085556200022c565b82601f10620001fb57805160ff19168380011785556200022c565b828001600101855582156200022c579182015b828111156200022b5782518255916020019190600101906200020e565b5b5090506200023b91906200023f565b5090565b5b808211156200025a57600081600090555060010162000240565b5090565b600060028204905060018216806200027757607f821691505b602082108114156200028e576200028d62000294565b5b50919050565b7f4e487b7100000000000000000000000000000000000000000000000000000000600052602260045260246000fd5b615db280620002d36000396000f3fe60806040526004361061019c5760003560e01c80638da5cb5b116100ec578063c87b56dd1161008a578063eb93406b11610064578063eb93406b146105fe578063f2fde38b1461061c578063fd1913fc14610645578063fe1855e51461065c5761019c565b8063c87b56dd1461055b578063e985e9c514610598578063eb784c6b146105d55761019c565b8063a22cb465116100c6578063a22cb465146104a1578063a2d6c6da146104ca578063aa46a40014610507578063b88d4fde146105325761019c565b80638da5cb5b1461042057806395d89b411461044b578063a035b1fe146104765761019c565b806323b872dd116101595780634f6ccce7116101335780634f6ccce7146103525780636352211e1461038f57806370a08231146103cc578063715018a6146104095761019c565b806323b872dd146102c35780632f745c59146102ec57806342842e0e146103295761019c565b806301ffc9a7146101a157806306fdde03146101de578063081812fc14610209578063095ea7b314610246578063115bdd801461026f57806318160ddd14610298575b600080fd5b3480156101ad57600080fd5b506101c860048036038101906101c39190613b37565b6106a0565b6040516101d59190614814565b60405180910390f35b3480156101ea57600080fd5b506101f361071a565b604051610200919061482f565b60405180910390f35b34801561021557600080fd5b50610230600480360381019061022b9190613bca565b6107ac565b60405161023d9190614776565b60405180910390f35b34801561025257600080fd5b5061026d60048036038101906102689190613a98565b610831565b005b34801561027b57600080fd5b5061029660048036038101906102919190613bca565b610949565b005b3480156102a457600080fd5b506102ad610c15565b6040516102ba9190614b91565b60405180910390f35b3480156102cf57600080fd5b506102ea60048036038101906102e59190613992565b610c22565b005b3480156102f857600080fd5b50610313600480360381019061030e9190613a98565b610c82565b6040516103209190614b91565b60405180910390f35b34801561033557600080fd5b50610350600480360381019061034b9190613992565b610d27565b005b34801561035e57600080fd5b5061037960048036038101906103749190613bca565b610d47565b6040516103869190614b91565b60405180910390f35b34801561039b57600080fd5b506103b660048036038101906103b19190613bca565b610dde565b6040516103c39190614776565b60405180910390f35b3480156103d857600080fd5b506103f360048036038101906103ee9190613904565b610e90565b6040516104009190614b91565b60405180910390f35b34801561041557600080fd5b5061041e610f48565b005b34801561042c57600080fd5b50610435610fd0565b6040516104429190614776565b60405180910390f35b34801561045757600080fd5b50610460610ffa565b60405161046d919061482f565b60405180910390f35b34801561048257600080fd5b5061048b61108c565b6040516104989190614b91565b60405180910390f35b3480156104ad57600080fd5b506104c860048036038101906104c39190613a5c565b611097565b005b3480156104d657600080fd5b506104f160048036038101906104ec9190613bca565b611218565b6040516104fe919061482f565b60405180910390f35b34801561051357600080fd5b5061051c61124f565b6040516105299190614b91565b60405180910390f35b34801561053e57600080fd5b50610559600480360381019061055491906139e1565b611255565b005b34801561056757600080fd5b50610582600480360381019061057d9190613bca565b6112b7565b60405161058f919061482f565b60405180910390f35b3480156105a457600080fd5b506105bf60048036038101906105ba9190613956565b6113ec565b6040516105cc9190614814565b60405180910390f35b3480156105e157600080fd5b506105fc60048036038101906105f79190613ad4565b611480565b005b610606611a69565b6040516106139190614b91565b60405180910390f35b34801561062857600080fd5b50610643600480360381019061063e9190613904565b611ae1565b005b34801561065157600080fd5b5061065a611bd9565b005b34801561066857600080fd5b50610683600480360381019061067e9190613bf3565b611c8f565b604051610697989796959493929190614bac565b60405180910390f35b60007f780e9d63000000000000000000000000000000000000000000000000000000007bffffffffffffffffffffffffffffffffffffffffffffffffffffffff1916827bffffffffffffffffffffffffffffffffffffffffffffffffffffffff19161480610713575061071282611d55565b5b9050919050565b60606000805461072990614f18565b80601f016020809104026020016040519081016040528092919081815260200182805461075590614f18565b80156107a25780601f10610777576101008083540402835291602001916107a2565b820191906000526020600020905b81548152906001019060200180831161078557829003601f168201915b5050505050905090565b60006107b782611e37565b6107f6576040517f08c379a00000000000000000000000000000000000000000000000000000000081526004016107ed90614a31565b60405180910390fd5b6004600083815260200190815260200160002060009054906101000a900473ffffffffffffffffffffffffffffffffffffffff169050919050565b600061083c82610dde565b90508073ffffffffffffffffffffffffffffffffffffffff168373ffffffffffffffffffffffffffffffffffffffff1614156108ad576040517f08c379a00000000000000000000000000000000000000000000000000000000081526004016108a490614ad1565b60405180910390fd5b8073ffffffffffffffffffffffffffffffffffffffff166108cc611ea3565b73ffffffffffffffffffffffffffffffffffffffff1614806108fb57506108fa816108f5611ea3565b6113ec565b5b61093a576040517f08c379a0000000000000000000000000000000000000000000000000000000008152600401610931906149b1565b60405180910390fd5b6109448383611eab565b505050565b6002600b54141561098f576040517f08c379a000000000000000000000000000000000000000000000000000000000815260040161098690614b71565b60405180910390fd5b6002600b819055506109a081610dde565b73ffffffffffffffffffffffffffffffffffffffff163373ffffffffffffffffffffffffffffffffffffffff161480610a0c57506109dd816107ac565b73ffffffffffffffffffffffffffffffffffffffff163373ffffffffffffffffffffffffffffffffffffffff16145b80610a255750610a24610a1e82610dde565b336113ec565b5b610a64576040517f08c379a0000000000000000000000000000000000000000000000000000000008152600401610a5b90614951565b60405180910390fd5b60005b600d600083815260200190815260200160002080549050811015610bea57600d60008381526020019081526020016000208181548110610ad0577f4e487b7100000000000000000000000000000000000000000000000000000000600052603260045260246000fd5b906000526020600020906003020160020160009054906101000a900473ffffffffffffffffffffffffffffffffffffffff1673ffffffffffffffffffffffffffffffffffffffff166323b872dd30610b2785610dde565b600d60008781526020019081526020016000208581548110610b72577f4e487b7100000000000000000000000000000000000000000000000000000000600052603260045260246000fd5b9060005260206000209060030201600101546040518463ffffffff1660e01b8152600401610ba293929190614791565b600060405180830381600087803b158015610bbc57600080fd5b505af1925050508015610bcd575060015b610bd657610bd7565b5b8080610be290614f7b565b915050610a67565b50600d60008281526020019081526020016000206000610c0a91906136cb565b6001600b8190555050565b6000600880549050905090565b610c33610c2d611ea3565b82611f64565b610c72576040517f08c379a0000000000000000000000000000000000000000000000000000000008152600401610c6990614af1565b60405180910390fd5b610c7d838383612042565b505050565b6000610c8d83610e90565b8210610cce576040517f08c379a0000000000000000000000000000000000000000000000000000000008152600401610cc590614871565b60405180910390fd5b600660008473ffffffffffffffffffffffffffffffffffffffff1673ffffffffffffffffffffffffffffffffffffffff168152602001908152602001600020600083815260200190815260200160002054905092915050565b610d4283838360405180602001604052806000815250611255565b505050565b6000610d51610c15565b8210610d92576040517f08c379a0000000000000000000000000000000000000000000000000000000008152600401610d8990614b11565b60405180910390fd5b60088281548110610dcc577f4e487b7100000000000000000000000000000000000000000000000000000000600052603260045260246000fd5b90600052602060002001549050919050565b6000806002600084815260200190815260200160002060009054906101000a900473ffffffffffffffffffffffffffffffffffffffff169050600073ffffffffffffffffffffffffffffffffffffffff168173ffffffffffffffffffffffffffffffffffffffff161415610e87576040517f08c379a0000000000000000000000000000000000000000000000000000000008152600401610e7e906149f1565b60405180910390fd5b80915050919050565b60008073ffffffffffffffffffffffffffffffffffffffff168273ffffffffffffffffffffffffffffffffffffffff161415610f01576040517f08c379a0000000000000000000000000000000000000000000000000000000008152600401610ef8906149d1565b60405180910390fd5b600360008373ffffffffffffffffffffffffffffffffffffffff1673ffffffffffffffffffffffffffffffffffffffff168152602001908152602001600020549050919050565b610f50611ea3565b73ffffffffffffffffffffffffffffffffffffffff16610f6e610fd0565b73ffffffffffffffffffffffffffffffffffffffff1614610fc4576040517f08c379a0000000000000000000000000000000000000000000000000000000008152600401610fbb90614a51565b60405180910390fd5b610fce600061229e565b565b6000600a60009054906101000a900473ffffffffffffffffffffffffffffffffffffffff16905090565b60606001805461100990614f18565b80601f016020809104026020016040519081016040528092919081815260200182805461103590614f18565b80156110825780601f1061105757610100808354040283529160200191611082565b820191906000526020600020905b81548152906001019060200180831161106557829003601f168201915b5050505050905090565b6611c37937e0800081565b61109f611ea3565b73ffffffffffffffffffffffffffffffffffffffff168273ffffffffffffffffffffffffffffffffffffffff16141561110d576040517f08c379a000000000000000000000000000000000000000000000000000000000815260040161110490614971565b60405180910390fd5b806005600061111a611ea3565b73ffffffffffffffffffffffffffffffffffffffff1673ffffffffffffffffffffffffffffffffffffffff16815260200190815260200160002060008473ffffffffffffffffffffffffffffffffffffffff1673ffffffffffffffffffffffffffffffffffffffff16815260200190815260200160002060006101000a81548160ff0219169083151502179055508173ffffffffffffffffffffffffffffffffffffffff166111c7611ea3565b73ffffffffffffffffffffffffffffffffffffffff167f17307eab39ab6107e8899845ad3d59bd9653f200f220920489ca2b5937696c318360405161120c9190614814565b60405180910390a35050565b6060600061122583612364565b604051602001611235919061471d565b604051602081830303815290604052905080915050919050565b600c5481565b611266611260611ea3565b83611f64565b6112a5576040517f08c379a000000000000000000000000000000000000000000000000000000000815260040161129c90614af1565b60405180910390fd5b6112b184848484612779565b50505050565b60606112c282611e37565b611301576040517f08c379a00000000000000000000000000000000000000000000000000000000081526004016112f890614ab1565b60405180910390fd5b600061130c836127d5565b60405160200161131c91906146fb565b6040516020818303038152906040529050600060405160200161133e906146e6565b6040516020818303038152906040529050600061136261135d86612982565b6129b9565b90506113c3838361139b60146113778a610dde565b73ffffffffffffffffffffffffffffffffffffffff16612b6490919063ffffffff16565b846040516020016113af949392919061465b565b6040516020818303038152906040526129b9565b6040516020016113d3919061473f565b6040516020818303038152906040529350505050919050565b6000600560008473ffffffffffffffffffffffffffffffffffffffff1673ffffffffffffffffffffffffffffffffffffffff16815260200190815260200160002060008373ffffffffffffffffffffffffffffffffffffffff1673ffffffffffffffffffffffffffffffffffffffff16815260200190815260200160002060009054906101000a900460ff16905092915050565b6002600b5414156114c6576040517f08c379a00000000000000000000000000000000000000000000000000000000081526004016114bd90614b71565b60405180910390fd5b6002600b8190555060008490503373ffffffffffffffffffffffffffffffffffffffff166114f384610dde565b73ffffffffffffffffffffffffffffffffffffffff1614611549576040517f08c379a000000000000000000000000000000000000000000000000000000000815260040161154090614a91565b60405180910390fd5b3073ffffffffffffffffffffffffffffffffffffffff168573ffffffffffffffffffffffffffffffffffffffff1614156115b8576040517f08c379a00000000000000000000000000000000000000000000000000000000081526004016115af90614851565b60405180910390fd5b60ff600d60008581526020019081526020016000208054905010611611576040517f08c379a0000000000000000000000000000000000000000000000000000000008152600401611608906148d1565b60405180910390fd5b8073ffffffffffffffffffffffffffffffffffffffff166323b872dd3330876040518463ffffffff1660e01b815260040161164e93929190614791565b600060405180830381600087803b15801561166857600080fd5b505af115801561167c573d6000803e3d6000fd5b505050503073ffffffffffffffffffffffffffffffffffffffff168173ffffffffffffffffffffffffffffffffffffffff16636352211e866040518263ffffffff1660e01b81526004016116d09190614b91565b60206040518083038186803b1580156116e857600080fd5b505afa1580156116fc573d6000803e3d6000fd5b505050506040513d601f19601f82011682018060405250810190611720919061392d565b73ffffffffffffffffffffffffffffffffffffffff1614611776576040517f08c379a000000000000000000000000000000000000000000000000000000000815260040161176d90614911565b60405180910390fd5b60006001436117859190614de0565b403330878760405160200161179e95949392919061447e565b604051602081830303815290604052805190602001209050600d60008581526020019081526020016000206040518061010001604052804381526020018781526020018873ffffffffffffffffffffffffffffffffffffffff16815260200183600060208110611837577f4e487b7100000000000000000000000000000000000000000000000000000000600052603260045260246000fd5b1a60f81b60f81c60ff16815260200183600160208110611880577f4e487b7100000000000000000000000000000000000000000000000000000000600052603260045260246000fd5b1a60f81b60f81c60ff1681526020018560ff168152602001836002602081106118d2577f4e487b7100000000000000000000000000000000000000000000000000000000600052603260045260246000fd5b1a60f81b60f81c60000b81526020018360036020811061191b577f4e487b7100000000000000000000000000000000000000000000000000000000600052603260045260246000fd5b1a60f81b60f81c60000b8152509080600181540180825580915050600190039060005260206000209060030201600090919091909150600082015181600001556020820151816001015560408201518160020160006101000a81548173ffffffffffffffffffffffffffffffffffffffff021916908373ffffffffffffffffffffffffffffffffffffffff16021790555060608201518160020160146101000a81548160ff021916908360ff16021790555060808201518160020160156101000a81548160ff021916908360ff16021790555060a08201518160020160166101000a81548160ff021916908360ff16021790555060c08201518160020160176101000a81548160ff021916908360000b60ff16021790555060e08201518160020160186101000a81548160ff021916908360000b60ff160217905550505050506001600b8190555050505050565b60006611c37937e08000341015611ab5576040517f08c379a0000000000000000000000000000000000000000000000000000000008152600401611aac90614b51565b60405180910390fd5b600c6000815480929190611ac890614f7b565b9190505550611ad933600c54612e1b565b600c54905090565b611ae9611ea3565b73ffffffffffffffffffffffffffffffffffffffff16611b07610fd0565b73ffffffffffffffffffffffffffffffffffffffff1614611b5d576040517f08c379a0000000000000000000000000000000000000000000000000000000008152600401611b5490614a51565b60405180910390fd5b600073ffffffffffffffffffffffffffffffffffffffff168173ffffffffffffffffffffffffffffffffffffffff161415611bcd576040517f08c379a0000000000000000000000000000000000000000000000000000000008152600401611bc4906148b1565b60405180910390fd5b611bd68161229e565b50565b6000611be3610fd0565b73ffffffffffffffffffffffffffffffffffffffff1647604051611c0690614761565b60006040518083038185875af1925050503d8060008114611c43576040519150601f19603f3d011682016040523d82523d6000602084013e611c48565b606091505b5050905080611c8c576040517f08c379a0000000000000000000000000000000000000000000000000000000008152600401611c8390614b31565b60405180910390fd5b50565b600d6020528160005260406000208181548110611cab57600080fd5b9060005260206000209060030201600091509150508060000154908060010154908060020160009054906101000a900473ffffffffffffffffffffffffffffffffffffffff16908060020160149054906101000a900460ff16908060020160159054906101000a900460ff16908060020160169054906101000a900460ff16908060020160179054906101000a900460000b908060020160189054906101000a900460000b905088565b60007f80ac58cd000000000000000000000000000000000000000000000000000000007bffffffffffffffffffffffffffffffffffffffffffffffffffffffff1916827bffffffffffffffffffffffffffffffffffffffffffffffffffffffff19161480611e2057507f5b5e139f000000000000000000000000000000000000000000000000000000007bffffffffffffffffffffffffffffffffffffffffffffffffffffffff1916827bffffffffffffffffffffffffffffffffffffffffffffffffffffffff1916145b80611e305750611e2f82612fe9565b5b9050919050565b60008073ffffffffffffffffffffffffffffffffffffffff166002600084815260200190815260200160002060009054906101000a900473ffffffffffffffffffffffffffffffffffffffff1673ffffffffffffffffffffffffffffffffffffffff1614159050919050565b600033905090565b816004600083815260200190815260200160002060006101000a81548173ffffffffffffffffffffffffffffffffffffffff021916908373ffffffffffffffffffffffffffffffffffffffff160217905550808273ffffffffffffffffffffffffffffffffffffffff16611f1e83610dde565b73ffffffffffffffffffffffffffffffffffffffff167f8c5be1e5ebec7d5bd14f71427d1e84f3dd0314c0f7b2291e5b200ac8c7c3b92560405160405180910390a45050565b6000611f6f82611e37565b611fae576040517f08c379a0000000000000000000000000000000000000000000000000000000008152600401611fa590614991565b60405180910390fd5b6000611fb983610dde565b90508073ffffffffffffffffffffffffffffffffffffffff168473ffffffffffffffffffffffffffffffffffffffff16148061202857508373ffffffffffffffffffffffffffffffffffffffff16612010846107ac565b73ffffffffffffffffffffffffffffffffffffffff16145b80612039575061203881856113ec565b5b91505092915050565b8273ffffffffffffffffffffffffffffffffffffffff1661206282610dde565b73ffffffffffffffffffffffffffffffffffffffff16146120b8576040517f08c379a00000000000000000000000000000000000000000000000000000000081526004016120af90614a71565b60405180910390fd5b600073ffffffffffffffffffffffffffffffffffffffff168273ffffffffffffffffffffffffffffffffffffffff161415612128576040517f08c379a000000000000000000000000000000000000000000000000000000000815260040161211f90614931565b60405180910390fd5b612133838383613053565b61213e600082611eab565b6001600360008573ffffffffffffffffffffffffffffffffffffffff1673ffffffffffffffffffffffffffffffffffffffff168152602001908152602001600020600082825461218e9190614de0565b925050819055506001600360008473ffffffffffffffffffffffffffffffffffffffff1673ffffffffffffffffffffffffffffffffffffffff16815260200190815260200160002060008282546121e59190614cff565b92505081905550816002600083815260200190815260200160002060006101000a81548173ffffffffffffffffffffffffffffffffffffffff021916908373ffffffffffffffffffffffffffffffffffffffff160217905550808273ffffffffffffffffffffffffffffffffffffffff168473ffffffffffffffffffffffffffffffffffffffff167fddf252ad1be2c89b69c2b068fc378daa952ba7f163c4a11628f55a4df523b3ef60405160405180910390a4505050565b6000600a60009054906101000a900473ffffffffffffffffffffffffffffffffffffffff16905081600a60006101000a81548173ffffffffffffffffffffffffffffffffffffffff021916908373ffffffffffffffffffffffffffffffffffffffff1602179055508173ffffffffffffffffffffffffffffffffffffffff168173ffffffffffffffffffffffffffffffffffffffff167f8be0079c531659141344cd1fd0a4f28419497f9722a3daafe3b4186f6b6457e060405160405180910390a35050565b6060600060405180602001604052806000815250905060005b600d6000858152602001908152602001600020805490508160ff16101561276e576000600d60008681526020019081526020016000208260ff16815481106123ee577f4e487b7100000000000000000000000000000000000000000000000000000000600052603260045260246000fd5b90600052602060002090600302016040518061010001604052908160008201548152602001600182015481526020016002820160009054906101000a900473ffffffffffffffffffffffffffffffffffffffff1673ffffffffffffffffffffffffffffffffffffffff1673ffffffffffffffffffffffffffffffffffffffff1681526020016002820160149054906101000a900460ff1660ff1660ff1681526020016002820160159054906101000a900460ff1660ff1660ff1681526020016002820160169054906101000a900460ff1660ff1660ff1681526020016002820160179054906101000a900460000b60000b60000b81526020016002820160189054906101000a900460000b60000b60000b815250509050600061010082600001514361251a9190614de0565b6125249190615026565b905060008061253c8460c00151848660600151613167565b91506125518460e00151848660800151613167565b9050856125608360ff166127d5565b61256c8360ff166127d5565b60405160200161257e93929190614524565b604051602081830303815290604052955060005b60648160ff161015612611576125ae8560c00151600185613167565b92506125c08560e00151600184613167565b9150866125cf8460ff166127d5565b6125db8460ff166127d5565b6040516020016125ed939291906144dd565b6040516020818303038152906040529650808061260990614fc4565b915050612592565b5060008460a001519050600060405180602001604052806000815250905060008260ff1614612675576126468260ff166127d5565b6126528360ff166127d5565b604051602001612663929190614616565b60405160208183030381529060405290505b6060866040015173ffffffffffffffffffffffffffffffffffffffff1663a2d6c6da88602001516040518263ffffffff1660e01b81526004016126b89190614b91565b60006040518083038186803b1580156126d057600080fd5b505afa92505050801561270657506040513d6000823e3d601f19601f820116820180604052508101906127039190613b89565b60015b61272a57604051806020016040528060008152509950505050505050505050612774565b809150508882826040516020016127439392919061458c565b604051602081830303815290604052985050505050505050808061276690614fc4565b91505061237d565b50809150505b919050565b612784848484612042565b612790848484846131a4565b6127cf576040517f08c379a00000000000000000000000000000000000000000000000000000000081526004016127c690614891565b60405180910390fd5b50505050565b6060600082141561281d576040518060400160405280600181526020017f3000000000000000000000000000000000000000000000000000000000000000815250905061297d565b600082905060005b6000821461284f57808061283890614f7b565b915050600a826128489190614d55565b9150612825565b60008167ffffffffffffffff811115612891577f4e487b7100000000000000000000000000000000000000000000000000000000600052604160045260246000fd5b6040519080825280601f01601f1916602001820160405280156128c35781602001600182028036833780820191505090505b5090505b60008514612976576001826128dc9190614de0565b9150600a856128eb9190615026565b60306128f79190614cff565b60f81b818381518110612933577f4e487b7100000000000000000000000000000000000000000000000000000000600052603260045260246000fd5b60200101907effffffffffffffffffffffffffffffffffffffffffffffffffffffffffffff1916908160001a905350600a8561296f9190614d55565b94506128c7565b8093505050505b919050565b6060600061298f83611218565b60405160200161299f91906145e9565b604051602081830303815290604052905080915050919050565b60606000825114156129dc57604051806020016040528060008152509050612b5f565b6000604051806060016040528060408152602001615d3d6040913990506000600360028551612a0b9190614cff565b612a159190614d55565b6004612a219190614d86565b90506000602082612a329190614cff565b67ffffffffffffffff811115612a71577f4e487b7100000000000000000000000000000000000000000000000000000000600052604160045260246000fd5b6040519080825280601f01601f191660200182016040528015612aa35781602001600182028036833780820191505090505b509050818152600183018586518101602084015b81831015612b1e576003830192508251603f8160121c1685015160f81b8252600182019150603f81600c1c1685015160f81b8252600182019150603f8160061c1685015160f81b8252600182019150603f811685015160f81b825260018201915050612ab7565b600389510660018114612b385760028114612b4857612b53565b613d3d60f01b6002830352612b53565b603d60f81b60018303525b50505050508093505050505b919050565b606060006002836002612b779190614d86565b612b819190614cff565b67ffffffffffffffff811115612bc0577f4e487b7100000000000000000000000000000000000000000000000000000000600052604160045260246000fd5b6040519080825280601f01601f191660200182016040528015612bf25781602001600182028036833780820191505090505b5090507f300000000000000000000000000000000000000000000000000000000000000081600081518110612c50577f4e487b7100000000000000000000000000000000000000000000000000000000600052603260045260246000fd5b60200101907effffffffffffffffffffffffffffffffffffffffffffffffffffffffffffff1916908160001a9053507f780000000000000000000000000000000000000000000000000000000000000081600181518110612cda577f4e487b7100000000000000000000000000000000000000000000000000000000600052603260045260246000fd5b60200101907effffffffffffffffffffffffffffffffffffffffffffffffffffffffffffff1916908160001a90535060006001846002612d1a9190614d86565b612d249190614cff565b90505b6001811115612e10577f3031323334353637383961626364656600000000000000000000000000000000600f861660108110612d8c577f4e487b7100000000000000000000000000000000000000000000000000000000600052603260045260246000fd5b1a60f81b828281518110612dc9577f4e487b7100000000000000000000000000000000000000000000000000000000600052603260045260246000fd5b60200101907effffffffffffffffffffffffffffffffffffffffffffffffffffffffffffff1916908160001a905350600485901c945080612e0990614eee565b9050612d27565b508091505092915050565b600073ffffffffffffffffffffffffffffffffffffffff168273ffffffffffffffffffffffffffffffffffffffff161415612e8b576040517f08c379a0000000000000000000000000000000000000000000000000000000008152600401612e8290614a11565b60405180910390fd5b612e9481611e37565b15612ed4576040517f08c379a0000000000000000000000000000000000000000000000000000000008152600401612ecb906148f1565b60405180910390fd5b612ee060008383613053565b6001600360008473ffffffffffffffffffffffffffffffffffffffff1673ffffffffffffffffffffffffffffffffffffffff1681526020019081526020016000206000828254612f309190614cff565b92505081905550816002600083815260200190815260200160002060006101000a81548173ffffffffffffffffffffffffffffffffffffffff021916908373ffffffffffffffffffffffffffffffffffffffff160217905550808273ffffffffffffffffffffffffffffffffffffffff16600073ffffffffffffffffffffffffffffffffffffffff167fddf252ad1be2c89b69c2b068fc378daa952ba7f163c4a11628f55a4df523b3ef60405160405180910390a45050565b60007f01ffc9a7000000000000000000000000000000000000000000000000000000007bffffffffffffffffffffffffffffffffffffffffffffffffffffffff1916827bffffffffffffffffffffffffffffffffffffffffffffffffffffffff1916149050919050565b61305e83838361333b565b600073ffffffffffffffffffffffffffffffffffffffff168373ffffffffffffffffffffffffffffffffffffffff1614156130a15761309c81613340565b6130e0565b8173ffffffffffffffffffffffffffffffffffffffff168373ffffffffffffffffffffffffffffffffffffffff16146130df576130de8382613389565b5b5b600073ffffffffffffffffffffffffffffffffffffffff168273ffffffffffffffffffffffffffffffffffffffff1614156131235761311e816134f6565b613162565b8273ffffffffffffffffffffffffffffffffffffffff168273ffffffffffffffffffffffffffffffffffffffff1614613161576131608282613639565b5b5b505050565b6000806000808660000b1261318a5785850291508184019050809250505061319d565b8560000385029150818403905080925050505b9392505050565b60006131c58473ffffffffffffffffffffffffffffffffffffffff166136b8565b1561332e578373ffffffffffffffffffffffffffffffffffffffff1663150b7a026131ee611ea3565b8786866040518563ffffffff1660e01b815260040161321094939291906147c8565b602060405180830381600087803b15801561322a57600080fd5b505af192505050801561325b57506040513d601f19601f820116820180604052508101906132589190613b60565b60015b6132de573d806000811461328b576040519150601f19603f3d011682016040523d82523d6000602084013e613290565b606091505b506000815114156132d6576040517f08c379a00000000000000000000000000000000000000000000000000000000081526004016132cd90614891565b60405180910390fd5b805181602001fd5b63150b7a0260e01b7bffffffffffffffffffffffffffffffffffffffffffffffffffffffff1916817bffffffffffffffffffffffffffffffffffffffffffffffffffffffff191614915050613333565b600190505b949350505050565b505050565b6008805490506009600083815260200190815260200160002081905550600881908060018154018082558091505060019003906000526020600020016000909190919091505550565b6000600161339684610e90565b6133a09190614de0565b9050600060076000848152602001908152602001600020549050818114613485576000600660008673ffffffffffffffffffffffffffffffffffffffff1673ffffffffffffffffffffffffffffffffffffffff168152602001908152602001600020600084815260200190815260200160002054905080600660008773ffffffffffffffffffffffffffffffffffffffff1673ffffffffffffffffffffffffffffffffffffffff168152602001908152602001600020600084815260200190815260200160002081905550816007600083815260200190815260200160002081905550505b6007600084815260200190815260200160002060009055600660008573ffffffffffffffffffffffffffffffffffffffff1673ffffffffffffffffffffffffffffffffffffffff16815260200190815260200160002060008381526020019081526020016000206000905550505050565b6000600160088054905061350a9190614de0565b9050600060096000848152602001908152602001600020549050600060088381548110613560577f4e487b7100000000000000000000000000000000000000000000000000000000600052603260045260246000fd5b9060005260206000200154905080600883815481106135a8577f4e487b7100000000000000000000000000000000000000000000000000000000600052603260045260246000fd5b90600052602060002001819055508160096000838152602001908152602001600020819055506009600085815260200190815260200160002060009055600880548061361d577f4e487b7100000000000000000000000000000000000000000000000000000000600052603160045260246000fd5b6001900381819060005260206000200160009055905550505050565b600061364483610e90565b905081600660008573ffffffffffffffffffffffffffffffffffffffff1673ffffffffffffffffffffffffffffffffffffffff168152602001908152602001600020600083815260200190815260200160002081905550806007600084815260200190815260200160002081905550505050565b600080823b905060008111915050919050565b50805460008255600302906000526020600020908101906136ec91906136ef565b50565b5b8082111561379d5760008082016000905560018201600090556002820160006101000a81549073ffffffffffffffffffffffffffffffffffffffff02191690556002820160146101000a81549060ff02191690556002820160156101000a81549060ff02191690556002820160166101000a81549060ff02191690556002820160176101000a81549060ff02191690556002820160186101000a81549060ff0219169055506003016136f0565b5090565b60006137b46137af84614c4f565b614c2a565b9050828152602081018484840111156137cc57600080fd5b6137d7848285614eac565b509392505050565b60006137f26137ed84614c80565b614c2a565b90508281526020810184848401111561380a57600080fd5b613815848285614ebb565b509392505050565b60008135905061382c81615cc9565b92915050565b60008151905061384181615cc9565b92915050565b60008135905061385681615ce0565b92915050565b60008135905061386b81615cf7565b92915050565b60008151905061388081615cf7565b92915050565b600082601f83011261389757600080fd5b81356138a78482602086016137a1565b91505092915050565b600082601f8301126138c157600080fd5b81516138d18482602086016137df565b91505092915050565b6000813590506138e981615d0e565b92915050565b6000813590506138fe81615d25565b92915050565b60006020828403121561391657600080fd5b60006139248482850161381d565b91505092915050565b60006020828403121561393f57600080fd5b600061394d84828501613832565b91505092915050565b6000806040838503121561396957600080fd5b60006139778582860161381d565b92505060206139888582860161381d565b9150509250929050565b6000806000606084860312156139a757600080fd5b60006139b58682870161381d565b93505060206139c68682870161381d565b92505060406139d7868287016138da565b9150509250925092565b600080600080608085870312156139f757600080fd5b6000613a058782880161381d565b9450506020613a168782880161381d565b9350506040613a27878288016138da565b925050606085013567ffffffffffffffff811115613a4457600080fd5b613a5087828801613886565b91505092959194509250565b60008060408385031215613a6f57600080fd5b6000613a7d8582860161381d565b9250506020613a8e85828601613847565b9150509250929050565b60008060408385031215613aab57600080fd5b6000613ab98582860161381d565b9250506020613aca858286016138da565b9150509250929050565b60008060008060808587031215613aea57600080fd5b6000613af88782880161381d565b9450506020613b09878288016138da565b9350506040613b1a878288016138da565b9250506060613b2b878288016138ef565b91505092959194509250565b600060208284031215613b4957600080fd5b6000613b578482850161385c565b91505092915050565b600060208284031215613b7257600080fd5b6000613b8084828501613871565b91505092915050565b600060208284031215613b9b57600080fd5b600082015167ffffffffffffffff811115613bb557600080fd5b613bc1848285016138b0565b91505092915050565b600060208284031215613bdc57600080fd5b6000613bea848285016138da565b91505092915050565b60008060408385031215613c0657600080fd5b6000613c14858286016138da565b9250506020613c25858286016138da565b9150509250929050565b613c3881614e14565b82525050565b613c4f613c4a82614e14565b614fee565b82525050565b613c5e81614e26565b82525050565b613c75613c7082614e32565b615000565b82525050565b6000613c8682614cb1565b613c908185614cc7565b9350613ca0818560208601614ebb565b613ca981615113565b840191505092915050565b613cbd81614e68565b82525050565b6000613cce82614cbc565b613cd88185614ce3565b9350613ce8818560208601614ebb565b613cf181615113565b840191505092915050565b6000613d0782614cbc565b613d118185614cf4565b9350613d21818560208601614ebb565b80840191505092915050565b6000613d3a600983614ce3565b9150613d4582615131565b602082019050919050565b6000613d5d604183614cf4565b9150613d688261515a565b604182019050919050565b6000613d80600a83614cf4565b9150613d8b826151cf565b600a82019050919050565b6000613da3600983614cf4565b9150613dae826151f8565b600982019050919050565b6000613dc6600383614cf4565b9150613dd182615221565b600382019050919050565b6000613de9602b83614ce3565b9150613df48261524a565b604082019050919050565b6000613e0c603283614ce3565b9150613e1782615299565b604082019050919050565b6000613e2f602683614ce3565b9150613e3a826152e8565b604082019050919050565b6000613e52600283614cf4565b9150613e5d82615337565b600282019050919050565b6000613e75601583614ce3565b9150613e8082615360565b602082019050919050565b6000613e98601c83614ce3565b9150613ea382615389565b602082019050919050565b6000613ebb600b83614cf4565b9150613ec6826153b2565b600b82019050919050565b6000613ede606683614cf4565b9150613ee9826153db565b606682019050919050565b6000613f01601383614ce3565b9150613f0c82615476565b602082019050919050565b6000613f24602483614ce3565b9150613f2f8261549f565b604082019050919050565b6000613f47602f83614ce3565b9150613f52826154ee565b604082019050919050565b6000613f6a601983614ce3565b9150613f758261553d565b602082019050919050565b6000613f8d602c83614ce3565b9150613f9882615566565b604082019050919050565b6000613fb0600383614cf4565b9150613fbb826155b5565b600382019050919050565b6000613fd3600183614cf4565b9150613fde826155de565b600182019050919050565b6000613ff6600183614cf4565b915061400182615607565b600182019050919050565b6000614019603883614ce3565b915061402482615630565b604082019050919050565b600061403c600183614cf4565b91506140478261567f565b600182019050919050565b600061405f602a83614ce3565b915061406a826156a8565b604082019050919050565b6000614082602983614ce3565b915061408d826156f7565b604082019050919050565b60006140a5600283614cf4565b91506140b082615746565b600282019050919050565b60006140c8602083614ce3565b91506140d38261576f565b602082019050919050565b60006140eb600d83614cf4565b91506140f682615798565b600d82019050919050565b600061410e602c83614ce3565b9150614119826157c1565b604082019050919050565b6000614131601283614cf4565b915061413c82615810565b601282019050919050565b6000614154602083614ce3565b915061415f82615839565b602082019050919050565b6000614177600d83614cf4565b915061418282615862565b600d82019050919050565b600061419a602983614ce3565b91506141a58261588b565b604082019050919050565b60006141bd601883614ce3565b91506141c8826158da565b602082019050919050565b60006141e0600483614cf4565b91506141eb82615903565b600482019050919050565b6000614203600983614cf4565b915061420e8261592c565b600982019050919050565b6000614226601583614ce3565b915061423182615955565b602082019050919050565b6000614249605b83614cf4565b91506142548261597e565b605b82019050919050565b600061426c600383614cf4565b9150614277826159f3565b600382019050919050565b600061428f602183614ce3565b915061429a82615a1c565b604082019050919050565b60006142b2601d83614cf4565b91506142bd82615a6b565b601d82019050919050565b60006142d5600083614cd8565b91506142e082615a94565b600082019050919050565b60006142f8603183614ce3565b915061430382615a97565b604082019050919050565b600061431b604883614cf4565b915061432682615ae6565b604882019050919050565b600061433e600283614cf4565b915061434982615b5b565b600282019050919050565b6000614361602c83614ce3565b915061436c82615b84565b604082019050919050565b6000614384601483614ce3565b915061438f82615bd3565b602082019050919050565b60006143a7601383614ce3565b91506143b282615bfc565b602082019050919050565b60006143ca601f83614ce3565b91506143d582615c25565b602082019050919050565b60006143ed600683614cf4565b91506143f882615c4e565b600682019050919050565b6000614410600883614cf4565b915061441b82615c77565b600882019050919050565b6000614433601a83614cf4565b915061443e82615ca0565b601a82019050919050565b61445281614e95565b82525050565b61446961446482614e95565b61501c565b82525050565b61447881614e9f565b82525050565b600061448a8288613c64565b60208201915061449a8287613c3e565b6014820191506144aa8286613c3e565b6014820191506144ba8285614458565b6020820191506144ca8284614458565b6020820191508190509695505050505050565b60006144e98286613cfc565b91506144f58285613cfc565b915061450082613fc6565b915061450c8284613cfc565b915061451782613fe9565b9150819050949350505050565b60006145308286613cfc565b915061453b82613db9565b915061454682613ed1565b915061455182614403565b915061455d8285613cfc565b915061456882613fc6565b91506145748284613cfc565b915061457f82613fe9565b9150819050949350505050565b60006145988286613cfc565b91506145a38261425f565b91506145ae8261430e565b91506145ba8285613cfc565b91506145c582614331565b91506145d18284613cfc565b91506145dc826141d3565b9150819050949350505050565b60006145f482613d50565b91506146008284613cfc565b915061460b826143e0565b915081905092915050565b600061462182613d73565b915061462d8285613cfc565b915061463882613fa3565b91506146448284613cfc565b915061464f8261402f565b91508190509392505050565b600061466682613d96565b91506146728287613cfc565b915061467d82614124565b91506146898286613cfc565b915061469482613e45565b915061469f826141f6565b91506146ab8285613cfc565b91506146b6826140de565b91506146c182614426565b91506146cd8284613cfc565b91506146d882614098565b915081905095945050505050565b60006146f182613eae565b9150819050919050565b60006147068261416a565b91506147128284613cfc565b915081905092915050565b60006147288261423c565b91506147348284613cfc565b915081905092915050565b600061474a826142a5565b91506147568284613cfc565b915081905092915050565b600061476c826142c8565b9150819050919050565b600060208201905061478b6000830184613c2f565b92915050565b60006060820190506147a66000830186613c2f565b6147b36020830185613c2f565b6147c06040830184614449565b949350505050565b60006080820190506147dd6000830187613c2f565b6147ea6020830186613c2f565b6147f76040830185614449565b81810360608301526148098184613c7b565b905095945050505050565b60006020820190506148296000830184613c55565b92915050565b600060208201905081810360008301526148498184613cc3565b905092915050565b6000602082019050818103600083015261486a81613d2d565b9050919050565b6000602082019050818103600083015261488a81613ddc565b9050919050565b600060208201905081810360008301526148aa81613dff565b9050919050565b600060208201905081810360008301526148ca81613e22565b9050919050565b600060208201905081810360008301526148ea81613e68565b9050919050565b6000602082019050818103600083015261490a81613e8b565b9050919050565b6000602082019050818103600083015261492a81613ef4565b9050919050565b6000602082019050818103600083015261494a81613f17565b9050919050565b6000602082019050818103600083015261496a81613f3a565b9050919050565b6000602082019050818103600083015261498a81613f5d565b9050919050565b600060208201905081810360008301526149aa81613f80565b9050919050565b600060208201905081810360008301526149ca8161400c565b9050919050565b600060208201905081810360008301526149ea81614052565b9050919050565b60006020820190508181036000830152614a0a81614075565b9050919050565b60006020820190508181036000830152614a2a816140bb565b9050919050565b60006020820190508181036000830152614a4a81614101565b9050919050565b60006020820190508181036000830152614a6a81614147565b9050919050565b60006020820190508181036000830152614a8a8161418d565b9050919050565b60006020820190508181036000830152614aaa816141b0565b9050919050565b60006020820190508181036000830152614aca81614219565b9050919050565b60006020820190508181036000830152614aea81614282565b9050919050565b60006020820190508181036000830152614b0a816142eb565b9050919050565b60006020820190508181036000830152614b2a81614354565b9050919050565b60006020820190508181036000830152614b4a81614377565b9050919050565b60006020820190508181036000830152614b6a8161439a565b9050919050565b60006020820190508181036000830152614b8a816143bd565b9050919050565b6000602082019050614ba66000830184614449565b92915050565b600061010082019050614bc2600083018b614449565b614bcf602083018a614449565b614bdc6040830189613c2f565b614be9606083018861446f565b614bf6608083018761446f565b614c0360a083018661446f565b614c1060c0830185613cb4565b614c1d60e0830184613cb4565b9998505050505050505050565b6000614c34614c45565b9050614c408282614f4a565b919050565b6000604051905090565b600067ffffffffffffffff821115614c6a57614c696150e4565b5b614c7382615113565b9050602081019050919050565b600067ffffffffffffffff821115614c9b57614c9a6150e4565b5b614ca482615113565b9050602081019050919050565b600081519050919050565b600081519050919050565b600082825260208201905092915050565b600081905092915050565b600082825260208201905092915050565b600081905092915050565b6000614d0a82614e95565b9150614d1583614e95565b9250827fffffffffffffffffffffffffffffffffffffffffffffffffffffffffffffffff03821115614d4a57614d49615057565b5b828201905092915050565b6000614d6082614e95565b9150614d6b83614e95565b925082614d7b57614d7a615086565b5b828204905092915050565b6000614d9182614e95565b9150614d9c83614e95565b9250817fffffffffffffffffffffffffffffffffffffffffffffffffffffffffffffffff0483118215151615614dd557614dd4615057565b5b828202905092915050565b6000614deb82614e95565b9150614df683614e95565b925082821015614e0957614e08615057565b5b828203905092915050565b6000614e1f82614e75565b9050919050565b60008115159050919050565b6000819050919050565b60007fffffffff0000000000000000000000000000000000000000000000000000000082169050919050565b60008160000b9050919050565b600073ffffffffffffffffffffffffffffffffffffffff82169050919050565b6000819050919050565b600060ff82169050919050565b82818337600083830152505050565b60005b83811015614ed9578082015181840152602081019050614ebe565b83811115614ee8576000848401525b50505050565b6000614ef982614e95565b91506000821415614f0d57614f0c615057565b5b600182039050919050565b60006002820490506001821680614f3057607f821691505b60208210811415614f4457614f436150b5565b5b50919050565b614f5382615113565b810181811067ffffffffffffffff82111715614f7257614f716150e4565b5b80604052505050565b6000614f8682614e95565b91507fffffffffffffffffffffffffffffffffffffffffffffffffffffffffffffffff821415614fb957614fb8615057565b5b600182019050919050565b6000614fcf82614e9f565b915060ff821415614fe357614fe2615057565b5b600182019050919050565b6000614ff98261500a565b9050919050565b6000819050919050565b600061501582615124565b9050919050565b6000819050919050565b600061503182614e95565b915061503c83614e95565b92508261504c5761504b615086565b5b828206905092915050565b7f4e487b7100000000000000000000000000000000000000000000000000000000600052601160045260246000fd5b7f4e487b7100000000000000000000000000000000000000000000000000000000600052601260045260246000fd5b7f4e487b7100000000000000000000000000000000000000000000000000000000600052602260045260246000fd5b7f4e487b7100000000000000000000000000000000000000000000000000000000600052604160045260246000fd5b6000601f19601f8301169050919050565b60008160601b9050919050565b7f6e69636520747279210000000000000000000000000000000000000000000000600082015250565b7f3c7376672077696474683d2233313022206865696768743d223331302220786d60008201527f6c6e733d22687474703a2f2f7777772e77332e6f72672f323030302f7376672260208201527f3e00000000000000000000000000000000000000000000000000000000000000604082015250565b7f76616c7565733d22302e00000000000000000000000000000000000000000000600082015250565b7f7b226e616d65223a220000000000000000000000000000000000000000000000600082015250565b7f3c673e0000000000000000000000000000000000000000000000000000000000600082015250565b7f455243373231456e756d657261626c653a206f776e657220696e646578206f7560008201527f74206f6620626f756e6473000000000000000000000000000000000000000000602082015250565b7f4552433732313a207472616e7366657220746f206e6f6e20455243373231526560008201527f63656976657220696d706c656d656e7465720000000000000000000000000000602082015250565b7f4f776e61626c653a206e6577206f776e657220697320746865207a65726f206160008201527f6464726573730000000000000000000000000000000000000000000000000000602082015250565b7f222c000000000000000000000000000000000000000000000000000000000000600082015250565b7f6d6178206c696d6974206f6620323535206e6674730000000000000000000000600082015250565b7f4552433732313a20746f6b656e20616c7265616479206d696e74656400000000600082015250565b7f4c6f6f6769652054616e6b000000000000000000000000000000000000000000600082015250565b7f3c616e696d6174655472616e73666f726d206174747269627574654e616d653d60008201527f227472616e73666f726d22206475723d223135303073222066696c6c3d22667260208201527f65657a652220747970653d227472616e736c617465222061646469746976653d60408201527f2273756d22200000000000000000000000000000000000000000000000000000606082015250565b7f4e4654206e6f74207472616e7366657272656400000000000000000000000000600082015250565b7f4552433732313a207472616e7366657220746f20746865207a65726f2061646460008201527f7265737300000000000000000000000000000000000000000000000000000000602082015250565b7f6f6e6c792074616e6b206f776e6572206f7220617070726f7665642063616e2060008201527f72657475726e20746865204e4654730000000000000000000000000000000000602082015250565b7f4552433732313a20617070726f766520746f2063616c6c657200000000000000600082015250565b7f4552433732313a206f70657261746f7220717565727920666f72206e6f6e657860008201527f697374656e7420746f6b656e0000000000000000000000000000000000000000602082015250565b7f20302e0000000000000000000000000000000000000000000000000000000000600082015250565b7f2000000000000000000000000000000000000000000000000000000000000000600082015250565b7f3b00000000000000000000000000000000000000000000000000000000000000600082015250565b7f4552433732313a20617070726f76652063616c6c6572206973206e6f74206f7760008201527f6e6572206e6f7220617070726f76656420666f7220616c6c0000000000000000602082015250565b7f2200000000000000000000000000000000000000000000000000000000000000600082015250565b7f4552433732313a2062616c616e636520717565727920666f7220746865207a6560008201527f726f206164647265737300000000000000000000000000000000000000000000602082015250565b7f4552433732313a206f776e657220717565727920666f72206e6f6e657869737460008201527f656e7420746f6b656e0000000000000000000000000000000000000000000000602082015250565b7f227d000000000000000000000000000000000000000000000000000000000000600082015250565b7f4552433732313a206d696e7420746f20746865207a65726f2061646472657373600082015250565b7f222c2022696d616765223a202200000000000000000000000000000000000000600082015250565b7f4552433732313a20617070726f76656420717565727920666f72206e6f6e657860008201527f697374656e7420746f6b656e0000000000000000000000000000000000000000602082015250565b7f222c20226465736372697074696f6e223a220000000000000000000000000000600082015250565b7f4f776e61626c653a2063616c6c6572206973206e6f7420746865206f776e6572600082015250565b7f4c6f6f6769652054616e6b202300000000000000000000000000000000000000600082015250565b7f4552433732313a207472616e73666572206f6620746f6b656e2074686174206960008201527f73206e6f74206f776e0000000000000000000000000000000000000000000000602082015250565b7f796f75206e65656420746f206f776e207468652074616e6b0000000000000000600082015250565b7f3c2f673e00000000000000000000000000000000000000000000000000000000600082015250565b7f226f776e6572223a220000000000000000000000000000000000000000000000600082015250565b7f746f6b656e20646f65736e206e6f742065786973740000000000000000000000600082015250565b7f3c7265637420783d22302220793d2230222077696474683d223331302220686560008201527f696768743d2233313022207374726f6b653d22626c61636b222066696c6c3d2260208201527f2338464239454222207374726f6b652d77696474683d2235222f3e0000000000604082015250565b7f222f3e0000000000000000000000000000000000000000000000000000000000600082015250565b7f4552433732313a20617070726f76616c20746f2063757272656e74206f776e6560008201527f7200000000000000000000000000000000000000000000000000000000000000602082015250565b7f646174613a6170706c69636174696f6e2f6a736f6e3b6261736536342c000000600082015250565b50565b7f4552433732313a207472616e736665722063616c6c6572206973206e6f74206f60008201527f776e6572206e6f7220617070726f766564000000000000000000000000000000602082015250565b7f3c616e696d6174655472616e73666f726d206174747269627574654e616d653d60008201527f227472616e73666f726d2220747970653d227363616c6522206164646974697660208201527f653d2273756d2220000000000000000000000000000000000000000000000000604082015250565b7f2f3e000000000000000000000000000000000000000000000000000000000000600082015250565b7f455243373231456e756d657261626c653a20676c6f62616c20696e646578206f60008201527f7574206f6620626f756e64730000000000000000000000000000000000000000602082015250565b7f636f756c64206e6f742073656e64206574686572000000000000000000000000600082015250565b7f53656e7420657468206e6f7420656e6f75676800000000000000000000000000600082015250565b7f5265656e7472616e637947756172643a207265656e7472616e742063616c6c00600082015250565b7f3c2f7376673e0000000000000000000000000000000000000000000000000000600082015250565b7f76616c7565733d22000000000000000000000000000000000000000000000000600082015250565b7f646174613a696d6167652f7376672b786d6c3b6261736536342c000000000000600082015250565b615cd281614e14565b8114615cdd57600080fd5b50565b615ce981614e26565b8114615cf457600080fd5b50565b615d0081614e3c565b8114615d0b57600080fd5b50565b615d1781614e95565b8114615d2257600080fd5b50565b615d2e81614e9f565b8114615d3957600080fd5b5056fe4142434445464748494a4b4c4d4e4f505152535455565758595a6162636465666768696a6b6c6d6e6f707172737475767778797a303132333435363738392b2fa2646970667358221220b2edebefc4d904011d890b46cf252ce04853fbdb05f272e52d6b98e60b15efb364736f6c63430008040033",
  "devdoc": {
    "kind": "dev",
    "methods": {
      "approve(address,uint256)": {
        "details": "See {IERC721-approve}."
      },
      "balanceOf(address)": {
        "details": "See {IERC721-balanceOf}."
      },
      "getApproved(uint256)": {
        "details": "See {IERC721-getApproved}."
      },
      "isApprovedForAll(address,address)": {
        "details": "See {IERC721-isApprovedForAll}."
      },
      "name()": {
        "details": "See {IERC721Metadata-name}."
      },
      "owner()": {
        "details": "Returns the address of the current owner."
      },
      "ownerOf(uint256)": {
        "details": "See {IERC721-ownerOf}."
      },
      "renounceOwnership()": {
        "details": "Leaves the contract without owner. It will not be possible to call `onlyOwner` functions anymore. Can only be called by the current owner. NOTE: Renouncing ownership will leave the contract without an owner, thereby removing any functionality that is only available to the owner."
      },
      "safeTransferFrom(address,address,uint256)": {
        "details": "See {IERC721-safeTransferFrom}."
      },
      "safeTransferFrom(address,address,uint256,bytes)": {
        "details": "See {IERC721-safeTransferFrom}."
      },
      "setApprovalForAll(address,bool)": {
        "details": "See {IERC721-setApprovalForAll}."
      },
      "supportsInterface(bytes4)": {
        "details": "See {IERC165-supportsInterface}."
      },
      "symbol()": {
        "details": "See {IERC721Metadata-symbol}."
      },
      "tokenByIndex(uint256)": {
        "details": "See {IERC721Enumerable-tokenByIndex}."
      },
      "tokenOfOwnerByIndex(address,uint256)": {
        "details": "See {IERC721Enumerable-tokenOfOwnerByIndex}."
      },
      "totalSupply()": {
        "details": "See {IERC721Enumerable-totalSupply}."
      },
      "transferFrom(address,address,uint256)": {
        "details": "See {IERC721-transferFrom}."
      },
      "transferOwnership(address)": {
        "details": "Transfers ownership of the contract to a new account (`newOwner`). Can only be called by the current owner."
      }
    },
    "version": 1
  },
  "userdoc": {
    "kind": "user",
    "methods": {},
    "version": 1
  },
  "storageLayout": {
    "storage": [
      {
        "astId": 169,
        "contract": "contracts/LoogieTank.sol:LoogieTank",
        "label": "_name",
        "offset": 0,
        "slot": "0",
        "type": "t_string_storage"
      },
      {
        "astId": 171,
        "contract": "contracts/LoogieTank.sol:LoogieTank",
        "label": "_symbol",
        "offset": 0,
        "slot": "1",
        "type": "t_string_storage"
      },
      {
        "astId": 175,
        "contract": "contracts/LoogieTank.sol:LoogieTank",
        "label": "_owners",
        "offset": 0,
        "slot": "2",
        "type": "t_mapping(t_uint256,t_address)"
      },
      {
        "astId": 179,
        "contract": "contracts/LoogieTank.sol:LoogieTank",
        "label": "_balances",
        "offset": 0,
        "slot": "3",
        "type": "t_mapping(t_address,t_uint256)"
      },
      {
        "astId": 183,
        "contract": "contracts/LoogieTank.sol:LoogieTank",
        "label": "_tokenApprovals",
        "offset": 0,
        "slot": "4",
        "type": "t_mapping(t_uint256,t_address)"
      },
      {
        "astId": 189,
        "contract": "contracts/LoogieTank.sol:LoogieTank",
        "label": "_operatorApprovals",
        "offset": 0,
        "slot": "5",
        "type": "t_mapping(t_address,t_mapping(t_address,t_bool))"
      },
      {
        "astId": 1108,
        "contract": "contracts/LoogieTank.sol:LoogieTank",
        "label": "_ownedTokens",
        "offset": 0,
        "slot": "6",
        "type": "t_mapping(t_address,t_mapping(t_uint256,t_uint256))"
      },
      {
        "astId": 1112,
        "contract": "contracts/LoogieTank.sol:LoogieTank",
        "label": "_ownedTokensIndex",
        "offset": 0,
        "slot": "7",
        "type": "t_mapping(t_uint256,t_uint256)"
      },
      {
        "astId": 1115,
        "contract": "contracts/LoogieTank.sol:LoogieTank",
        "label": "_allTokens",
        "offset": 0,
        "slot": "8",
        "type": "t_array(t_uint256)dyn_storage"
      },
      {
        "astId": 1119,
        "contract": "contracts/LoogieTank.sol:LoogieTank",
        "label": "_allTokensIndex",
        "offset": 0,
        "slot": "9",
        "type": "t_mapping(t_uint256,t_uint256)"
      },
      {
        "astId": 7,
        "contract": "contracts/LoogieTank.sol:LoogieTank",
        "label": "_owner",
        "offset": 0,
        "slot": "10",
        "type": "t_address"
      },
      {
        "astId": 114,
        "contract": "contracts/LoogieTank.sol:LoogieTank",
        "label": "_status",
        "offset": 0,
        "slot": "11",
        "type": "t_uint256"
      },
      {
        "astId": 2212,
        "contract": "contracts/LoogieTank.sol:LoogieTank",
        "label": "_tokenIds",
        "offset": 0,
        "slot": "12",
        "type": "t_uint256"
      },
      {
        "astId": 2243,
        "contract": "contracts/LoogieTank.sol:LoogieTank",
        "label": "componentByTankId",
        "offset": 0,
        "slot": "13",
        "type": "t_mapping(t_uint256,t_array(t_struct(Component)2237_storage)dyn_storage)"
      }
    ],
    "types": {
      "t_address": {
        "encoding": "inplace",
        "label": "address",
        "numberOfBytes": "20"
      },
      "t_array(t_struct(Component)2237_storage)dyn_storage": {
        "base": "t_struct(Component)2237_storage",
        "encoding": "dynamic_array",
        "label": "struct LoogieTank.Component[]",
        "numberOfBytes": "32"
      },
      "t_array(t_uint256)dyn_storage": {
        "base": "t_uint256",
        "encoding": "dynamic_array",
        "label": "uint256[]",
        "numberOfBytes": "32"
      },
      "t_bool": {
        "encoding": "inplace",
        "label": "bool",
        "numberOfBytes": "1"
      },
      "t_int8": {
        "encoding": "inplace",
        "label": "int8",
        "numberOfBytes": "1"
      },
      "t_mapping(t_address,t_bool)": {
        "encoding": "mapping",
        "key": "t_address",
        "label": "mapping(address => bool)",
        "numberOfBytes": "32",
        "value": "t_bool"
      },
      "t_mapping(t_address,t_mapping(t_address,t_bool))": {
        "encoding": "mapping",
        "key": "t_address",
        "label": "mapping(address => mapping(address => bool))",
        "numberOfBytes": "32",
        "value": "t_mapping(t_address,t_bool)"
      },
      "t_mapping(t_address,t_mapping(t_uint256,t_uint256))": {
        "encoding": "mapping",
        "key": "t_address",
        "label": "mapping(address => mapping(uint256 => uint256))",
        "numberOfBytes": "32",
        "value": "t_mapping(t_uint256,t_uint256)"
      },
      "t_mapping(t_address,t_uint256)": {
        "encoding": "mapping",
        "key": "t_address",
        "label": "mapping(address => uint256)",
        "numberOfBytes": "32",
        "value": "t_uint256"
      },
      "t_mapping(t_uint256,t_address)": {
        "encoding": "mapping",
        "key": "t_uint256",
        "label": "mapping(uint256 => address)",
        "numberOfBytes": "32",
        "value": "t_address"
      },
      "t_mapping(t_uint256,t_array(t_struct(Component)2237_storage)dyn_storage)": {
        "encoding": "mapping",
        "key": "t_uint256",
        "label": "mapping(uint256 => struct LoogieTank.Component[])",
        "numberOfBytes": "32",
        "value": "t_array(t_struct(Component)2237_storage)dyn_storage"
      },
      "t_mapping(t_uint256,t_uint256)": {
        "encoding": "mapping",
        "key": "t_uint256",
        "label": "mapping(uint256 => uint256)",
        "numberOfBytes": "32",
        "value": "t_uint256"
      },
      "t_string_storage": {
        "encoding": "bytes",
        "label": "string",
        "numberOfBytes": "32"
      },
      "t_struct(Component)2237_storage": {
        "encoding": "inplace",
        "label": "struct LoogieTank.Component",
        "members": [
          {
            "astId": 2222,
            "contract": "contracts/LoogieTank.sol:LoogieTank",
            "label": "blockAdded",
            "offset": 0,
            "slot": "0",
            "type": "t_uint256"
          },
          {
            "astId": 2224,
            "contract": "contracts/LoogieTank.sol:LoogieTank",
            "label": "id",
            "offset": 0,
            "slot": "1",
            "type": "t_uint256"
          },
          {
            "astId": 2226,
            "contract": "contracts/LoogieTank.sol:LoogieTank",
            "label": "addr",
            "offset": 0,
            "slot": "2",
            "type": "t_address"
          },
          {
            "astId": 2228,
            "contract": "contracts/LoogieTank.sol:LoogieTank",
            "label": "x",
            "offset": 20,
            "slot": "2",
            "type": "t_uint8"
          },
          {
            "astId": 2230,
            "contract": "contracts/LoogieTank.sol:LoogieTank",
            "label": "y",
            "offset": 21,
            "slot": "2",
            "type": "t_uint8"
          },
          {
            "astId": 2232,
            "contract": "contracts/LoogieTank.sol:LoogieTank",
            "label": "scale",
            "offset": 22,
            "slot": "2",
            "type": "t_uint8"
          },
          {
            "astId": 2234,
            "contract": "contracts/LoogieTank.sol:LoogieTank",
            "label": "dx",
            "offset": 23,
            "slot": "2",
            "type": "t_int8"
          },
          {
            "astId": 2236,
            "contract": "contracts/LoogieTank.sol:LoogieTank",
            "label": "dy",
            "offset": 24,
            "slot": "2",
            "type": "t_int8"
          }
        ],
        "numberOfBytes": "96"
      },
      "t_uint256": {
        "encoding": "inplace",
        "label": "uint256",
        "numberOfBytes": "32"
      },
      "t_uint8": {
        "encoding": "inplace",
        "label": "uint8",
        "numberOfBytes": "1"
      }
    }
  }
}