{
  "_format": "hh-sol-artifact-1",
  "contractName": "YourContract",
  "sourceName": "contracts/YourContract.sol",
  "abi": [
    {
      "inputs": [],
      "stateMutability": "payable",
      "type": "constructor"
    },
    {
      "anonymous": false,
      "inputs": [
        {
          "indexed": false,
          "internalType": "address",
          "name": "owner",
          "type": "address"
        },
        {
          "indexed": false,
          "internalType": "uint16",
          "name": "x",
          "type": "uint16"
        },
        {
          "indexed": false,
          "internalType": "uint16",
          "name": "y",
          "type": "uint16"
        },
        {
          "indexed": false,
          "internalType": "int8",
          "name": "dx",
          "type": "int8"
        },
        {
          "indexed": false,
          "internalType": "int8",
          "name": "dy",
          "type": "int8"
        },
        {
          "indexed": false,
          "internalType": "string",
          "name": "emoji",
          "type": "string"
        },
        {
          "indexed": false,
          "internalType": "uint64",
          "name": "stopAfter",
          "type": "uint64"
        },
        {
          "indexed": false,
          "internalType": "uint64",
          "name": "startTime",
          "type": "uint64"
        }
      ],
      "name": "Agent",
      "type": "event"
    },
    {
      "anonymous": false,
      "inputs": [
        {
          "indexed": true,
          "internalType": "address",
          "name": "previousOwner",
          "type": "address"
        },
        {
          "indexed": true,
          "internalType": "address",
          "name": "newOwner",
          "type": "address"
        }
      ],
      "name": "OwnershipTransferred",
      "type": "event"
    },
    {
      "anonymous": false,
      "inputs": [
        {
          "indexed": false,
          "internalType": "address",
          "name": "owner",
          "type": "address"
        },
        {
          "indexed": false,
          "internalType": "uint16",
          "name": "x",
          "type": "uint16"
        },
        {
          "indexed": false,
          "internalType": "uint16",
          "name": "y",
          "type": "uint16"
        },
        {
          "indexed": false,
          "internalType": "string",
          "name": "emoji",
          "type": "string"
        }
      ],
      "name": "Structure",
      "type": "event"
    },
    {
      "stateMutability": "payable",
      "type": "fallback"
    },
    {
      "inputs": [
        {
          "internalType": "uint16",
          "name": "x",
          "type": "uint16"
        },
        {
          "internalType": "uint16",
          "name": "y",
          "type": "uint16"
        },
        {
          "internalType": "int8",
          "name": "dx",
          "type": "int8"
        },
        {
          "internalType": "int8",
          "name": "dy",
          "type": "int8"
        },
        {
          "internalType": "string",
          "name": "emoji",
          "type": "string"
        },
        {
          "internalType": "uint64",
          "name": "stopAfter",
          "type": "uint64"
        }
      ],
      "name": "agent",
      "outputs": [],
      "stateMutability": "nonpayable",
      "type": "function"
    },
    {
      "inputs": [],
      "name": "owner",
      "outputs": [
        {
          "internalType": "address",
          "name": "",
          "type": "address"
        }
      ],
      "stateMutability": "view",
      "type": "function"
    },
    {
      "inputs": [],
      "name": "renounceOwnership",
      "outputs": [],
      "stateMutability": "nonpayable",
      "type": "function"
    },
    {
      "inputs": [
        {
          "internalType": "uint16",
          "name": "x",
          "type": "uint16"
        },
        {
          "internalType": "uint16",
          "name": "y",
          "type": "uint16"
        },
        {
          "internalType": "string",
          "name": "emoji",
          "type": "string"
        }
      ],
      "name": "structure",
      "outputs": [],
      "stateMutability": "nonpayable",
      "type": "function"
    },
    {
      "inputs": [
        {
          "internalType": "address",
          "name": "newOwner",
          "type": "address"
        }
      ],
      "name": "transferOwnership",
      "outputs": [],
      "stateMutability": "nonpayable",
      "type": "function"
    },
    {
      "stateMutability": "payable",
      "type": "receive"
    }
  ],
  "bytecode": "0x608060405261000d33610012565b610062565b600080546001600160a01b038381166001600160a01b0319831681178455604051919092169283917f8be0079c531659141344cd1fd0a4f28419497f9722a3daafe3b4186f6b6457e09190a35050565b6105e9806100716000396000f3fe60806040526004361061004b5760003560e01c80635660aa9714610054578063715018a6146100745780638da5cb5b14610089578063ceee83e5146100b5578063f2fde38b146100d557005b3661005257005b005b34801561006057600080fd5b5061005261006f366004610446565b6100f5565b34801561008057600080fd5b5061005261013f565b34801561009557600080fd5b50600054604080516001600160a01b039092168252519081900360200190f35b3480156100c157600080fd5b506100526100d03660046103ae565b610153565b3480156100e157600080fd5b506100526100f0366004610380565b6101a8565b6100fd610226565b7f61d14d56ac96d5db758a7324ce359b7c68a46e199f2cfcfa7c1be5cd978ef32433848484604051610132949392919061055d565b60405180910390a1505050565b610147610226565b6101516000610280565b565b61015b610226565b7f7428b3b2a71652ec6f86b8658dea27ddb5d13210addb26f15365605b5155b13f33878787878787426040516101989897969594939291906104ed565b60405180910390a1505050505050565b6101b0610226565b6001600160a01b03811661021a5760405162461bcd60e51b815260206004820152602660248201527f4f776e61626c653a206e6577206f776e657220697320746865207a65726f206160448201526564647265737360d01b60648201526084015b60405180910390fd5b61022381610280565b50565b6000546001600160a01b031633146101515760405162461bcd60e51b815260206004820181905260248201527f4f776e61626c653a2063616c6c6572206973206e6f7420746865206f776e65726044820152606401610211565b600080546001600160a01b038381166001600160a01b0319831681178455604051919092169283917f8be0079c531659141344cd1fd0a4f28419497f9722a3daafe3b4186f6b6457e09190a35050565b8035600081900b81146102e257600080fd5b919050565b600082601f8301126102f7578081fd5b813567ffffffffffffffff808211156103125761031261059d565b604051601f8301601f19908116603f0116810190828211818310171561033a5761033a61059d565b81604052838152866020858801011115610352578485fd5b8360208701602083013792830160200193909352509392505050565b803561ffff811681146102e257600080fd5b600060208284031215610391578081fd5b81356001600160a01b03811681146103a7578182fd5b9392505050565b60008060008060008060c087890312156103c6578182fd5b6103cf8761036e565b95506103dd6020880161036e565b94506103eb604088016102d0565b93506103f9606088016102d0565b9250608087013567ffffffffffffffff80821115610415578384fd5b6104218a838b016102e7565b935060a089013591508082168214610437578283fd5b50809150509295509295509295565b60008060006060848603121561045a578283fd5b6104638461036e565b92506104716020850161036e565b9150604084013567ffffffffffffffff81111561048c578182fd5b610498868287016102e7565b9150509250925092565b60008151808452815b818110156104c7576020818501810151868301820152016104ab565b818111156104d85782602083870101525b50601f01601f19169290920160200192915050565b6001600160a01b038916815261ffff888116602083015287166040820152600086810b606083015285810b608083015261010060a08301819052610533838201876104a2565b91505067ffffffffffffffff80851660c084015280841660e0840152509998505050505050505050565b6001600160a01b038516815261ffff848116602083015283166040820152608060608201819052600090610593908301846104a2565b9695505050505050565b634e487b7160e01b600052604160045260246000fdfea264697066735822122099942e4970f64da5abf2598cd125c264031a193f2d9aee9912b63cee6ec101ab64736f6c63430008040033",
  "linkReferences": {},
  "deployedLinkReferences": {}
}