{
  "_format": "hh-sol-artifact-1",
  "contractName": "YourContract",
  "sourceName": "contracts/YourContract.sol",
  "abi": [
    {
      "inputs": [],
      "stateMutability": "payable",
      "type": "constructor"
    },
    {
      "anonymous": false,
      "inputs": [
        {
          "indexed": false,
          "internalType": "address",
          "name": "owner",
          "type": "address"
        },
        {
          "indexed": false,
          "internalType": "uint16",
          "name": "x",
          "type": "uint16"
        },
        {
          "indexed": false,
          "internalType": "uint16",
          "name": "y",
          "type": "uint16"
        },
        {
          "indexed": false,
          "internalType": "int8",
          "name": "dx",
          "type": "int8"
        },
        {
          "indexed": false,
          "internalType": "int8",
          "name": "dy",
          "type": "int8"
        },
        {
          "indexed": false,
          "internalType": "string",
          "name": "emoji",
          "type": "string"
        },
        {
          "indexed": false,
          "internalType": "uint64",
          "name": "stopAfter",
          "type": "uint64"
        },
        {
          "indexed": false,
          "internalType": "uint64",
          "name": "startTime",
          "type": "uint64"
        }
      ],
      "name": "AgentRender",
      "type": "event"
    },
    {
      "anonymous": false,
      "inputs": [
        {
          "indexed": true,
          "internalType": "address",
          "name": "previousOwner",
          "type": "address"
        },
        {
          "indexed": true,
          "internalType": "address",
          "name": "newOwner",
          "type": "address"
        }
      ],
      "name": "OwnershipTransferred",
      "type": "event"
    },
    {
      "anonymous": false,
      "inputs": [
        {
          "indexed": false,
          "internalType": "address",
          "name": "owner",
          "type": "address"
        },
        {
          "indexed": false,
          "internalType": "uint16",
          "name": "x",
          "type": "uint16"
        },
        {
          "indexed": false,
          "internalType": "uint16",
          "name": "y",
          "type": "uint16"
        },
        {
          "indexed": false,
          "internalType": "string",
          "name": "emoji",
          "type": "string"
        }
      ],
      "name": "StructureRender",
      "type": "event"
    },
    {
      "stateMutability": "payable",
      "type": "fallback"
    },
    {
      "inputs": [
        {
          "internalType": "uint16",
          "name": "x",
          "type": "uint16"
        },
        {
          "internalType": "uint16",
          "name": "y",
          "type": "uint16"
        },
        {
          "internalType": "int8",
          "name": "dx",
          "type": "int8"
        },
        {
          "internalType": "int8",
          "name": "dy",
          "type": "int8"
        },
        {
          "internalType": "string",
          "name": "emoji",
          "type": "string"
        },
        {
          "internalType": "uint64",
          "name": "stopAfter",
          "type": "uint64"
        }
      ],
      "name": "agent",
      "outputs": [
        {
          "internalType": "uint256",
          "name": "",
          "type": "uint256"
        }
      ],
      "stateMutability": "nonpayable",
      "type": "function"
    },
    {
      "inputs": [
        {
          "internalType": "uint256",
          "name": "agentId",
          "type": "uint256"
        },
        {
          "internalType": "uint256",
          "name": "structureId",
          "type": "uint256"
        }
      ],
      "name": "agentDistanceFromStructure",
      "outputs": [
        {
          "internalType": "uint256",
          "name": "",
          "type": "uint256"
        }
      ],
      "stateMutability": "view",
      "type": "function"
    },
    {
      "inputs": [
        {
          "internalType": "uint256",
          "name": "agentId",
          "type": "uint256"
        }
      ],
      "name": "agentLocation",
      "outputs": [
        {
          "internalType": "uint16",
          "name": "",
          "type": "uint16"
        },
        {
          "internalType": "uint16",
          "name": "",
          "type": "uint16"
        }
      ],
      "stateMutability": "view",
      "type": "function"
    },
    {
      "inputs": [
        {
          "internalType": "uint256",
          "name": "",
          "type": "uint256"
        }
      ],
      "name": "agents",
      "outputs": [
        {
          "internalType": "uint16",
          "name": "x",
          "type": "uint16"
        },
        {
          "internalType": "uint16",
          "name": "y",
          "type": "uint16"
        },
        {
          "internalType": "int8",
          "name": "dx",
          "type": "int8"
        },
        {
          "internalType": "int8",
          "name": "dy",
          "type": "int8"
        },
        {
          "internalType": "string",
          "name": "emoji",
          "type": "string"
        },
        {
          "internalType": "uint64",
          "name": "stopAfter",
          "type": "uint64"
        },
        {
          "internalType": "uint64",
          "name": "startTime",
          "type": "uint64"
        }
      ],
      "stateMutability": "view",
      "type": "function"
    },
    {
      "inputs": [
        {
          "internalType": "uint16",
          "name": "x1",
          "type": "uint16"
        },
        {
          "internalType": "uint16",
          "name": "y1",
          "type": "uint16"
        },
        {
          "internalType": "uint16",
          "name": "x2",
          "type": "uint16"
        },
        {
          "internalType": "uint16",
          "name": "y2",
          "type": "uint16"
        }
      ],
      "name": "distance",
      "outputs": [
        {
          "internalType": "uint256",
          "name": "",
          "type": "uint256"
        }
      ],
      "stateMutability": "pure",
      "type": "function"
    },
    {
      "inputs": [
        {
          "internalType": "uint16",
          "name": "x",
          "type": "uint16"
        },
        {
          "internalType": "uint16",
          "name": "y",
          "type": "uint16"
        },
        {
          "internalType": "uint256",
          "name": "structureId",
          "type": "uint256"
        }
      ],
      "name": "distanceFromStructure",
      "outputs": [
        {
          "internalType": "uint256",
          "name": "",
          "type": "uint256"
        }
      ],
      "stateMutability": "view",
      "type": "function"
    },
    {
      "inputs": [],
      "name": "owner",
      "outputs": [
        {
          "internalType": "address",
          "name": "",
          "type": "address"
        }
      ],
      "stateMutability": "view",
      "type": "function"
    },
    {
      "inputs": [],
      "name": "renounceOwnership",
      "outputs": [],
      "stateMutability": "nonpayable",
      "type": "function"
    },
    {
      "inputs": [],
      "name": "someAgentId",
      "outputs": [
        {
          "internalType": "uint256",
          "name": "",
          "type": "uint256"
        }
      ],
      "stateMutability": "view",
      "type": "function"
    },
    {
      "inputs": [
        {
          "internalType": "uint16",
          "name": "x",
          "type": "uint16"
        },
        {
          "internalType": "uint16",
          "name": "y",
          "type": "uint16"
        },
        {
          "internalType": "string",
          "name": "emoji",
          "type": "string"
        }
      ],
      "name": "structure",
      "outputs": [
        {
          "internalType": "uint256",
          "name": "",
          "type": "uint256"
        }
      ],
      "stateMutability": "nonpayable",
      "type": "function"
    },
    {
      "inputs": [
        {
          "internalType": "uint256",
          "name": "",
          "type": "uint256"
        }
      ],
      "name": "structures",
      "outputs": [
        {
          "internalType": "uint16",
          "name": "x",
          "type": "uint16"
        },
        {
          "internalType": "uint16",
          "name": "y",
          "type": "uint16"
        },
        {
          "internalType": "string",
          "name": "emoji",
          "type": "string"
        }
      ],
      "stateMutability": "view",
      "type": "function"
    },
    {
      "inputs": [
        {
          "internalType": "address",
          "name": "newOwner",
          "type": "address"
        }
      ],
      "name": "transferOwnership",
      "outputs": [],
      "stateMutability": "nonpayable",
      "type": "function"
    },
    {
      "stateMutability": "payable",
      "type": "receive"
    }
  ],
  "bytecode": "0x60806040526200000f33620000c2565b620000426107d0614e2060405180604001604052806004815260200163784fc7d160e11b8152506200011260201b60201c565b506200007e610bb8614e20607e19600060405180604001604052806004815260200163f09f9a9760e01b8152506127106200023060201b60201c565b50620000b9610fa0619c40604d600060405180604001604052806004815260200163f09f918960e01b8152506127106200023060201b60201c565b60015562000667565b600080546001600160a01b038381166001600160a01b0319831681178455604051919092169283917f8be0079c531659141344cd1fd0a4f28419497f9722a3daafe3b4186f6b6457e09190a35050565b60006200011e620003fe565b6040805160608101825261ffff80871682528581166020808401918252938301868152600280546001810182556000829052855191027f405787fa12a823e0f2b7631cc41b3ba8828b3321ca811111fa75cd3aa3bb5ace8101805494518616620100000263ffffffff19909516929095169190911792909217835551805193949293620001d5937f405787fa12a823e0f2b7631cc41b3ba8828b3321ca811111fa75cd3aa3bb5acf9093019291909101906200045f565b5050507fc0aa3672f7f7855648798ab12e271ac88e6bab362041761af2c0531ad60e6959338585856040516200020f9493929190620005c4565b60405180910390a1600254620002289060019062000606565b949350505050565b60006200023c620003fe565b6040805160e08101825261ffff808a168252888116602080840191825260008a810b95850195865289810b60608601908152608086018a81526001600160401b03808b1660a0890152421660c088015260038054600181018255818552885191027fc2575a0e9e593c00f959f8c92f12db2869c3395a3b0502d05e2516446f71f85b8101805497519a519451860b60ff908116650100000000000260ff60281b199690970b16640100000000029490941661ffff60201b199a8916620100000263ffffffff199098169290981691909117959095179790971694909417178355935180519394929362000359937fc2575a0e9e593c00f959f8c92f12db2869c3395a3b0502d05e2516446f71f85c9093019291909101906200045f565b5060a08201516002909101805460c0909301516001600160401b0390811668010000000000000000026001600160801b03199094169216919091179190911790556040517f19af523cd59fc4378f786bff4bed01cbb94be3631a40efd82d8cf3bcb624479390620003da9033908a908a908a908a908a908a90429062000553565b60405180910390a1600354620003f39060019062000606565b979650505050505050565b6000546001600160a01b031633146200045d5760405162461bcd60e51b815260206004820181905260248201527f4f776e61626c653a2063616c6c6572206973206e6f7420746865206f776e6572604482015260640160405180910390fd5b565b8280546200046d906200062a565b90600052602060002090601f016020900481019282620004915760008555620004dc565b82601f10620004ac57805160ff1916838001178555620004dc565b82800160010185558215620004dc579182015b82811115620004dc578251825591602001919060010190620004bf565b50620004ea929150620004ee565b5090565b5b80821115620004ea5760008155600101620004ef565b60008151808452815b818110156200052c576020818501810151868301820152016200050e565b818111156200053e5782602083870101525b50601f01601f19169290920160200192915050565b6001600160a01b038916815261ffff888116602083015287166040820152600086810b606083015285810b608083015261010060a083018190526200059b8382018762000505565b6001600160401b0395861660c08501529390941660e09092019190915250979650505050505050565b6001600160a01b038516815261ffff848116602083015283166040820152608060608201819052600090620005fc9083018462000505565b9695505050505050565b6000828210156200062557634e487b7160e01b81526011600452602481fd5b500390565b600181811c908216806200063f57607f821691505b602082108114156200066157634e487b7160e01b600052602260045260246000fd5b50919050565b61132880620006776000396000f3fe6080604052600436106100a55760003560e01c80638da5cb5b116100615780638da5cb5b1461017f5780639e3cb488146101a7578063ceee83e5146101d6578063dfa9af28146101f6578063edafceed14610216578063f2fde38b1461025157005b806320e57959146100ae5780634aec63ef146100d7578063513856c8146100f75780635660aa971461012a57806370d7d8161461014a578063715018a61461016a57005b366100ac57005b005b3480156100ba57600080fd5b506100c460015481565b6040519081526020015b60405180910390f35b3480156100e357600080fd5b506100c46100f2366004610fed565b610271565b34801561010357600080fd5b50610117610112366004611028565b610382565b6040516100ce979695949392919061115b565b34801561013657600080fd5b506100c4610145366004610f3f565b610479565b34801561015657600080fd5b506100c4610165366004610f9a565b61058f565b34801561017657600080fd5b506100ac6106a3565b34801561018b57600080fd5b506000546040516001600160a01b0390911681526020016100ce565b3480156101b357600080fd5b506101c76101c2366004611028565b6106b7565b6040516100ce939291906111b6565b3480156101e257600080fd5b506100c46101f1366004610ea8565b61077f565b34801561020257600080fd5b506100c4610211366004611040565b610941565b34801561022257600080fd5b50610236610231366004611028565b61095f565b6040805161ffff9384168152929091166020830152016100ce565b34801561025d57600080fd5b506100ac61026c366004610e7a565b610b9f565b6000806002838154811061029557634e487b7160e01b600052603260045260246000fd5b6000918252602091829020604080516060810182526002909302909101805461ffff8082168552620100009091041693830193909352600183018054929392918401916102e190611273565b80601f016020809104026020016040519081016040528092919081815260200182805461030d90611273565b801561035a5780601f1061032f5761010080835404028352916020019161035a565b820191906000526020600020905b81548152906001019060200180831161033d57829003601f168201915b505050505081525050905061037985858360000151846020015161058f565b95945050505050565b6003818154811061039257600080fd5b600091825260208220600390910201805460018201805461ffff808416965062010000840416946401000000008404810b9465010000000000909404900b9291906103dc90611273565b80601f016020809104026020016040519081016040528092919081815260200182805461040890611273565b80156104555780601f1061042a57610100808354040283529160200191610455565b820191906000526020600020905b81548152906001019060200180831161043857829003601f168201915b505050600290930154919250506001600160401b0380821691600160401b90041687565b6000610483610c1d565b6040805160608101825261ffff80871682528581166020808401918252938301868152600280546001810182556000829052855191027f405787fa12a823e0f2b7631cc41b3ba8828b3321ca811111fa75cd3aa3bb5ace8101805494518616620100000263ffffffff19909516929095169190911792909217835551805193949293610538937f405787fa12a823e0f2b7631cc41b3ba8828b3321ca811111fa75cd3aa3bb5acf909301929190910190610d37565b5050507fc0aa3672f7f7855648798ab12e271ac88e6bab362041761af2c0531ad60e695933858585604051610570949392919061111b565b60405180910390a160025461058790600190611234565b949350505050565b6000808361ffff168661ffff1611156105d4576105b361ffff808616908816611234565b90506180008111156105cf576105cc8162010000611234565b90505b610601565b6105e561ffff808816908616611234565b9050618000811115610601576105fe8162010000611234565b90505b60008361ffff168661ffff1611156106455761062461ffff808616908816611234565b90506180008111156106405761063d8162010000611234565b90505b610672565b61065661ffff808816908616611234565b90506180008111156106725761066f8162010000611234565b90505b61069861067f8280611215565b6106898480611215565b61069391906111dd565b610c77565b979650505050505050565b6106ab610c1d565b6106b56000610ce7565b565b600281815481106106c757600080fd5b60009182526020909120600290910201805460018201805461ffff80841695506201000090930490921692916106fc90611273565b80601f016020809104026020016040519081016040528092919081815260200182805461072890611273565b80156107755780601f1061074a57610100808354040283529160200191610775565b820191906000526020600020905b81548152906001019060200180831161075857829003601f168201915b5050505050905083565b6000610789610c1d565b6040805160e08101825261ffff808a168252888116602080840191825260008a810b95850195865289810b60608601908152608086018a81526001600160401b03808b1660a0890152421660c088015260038054600181018255818552885191027fc2575a0e9e593c00f959f8c92f12db2869c3395a3b0502d05e2516446f71f85b8101805497519a519451860b60ff908116650100000000000265ff0000000000199690970b16640100000000029490941665ffff00000000199a8916620100000263ffffffff19909816929098169190911795909517979097169490941717835593518051939492936108a7937fc2575a0e9e593c00f959f8c92f12db2869c3395a3b0502d05e2516446f71f85c909301929190910190610d37565b5060a08201516002909101805460c0909301516001600160401b03908116600160401b026fffffffffffffffffffffffffffffffff199094169216919091179190911790556040517f19af523cd59fc4378f786bff4bed01cbb94be3631a40efd82d8cf3bcb62447939061092a9033908a908a908a908a908a908a9042906110ac565b60405180910390a160035461069890600190611234565b600080600061094f8561095f565b9092509050610379828286610271565b60008060006003848154811061098557634e487b7160e01b600052603260045260246000fd5b600091825260208083206040805160e0810182526003909402909101805461ffff808216865262010000820416938501939093526401000000008304850b850b850b9184019190915265010000000000909104830b830b90920b60608201526001820180549192916080840191906109fc90611273565b80601f0160208091040260200160405190810160405280929190818152602001828054610a2890611273565b8015610a755780601f10610a4a57610100808354040283529160200191610a75565b820191906000526020600020905b815481529060010190602001808311610a5857829003601f168201915b5050509183525050600291909101546001600160401b038082166020840152600160401b9091041660409091015260c0810151909150600090610ab8904261124b565b905060008260a001516001600160401b0316118015610aec57508160a001516001600160401b0316816001600160401b0316115b15610af8575060a08101515b81516040830151600090810b1315610b2157604083015160ff16820261ffff9190911601610b44565b60008360400151610b31906112a8565b60ff16830261ffff929092169190910390505b60208301516060840151600090810b1315610b7057606084015160ff16830261ffff9190911601610b93565b60008460600151610b80906112a8565b60ff16840261ffff929092169190910390505b90969095509350505050565b610ba7610c1d565b6001600160a01b038116610c115760405162461bcd60e51b815260206004820152602660248201527f4f776e61626c653a206e6577206f776e657220697320746865207a65726f206160448201526564647265737360d01b60648201526084015b60405180910390fd5b610c1a81610ce7565b50565b6000546001600160a01b031633146106b55760405162461bcd60e51b815260206004820181905260248201527f4f776e61626c653a2063616c6c6572206973206e6f7420746865206f776e65726044820152606401610c08565b60006003821115610cd85750806000610c916002836111f5565b610c9c9060016111dd565b90505b81811015610cd257905080600281610cb781866111f5565b610cc191906111dd565b610ccb91906111f5565b9050610c9f565b50919050565b8115610ce2575060015b919050565b600080546001600160a01b038381166001600160a01b0319831681178455604051919092169283917f8be0079c531659141344cd1fd0a4f28419497f9722a3daafe3b4186f6b6457e09190a35050565b828054610d4390611273565b90600052602060002090601f016020900481019282610d655760008555610dab565b82601f10610d7e57805160ff1916838001178555610dab565b82800160010185558215610dab579182015b82811115610dab578251825591602001919060010190610d90565b50610db7929150610dbb565b5090565b5b80821115610db75760008155600101610dbc565b8035600081900b8114610ce257600080fd5b600082601f830112610df2578081fd5b81356001600160401b0380821115610e0c57610e0c6112dc565b604051601f8301601f19908116603f01168101908282118183101715610e3457610e346112dc565b81604052838152866020858801011115610e4c578485fd5b8360208701602083013792830160200193909352509392505050565b803561ffff81168114610ce257600080fd5b600060208284031215610e8b578081fd5b81356001600160a01b0381168114610ea1578182fd5b9392505050565b60008060008060008060c08789031215610ec0578182fd5b610ec987610e68565b9550610ed760208801610e68565b9450610ee560408801610dd0565b9350610ef360608801610dd0565b925060808701356001600160401b0380821115610f0e578384fd5b610f1a8a838b01610de2565b935060a089013591508082168214610f30578283fd5b50809150509295509295509295565b600080600060608486031215610f53578283fd5b610f5c84610e68565b9250610f6a60208501610e68565b915060408401356001600160401b03811115610f84578182fd5b610f9086828701610de2565b9150509250925092565b60008060008060808587031215610faf578384fd5b610fb885610e68565b9350610fc660208601610e68565b9250610fd460408601610e68565b9150610fe260608601610e68565b905092959194509250565b600080600060608486031215611001578283fd5b61100a84610e68565b925061101860208501610e68565b9150604084013590509250925092565b600060208284031215611039578081fd5b5035919050565b60008060408385031215611052578182fd5b50508035926020909101359150565b60008151808452815b818110156110865760208185018101518683018201520161106a565b818111156110975782602083870101525b50601f01601f19169290920160200192915050565b6001600160a01b038916815261ffff888116602083015287166040820152600086810b606083015285810b608083015261010060a083018190526110f283820187611061565b9150506001600160401b0380851660c084015280841660e0840152509998505050505050505050565b6001600160a01b038516815261ffff84811660208301528316604082015260806060820181905260009061115190830184611061565b9695505050505050565b600061ffff808a16835280891660208401525086810b604083015285810b606083015260e0608083015261119260e0830186611061565b6001600160401b0394851660a08401529290931660c0909101529695505050505050565b600061ffff8086168352808516602084015250606060408301526103796060830184611061565b600082198211156111f0576111f06112c6565b500190565b60008261121057634e487b7160e01b81526012600452602481fd5b500490565b600081600019048311821515161561122f5761122f6112c6565b500290565b600082821015611246576112466112c6565b500390565b60006001600160401b038381169083168181101561126b5761126b6112c6565b039392505050565b600181811c9082168061128757607f821691505b60208210811415610cd257634e487b7160e01b600052602260045260246000fd5b600081810b607f198114156112bf576112bf6112c6565b9003919050565b634e487b7160e01b600052601160045260246000fd5b634e487b7160e01b600052604160045260246000fdfea2646970667358221220ad458abfd8de218d92331e38126527e51fa39d232e15ec7b118abf94bb3b9bf564736f6c63430008040033",
  "linkReferences": {},
  "deployedLinkReferences": {}
}